{
	"data": {
		"bytecode": {
			"linkReferences": {},
			"object": "6080604052348015600e575f5ffd5b506131288061001c5f395ff3fe608060405234801561000f575f5ffd5b506004361061011e575f3560e01c8063541d63c8116100ab578063bc197c811161006f578063bc197c8114610350578063bd61951d14610380578063e86637db146103b0578063f23a6e61146103e0578063f698da25146104105761011e565b8063541d63c81461029a5780636ac24784146102b65780637bb37428146102e6578063b2494df314610302578063bbe5dc4f146103205761011e565b8063137e051e116100f2578063137e051e146101bc578063150b7a02146101da5780631626ba7e1461020a57806319822f7c1461023a578063230316401461026a5761011e565b806223de291461012257806301ffc9a71461013e5780630681ebde1461016e5780630a1028c41461018c575b5f5ffd5b61013c60048036038101906101379190611890565b61042e565b005b610158600480360381019061015391906119af565b610438565b60405161016591906119f4565b60405180910390f35b610176610571565b6040516101839190611a1c565b60405180910390f35b6101a660048036038101906101a19190611b6d565b610577565b6040516101b39190611bcc565b60405180910390f35b6101c4610589565b6040516101d19190611a1c565b60405180910390f35b6101f460048036038101906101ef9190611be5565b6105ad565b6040516102019190611c78565b60405180910390f35b610224600480360381019061021f9190611cbb565b6105c9565b6040516102319190611c78565b60405180910390f35b610254600480360381019061024f9190611d3b565b61074d565b6040516102619190611db6565b60405180910390f35b610284600480360381019061027f9190611e1b565b610a08565b6040516102919190611ed5565b60405180910390f35b6102b460048036038101906102af9190611f2b565b610b02565b005b6102d060048036038101906102cb9190611e1b565b610c2b565b6040516102dd9190611bcc565b60405180910390f35b61030060048036038101906102fb9190611f2b565b610c45565b005b61030a610d8c565b6040516103179190612062565b60405180910390f35b61033a60048036038101906103359190612082565b610e1d565b6040516103479190611bcc565b60405180910390f35b61036a6004803603810190610365919061211e565b610e3e565b6040516103779190611c78565b60405180910390f35b61039a600480360381019061039591906121f5565b610e5d565b6040516103a79190611ed5565b60405180910390f35b6103ca60048036038101906103c59190612275565b610ed3565b6040516103d79190611ed5565b60405180910390f35b6103fa60048036038101906103f5919061236e565b611002565b6040516104079190611c78565b60405180910390f35b61041861101f565b6040516104259190611bcc565b60405180910390f35b5050505050505050565b5f7f4e2312e0000000000000000000000000000000000000000000000000000000007bffffffffffffffffffffffffffffffffffffffffffffffffffffffff1916827bffffffffffffffffffffffffffffffffffffffffffffffffffffffff1916148061050257507f150b7a02000000000000000000000000000000000000000000000000000000007bffffffffffffffffffffffffffffffffffffffffffffffffffffffff1916827bffffffffffffffffffffffffffffffffffffffffffffffffffffffff1916145b8061056a57507f01ffc9a7000000000000000000000000000000000000000000000000000000007bffffffffffffffffffffffffffffffffffffffffffffffffffffffff1916827bffffffffffffffffffffffffffffffffffffffffffffffffffffffff1916145b9050919050565b61088881565b5f6105823383610c2b565b9050919050565b5f5f9054906101000a900473ffffffffffffffffffffffffffffffffffffffff1681565b5f6105b6611072565b63150b7a0260e01b905095945050505050565b5f5f3390505f6105f882876040516020016105e49190611bcc565b604051602081830303815290604052610a08565b90505f818051906020012090505f86869050036106cd575f8373ffffffffffffffffffffffffffffffffffffffff16635ae6bd37836040518263ffffffff1660e01b81526004016106499190611bcc565b602060405180830381865afa158015610664573d5f5f3e3d5ffd5b505050506040513d601f19601f820116820180604052508101906106889190612418565b036106c8576040517f08c379a00000000000000000000000000000000000000000000000000000000081526004016106bf9061249d565b60405180910390fd5b610739565b8273ffffffffffffffffffffffffffffffffffffffff1663f855438b5f8389896040518563ffffffff1660e01b815260040161070c94939291906124e7565b5f6040518083038186803b158015610722575f5ffd5b505afa158015610734573d5f5f3e3d5ffd5b505050505b631626ba7e60e01b93505050509392505050565b5f5f5f9054906101000a900473ffffffffffffffffffffffffffffffffffffffff1673ffffffffffffffffffffffffffffffffffffffff1661078d6111a0565b73ffffffffffffffffffffffffffffffffffffffff16146107da576040517f85db247d00000000000000000000000000000000000000000000000000000000815260040160405180910390fd5b5f845f0160208101906107ed9190612525565b90503373ffffffffffffffffffffffffffffffffffffffff168173ffffffffffffffffffffffffffffffffffffffff1614610854576040517f48f5c3ed00000000000000000000000000000000000000000000000000000000815260040160405180910390fd5b5f858060600190610865919061255c565b9061087091906125d4565b9050637bb3742860e01b7bffffffffffffffffffffffffffffffffffffffffffffffffffffffff1916817bffffffffffffffffffffffffffffffffffffffffffffffffffffffff19161415801561090c575063541d63c860e01b7bffffffffffffffffffffffffffffffffffffffffffffffffffffffff1916817bffffffffffffffffffffffffffffffffffffffffffffffffffffffff191614155b1561094e57806040517f45c229ce0000000000000000000000000000000000000000000000000000000081526004016109459190611c78565b60405180910390fd5b610957866111f5565b92505f84146109ff578173ffffffffffffffffffffffffffffffffffffffff1663468721a75f5f9054906101000a900473ffffffffffffffffffffffffffffffffffffffff16865f6040518463ffffffff1660e01b81526004016109bd93929190612697565b6020604051808303815f875af11580156109d9573d5f5f3e3d5ffd5b505050506040513d601f19601f820116820180604052508101906109fd9190612709565b505b50509392505050565b60605f7f60b3cbf8b4a223d68d641b3b6ddf9a298e7f33710cf3d3a9d1146b5a6150fbca5f1b8380519060200120604051602001610a47929190612734565b604051602081830303815290604052805190602001209050601960f81b600160f81b8573ffffffffffffffffffffffffffffffffffffffff1663f698da256040518163ffffffff1660e01b8152600401602060405180830381865afa158015610ab2573d5f5f3e3d5ffd5b505050506040513d601f19601f82011682018060405250810190610ad6919061276f565b83604051602001610aea9493929190612805565b60405160208183030381529060405291505092915050565b5f5f9054906101000a900473ffffffffffffffffffffffffffffffffffffffff1673ffffffffffffffffffffffffffffffffffffffff16610b416111a0565b73ffffffffffffffffffffffffffffffffffffffff1614610b8e576040517f85db247d00000000000000000000000000000000000000000000000000000000815260040160405180910390fd5b5f5f3373ffffffffffffffffffffffffffffffffffffffff16635229073f878787876040518563ffffffff1660e01b8152600401610bcf9493929190612861565b5f604051808303815f875af1158015610bea573d5f5f3e3d5ffd5b505050506040513d5f823e3d601f19601f82011682018060405250810190610c129190612919565b9150915081610c2357805160208201fd5b505050505050565b5f610c368383610a08565b80519060200120905092915050565b5f5f9054906101000a900473ffffffffffffffffffffffffffffffffffffffff1673ffffffffffffffffffffffffffffffffffffffff16610c846111a0565b73ffffffffffffffffffffffffffffffffffffffff1614610cd1576040517f85db247d00000000000000000000000000000000000000000000000000000000815260040160405180910390fd5b3373ffffffffffffffffffffffffffffffffffffffff1663468721a7858585856040518563ffffffff1660e01b8152600401610d109493929190612861565b6020604051808303815f875af1158015610d2c573d5f5f3e3d5ffd5b505050506040513d601f19601f82011682018060405250810190610d509190612709565b610d86576040517facfdb44400000000000000000000000000000000000000000000000000000000815260040160405180910390fd5b50505050565b60605f3390505f8173ffffffffffffffffffffffffffffffffffffffff1663cc2f84526001600a6040518363ffffffff1660e01b8152600401610dd09291906129ac565b5f60405180830381865afa158015610dea573d5f5f3e3d5ffd5b505050506040513d5f823e3d601f19601f82011682018060405250810190610e129190612aa7565b509050809250505090565b5f5f610e288361133d565b5050505090508080519060200120915050919050565b5f610e47611072565b63bc197c8160e01b905098975050505050505050565b60606040517fb4faba090000000000000000000000000000000000000000000000000000000081526004360360048083013760405f36835f335af160403d10811715610ea7575f5ffd5b60208051016040519350808401604052806020853e5f51610ec9578060208501fd5b5050509392505050565b60605f3390505f8173ffffffffffffffffffffffffffffffffffffffff1663f698da256040518163ffffffff1660e01b8152600401602060405180830381865afa158015610f23573d5f5f3e3d5ffd5b505050506040513d601f19601f82011682018060405250810190610f47919061276f565b90505f7fbb8310d486368db6bd6f849402fdd73ad53d316b5a4b2644ad6efe0f941286d85f1b8f8f8f8f604051610f7f929190612b2f565b60405180910390208e8e8e8e8e8e8e604051602001610fa89b9a99989796959493929190612bba565b604051602081830303815290604052805190602001209050601960f81b600160f81b8383604051602001610fdf9493929190612805565b60405160208183030381529060405293505050509b9a5050505050505050505050565b5f61100b611072565b63f23a6e6160e01b90509695505050505050565b5f7f47e79534a245952e8b16893a336b85a3d9ea9fa8c573f3d803afb92a794692185f1b463060405160200161105793929190612cb5565b60405160208183030381529060405280519060200120905090565b5f3373ffffffffffffffffffffffffffffffffffffffff16635624b25b7f6c9a6c4a39284e37ed1cf53d337577d14212a4870fb976a4366c693b939918d55f1b5f1c60016040518363ffffffff1660e01b81526004016110d3929190612d23565b5f60405180830381865afa1580156110ed573d5f5f3e3d5ffd5b505050506040513d5f823e3d601f19601f820116820180604052508101906111159190612d4a565b90505f8180602001905181019061112c9190612dbb565b90503073ffffffffffffffffffffffffffffffffffffffff168173ffffffffffffffffffffffffffffffffffffffff161461119c576040517f08c379a000000000000000000000000000000000000000000000000000000000815260040161119390612e30565b60405180910390fd5b5050565b5f60145f36905010156111e8576040517f08c379a00000000000000000000000000000000000000000000000000000000081526004016111df90612e98565b60405180910390fd5b601436033560601c905090565b5f5f5f5f365f6112048761133d565b945094509450945094505f61129783838a5f0160208101906112269190612525565b73ffffffffffffffffffffffffffffffffffffffff1663e75235b86040518163ffffffff1660e01b8152600401602060405180830381865afa15801561126e573d5f5f3e3d5ffd5b505050506040513d601f19601f820116820180604052508101906112929190612418565b6115d3565b9050875f0160208101906112ab9190612525565b73ffffffffffffffffffffffffffffffffffffffff1663934f3a1187805190602001208886866040518563ffffffff1660e01b81526004016112f09493929190612eb6565b5f6040518083038186803b158015611306575f5ffd5b505afa925050508015611317575060015b611323575f9050611324565b5b611330811585876116dd565b9650505050505050919050565b60605f5f365f365f87806101000190611356919061255c565b9150915081815f9060069261136d93929190612f03565b906113789190612f68565b60d01c95508181600690600c9261139193929190612f03565b9061139c9190612f68565b60d01c94508181600c9080926113b493929190612f03565b9350935050505f604051806101c001604052807fc03dfc11d8b10bf9cf703d558958c8c42777f785d998c62060d85a4f0ef6ea7f5f1b8152602001885f0160208101906114019190612525565b73ffffffffffffffffffffffffffffffffffffffff16815260200188602001358152602001888060400190611436919061255c565b604051611444929190612b2f565b60405180910390208152602001888060600190611461919061255c565b60405161146f929190612b2f565b6040518091039020815260200161148589611711565b6fffffffffffffffffffffffffffffffff1681526020016114a589611726565b6fffffffffffffffffffffffffffffffff1681526020018860a0013581526020016114cf8961173b565b6fffffffffffffffffffffffffffffffff1681526020016114ef89611750565b6fffffffffffffffffffffffffffffffff168152602001888060e00190611516919061255c565b604051611524929190612b2f565b604051809103902081526020018665ffffffffffff1681526020018565ffffffffffff1681526020015f5f9054906101000a900473ffffffffffffffffffffffffffffffffffffffff1673ffffffffffffffffffffffffffffffffffffffff1681525090505f6101c082209050601960f81b600160f81b6115a361101f565b836040516020016115b79493929190612805565b6040516020818303038152906040529650505091939590929450565b5f5f6041836115e29190612ff3565b9050808585905010156115f8575f9150506116d6565b5f5f90505b838110156116ca575f6041826116139190612ff3565b90505f87876040846116259190613034565b81811061163557611634613067565b5b9050013560f81c60f81b60f81c90505f8160ff16036116bb575f888860208561165e9190613034565b90809261166d93929190612f03565b906116789190613094565b5f1c90505f89898390809261168f93929190612f03565b9061169a9190613094565b5f1c90508060206116ab9190613034565b866116b69190613034565b955050505b505080806001019150506115fd565b50808585905011159150505b9392505050565b5f60d08265ffffffffffff16901b60a08465ffffffffffff16901b85611703575f611706565b60015b171790509392505050565b5f61171f8260800135611765565b9050919050565b5f6117348260800135611774565b9050919050565b5f6117498260c00135611765565b9050919050565b5f61175e8260c00135611774565b9050919050565b5f6080825f1c901c9050919050565b5f815f1c6fffffffffffffffffffffffffffffffff169050919050565b5f604051905090565b5f5ffd5b5f5ffd5b5f73ffffffffffffffffffffffffffffffffffffffff82169050919050565b5f6117cb826117a2565b9050919050565b6117db816117c1565b81146117e5575f5ffd5b50565b5f813590506117f6816117d2565b92915050565b5f819050919050565b61180e816117fc565b8114611818575f5ffd5b50565b5f8135905061182981611805565b92915050565b5f5ffd5b5f5ffd5b5f5ffd5b5f5f83601f8401126118505761184f61182f565b5b8235905067ffffffffffffffff81111561186d5761186c611833565b5b60208301915083600182028301111561188957611888611837565b5b9250929050565b5f5f5f5f5f5f5f5f60c0898b0312156118ac576118ab61179a565b5b5f6118b98b828c016117e8565b98505060206118ca8b828c016117e8565b97505060406118db8b828c016117e8565b96505060606118ec8b828c0161181b565b955050608089013567ffffffffffffffff81111561190d5761190c61179e565b5b6119198b828c0161183b565b945094505060a089013567ffffffffffffffff81111561193c5761193b61179e565b5b6119488b828c0161183b565b92509250509295985092959890939650565b5f7fffffffff0000000000000000000000000000000000000000000000000000000082169050919050565b61198e8161195a565b8114611998575f5ffd5b50565b5f813590506119a981611985565b92915050565b5f602082840312156119c4576119c361179a565b5b5f6119d18482850161199b565b91505092915050565b5f8115159050919050565b6119ee816119da565b82525050565b5f602082019050611a075f8301846119e5565b92915050565b611a16816117c1565b82525050565b5f602082019050611a2f5f830184611a0d565b92915050565b5f5ffd5b5f601f19601f8301169050919050565b7f4e487b71000000000000000000000000000000000000000000000000000000005f52604160045260245ffd5b611a7f82611a39565b810181811067ffffffffffffffff82111715611a9e57611a9d611a49565b5b80604052505050565b5f611ab0611791565b9050611abc8282611a76565b919050565b5f67ffffffffffffffff821115611adb57611ada611a49565b5b611ae482611a39565b9050602081019050919050565b828183375f83830152505050565b5f611b11611b0c84611ac1565b611aa7565b905082815260208101848484011115611b2d57611b2c611a35565b5b611b38848285611af1565b509392505050565b5f82601f830112611b5457611b5361182f565b5b8135611b64848260208601611aff565b91505092915050565b5f60208284031215611b8257611b8161179a565b5b5f82013567ffffffffffffffff811115611b9f57611b9e61179e565b5b611bab84828501611b40565b91505092915050565b5f819050919050565b611bc681611bb4565b82525050565b5f602082019050611bdf5f830184611bbd565b92915050565b5f5f5f5f5f60808688031215611bfe57611bfd61179a565b5b5f611c0b888289016117e8565b9550506020611c1c888289016117e8565b9450506040611c2d8882890161181b565b935050606086013567ffffffffffffffff811115611c4e57611c4d61179e565b5b611c5a8882890161183b565b92509250509295509295909350565b611c728161195a565b82525050565b5f602082019050611c8b5f830184611c69565b92915050565b611c9a81611bb4565b8114611ca4575f5ffd5b50565b5f81359050611cb581611c91565b92915050565b5f5f5f60408486031215611cd257611cd161179a565b5b5f611cdf86828701611ca7565b935050602084013567ffffffffffffffff811115611d0057611cff61179e565b5b611d0c8682870161183b565b92509250509250925092565b5f5ffd5b5f6101208284031215611d3257611d31611d18565b5b81905092915050565b5f5f5f60608486031215611d5257611d5161179a565b5b5f84013567ffffffffffffffff811115611d6f57611d6e61179e565b5b611d7b86828701611d1c565b9350506020611d8c86828701611ca7565b9250506040611d9d8682870161181b565b9150509250925092565b611db0816117fc565b82525050565b5f602082019050611dc95f830184611da7565b92915050565b5f611dd9826117a2565b9050919050565b5f611dea82611dcf565b9050919050565b611dfa81611de0565b8114611e04575f5ffd5b50565b5f81359050611e1581611df1565b92915050565b5f5f60408385031215611e3157611e3061179a565b5b5f611e3e85828601611e07565b925050602083013567ffffffffffffffff811115611e5f57611e5e61179e565b5b611e6b85828601611b40565b9150509250929050565b5f81519050919050565b5f82825260208201905092915050565b8281835e5f83830152505050565b5f611ea782611e75565b611eb18185611e7f565b9350611ec1818560208601611e8f565b611eca81611a39565b840191505092915050565b5f6020820190508181035f830152611eed8184611e9d565b905092915050565b5f60ff82169050919050565b611f0a81611ef5565b8114611f14575f5ffd5b50565b5f81359050611f2581611f01565b92915050565b5f5f5f5f60808587031215611f4357611f4261179a565b5b5f611f50878288016117e8565b9450506020611f618782880161181b565b935050604085013567ffffffffffffffff811115611f8257611f8161179e565b5b611f8e87828801611b40565b9250506060611f9f87828801611f17565b91505092959194509250565b5f81519050919050565b5f82825260208201905092915050565b5f819050602082019050919050565b611fdd816117c1565b82525050565b5f611fee8383611fd4565b60208301905092915050565b5f602082019050919050565b5f61201082611fab565b61201a8185611fb5565b935061202583611fc5565b805f5b8381101561205557815161203c8882611fe3565b975061204783611ffa565b925050600181019050612028565b5085935050505092915050565b5f6020820190508181035f83015261207a8184612006565b905092915050565b5f602082840312156120975761209661179a565b5b5f82013567ffffffffffffffff8111156120b4576120b361179e565b5b6120c084828501611d1c565b91505092915050565b5f5f83601f8401126120de576120dd61182f565b5b8235905067ffffffffffffffff8111156120fb576120fa611833565b5b60208301915083602082028301111561211757612116611837565b5b9250929050565b5f5f5f5f5f5f5f5f60a0898b03121561213a5761213961179a565b5b5f6121478b828c016117e8565b98505060206121588b828c016117e8565b975050604089013567ffffffffffffffff8111156121795761217861179e565b5b6121858b828c016120c9565b9650965050606089013567ffffffffffffffff8111156121a8576121a761179e565b5b6121b48b828c016120c9565b9450945050608089013567ffffffffffffffff8111156121d7576121d661179e565b5b6121e38b828c0161183b565b92509250509295985092959890939650565b5f5f5f6040848603121561220c5761220b61179a565b5b5f612219868287016117e8565b935050602084013567ffffffffffffffff81111561223a5761223961179e565b5b6122468682870161183b565b92509250509250925092565b6002811061225e575f5ffd5b50565b5f8135905061226f81612252565b92915050565b5f5f5f5f5f5f5f5f5f5f5f6101408c8e0312156122955761229461179a565b5b5f6122a28e828f016117e8565b9b505060206122b38e828f0161181b565b9a505060408c013567ffffffffffffffff8111156122d4576122d361179e565b5b6122e08e828f0161183b565b995099505060606122f38e828f01612261565b97505060806123048e828f0161181b565b96505060a06123158e828f0161181b565b95505060c06123268e828f0161181b565b94505060e06123378e828f016117e8565b9350506101006123498e828f016117e8565b92505061012061235b8e828f0161181b565b9150509295989b509295989b9093969950565b5f5f5f5f5f5f60a087890312156123885761238761179a565b5b5f61239589828a016117e8565b96505060206123a689828a016117e8565b95505060406123b789828a0161181b565b94505060606123c889828a0161181b565b935050608087013567ffffffffffffffff8111156123e9576123e861179e565b5b6123f589828a0161183b565b92509250509295509295509295565b5f8151905061241281611805565b92915050565b5f6020828403121561242d5761242c61179a565b5b5f61243a84828501612404565b91505092915050565b5f82825260208201905092915050565b7f48617368206e6f7420617070726f7665640000000000000000000000000000005f82015250565b5f612487601183612443565b915061249282612453565b602082019050919050565b5f6020820190508181035f8301526124b48161247b565b9050919050565b5f6124c68385611e7f565b93506124d3838584611af1565b6124dc83611a39565b840190509392505050565b5f6060820190506124fa5f830187611a0d565b6125076020830186611bbd565b818103604083015261251a8184866124bb565b905095945050505050565b5f6020828403121561253a5761253961179a565b5b5f612547848285016117e8565b91505092915050565b5f5ffd5b5f5ffd5b5f5ffd5b5f5f8335600160200384360303811261257857612577612550565b5b80840192508235915067ffffffffffffffff82111561259a57612599612554565b5b6020830192506001820236038313156125b6576125b5612558565b5b509250929050565b5f82905092915050565b5f82821b905092915050565b5f6125df83836125be565b826125ea813561195a565b9250600482101561262a576126257fffffffff00000000000000000000000000000000000000000000000000000000836004036008026125c8565b831692505b505092915050565b50565b5f6126405f83611e7f565b915061264b82612632565b5f82019050919050565b5f819050919050565b5f819050919050565b5f61268161267c61267784612655565b61265e565b611ef5565b9050919050565b61269181612667565b82525050565b5f6080820190506126aa5f830186611a0d565b6126b76020830185611da7565b81810360408301526126c881612635565b90506126d76060830184612688565b949350505050565b6126e8816119da565b81146126f2575f5ffd5b50565b5f81519050612703816126df565b92915050565b5f6020828403121561271e5761271d61179a565b5b5f61272b848285016126f5565b91505092915050565b5f6040820190506127475f830185611bbd565b6127546020830184611bbd565b9392505050565b5f8151905061276981611c91565b92915050565b5f602082840312156127845761278361179a565b5b5f6127918482850161275b565b91505092915050565b5f7fff0000000000000000000000000000000000000000000000000000000000000082169050919050565b5f819050919050565b6127df6127da8261279a565b6127c5565b82525050565b5f819050919050565b6127ff6127fa82611bb4565b6127e5565b82525050565b5f61281082876127ce565b60018201915061282082866127ce565b60018201915061283082856127ee565b60208201915061284082846127ee565b60208201915081905095945050505050565b61285b81611ef5565b82525050565b5f6080820190506128745f830187611a0d565b6128816020830186611da7565b81810360408301526128938185611e9d565b90506128a26060830184612852565b95945050505050565b5f6128bd6128b884611ac1565b611aa7565b9050828152602081018484840111156128d9576128d8611a35565b5b6128e4848285611e8f565b509392505050565b5f82601f830112612900576128ff61182f565b5b81516129108482602086016128ab565b91505092915050565b5f5f6040838503121561292f5761292e61179a565b5b5f61293c858286016126f5565b925050602083015167ffffffffffffffff81111561295d5761295c61179e565b5b612969858286016128ec565b9150509250929050565b5f819050919050565b5f61299661299161298c84612973565b61265e565b6117fc565b9050919050565b6129a68161297c565b82525050565b5f6040820190506129bf5f830185611a0d565b6129cc602083018461299d565b9392505050565b5f67ffffffffffffffff8211156129ed576129ec611a49565b5b602082029050602081019050919050565b5f81519050612a0c816117d2565b92915050565b5f612a24612a1f846129d3565b611aa7565b90508083825260208201905060208402830185811115612a4757612a46611837565b5b835b81811015612a705780612a5c88826129fe565b845260208401935050602081019050612a49565b5050509392505050565b5f82601f830112612a8e57612a8d61182f565b5b8151612a9e848260208601612a12565b91505092915050565b5f5f60408385031215612abd57612abc61179a565b5b5f83015167ffffffffffffffff811115612ada57612ad961179e565b5b612ae685828601612a7a565b9250506020612af7858286016129fe565b9150509250929050565b5f81905092915050565b5f612b168385612b01565b9350612b23838584611af1565b82840190509392505050565b5f612b3b828486612b0b565b91508190509392505050565b7f4e487b71000000000000000000000000000000000000000000000000000000005f52602160045260245ffd5b60028110612b8557612b84612b47565b5b50565b5f819050612b9582612b74565b919050565b5f612ba482612b88565b9050919050565b612bb481612b9a565b82525050565b5f61016082019050612bce5f83018e611bbd565b612bdb602083018d611a0d565b612be8604083018c611da7565b612bf5606083018b611bbd565b612c02608083018a612bab565b612c0f60a0830189611da7565b612c1c60c0830188611da7565b612c2960e0830187611da7565b612c37610100830186611a0d565b612c45610120830185611a0d565b612c53610140830184611da7565b9c9b505050505050505050505050565b5f612c7d612c78612c73846117a2565b61265e565b6117a2565b9050919050565b5f612c8e82612c63565b9050919050565b5f612c9f82612c84565b9050919050565b612caf81612c95565b82525050565b5f606082019050612cc85f830186611bbd565b612cd56020830185611da7565b612ce26040830184612ca6565b949350505050565b5f819050919050565b5f612d0d612d08612d0384612cea565b61265e565b6117fc565b9050919050565b612d1d81612cf3565b82525050565b5f604082019050612d365f830185611da7565b612d436020830184612d14565b9392505050565b5f60208284031215612d5f57612d5e61179a565b5b5f82015167ffffffffffffffff811115612d7c57612d7b61179e565b5b612d88848285016128ec565b91505092915050565b612d9a81611dcf565b8114612da4575f5ffd5b50565b5f81519050612db581612d91565b92915050565b5f60208284031215612dd057612dcf61179a565b5b5f612ddd84828501612da7565b91505092915050565b7f6e6f7420612066616c6c6261636b2063616c6c000000000000000000000000005f82015250565b5f612e1a601383612443565b9150612e2582612de6565b602082019050919050565b5f6020820190508181035f830152612e4781612e0e565b9050919050565b7f496e76616c69642063616c6c64617461206c656e6774680000000000000000005f82015250565b5f612e82601783612443565b9150612e8d82612e4e565b602082019050919050565b5f6020820190508181035f830152612eaf81612e76565b9050919050565b5f606082019050612ec95f830187611bbd565b8181036020830152612edb8186611e9d565b90508181036040830152612ef08184866124bb565b905095945050505050565b5f5ffd5b5f5ffd5b5f5f85851115612f1657612f15612efb565b5b83861115612f2757612f26612eff565b5b6001850283019150848603905094509492505050565b5f7fffffffffffff000000000000000000000000000000000000000000000000000082169050919050565b5f612f7383836125be565b82612f7e8135612f3d565b92506006821015612fbe57612fb97fffffffffffff0000000000000000000000000000000000000000000000000000836006036008026125c8565b831692505b505092915050565b7f4e487b71000000000000000000000000000000000000000000000000000000005f52601160045260245ffd5b5f612ffd826117fc565b9150613008836117fc565b9250828202613016816117fc565b9150828204841483151761302d5761302c612fc6565b5b5092915050565b5f61303e826117fc565b9150613049836117fc565b925082820190508082111561306157613060612fc6565b5b92915050565b7f4e487b71000000000000000000000000000000000000000000000000000000005f52603260045260245ffd5b5f61309f83836125be565b826130aa8135611bb4565b925060208210156130ea576130e57fffffffffffffffffffffffffffffffffffffffffffffffffffffffffffffffff836020036008026125c8565b831692505b50509291505056fea2646970667358221220a8c12e7864cd550cedb7c7a96162fa68bd4c8b8fac77dab28266579a5a9f5d1a64736f6c634300081e0033",
			"opcodes": "PUSH1 0x80 PUSH1 0x40 MSTORE CALLVALUE DUP1 ISZERO PUSH1 0xE JUMPI PUSH0 PUSH0 REVERT JUMPDEST POP PUSH2 0x3128 DUP1 PUSH2 0x1C PUSH0 CODECOPY PUSH0 RETURN INVALID PUSH1 0x80 PUSH1 0x40 MSTORE CALLVALUE DUP1 ISZERO PUSH2 0xF JUMPI PUSH0 PUSH0 REVERT JUMPDEST POP PUSH1 0x4 CALLDATASIZE LT PUSH2 0x11E JUMPI PUSH0 CALLDATALOAD PUSH1 0xE0 SHR DUP1 PUSH4 0x541D63C8 GT PUSH2 0xAB JUMPI DUP1 PUSH4 0xBC197C81 GT PUSH2 0x6F JUMPI DUP1 PUSH4 0xBC197C81 EQ PUSH2 0x350 JUMPI DUP1 PUSH4 0xBD61951D EQ PUSH2 0x380 JUMPI DUP1 PUSH4 0xE86637DB EQ PUSH2 0x3B0 JUMPI DUP1 PUSH4 0xF23A6E61 EQ PUSH2 0x3E0 JUMPI DUP1 PUSH4 0xF698DA25 EQ PUSH2 0x410 JUMPI PUSH2 0x11E JUMP JUMPDEST DUP1 PUSH4 0x541D63C8 EQ PUSH2 0x29A JUMPI DUP1 PUSH4 0x6AC24784 EQ PUSH2 0x2B6 JUMPI DUP1 PUSH4 0x7BB37428 EQ PUSH2 0x2E6 JUMPI DUP1 PUSH4 0xB2494DF3 EQ PUSH2 0x302 JUMPI DUP1 PUSH4 0xBBE5DC4F EQ PUSH2 0x320 JUMPI PUSH2 0x11E JUMP JUMPDEST DUP1 PUSH4 0x137E051E GT PUSH2 0xF2 JUMPI DUP1 PUSH4 0x137E051E EQ PUSH2 0x1BC JUMPI DUP1 PUSH4 0x150B7A02 EQ PUSH2 0x1DA JUMPI DUP1 PUSH4 0x1626BA7E EQ PUSH2 0x20A JUMPI DUP1 PUSH4 0x19822F7C EQ PUSH2 0x23A JUMPI DUP1 PUSH4 0x23031640 EQ PUSH2 0x26A JUMPI PUSH2 0x11E JUMP JUMPDEST DUP1 PUSH3 0x23DE29 EQ PUSH2 0x122 JUMPI DUP1 PUSH4 0x1FFC9A7 EQ PUSH2 0x13E JUMPI DUP1 PUSH4 0x681EBDE EQ PUSH2 0x16E JUMPI DUP1 PUSH4 0xA1028C4 EQ PUSH2 0x18C JUMPI JUMPDEST PUSH0 PUSH0 REVERT JUMPDEST PUSH2 0x13C PUSH1 0x4 DUP1 CALLDATASIZE SUB DUP2 ADD SWAP1 PUSH2 0x137 SWAP2 SWAP1 PUSH2 0x1890 JUMP JUMPDEST PUSH2 0x42E JUMP JUMPDEST STOP JUMPDEST PUSH2 0x158 PUSH1 0x4 DUP1 CALLDATASIZE SUB DUP2 ADD SWAP1 PUSH2 0x153 SWAP2 SWAP1 PUSH2 0x19AF JUMP JUMPDEST PUSH2 0x438 JUMP JUMPDEST PUSH1 0x40 MLOAD PUSH2 0x165 SWAP2 SWAP1 PUSH2 0x19F4 JUMP JUMPDEST PUSH1 0x40 MLOAD DUP1 SWAP2 SUB SWAP1 RETURN JUMPDEST PUSH2 0x176 PUSH2 0x571 JUMP JUMPDEST PUSH1 0x40 MLOAD PUSH2 0x183 SWAP2 SWAP1 PUSH2 0x1A1C JUMP JUMPDEST PUSH1 0x40 MLOAD DUP1 SWAP2 SUB SWAP1 RETURN JUMPDEST PUSH2 0x1A6 PUSH1 0x4 DUP1 CALLDATASIZE SUB DUP2 ADD SWAP1 PUSH2 0x1A1 SWAP2 SWAP1 PUSH2 0x1B6D JUMP JUMPDEST PUSH2 0x577 JUMP JUMPDEST PUSH1 0x40 MLOAD PUSH2 0x1B3 SWAP2 SWAP1 PUSH2 0x1BCC JUMP JUMPDEST PUSH1 0x40 MLOAD DUP1 SWAP2 SUB SWAP1 RETURN JUMPDEST PUSH2 0x1C4 PUSH2 0x589 JUMP JUMPDEST PUSH1 0x40 MLOAD PUSH2 0x1D1 SWAP2 SWAP1 PUSH2 0x1A1C JUMP JUMPDEST PUSH1 0x40 MLOAD DUP1 SWAP2 SUB SWAP1 RETURN JUMPDEST PUSH2 0x1F4 PUSH1 0x4 DUP1 CALLDATASIZE SUB DUP2 ADD SWAP1 PUSH2 0x1EF SWAP2 SWAP1 PUSH2 0x1BE5 JUMP JUMPDEST PUSH2 0x5AD JUMP JUMPDEST PUSH1 0x40 MLOAD PUSH2 0x201 SWAP2 SWAP1 PUSH2 0x1C78 JUMP JUMPDEST PUSH1 0x40 MLOAD DUP1 SWAP2 SUB SWAP1 RETURN JUMPDEST PUSH2 0x224 PUSH1 0x4 DUP1 CALLDATASIZE SUB DUP2 ADD SWAP1 PUSH2 0x21F SWAP2 SWAP1 PUSH2 0x1CBB JUMP JUMPDEST PUSH2 0x5C9 JUMP JUMPDEST PUSH1 0x40 MLOAD PUSH2 0x231 SWAP2 SWAP1 PUSH2 0x1C78 JUMP JUMPDEST PUSH1 0x40 MLOAD DUP1 SWAP2 SUB SWAP1 RETURN JUMPDEST PUSH2 0x254 PUSH1 0x4 DUP1 CALLDATASIZE SUB DUP2 ADD SWAP1 PUSH2 0x24F SWAP2 SWAP1 PUSH2 0x1D3B JUMP JUMPDEST PUSH2 0x74D JUMP JUMPDEST PUSH1 0x40 MLOAD PUSH2 0x261 SWAP2 SWAP1 PUSH2 0x1DB6 JUMP JUMPDEST PUSH1 0x40 MLOAD DUP1 SWAP2 SUB SWAP1 RETURN JUMPDEST PUSH2 0x284 PUSH1 0x4 DUP1 CALLDATASIZE SUB DUP2 ADD SWAP1 PUSH2 0x27F SWAP2 SWAP1 PUSH2 0x1E1B JUMP JUMPDEST PUSH2 0xA08 JUMP JUMPDEST PUSH1 0x40 MLOAD PUSH2 0x291 SWAP2 SWAP1 PUSH2 0x1ED5 JUMP JUMPDEST PUSH1 0x40 MLOAD DUP1 SWAP2 SUB SWAP1 RETURN JUMPDEST PUSH2 0x2B4 PUSH1 0x4 DUP1 CALLDATASIZE SUB DUP2 ADD SWAP1 PUSH2 0x2AF SWAP2 SWAP1 PUSH2 0x1F2B JUMP JUMPDEST PUSH2 0xB02 JUMP JUMPDEST STOP JUMPDEST PUSH2 0x2D0 PUSH1 0x4 DUP1 CALLDATASIZE SUB DUP2 ADD SWAP1 PUSH2 0x2CB SWAP2 SWAP1 PUSH2 0x1E1B JUMP JUMPDEST PUSH2 0xC2B JUMP JUMPDEST PUSH1 0x40 MLOAD PUSH2 0x2DD SWAP2 SWAP1 PUSH2 0x1BCC JUMP JUMPDEST PUSH1 0x40 MLOAD DUP1 SWAP2 SUB SWAP1 RETURN JUMPDEST PUSH2 0x300 PUSH1 0x4 DUP1 CALLDATASIZE SUB DUP2 ADD SWAP1 PUSH2 0x2FB SWAP2 SWAP1 PUSH2 0x1F2B JUMP JUMPDEST PUSH2 0xC45 JUMP JUMPDEST STOP JUMPDEST PUSH2 0x30A PUSH2 0xD8C JUMP JUMPDEST PUSH1 0x40 MLOAD PUSH2 0x317 SWAP2 SWAP1 PUSH2 0x2062 JUMP JUMPDEST PUSH1 0x40 MLOAD DUP1 SWAP2 SUB SWAP1 RETURN JUMPDEST PUSH2 0x33A PUSH1 0x4 DUP1 CALLDATASIZE SUB DUP2 ADD SWAP1 PUSH2 0x335 SWAP2 SWAP1 PUSH2 0x2082 JUMP JUMPDEST PUSH2 0xE1D JUMP JUMPDEST PUSH1 0x40 MLOAD PUSH2 0x347 SWAP2 SWAP1 PUSH2 0x1BCC JUMP JUMPDEST PUSH1 0x40 MLOAD DUP1 SWAP2 SUB SWAP1 RETURN JUMPDEST PUSH2 0x36A PUSH1 0x4 DUP1 CALLDATASIZE SUB DUP2 ADD SWAP1 PUSH2 0x365 SWAP2 SWAP1 PUSH2 0x211E JUMP JUMPDEST PUSH2 0xE3E JUMP JUMPDEST PUSH1 0x40 MLOAD PUSH2 0x377 SWAP2 SWAP1 PUSH2 0x1C78 JUMP JUMPDEST PUSH1 0x40 MLOAD DUP1 SWAP2 SUB SWAP1 RETURN JUMPDEST PUSH2 0x39A PUSH1 0x4 DUP1 CALLDATASIZE SUB DUP2 ADD SWAP1 PUSH2 0x395 SWAP2 SWAP1 PUSH2 0x21F5 JUMP JUMPDEST PUSH2 0xE5D JUMP JUMPDEST PUSH1 0x40 MLOAD PUSH2 0x3A7 SWAP2 SWAP1 PUSH2 0x1ED5 JUMP JUMPDEST PUSH1 0x40 MLOAD DUP1 SWAP2 SUB SWAP1 RETURN JUMPDEST PUSH2 0x3CA PUSH1 0x4 DUP1 CALLDATASIZE SUB DUP2 ADD SWAP1 PUSH2 0x3C5 SWAP2 SWAP1 PUSH2 0x2275 JUMP JUMPDEST PUSH2 0xED3 JUMP JUMPDEST PUSH1 0x40 MLOAD PUSH2 0x3D7 SWAP2 SWAP1 PUSH2 0x1ED5 JUMP JUMPDEST PUSH1 0x40 MLOAD DUP1 SWAP2 SUB SWAP1 RETURN JUMPDEST PUSH2 0x3FA PUSH1 0x4 DUP1 CALLDATASIZE SUB DUP2 ADD SWAP1 PUSH2 0x3F5 SWAP2 SWAP1 PUSH2 0x236E JUMP JUMPDEST PUSH2 0x1002 JUMP JUMPDEST PUSH1 0x40 MLOAD PUSH2 0x407 SWAP2 SWAP1 PUSH2 0x1C78 JUMP JUMPDEST PUSH1 0x40 MLOAD DUP1 SWAP2 SUB SWAP1 RETURN JUMPDEST PUSH2 0x418 PUSH2 0x101F JUMP JUMPDEST PUSH1 0x40 MLOAD PUSH2 0x425 SWAP2 SWAP1 PUSH2 0x1BCC JUMP JUMPDEST PUSH1 0x40 MLOAD DUP1 SWAP2 SUB SWAP1 RETURN JUMPDEST POP POP POP POP POP POP POP POP JUMP JUMPDEST PUSH0 PUSH32 0x4E2312E000000000000000000000000000000000000000000000000000000000 PUSH28 0xFFFFFFFFFFFFFFFFFFFFFFFFFFFFFFFFFFFFFFFFFFFFFFFFFFFFFFFF NOT AND DUP3 PUSH28 0xFFFFFFFFFFFFFFFFFFFFFFFFFFFFFFFFFFFFFFFFFFFFFFFFFFFFFFFF NOT AND EQ DUP1 PUSH2 0x502 JUMPI POP PUSH32 0x150B7A0200000000000000000000000000000000000000000000000000000000 PUSH28 0xFFFFFFFFFFFFFFFFFFFFFFFFFFFFFFFFFFFFFFFFFFFFFFFFFFFFFFFF NOT AND DUP3 PUSH28 0xFFFFFFFFFFFFFFFFFFFFFFFFFFFFFFFFFFFFFFFFFFFFFFFFFFFFFFFF NOT AND EQ JUMPDEST DUP1 PUSH2 0x56A JUMPI POP PUSH32 0x1FFC9A700000000000000000000000000000000000000000000000000000000 PUSH28 0xFFFFFFFFFFFFFFFFFFFFFFFFFFFFFFFFFFFFFFFFFFFFFFFFFFFFFFFF NOT AND DUP3 PUSH28 0xFFFFFFFFFFFFFFFFFFFFFFFFFFFFFFFFFFFFFFFFFFFFFFFFFFFFFFFF NOT AND EQ JUMPDEST SWAP1 POP SWAP2 SWAP1 POP JUMP JUMPDEST PUSH2 0x888 DUP2 JUMP JUMPDEST PUSH0 PUSH2 0x582 CALLER DUP4 PUSH2 0xC2B JUMP JUMPDEST SWAP1 POP SWAP2 SWAP1 POP JUMP JUMPDEST PUSH0 PUSH0 SWAP1 SLOAD SWAP1 PUSH2 0x100 EXP SWAP1 DIV PUSH20 0xFFFFFFFFFFFFFFFFFFFFFFFFFFFFFFFFFFFFFFFF AND DUP2 JUMP JUMPDEST PUSH0 PUSH2 0x5B6 PUSH2 0x1072 JUMP JUMPDEST PUSH4 0x150B7A02 PUSH1 0xE0 SHL SWAP1 POP SWAP6 SWAP5 POP POP POP POP POP JUMP JUMPDEST PUSH0 PUSH0 CALLER SWAP1 POP PUSH0 PUSH2 0x5F8 DUP3 DUP8 PUSH1 0x40 MLOAD PUSH1 0x20 ADD PUSH2 0x5E4 SWAP2 SWAP1 PUSH2 0x1BCC JUMP JUMPDEST PUSH1 0x40 MLOAD PUSH1 0x20 DUP2 DUP4 SUB SUB DUP2 MSTORE SWAP1 PUSH1 0x40 MSTORE PUSH2 0xA08 JUMP JUMPDEST SWAP1 POP PUSH0 DUP2 DUP1 MLOAD SWAP1 PUSH1 0x20 ADD KECCAK256 SWAP1 POP PUSH0 DUP7 DUP7 SWAP1 POP SUB PUSH2 0x6CD JUMPI PUSH0 DUP4 PUSH20 0xFFFFFFFFFFFFFFFFFFFFFFFFFFFFFFFFFFFFFFFF AND PUSH4 0x5AE6BD37 DUP4 PUSH1 0x40 MLOAD DUP3 PUSH4 0xFFFFFFFF AND PUSH1 0xE0 SHL DUP2 MSTORE PUSH1 0x4 ADD PUSH2 0x649 SWAP2 SWAP1 PUSH2 0x1BCC JUMP JUMPDEST PUSH1 0x20 PUSH1 0x40 MLOAD DUP1 DUP4 SUB DUP2 DUP7 GAS STATICCALL ISZERO DUP1 ISZERO PUSH2 0x664 JUMPI RETURNDATASIZE PUSH0 PUSH0 RETURNDATACOPY RETURNDATASIZE PUSH0 REVERT JUMPDEST POP POP POP POP PUSH1 0x40 MLOAD RETURNDATASIZE PUSH1 0x1F NOT PUSH1 0x1F DUP3 ADD AND DUP3 ADD DUP1 PUSH1 0x40 MSTORE POP DUP2 ADD SWAP1 PUSH2 0x688 SWAP2 SWAP1 PUSH2 0x2418 JUMP JUMPDEST SUB PUSH2 0x6C8 JUMPI PUSH1 0x40 MLOAD PUSH32 0x8C379A000000000000000000000000000000000000000000000000000000000 DUP2 MSTORE PUSH1 0x4 ADD PUSH2 0x6BF SWAP1 PUSH2 0x249D JUMP JUMPDEST PUSH1 0x40 MLOAD DUP1 SWAP2 SUB SWAP1 REVERT JUMPDEST PUSH2 0x739 JUMP JUMPDEST DUP3 PUSH20 0xFFFFFFFFFFFFFFFFFFFFFFFFFFFFFFFFFFFFFFFF AND PUSH4 0xF855438B PUSH0 DUP4 DUP10 DUP10 PUSH1 0x40 MLOAD DUP6 PUSH4 0xFFFFFFFF AND PUSH1 0xE0 SHL DUP2 MSTORE PUSH1 0x4 ADD PUSH2 0x70C SWAP5 SWAP4 SWAP3 SWAP2 SWAP1 PUSH2 0x24E7 JUMP JUMPDEST PUSH0 PUSH1 0x40 MLOAD DUP1 DUP4 SUB DUP2 DUP7 DUP1 EXTCODESIZE ISZERO DUP1 ISZERO PUSH2 0x722 JUMPI PUSH0 PUSH0 REVERT JUMPDEST POP GAS STATICCALL ISZERO DUP1 ISZERO PUSH2 0x734 JUMPI RETURNDATASIZE PUSH0 PUSH0 RETURNDATACOPY RETURNDATASIZE PUSH0 REVERT JUMPDEST POP POP POP POP JUMPDEST PUSH4 0x1626BA7E PUSH1 0xE0 SHL SWAP4 POP POP POP POP SWAP4 SWAP3 POP POP POP JUMP JUMPDEST PUSH0 PUSH0 PUSH0 SWAP1 SLOAD SWAP1 PUSH2 0x100 EXP SWAP1 DIV PUSH20 0xFFFFFFFFFFFFFFFFFFFFFFFFFFFFFFFFFFFFFFFF AND PUSH20 0xFFFFFFFFFFFFFFFFFFFFFFFFFFFFFFFFFFFFFFFF AND PUSH2 0x78D PUSH2 0x11A0 JUMP JUMPDEST PUSH20 0xFFFFFFFFFFFFFFFFFFFFFFFFFFFFFFFFFFFFFFFF AND EQ PUSH2 0x7DA JUMPI PUSH1 0x40 MLOAD PUSH32 0x85DB247D00000000000000000000000000000000000000000000000000000000 DUP2 MSTORE PUSH1 0x4 ADD PUSH1 0x40 MLOAD DUP1 SWAP2 SUB SWAP1 REVERT JUMPDEST PUSH0 DUP5 PUSH0 ADD PUSH1 0x20 DUP2 ADD SWAP1 PUSH2 0x7ED SWAP2 SWAP1 PUSH2 0x2525 JUMP JUMPDEST SWAP1 POP CALLER PUSH20 0xFFFFFFFFFFFFFFFFFFFFFFFFFFFFFFFFFFFFFFFF AND DUP2 PUSH20 0xFFFFFFFFFFFFFFFFFFFFFFFFFFFFFFFFFFFFFFFF AND EQ PUSH2 0x854 JUMPI PUSH1 0x40 MLOAD PUSH32 0x48F5C3ED00000000000000000000000000000000000000000000000000000000 DUP2 MSTORE PUSH1 0x4 ADD PUSH1 0x40 MLOAD DUP1 SWAP2 SUB SWAP1 REVERT JUMPDEST PUSH0 DUP6 DUP1 PUSH1 0x60 ADD SWAP1 PUSH2 0x865 SWAP2 SWAP1 PUSH2 0x255C JUMP JUMPDEST SWAP1 PUSH2 0x870 SWAP2 SWAP1 PUSH2 0x25D4 JUMP JUMPDEST SWAP1 POP PUSH4 0x7BB37428 PUSH1 0xE0 SHL PUSH28 0xFFFFFFFFFFFFFFFFFFFFFFFFFFFFFFFFFFFFFFFFFFFFFFFFFFFFFFFF NOT AND DUP2 PUSH28 0xFFFFFFFFFFFFFFFFFFFFFFFFFFFFFFFFFFFFFFFFFFFFFFFFFFFFFFFF NOT AND EQ ISZERO DUP1 ISZERO PUSH2 0x90C JUMPI POP PUSH4 0x541D63C8 PUSH1 0xE0 SHL PUSH28 0xFFFFFFFFFFFFFFFFFFFFFFFFFFFFFFFFFFFFFFFFFFFFFFFFFFFFFFFF NOT AND DUP2 PUSH28 0xFFFFFFFFFFFFFFFFFFFFFFFFFFFFFFFFFFFFFFFFFFFFFFFFFFFFFFFF NOT AND EQ ISZERO JUMPDEST ISZERO PUSH2 0x94E JUMPI DUP1 PUSH1 0x40 MLOAD PUSH32 0x45C229CE00000000000000000000000000000000000000000000000000000000 DUP2 MSTORE PUSH1 0x4 ADD PUSH2 0x945 SWAP2 SWAP1 PUSH2 0x1C78 JUMP JUMPDEST PUSH1 0x40 MLOAD DUP1 SWAP2 SUB SWAP1 REVERT JUMPDEST PUSH2 0x957 DUP7 PUSH2 0x11F5 JUMP JUMPDEST SWAP3 POP PUSH0 DUP5 EQ PUSH2 0x9FF JUMPI DUP2 PUSH20 0xFFFFFFFFFFFFFFFFFFFFFFFFFFFFFFFFFFFFFFFF AND PUSH4 0x468721A7 PUSH0 PUSH0 SWAP1 SLOAD SWAP1 PUSH2 0x100 EXP SWAP1 DIV PUSH20 0xFFFFFFFFFFFFFFFFFFFFFFFFFFFFFFFFFFFFFFFF AND DUP7 PUSH0 PUSH1 0x40 MLOAD DUP5 PUSH4 0xFFFFFFFF AND PUSH1 0xE0 SHL DUP2 MSTORE PUSH1 0x4 ADD PUSH2 0x9BD SWAP4 SWAP3 SWAP2 SWAP1 PUSH2 0x2697 JUMP JUMPDEST PUSH1 0x20 PUSH1 0x40 MLOAD DUP1 DUP4 SUB DUP2 PUSH0 DUP8 GAS CALL ISZERO DUP1 ISZERO PUSH2 0x9D9 JUMPI RETURNDATASIZE PUSH0 PUSH0 RETURNDATACOPY RETURNDATASIZE PUSH0 REVERT JUMPDEST POP POP POP POP PUSH1 0x40 MLOAD RETURNDATASIZE PUSH1 0x1F NOT PUSH1 0x1F DUP3 ADD AND DUP3 ADD DUP1 PUSH1 0x40 MSTORE POP DUP2 ADD SWAP1 PUSH2 0x9FD SWAP2 SWAP1 PUSH2 0x2709 JUMP JUMPDEST POP JUMPDEST POP POP SWAP4 SWAP3 POP POP POP JUMP JUMPDEST PUSH1 0x60 PUSH0 PUSH32 0x60B3CBF8B4A223D68D641B3B6DDF9A298E7F33710CF3D3A9D1146B5A6150FBCA PUSH0 SHL DUP4 DUP1 MLOAD SWAP1 PUSH1 0x20 ADD KECCAK256 PUSH1 0x40 MLOAD PUSH1 0x20 ADD PUSH2 0xA47 SWAP3 SWAP2 SWAP1 PUSH2 0x2734 JUMP JUMPDEST PUSH1 0x40 MLOAD PUSH1 0x20 DUP2 DUP4 SUB SUB DUP2 MSTORE SWAP1 PUSH1 0x40 MSTORE DUP1 MLOAD SWAP1 PUSH1 0x20 ADD KECCAK256 SWAP1 POP PUSH1 0x19 PUSH1 0xF8 SHL PUSH1 0x1 PUSH1 0xF8 SHL DUP6 PUSH20 0xFFFFFFFFFFFFFFFFFFFFFFFFFFFFFFFFFFFFFFFF AND PUSH4 0xF698DA25 PUSH1 0x40 MLOAD DUP2 PUSH4 0xFFFFFFFF AND PUSH1 0xE0 SHL DUP2 MSTORE PUSH1 0x4 ADD PUSH1 0x20 PUSH1 0x40 MLOAD DUP1 DUP4 SUB DUP2 DUP7 GAS STATICCALL ISZERO DUP1 ISZERO PUSH2 0xAB2 JUMPI RETURNDATASIZE PUSH0 PUSH0 RETURNDATACOPY RETURNDATASIZE PUSH0 REVERT JUMPDEST POP POP POP POP PUSH1 0x40 MLOAD RETURNDATASIZE PUSH1 0x1F NOT PUSH1 0x1F DUP3 ADD AND DUP3 ADD DUP1 PUSH1 0x40 MSTORE POP DUP2 ADD SWAP1 PUSH2 0xAD6 SWAP2 SWAP1 PUSH2 0x276F JUMP JUMPDEST DUP4 PUSH1 0x40 MLOAD PUSH1 0x20 ADD PUSH2 0xAEA SWAP5 SWAP4 SWAP3 SWAP2 SWAP1 PUSH2 0x2805 JUMP JUMPDEST PUSH1 0x40 MLOAD PUSH1 0x20 DUP2 DUP4 SUB SUB DUP2 MSTORE SWAP1 PUSH1 0x40 MSTORE SWAP2 POP POP SWAP3 SWAP2 POP POP JUMP JUMPDEST PUSH0 PUSH0 SWAP1 SLOAD SWAP1 PUSH2 0x100 EXP SWAP1 DIV PUSH20 0xFFFFFFFFFFFFFFFFFFFFFFFFFFFFFFFFFFFFFFFF AND PUSH20 0xFFFFFFFFFFFFFFFFFFFFFFFFFFFFFFFFFFFFFFFF AND PUSH2 0xB41 PUSH2 0x11A0 JUMP JUMPDEST PUSH20 0xFFFFFFFFFFFFFFFFFFFFFFFFFFFFFFFFFFFFFFFF AND EQ PUSH2 0xB8E JUMPI PUSH1 0x40 MLOAD PUSH32 0x85DB247D00000000000000000000000000000000000000000000000000000000 DUP2 MSTORE PUSH1 0x4 ADD PUSH1 0x40 MLOAD DUP1 SWAP2 SUB SWAP1 REVERT JUMPDEST PUSH0 PUSH0 CALLER PUSH20 0xFFFFFFFFFFFFFFFFFFFFFFFFFFFFFFFFFFFFFFFF AND PUSH4 0x5229073F DUP8 DUP8 DUP8 DUP8 PUSH1 0x40 MLOAD DUP6 PUSH4 0xFFFFFFFF AND PUSH1 0xE0 SHL DUP2 MSTORE PUSH1 0x4 ADD PUSH2 0xBCF SWAP5 SWAP4 SWAP3 SWAP2 SWAP1 PUSH2 0x2861 JUMP JUMPDEST PUSH0 PUSH1 0x40 MLOAD DUP1 DUP4 SUB DUP2 PUSH0 DUP8 GAS CALL ISZERO DUP1 ISZERO PUSH2 0xBEA JUMPI RETURNDATASIZE PUSH0 PUSH0 RETURNDATACOPY RETURNDATASIZE PUSH0 REVERT JUMPDEST POP POP POP POP PUSH1 0x40 MLOAD RETURNDATASIZE PUSH0 DUP3 RETURNDATACOPY RETURNDATASIZE PUSH1 0x1F NOT PUSH1 0x1F DUP3 ADD AND DUP3 ADD DUP1 PUSH1 0x40 MSTORE POP DUP2 ADD SWAP1 PUSH2 0xC12 SWAP2 SWAP1 PUSH2 0x2919 JUMP JUMPDEST SWAP2 POP SWAP2 POP DUP2 PUSH2 0xC23 JUMPI DUP1 MLOAD PUSH1 0x20 DUP3 ADD REVERT JUMPDEST POP POP POP POP POP POP JUMP JUMPDEST PUSH0 PUSH2 0xC36 DUP4 DUP4 PUSH2 0xA08 JUMP JUMPDEST DUP1 MLOAD SWAP1 PUSH1 0x20 ADD KECCAK256 SWAP1 POP SWAP3 SWAP2 POP POP JUMP JUMPDEST PUSH0 PUSH0 SWAP1 SLOAD SWAP1 PUSH2 0x100 EXP SWAP1 DIV PUSH20 0xFFFFFFFFFFFFFFFFFFFFFFFFFFFFFFFFFFFFFFFF AND PUSH20 0xFFFFFFFFFFFFFFFFFFFFFFFFFFFFFFFFFFFFFFFF AND PUSH2 0xC84 PUSH2 0x11A0 JUMP JUMPDEST PUSH20 0xFFFFFFFFFFFFFFFFFFFFFFFFFFFFFFFFFFFFFFFF AND EQ PUSH2 0xCD1 JUMPI PUSH1 0x40 MLOAD PUSH32 0x85DB247D00000000000000000000000000000000000000000000000000000000 DUP2 MSTORE PUSH1 0x4 ADD PUSH1 0x40 MLOAD DUP1 SWAP2 SUB SWAP1 REVERT JUMPDEST CALLER PUSH20 0xFFFFFFFFFFFFFFFFFFFFFFFFFFFFFFFFFFFFFFFF AND PUSH4 0x468721A7 DUP6 DUP6 DUP6 DUP6 PUSH1 0x40 MLOAD DUP6 PUSH4 0xFFFFFFFF AND PUSH1 0xE0 SHL DUP2 MSTORE PUSH1 0x4 ADD PUSH2 0xD10 SWAP5 SWAP4 SWAP3 SWAP2 SWAP1 PUSH2 0x2861 JUMP JUMPDEST PUSH1 0x20 PUSH1 0x40 MLOAD DUP1 DUP4 SUB DUP2 PUSH0 DUP8 GAS CALL ISZERO DUP1 ISZERO PUSH2 0xD2C JUMPI RETURNDATASIZE PUSH0 PUSH0 RETURNDATACOPY RETURNDATASIZE PUSH0 REVERT JUMPDEST POP POP POP POP PUSH1 0x40 MLOAD RETURNDATASIZE PUSH1 0x1F NOT PUSH1 0x1F DUP3 ADD AND DUP3 ADD DUP1 PUSH1 0x40 MSTORE POP DUP2 ADD SWAP1 PUSH2 0xD50 SWAP2 SWAP1 PUSH2 0x2709 JUMP JUMPDEST PUSH2 0xD86 JUMPI PUSH1 0x40 MLOAD PUSH32 0xACFDB44400000000000000000000000000000000000000000000000000000000 DUP2 MSTORE PUSH1 0x4 ADD PUSH1 0x40 MLOAD DUP1 SWAP2 SUB SWAP1 REVERT JUMPDEST POP POP POP POP JUMP JUMPDEST PUSH1 0x60 PUSH0 CALLER SWAP1 POP PUSH0 DUP2 PUSH20 0xFFFFFFFFFFFFFFFFFFFFFFFFFFFFFFFFFFFFFFFF AND PUSH4 0xCC2F8452 PUSH1 0x1 PUSH1 0xA PUSH1 0x40 MLOAD DUP4 PUSH4 0xFFFFFFFF AND PUSH1 0xE0 SHL DUP2 MSTORE PUSH1 0x4 ADD PUSH2 0xDD0 SWAP3 SWAP2 SWAP1 PUSH2 0x29AC JUMP JUMPDEST PUSH0 PUSH1 0x40 MLOAD DUP1 DUP4 SUB DUP2 DUP7 GAS STATICCALL ISZERO DUP1 ISZERO PUSH2 0xDEA JUMPI RETURNDATASIZE PUSH0 PUSH0 RETURNDATACOPY RETURNDATASIZE PUSH0 REVERT JUMPDEST POP POP POP POP PUSH1 0x40 MLOAD RETURNDATASIZE PUSH0 DUP3 RETURNDATACOPY RETURNDATASIZE PUSH1 0x1F NOT PUSH1 0x1F DUP3 ADD AND DUP3 ADD DUP1 PUSH1 0x40 MSTORE POP DUP2 ADD SWAP1 PUSH2 0xE12 SWAP2 SWAP1 PUSH2 0x2AA7 JUMP JUMPDEST POP SWAP1 POP DUP1 SWAP3 POP POP POP SWAP1 JUMP JUMPDEST PUSH0 PUSH0 PUSH2 0xE28 DUP4 PUSH2 0x133D JUMP JUMPDEST POP POP POP POP SWAP1 POP DUP1 DUP1 MLOAD SWAP1 PUSH1 0x20 ADD KECCAK256 SWAP2 POP POP SWAP2 SWAP1 POP JUMP JUMPDEST PUSH0 PUSH2 0xE47 PUSH2 0x1072 JUMP JUMPDEST PUSH4 0xBC197C81 PUSH1 0xE0 SHL SWAP1 POP SWAP9 SWAP8 POP POP POP POP POP POP POP POP JUMP JUMPDEST PUSH1 0x60 PUSH1 0x40 MLOAD PUSH32 0xB4FABA0900000000000000000000000000000000000000000000000000000000 DUP2 MSTORE PUSH1 0x4 CALLDATASIZE SUB PUSH1 0x4 DUP1 DUP4 ADD CALLDATACOPY PUSH1 0x40 PUSH0 CALLDATASIZE DUP4 PUSH0 CALLER GAS CALL PUSH1 0x40 RETURNDATASIZE LT DUP2 OR ISZERO PUSH2 0xEA7 JUMPI PUSH0 PUSH0 REVERT JUMPDEST PUSH1 0x20 DUP1 MLOAD ADD PUSH1 0x40 MLOAD SWAP4 POP DUP1 DUP5 ADD PUSH1 0x40 MSTORE DUP1 PUSH1 0x20 DUP6 RETURNDATACOPY PUSH0 MLOAD PUSH2 0xEC9 JUMPI DUP1 PUSH1 0x20 DUP6 ADD REVERT JUMPDEST POP POP POP SWAP4 SWAP3 POP POP POP JUMP JUMPDEST PUSH1 0x60 PUSH0 CALLER SWAP1 POP PUSH0 DUP2 PUSH20 0xFFFFFFFFFFFFFFFFFFFFFFFFFFFFFFFFFFFFFFFF AND PUSH4 0xF698DA25 PUSH1 0x40 MLOAD DUP2 PUSH4 0xFFFFFFFF AND PUSH1 0xE0 SHL DUP2 MSTORE PUSH1 0x4 ADD PUSH1 0x20 PUSH1 0x40 MLOAD DUP1 DUP4 SUB DUP2 DUP7 GAS STATICCALL ISZERO DUP1 ISZERO PUSH2 0xF23 JUMPI RETURNDATASIZE PUSH0 PUSH0 RETURNDATACOPY RETURNDATASIZE PUSH0 REVERT JUMPDEST POP POP POP POP PUSH1 0x40 MLOAD RETURNDATASIZE PUSH1 0x1F NOT PUSH1 0x1F DUP3 ADD AND DUP3 ADD DUP1 PUSH1 0x40 MSTORE POP DUP2 ADD SWAP1 PUSH2 0xF47 SWAP2 SWAP1 PUSH2 0x276F JUMP JUMPDEST SWAP1 POP PUSH0 PUSH32 0xBB8310D486368DB6BD6F849402FDD73AD53D316B5A4B2644AD6EFE0F941286D8 PUSH0 SHL DUP16 DUP16 DUP16 DUP16 PUSH1 0x40 MLOAD PUSH2 0xF7F SWAP3 SWAP2 SWAP1 PUSH2 0x2B2F JUMP JUMPDEST PUSH1 0x40 MLOAD DUP1 SWAP2 SUB SWAP1 KECCAK256 DUP15 DUP15 DUP15 DUP15 DUP15 DUP15 DUP15 PUSH1 0x40 MLOAD PUSH1 0x20 ADD PUSH2 0xFA8 SWAP12 SWAP11 SWAP10 SWAP9 SWAP8 SWAP7 SWAP6 SWAP5 SWAP4 SWAP3 SWAP2 SWAP1 PUSH2 0x2BBA JUMP JUMPDEST PUSH1 0x40 MLOAD PUSH1 0x20 DUP2 DUP4 SUB SUB DUP2 MSTORE SWAP1 PUSH1 0x40 MSTORE DUP1 MLOAD SWAP1 PUSH1 0x20 ADD KECCAK256 SWAP1 POP PUSH1 0x19 PUSH1 0xF8 SHL PUSH1 0x1 PUSH1 0xF8 SHL DUP4 DUP4 PUSH1 0x40 MLOAD PUSH1 0x20 ADD PUSH2 0xFDF SWAP5 SWAP4 SWAP3 SWAP2 SWAP1 PUSH2 0x2805 JUMP JUMPDEST PUSH1 0x40 MLOAD PUSH1 0x20 DUP2 DUP4 SUB SUB DUP2 MSTORE SWAP1 PUSH1 0x40 MSTORE SWAP4 POP POP POP POP SWAP12 SWAP11 POP POP POP POP POP POP POP POP POP POP POP JUMP JUMPDEST PUSH0 PUSH2 0x100B PUSH2 0x1072 JUMP JUMPDEST PUSH4 0xF23A6E61 PUSH1 0xE0 SHL SWAP1 POP SWAP7 SWAP6 POP POP POP POP POP POP JUMP JUMPDEST PUSH0 PUSH32 0x47E79534A245952E8B16893A336B85A3D9EA9FA8C573F3D803AFB92A79469218 PUSH0 SHL CHAINID ADDRESS PUSH1 0x40 MLOAD PUSH1 0x20 ADD PUSH2 0x1057 SWAP4 SWAP3 SWAP2 SWAP1 PUSH2 0x2CB5 JUMP JUMPDEST PUSH1 0x40 MLOAD PUSH1 0x20 DUP2 DUP4 SUB SUB DUP2 MSTORE SWAP1 PUSH1 0x40 MSTORE DUP1 MLOAD SWAP1 PUSH1 0x20 ADD KECCAK256 SWAP1 POP SWAP1 JUMP JUMPDEST PUSH0 CALLER PUSH20 0xFFFFFFFFFFFFFFFFFFFFFFFFFFFFFFFFFFFFFFFF AND PUSH4 0x5624B25B PUSH32 0x6C9A6C4A39284E37ED1CF53D337577D14212A4870FB976A4366C693B939918D5 PUSH0 SHL PUSH0 SHR PUSH1 0x1 PUSH1 0x40 MLOAD DUP4 PUSH4 0xFFFFFFFF AND PUSH1 0xE0 SHL DUP2 MSTORE PUSH1 0x4 ADD PUSH2 0x10D3 SWAP3 SWAP2 SWAP1 PUSH2 0x2D23 JUMP JUMPDEST PUSH0 PUSH1 0x40 MLOAD DUP1 DUP4 SUB DUP2 DUP7 GAS STATICCALL ISZERO DUP1 ISZERO PUSH2 0x10ED JUMPI RETURNDATASIZE PUSH0 PUSH0 RETURNDATACOPY RETURNDATASIZE PUSH0 REVERT JUMPDEST POP POP POP POP PUSH1 0x40 MLOAD RETURNDATASIZE PUSH0 DUP3 RETURNDATACOPY RETURNDATASIZE PUSH1 0x1F NOT PUSH1 0x1F DUP3 ADD AND DUP3 ADD DUP1 PUSH1 0x40 MSTORE POP DUP2 ADD SWAP1 PUSH2 0x1115 SWAP2 SWAP1 PUSH2 0x2D4A JUMP JUMPDEST SWAP1 POP PUSH0 DUP2 DUP1 PUSH1 0x20 ADD SWAP1 MLOAD DUP2 ADD SWAP1 PUSH2 0x112C SWAP2 SWAP1 PUSH2 0x2DBB JUMP JUMPDEST SWAP1 POP ADDRESS PUSH20 0xFFFFFFFFFFFFFFFFFFFFFFFFFFFFFFFFFFFFFFFF AND DUP2 PUSH20 0xFFFFFFFFFFFFFFFFFFFFFFFFFFFFFFFFFFFFFFFF AND EQ PUSH2 0x119C JUMPI PUSH1 0x40 MLOAD PUSH32 0x8C379A000000000000000000000000000000000000000000000000000000000 DUP2 MSTORE PUSH1 0x4 ADD PUSH2 0x1193 SWAP1 PUSH2 0x2E30 JUMP JUMPDEST PUSH1 0x40 MLOAD DUP1 SWAP2 SUB SWAP1 REVERT JUMPDEST POP POP JUMP JUMPDEST PUSH0 PUSH1 0x14 PUSH0 CALLDATASIZE SWAP1 POP LT ISZERO PUSH2 0x11E8 JUMPI PUSH1 0x40 MLOAD PUSH32 0x8C379A000000000000000000000000000000000000000000000000000000000 DUP2 MSTORE PUSH1 0x4 ADD PUSH2 0x11DF SWAP1 PUSH2 0x2E98 JUMP JUMPDEST PUSH1 0x40 MLOAD DUP1 SWAP2 SUB SWAP1 REVERT JUMPDEST PUSH1 0x14 CALLDATASIZE SUB CALLDATALOAD PUSH1 0x60 SHR SWAP1 POP SWAP1 JUMP JUMPDEST PUSH0 PUSH0 PUSH0 PUSH0 CALLDATASIZE PUSH0 PUSH2 0x1204 DUP8 PUSH2 0x133D JUMP JUMPDEST SWAP5 POP SWAP5 POP SWAP5 POP SWAP5 POP SWAP5 POP PUSH0 PUSH2 0x1297 DUP4 DUP4 DUP11 PUSH0 ADD PUSH1 0x20 DUP2 ADD SWAP1 PUSH2 0x1226 SWAP2 SWAP1 PUSH2 0x2525 JUMP JUMPDEST PUSH20 0xFFFFFFFFFFFFFFFFFFFFFFFFFFFFFFFFFFFFFFFF AND PUSH4 0xE75235B8 PUSH1 0x40 MLOAD DUP2 PUSH4 0xFFFFFFFF AND PUSH1 0xE0 SHL DUP2 MSTORE PUSH1 0x4 ADD PUSH1 0x20 PUSH1 0x40 MLOAD DUP1 DUP4 SUB DUP2 DUP7 GAS STATICCALL ISZERO DUP1 ISZERO PUSH2 0x126E JUMPI RETURNDATASIZE PUSH0 PUSH0 RETURNDATACOPY RETURNDATASIZE PUSH0 REVERT JUMPDEST POP POP POP POP PUSH1 0x40 MLOAD RETURNDATASIZE PUSH1 0x1F NOT PUSH1 0x1F DUP3 ADD AND DUP3 ADD DUP1 PUSH1 0x40 MSTORE POP DUP2 ADD SWAP1 PUSH2 0x1292 SWAP2 SWAP1 PUSH2 0x2418 JUMP JUMPDEST PUSH2 0x15D3 JUMP JUMPDEST SWAP1 POP DUP8 PUSH0 ADD PUSH1 0x20 DUP2 ADD SWAP1 PUSH2 0x12AB SWAP2 SWAP1 PUSH2 0x2525 JUMP JUMPDEST PUSH20 0xFFFFFFFFFFFFFFFFFFFFFFFFFFFFFFFFFFFFFFFF AND PUSH4 0x934F3A11 DUP8 DUP1 MLOAD SWAP1 PUSH1 0x20 ADD KECCAK256 DUP9 DUP7 DUP7 PUSH1 0x40 MLOAD DUP6 PUSH4 0xFFFFFFFF AND PUSH1 0xE0 SHL DUP2 MSTORE PUSH1 0x4 ADD PUSH2 0x12F0 SWAP5 SWAP4 SWAP3 SWAP2 SWAP1 PUSH2 0x2EB6 JUMP JUMPDEST PUSH0 PUSH1 0x40 MLOAD DUP1 DUP4 SUB DUP2 DUP7 DUP1 EXTCODESIZE ISZERO DUP1 ISZERO PUSH2 0x1306 JUMPI PUSH0 PUSH0 REVERT JUMPDEST POP GAS STATICCALL SWAP3 POP POP POP DUP1 ISZERO PUSH2 0x1317 JUMPI POP PUSH1 0x1 JUMPDEST PUSH2 0x1323 JUMPI PUSH0 SWAP1 POP PUSH2 0x1324 JUMP JUMPDEST JUMPDEST PUSH2 0x1330 DUP2 ISZERO DUP6 DUP8 PUSH2 0x16DD JUMP JUMPDEST SWAP7 POP POP POP POP POP POP POP SWAP2 SWAP1 POP JUMP JUMPDEST PUSH1 0x60 PUSH0 PUSH0 CALLDATASIZE PUSH0 CALLDATASIZE PUSH0 DUP8 DUP1 PUSH2 0x100 ADD SWAP1 PUSH2 0x1356 SWAP2 SWAP1 PUSH2 0x255C JUMP JUMPDEST SWAP2 POP SWAP2 POP DUP2 DUP2 PUSH0 SWAP1 PUSH1 0x6 SWAP3 PUSH2 0x136D SWAP4 SWAP3 SWAP2 SWAP1 PUSH2 0x2F03 JUMP JUMPDEST SWAP1 PUSH2 0x1378 SWAP2 SWAP1 PUSH2 0x2F68 JUMP JUMPDEST PUSH1 0xD0 SHR SWAP6 POP DUP2 DUP2 PUSH1 0x6 SWAP1 PUSH1 0xC SWAP3 PUSH2 0x1391 SWAP4 SWAP3 SWAP2 SWAP1 PUSH2 0x2F03 JUMP JUMPDEST SWAP1 PUSH2 0x139C SWAP2 SWAP1 PUSH2 0x2F68 JUMP JUMPDEST PUSH1 0xD0 SHR SWAP5 POP DUP2 DUP2 PUSH1 0xC SWAP1 DUP1 SWAP3 PUSH2 0x13B4 SWAP4 SWAP3 SWAP2 SWAP1 PUSH2 0x2F03 JUMP JUMPDEST SWAP4 POP SWAP4 POP POP POP PUSH0 PUSH1 0x40 MLOAD DUP1 PUSH2 0x1C0 ADD PUSH1 0x40 MSTORE DUP1 PUSH32 0xC03DFC11D8B10BF9CF703D558958C8C42777F785D998C62060D85A4F0EF6EA7F PUSH0 SHL DUP2 MSTORE PUSH1 0x20 ADD DUP9 PUSH0 ADD PUSH1 0x20 DUP2 ADD SWAP1 PUSH2 0x1401 SWAP2 SWAP1 PUSH2 0x2525 JUMP JUMPDEST PUSH20 0xFFFFFFFFFFFFFFFFFFFFFFFFFFFFFFFFFFFFFFFF AND DUP2 MSTORE PUSH1 0x20 ADD DUP9 PUSH1 0x20 ADD CALLDATALOAD DUP2 MSTORE PUSH1 0x20 ADD DUP9 DUP1 PUSH1 0x40 ADD SWAP1 PUSH2 0x1436 SWAP2 SWAP1 PUSH2 0x255C JUMP JUMPDEST PUSH1 0x40 MLOAD PUSH2 0x1444 SWAP3 SWAP2 SWAP1 PUSH2 0x2B2F JUMP JUMPDEST PUSH1 0x40 MLOAD DUP1 SWAP2 SUB SWAP1 KECCAK256 DUP2 MSTORE PUSH1 0x20 ADD DUP9 DUP1 PUSH1 0x60 ADD SWAP1 PUSH2 0x1461 SWAP2 SWAP1 PUSH2 0x255C JUMP JUMPDEST PUSH1 0x40 MLOAD PUSH2 0x146F SWAP3 SWAP2 SWAP1 PUSH2 0x2B2F JUMP JUMPDEST PUSH1 0x40 MLOAD DUP1 SWAP2 SUB SWAP1 KECCAK256 DUP2 MSTORE PUSH1 0x20 ADD PUSH2 0x1485 DUP10 PUSH2 0x1711 JUMP JUMPDEST PUSH16 0xFFFFFFFFFFFFFFFFFFFFFFFFFFFFFFFF AND DUP2 MSTORE PUSH1 0x20 ADD PUSH2 0x14A5 DUP10 PUSH2 0x1726 JUMP JUMPDEST PUSH16 0xFFFFFFFFFFFFFFFFFFFFFFFFFFFFFFFF AND DUP2 MSTORE PUSH1 0x20 ADD DUP9 PUSH1 0xA0 ADD CALLDATALOAD DUP2 MSTORE PUSH1 0x20 ADD PUSH2 0x14CF DUP10 PUSH2 0x173B JUMP JUMPDEST PUSH16 0xFFFFFFFFFFFFFFFFFFFFFFFFFFFFFFFF AND DUP2 MSTORE PUSH1 0x20 ADD PUSH2 0x14EF DUP10 PUSH2 0x1750 JUMP JUMPDEST PUSH16 0xFFFFFFFFFFFFFFFFFFFFFFFFFFFFFFFF AND DUP2 MSTORE PUSH1 0x20 ADD DUP9 DUP1 PUSH1 0xE0 ADD SWAP1 PUSH2 0x1516 SWAP2 SWAP1 PUSH2 0x255C JUMP JUMPDEST PUSH1 0x40 MLOAD PUSH2 0x1524 SWAP3 SWAP2 SWAP1 PUSH2 0x2B2F JUMP JUMPDEST PUSH1 0x40 MLOAD DUP1 SWAP2 SUB SWAP1 KECCAK256 DUP2 MSTORE PUSH1 0x20 ADD DUP7 PUSH6 0xFFFFFFFFFFFF AND DUP2 MSTORE PUSH1 0x20 ADD DUP6 PUSH6 0xFFFFFFFFFFFF AND DUP2 MSTORE PUSH1 0x20 ADD PUSH0 PUSH0 SWAP1 SLOAD SWAP1 PUSH2 0x100 EXP SWAP1 DIV PUSH20 0xFFFFFFFFFFFFFFFFFFFFFFFFFFFFFFFFFFFFFFFF AND PUSH20 0xFFFFFFFFFFFFFFFFFFFFFFFFFFFFFFFFFFFFFFFF AND DUP2 MSTORE POP SWAP1 POP PUSH0 PUSH2 0x1C0 DUP3 KECCAK256 SWAP1 POP PUSH1 0x19 PUSH1 0xF8 SHL PUSH1 0x1 PUSH1 0xF8 SHL PUSH2 0x15A3 PUSH2 0x101F JUMP JUMPDEST DUP4 PUSH1 0x40 MLOAD PUSH1 0x20 ADD PUSH2 0x15B7 SWAP5 SWAP4 SWAP3 SWAP2 SWAP1 PUSH2 0x2805 JUMP JUMPDEST PUSH1 0x40 MLOAD PUSH1 0x20 DUP2 DUP4 SUB SUB DUP2 MSTORE SWAP1 PUSH1 0x40 MSTORE SWAP7 POP POP POP SWAP2 SWAP4 SWAP6 SWAP1 SWAP3 SWAP5 POP JUMP JUMPDEST PUSH0 PUSH0 PUSH1 0x41 DUP4 PUSH2 0x15E2 SWAP2 SWAP1 PUSH2 0x2FF3 JUMP JUMPDEST SWAP1 POP DUP1 DUP6 DUP6 SWAP1 POP LT ISZERO PUSH2 0x15F8 JUMPI PUSH0 SWAP2 POP POP PUSH2 0x16D6 JUMP JUMPDEST PUSH0 PUSH0 SWAP1 POP JUMPDEST DUP4 DUP2 LT ISZERO PUSH2 0x16CA JUMPI PUSH0 PUSH1 0x41 DUP3 PUSH2 0x1613 SWAP2 SWAP1 PUSH2 0x2FF3 JUMP JUMPDEST SWAP1 POP PUSH0 DUP8 DUP8 PUSH1 0x40 DUP5 PUSH2 0x1625 SWAP2 SWAP1 PUSH2 0x3034 JUMP JUMPDEST DUP2 DUP2 LT PUSH2 0x1635 JUMPI PUSH2 0x1634 PUSH2 0x3067 JUMP JUMPDEST JUMPDEST SWAP1 POP ADD CALLDATALOAD PUSH1 0xF8 SHR PUSH1 0xF8 SHL PUSH1 0xF8 SHR SWAP1 POP PUSH0 DUP2 PUSH1 0xFF AND SUB PUSH2 0x16BB JUMPI PUSH0 DUP9 DUP9 PUSH1 0x20 DUP6 PUSH2 0x165E SWAP2 SWAP1 PUSH2 0x3034 JUMP JUMPDEST SWAP1 DUP1 SWAP3 PUSH2 0x166D SWAP4 SWAP3 SWAP2 SWAP1 PUSH2 0x2F03 JUMP JUMPDEST SWAP1 PUSH2 0x1678 SWAP2 SWAP1 PUSH2 0x3094 JUMP JUMPDEST PUSH0 SHR SWAP1 POP PUSH0 DUP10 DUP10 DUP4 SWAP1 DUP1 SWAP3 PUSH2 0x168F SWAP4 SWAP3 SWAP2 SWAP1 PUSH2 0x2F03 JUMP JUMPDEST SWAP1 PUSH2 0x169A SWAP2 SWAP1 PUSH2 0x3094 JUMP JUMPDEST PUSH0 SHR SWAP1 POP DUP1 PUSH1 0x20 PUSH2 0x16AB SWAP2 SWAP1 PUSH2 0x3034 JUMP JUMPDEST DUP7 PUSH2 0x16B6 SWAP2 SWAP1 PUSH2 0x3034 JUMP JUMPDEST SWAP6 POP POP POP JUMPDEST POP POP DUP1 DUP1 PUSH1 0x1 ADD SWAP2 POP POP PUSH2 0x15FD JUMP JUMPDEST POP DUP1 DUP6 DUP6 SWAP1 POP GT ISZERO SWAP2 POP POP JUMPDEST SWAP4 SWAP3 POP POP POP JUMP JUMPDEST PUSH0 PUSH1 0xD0 DUP3 PUSH6 0xFFFFFFFFFFFF AND SWAP1 SHL PUSH1 0xA0 DUP5 PUSH6 0xFFFFFFFFFFFF AND SWAP1 SHL DUP6 PUSH2 0x1703 JUMPI PUSH0 PUSH2 0x1706 JUMP JUMPDEST PUSH1 0x1 JUMPDEST OR OR SWAP1 POP SWAP4 SWAP3 POP POP POP JUMP JUMPDEST PUSH0 PUSH2 0x171F DUP3 PUSH1 0x80 ADD CALLDATALOAD PUSH2 0x1765 JUMP JUMPDEST SWAP1 POP SWAP2 SWAP1 POP JUMP JUMPDEST PUSH0 PUSH2 0x1734 DUP3 PUSH1 0x80 ADD CALLDATALOAD PUSH2 0x1774 JUMP JUMPDEST SWAP1 POP SWAP2 SWAP1 POP JUMP JUMPDEST PUSH0 PUSH2 0x1749 DUP3 PUSH1 0xC0 ADD CALLDATALOAD PUSH2 0x1765 JUMP JUMPDEST SWAP1 POP SWAP2 SWAP1 POP JUMP JUMPDEST PUSH0 PUSH2 0x175E DUP3 PUSH1 0xC0 ADD CALLDATALOAD PUSH2 0x1774 JUMP JUMPDEST SWAP1 POP SWAP2 SWAP1 POP JUMP JUMPDEST PUSH0 PUSH1 0x80 DUP3 PUSH0 SHR SWAP1 SHR SWAP1 POP SWAP2 SWAP1 POP JUMP JUMPDEST PUSH0 DUP2 PUSH0 SHR PUSH16 0xFFFFFFFFFFFFFFFFFFFFFFFFFFFFFFFF AND SWAP1 POP SWAP2 SWAP1 POP JUMP JUMPDEST PUSH0 PUSH1 0x40 MLOAD SWAP1 POP SWAP1 JUMP JUMPDEST PUSH0 PUSH0 REVERT JUMPDEST PUSH0 PUSH0 REVERT JUMPDEST PUSH0 PUSH20 0xFFFFFFFFFFFFFFFFFFFFFFFFFFFFFFFFFFFFFFFF DUP3 AND SWAP1 POP SWAP2 SWAP1 POP JUMP JUMPDEST PUSH0 PUSH2 0x17CB DUP3 PUSH2 0x17A2 JUMP JUMPDEST SWAP1 POP SWAP2 SWAP1 POP JUMP JUMPDEST PUSH2 0x17DB DUP2 PUSH2 0x17C1 JUMP JUMPDEST DUP2 EQ PUSH2 0x17E5 JUMPI PUSH0 PUSH0 REVERT JUMPDEST POP JUMP JUMPDEST PUSH0 DUP2 CALLDATALOAD SWAP1 POP PUSH2 0x17F6 DUP2 PUSH2 0x17D2 JUMP JUMPDEST SWAP3 SWAP2 POP POP JUMP JUMPDEST PUSH0 DUP2 SWAP1 POP SWAP2 SWAP1 POP JUMP JUMPDEST PUSH2 0x180E DUP2 PUSH2 0x17FC JUMP JUMPDEST DUP2 EQ PUSH2 0x1818 JUMPI PUSH0 PUSH0 REVERT JUMPDEST POP JUMP JUMPDEST PUSH0 DUP2 CALLDATALOAD SWAP1 POP PUSH2 0x1829 DUP2 PUSH2 0x1805 JUMP JUMPDEST SWAP3 SWAP2 POP POP JUMP JUMPDEST PUSH0 PUSH0 REVERT JUMPDEST PUSH0 PUSH0 REVERT JUMPDEST PUSH0 PUSH0 REVERT JUMPDEST PUSH0 PUSH0 DUP4 PUSH1 0x1F DUP5 ADD SLT PUSH2 0x1850 JUMPI PUSH2 0x184F PUSH2 0x182F JUMP JUMPDEST JUMPDEST DUP3 CALLDATALOAD SWAP1 POP PUSH8 0xFFFFFFFFFFFFFFFF DUP2 GT ISZERO PUSH2 0x186D JUMPI PUSH2 0x186C PUSH2 0x1833 JUMP JUMPDEST JUMPDEST PUSH1 0x20 DUP4 ADD SWAP2 POP DUP4 PUSH1 0x1 DUP3 MUL DUP4 ADD GT ISZERO PUSH2 0x1889 JUMPI PUSH2 0x1888 PUSH2 0x1837 JUMP JUMPDEST JUMPDEST SWAP3 POP SWAP3 SWAP1 POP JUMP JUMPDEST PUSH0 PUSH0 PUSH0 PUSH0 PUSH0 PUSH0 PUSH0 PUSH0 PUSH1 0xC0 DUP10 DUP12 SUB SLT ISZERO PUSH2 0x18AC JUMPI PUSH2 0x18AB PUSH2 0x179A JUMP JUMPDEST JUMPDEST PUSH0 PUSH2 0x18B9 DUP12 DUP3 DUP13 ADD PUSH2 0x17E8 JUMP JUMPDEST SWAP9 POP POP PUSH1 0x20 PUSH2 0x18CA DUP12 DUP3 DUP13 ADD PUSH2 0x17E8 JUMP JUMPDEST SWAP8 POP POP PUSH1 0x40 PUSH2 0x18DB DUP12 DUP3 DUP13 ADD PUSH2 0x17E8 JUMP JUMPDEST SWAP7 POP POP PUSH1 0x60 PUSH2 0x18EC DUP12 DUP3 DUP13 ADD PUSH2 0x181B JUMP JUMPDEST SWAP6 POP POP PUSH1 0x80 DUP10 ADD CALLDATALOAD PUSH8 0xFFFFFFFFFFFFFFFF DUP2 GT ISZERO PUSH2 0x190D JUMPI PUSH2 0x190C PUSH2 0x179E JUMP JUMPDEST JUMPDEST PUSH2 0x1919 DUP12 DUP3 DUP13 ADD PUSH2 0x183B JUMP JUMPDEST SWAP5 POP SWAP5 POP POP PUSH1 0xA0 DUP10 ADD CALLDATALOAD PUSH8 0xFFFFFFFFFFFFFFFF DUP2 GT ISZERO PUSH2 0x193C JUMPI PUSH2 0x193B PUSH2 0x179E JUMP JUMPDEST JUMPDEST PUSH2 0x1948 DUP12 DUP3 DUP13 ADD PUSH2 0x183B JUMP JUMPDEST SWAP3 POP SWAP3 POP POP SWAP3 SWAP6 SWAP9 POP SWAP3 SWAP6 SWAP9 SWAP1 SWAP4 SWAP7 POP JUMP JUMPDEST PUSH0 PUSH32 0xFFFFFFFF00000000000000000000000000000000000000000000000000000000 DUP3 AND SWAP1 POP SWAP2 SWAP1 POP JUMP JUMPDEST PUSH2 0x198E DUP2 PUSH2 0x195A JUMP JUMPDEST DUP2 EQ PUSH2 0x1998 JUMPI PUSH0 PUSH0 REVERT JUMPDEST POP JUMP JUMPDEST PUSH0 DUP2 CALLDATALOAD SWAP1 POP PUSH2 0x19A9 DUP2 PUSH2 0x1985 JUMP JUMPDEST SWAP3 SWAP2 POP POP JUMP JUMPDEST PUSH0 PUSH1 0x20 DUP3 DUP5 SUB SLT ISZERO PUSH2 0x19C4 JUMPI PUSH2 0x19C3 PUSH2 0x179A JUMP JUMPDEST JUMPDEST PUSH0 PUSH2 0x19D1 DUP5 DUP3 DUP6 ADD PUSH2 0x199B JUMP JUMPDEST SWAP2 POP POP SWAP3 SWAP2 POP POP JUMP JUMPDEST PUSH0 DUP2 ISZERO ISZERO SWAP1 POP SWAP2 SWAP1 POP JUMP JUMPDEST PUSH2 0x19EE DUP2 PUSH2 0x19DA JUMP JUMPDEST DUP3 MSTORE POP POP JUMP JUMPDEST PUSH0 PUSH1 0x20 DUP3 ADD SWAP1 POP PUSH2 0x1A07 PUSH0 DUP4 ADD DUP5 PUSH2 0x19E5 JUMP JUMPDEST SWAP3 SWAP2 POP POP JUMP JUMPDEST PUSH2 0x1A16 DUP2 PUSH2 0x17C1 JUMP JUMPDEST DUP3 MSTORE POP POP JUMP JUMPDEST PUSH0 PUSH1 0x20 DUP3 ADD SWAP1 POP PUSH2 0x1A2F PUSH0 DUP4 ADD DUP5 PUSH2 0x1A0D JUMP JUMPDEST SWAP3 SWAP2 POP POP JUMP JUMPDEST PUSH0 PUSH0 REVERT JUMPDEST PUSH0 PUSH1 0x1F NOT PUSH1 0x1F DUP4 ADD AND SWAP1 POP SWAP2 SWAP1 POP JUMP JUMPDEST PUSH32 0x4E487B7100000000000000000000000000000000000000000000000000000000 PUSH0 MSTORE PUSH1 0x41 PUSH1 0x4 MSTORE PUSH1 0x24 PUSH0 REVERT JUMPDEST PUSH2 0x1A7F DUP3 PUSH2 0x1A39 JUMP JUMPDEST DUP2 ADD DUP2 DUP2 LT PUSH8 0xFFFFFFFFFFFFFFFF DUP3 GT OR ISZERO PUSH2 0x1A9E JUMPI PUSH2 0x1A9D PUSH2 0x1A49 JUMP JUMPDEST JUMPDEST DUP1 PUSH1 0x40 MSTORE POP POP POP JUMP JUMPDEST PUSH0 PUSH2 0x1AB0 PUSH2 0x1791 JUMP JUMPDEST SWAP1 POP PUSH2 0x1ABC DUP3 DUP3 PUSH2 0x1A76 JUMP JUMPDEST SWAP2 SWAP1 POP JUMP JUMPDEST PUSH0 PUSH8 0xFFFFFFFFFFFFFFFF DUP3 GT ISZERO PUSH2 0x1ADB JUMPI PUSH2 0x1ADA PUSH2 0x1A49 JUMP JUMPDEST JUMPDEST PUSH2 0x1AE4 DUP3 PUSH2 0x1A39 JUMP JUMPDEST SWAP1 POP PUSH1 0x20 DUP2 ADD SWAP1 POP SWAP2 SWAP1 POP JUMP JUMPDEST DUP3 DUP2 DUP4 CALLDATACOPY PUSH0 DUP4 DUP4 ADD MSTORE POP POP POP JUMP JUMPDEST PUSH0 PUSH2 0x1B11 PUSH2 0x1B0C DUP5 PUSH2 0x1AC1 JUMP JUMPDEST PUSH2 0x1AA7 JUMP JUMPDEST SWAP1 POP DUP3 DUP2 MSTORE PUSH1 0x20 DUP2 ADD DUP5 DUP5 DUP5 ADD GT ISZERO PUSH2 0x1B2D JUMPI PUSH2 0x1B2C PUSH2 0x1A35 JUMP JUMPDEST JUMPDEST PUSH2 0x1B38 DUP5 DUP3 DUP6 PUSH2 0x1AF1 JUMP JUMPDEST POP SWAP4 SWAP3 POP POP POP JUMP JUMPDEST PUSH0 DUP3 PUSH1 0x1F DUP4 ADD SLT PUSH2 0x1B54 JUMPI PUSH2 0x1B53 PUSH2 0x182F JUMP JUMPDEST JUMPDEST DUP2 CALLDATALOAD PUSH2 0x1B64 DUP5 DUP3 PUSH1 0x20 DUP7 ADD PUSH2 0x1AFF JUMP JUMPDEST SWAP2 POP POP SWAP3 SWAP2 POP POP JUMP JUMPDEST PUSH0 PUSH1 0x20 DUP3 DUP5 SUB SLT ISZERO PUSH2 0x1B82 JUMPI PUSH2 0x1B81 PUSH2 0x179A JUMP JUMPDEST JUMPDEST PUSH0 DUP3 ADD CALLDATALOAD PUSH8 0xFFFFFFFFFFFFFFFF DUP2 GT ISZERO PUSH2 0x1B9F JUMPI PUSH2 0x1B9E PUSH2 0x179E JUMP JUMPDEST JUMPDEST PUSH2 0x1BAB DUP5 DUP3 DUP6 ADD PUSH2 0x1B40 JUMP JUMPDEST SWAP2 POP POP SWAP3 SWAP2 POP POP JUMP JUMPDEST PUSH0 DUP2 SWAP1 POP SWAP2 SWAP1 POP JUMP JUMPDEST PUSH2 0x1BC6 DUP2 PUSH2 0x1BB4 JUMP JUMPDEST DUP3 MSTORE POP POP JUMP JUMPDEST PUSH0 PUSH1 0x20 DUP3 ADD SWAP1 POP PUSH2 0x1BDF PUSH0 DUP4 ADD DUP5 PUSH2 0x1BBD JUMP JUMPDEST SWAP3 SWAP2 POP POP JUMP JUMPDEST PUSH0 PUSH0 PUSH0 PUSH0 PUSH0 PUSH1 0x80 DUP7 DUP9 SUB SLT ISZERO PUSH2 0x1BFE JUMPI PUSH2 0x1BFD PUSH2 0x179A JUMP JUMPDEST JUMPDEST PUSH0 PUSH2 0x1C0B DUP9 DUP3 DUP10 ADD PUSH2 0x17E8 JUMP JUMPDEST SWAP6 POP POP PUSH1 0x20 PUSH2 0x1C1C DUP9 DUP3 DUP10 ADD PUSH2 0x17E8 JUMP JUMPDEST SWAP5 POP POP PUSH1 0x40 PUSH2 0x1C2D DUP9 DUP3 DUP10 ADD PUSH2 0x181B JUMP JUMPDEST SWAP4 POP POP PUSH1 0x60 DUP7 ADD CALLDATALOAD PUSH8 0xFFFFFFFFFFFFFFFF DUP2 GT ISZERO PUSH2 0x1C4E JUMPI PUSH2 0x1C4D PUSH2 0x179E JUMP JUMPDEST JUMPDEST PUSH2 0x1C5A DUP9 DUP3 DUP10 ADD PUSH2 0x183B JUMP JUMPDEST SWAP3 POP SWAP3 POP POP SWAP3 SWAP6 POP SWAP3 SWAP6 SWAP1 SWAP4 POP JUMP JUMPDEST PUSH2 0x1C72 DUP2 PUSH2 0x195A JUMP JUMPDEST DUP3 MSTORE POP POP JUMP JUMPDEST PUSH0 PUSH1 0x20 DUP3 ADD SWAP1 POP PUSH2 0x1C8B PUSH0 DUP4 ADD DUP5 PUSH2 0x1C69 JUMP JUMPDEST SWAP3 SWAP2 POP POP JUMP JUMPDEST PUSH2 0x1C9A DUP2 PUSH2 0x1BB4 JUMP JUMPDEST DUP2 EQ PUSH2 0x1CA4 JUMPI PUSH0 PUSH0 REVERT JUMPDEST POP JUMP JUMPDEST PUSH0 DUP2 CALLDATALOAD SWAP1 POP PUSH2 0x1CB5 DUP2 PUSH2 0x1C91 JUMP JUMPDEST SWAP3 SWAP2 POP POP JUMP JUMPDEST PUSH0 PUSH0 PUSH0 PUSH1 0x40 DUP5 DUP7 SUB SLT ISZERO PUSH2 0x1CD2 JUMPI PUSH2 0x1CD1 PUSH2 0x179A JUMP JUMPDEST JUMPDEST PUSH0 PUSH2 0x1CDF DUP7 DUP3 DUP8 ADD PUSH2 0x1CA7 JUMP JUMPDEST SWAP4 POP POP PUSH1 0x20 DUP5 ADD CALLDATALOAD PUSH8 0xFFFFFFFFFFFFFFFF DUP2 GT ISZERO PUSH2 0x1D00 JUMPI PUSH2 0x1CFF PUSH2 0x179E JUMP JUMPDEST JUMPDEST PUSH2 0x1D0C DUP7 DUP3 DUP8 ADD PUSH2 0x183B JUMP JUMPDEST SWAP3 POP SWAP3 POP POP SWAP3 POP SWAP3 POP SWAP3 JUMP JUMPDEST PUSH0 PUSH0 REVERT JUMPDEST PUSH0 PUSH2 0x120 DUP3 DUP5 SUB SLT ISZERO PUSH2 0x1D32 JUMPI PUSH2 0x1D31 PUSH2 0x1D18 JUMP JUMPDEST JUMPDEST DUP2 SWAP1 POP SWAP3 SWAP2 POP POP JUMP JUMPDEST PUSH0 PUSH0 PUSH0 PUSH1 0x60 DUP5 DUP7 SUB SLT ISZERO PUSH2 0x1D52 JUMPI PUSH2 0x1D51 PUSH2 0x179A JUMP JUMPDEST JUMPDEST PUSH0 DUP5 ADD CALLDATALOAD PUSH8 0xFFFFFFFFFFFFFFFF DUP2 GT ISZERO PUSH2 0x1D6F JUMPI PUSH2 0x1D6E PUSH2 0x179E JUMP JUMPDEST JUMPDEST PUSH2 0x1D7B DUP7 DUP3 DUP8 ADD PUSH2 0x1D1C JUMP JUMPDEST SWAP4 POP POP PUSH1 0x20 PUSH2 0x1D8C DUP7 DUP3 DUP8 ADD PUSH2 0x1CA7 JUMP JUMPDEST SWAP3 POP POP PUSH1 0x40 PUSH2 0x1D9D DUP7 DUP3 DUP8 ADD PUSH2 0x181B JUMP JUMPDEST SWAP2 POP POP SWAP3 POP SWAP3 POP SWAP3 JUMP JUMPDEST PUSH2 0x1DB0 DUP2 PUSH2 0x17FC JUMP JUMPDEST DUP3 MSTORE POP POP JUMP JUMPDEST PUSH0 PUSH1 0x20 DUP3 ADD SWAP1 POP PUSH2 0x1DC9 PUSH0 DUP4 ADD DUP5 PUSH2 0x1DA7 JUMP JUMPDEST SWAP3 SWAP2 POP POP JUMP JUMPDEST PUSH0 PUSH2 0x1DD9 DUP3 PUSH2 0x17A2 JUMP JUMPDEST SWAP1 POP SWAP2 SWAP1 POP JUMP JUMPDEST PUSH0 PUSH2 0x1DEA DUP3 PUSH2 0x1DCF JUMP JUMPDEST SWAP1 POP SWAP2 SWAP1 POP JUMP JUMPDEST PUSH2 0x1DFA DUP2 PUSH2 0x1DE0 JUMP JUMPDEST DUP2 EQ PUSH2 0x1E04 JUMPI PUSH0 PUSH0 REVERT JUMPDEST POP JUMP JUMPDEST PUSH0 DUP2 CALLDATALOAD SWAP1 POP PUSH2 0x1E15 DUP2 PUSH2 0x1DF1 JUMP JUMPDEST SWAP3 SWAP2 POP POP JUMP JUMPDEST PUSH0 PUSH0 PUSH1 0x40 DUP4 DUP6 SUB SLT ISZERO PUSH2 0x1E31 JUMPI PUSH2 0x1E30 PUSH2 0x179A JUMP JUMPDEST JUMPDEST PUSH0 PUSH2 0x1E3E DUP6 DUP3 DUP7 ADD PUSH2 0x1E07 JUMP JUMPDEST SWAP3 POP POP PUSH1 0x20 DUP4 ADD CALLDATALOAD PUSH8 0xFFFFFFFFFFFFFFFF DUP2 GT ISZERO PUSH2 0x1E5F JUMPI PUSH2 0x1E5E PUSH2 0x179E JUMP JUMPDEST JUMPDEST PUSH2 0x1E6B DUP6 DUP3 DUP7 ADD PUSH2 0x1B40 JUMP JUMPDEST SWAP2 POP POP SWAP3 POP SWAP3 SWAP1 POP JUMP JUMPDEST PUSH0 DUP2 MLOAD SWAP1 POP SWAP2 SWAP1 POP JUMP JUMPDEST PUSH0 DUP3 DUP3 MSTORE PUSH1 0x20 DUP3 ADD SWAP1 POP SWAP3 SWAP2 POP POP JUMP JUMPDEST DUP3 DUP2 DUP4 MCOPY PUSH0 DUP4 DUP4 ADD MSTORE POP POP POP JUMP JUMPDEST PUSH0 PUSH2 0x1EA7 DUP3 PUSH2 0x1E75 JUMP JUMPDEST PUSH2 0x1EB1 DUP2 DUP6 PUSH2 0x1E7F JUMP JUMPDEST SWAP4 POP PUSH2 0x1EC1 DUP2 DUP6 PUSH1 0x20 DUP7 ADD PUSH2 0x1E8F JUMP JUMPDEST PUSH2 0x1ECA DUP2 PUSH2 0x1A39 JUMP JUMPDEST DUP5 ADD SWAP2 POP POP SWAP3 SWAP2 POP POP JUMP JUMPDEST PUSH0 PUSH1 0x20 DUP3 ADD SWAP1 POP DUP2 DUP2 SUB PUSH0 DUP4 ADD MSTORE PUSH2 0x1EED DUP2 DUP5 PUSH2 0x1E9D JUMP JUMPDEST SWAP1 POP SWAP3 SWAP2 POP POP JUMP JUMPDEST PUSH0 PUSH1 0xFF DUP3 AND SWAP1 POP SWAP2 SWAP1 POP JUMP JUMPDEST PUSH2 0x1F0A DUP2 PUSH2 0x1EF5 JUMP JUMPDEST DUP2 EQ PUSH2 0x1F14 JUMPI PUSH0 PUSH0 REVERT JUMPDEST POP JUMP JUMPDEST PUSH0 DUP2 CALLDATALOAD SWAP1 POP PUSH2 0x1F25 DUP2 PUSH2 0x1F01 JUMP JUMPDEST SWAP3 SWAP2 POP POP JUMP JUMPDEST PUSH0 PUSH0 PUSH0 PUSH0 PUSH1 0x80 DUP6 DUP8 SUB SLT ISZERO PUSH2 0x1F43 JUMPI PUSH2 0x1F42 PUSH2 0x179A JUMP JUMPDEST JUMPDEST PUSH0 PUSH2 0x1F50 DUP8 DUP3 DUP9 ADD PUSH2 0x17E8 JUMP JUMPDEST SWAP5 POP POP PUSH1 0x20 PUSH2 0x1F61 DUP8 DUP3 DUP9 ADD PUSH2 0x181B JUMP JUMPDEST SWAP4 POP POP PUSH1 0x40 DUP6 ADD CALLDATALOAD PUSH8 0xFFFFFFFFFFFFFFFF DUP2 GT ISZERO PUSH2 0x1F82 JUMPI PUSH2 0x1F81 PUSH2 0x179E JUMP JUMPDEST JUMPDEST PUSH2 0x1F8E DUP8 DUP3 DUP9 ADD PUSH2 0x1B40 JUMP JUMPDEST SWAP3 POP POP PUSH1 0x60 PUSH2 0x1F9F DUP8 DUP3 DUP9 ADD PUSH2 0x1F17 JUMP JUMPDEST SWAP2 POP POP SWAP3 SWAP6 SWAP2 SWAP5 POP SWAP3 POP JUMP JUMPDEST PUSH0 DUP2 MLOAD SWAP1 POP SWAP2 SWAP1 POP JUMP JUMPDEST PUSH0 DUP3 DUP3 MSTORE PUSH1 0x20 DUP3 ADD SWAP1 POP SWAP3 SWAP2 POP POP JUMP JUMPDEST PUSH0 DUP2 SWAP1 POP PUSH1 0x20 DUP3 ADD SWAP1 POP SWAP2 SWAP1 POP JUMP JUMPDEST PUSH2 0x1FDD DUP2 PUSH2 0x17C1 JUMP JUMPDEST DUP3 MSTORE POP POP JUMP JUMPDEST PUSH0 PUSH2 0x1FEE DUP4 DUP4 PUSH2 0x1FD4 JUMP JUMPDEST PUSH1 0x20 DUP4 ADD SWAP1 POP SWAP3 SWAP2 POP POP JUMP JUMPDEST PUSH0 PUSH1 0x20 DUP3 ADD SWAP1 POP SWAP2 SWAP1 POP JUMP JUMPDEST PUSH0 PUSH2 0x2010 DUP3 PUSH2 0x1FAB JUMP JUMPDEST PUSH2 0x201A DUP2 DUP6 PUSH2 0x1FB5 JUMP JUMPDEST SWAP4 POP PUSH2 0x2025 DUP4 PUSH2 0x1FC5 JUMP JUMPDEST DUP1 PUSH0 JUMPDEST DUP4 DUP2 LT ISZERO PUSH2 0x2055 JUMPI DUP2 MLOAD PUSH2 0x203C DUP9 DUP3 PUSH2 0x1FE3 JUMP JUMPDEST SWAP8 POP PUSH2 0x2047 DUP4 PUSH2 0x1FFA JUMP JUMPDEST SWAP3 POP POP PUSH1 0x1 DUP2 ADD SWAP1 POP PUSH2 0x2028 JUMP JUMPDEST POP DUP6 SWAP4 POP POP POP POP SWAP3 SWAP2 POP POP JUMP JUMPDEST PUSH0 PUSH1 0x20 DUP3 ADD SWAP1 POP DUP2 DUP2 SUB PUSH0 DUP4 ADD MSTORE PUSH2 0x207A DUP2 DUP5 PUSH2 0x2006 JUMP JUMPDEST SWAP1 POP SWAP3 SWAP2 POP POP JUMP JUMPDEST PUSH0 PUSH1 0x20 DUP3 DUP5 SUB SLT ISZERO PUSH2 0x2097 JUMPI PUSH2 0x2096 PUSH2 0x179A JUMP JUMPDEST JUMPDEST PUSH0 DUP3 ADD CALLDATALOAD PUSH8 0xFFFFFFFFFFFFFFFF DUP2 GT ISZERO PUSH2 0x20B4 JUMPI PUSH2 0x20B3 PUSH2 0x179E JUMP JUMPDEST JUMPDEST PUSH2 0x20C0 DUP5 DUP3 DUP6 ADD PUSH2 0x1D1C JUMP JUMPDEST SWAP2 POP POP SWAP3 SWAP2 POP POP JUMP JUMPDEST PUSH0 PUSH0 DUP4 PUSH1 0x1F DUP5 ADD SLT PUSH2 0x20DE JUMPI PUSH2 0x20DD PUSH2 0x182F JUMP JUMPDEST JUMPDEST DUP3 CALLDATALOAD SWAP1 POP PUSH8 0xFFFFFFFFFFFFFFFF DUP2 GT ISZERO PUSH2 0x20FB JUMPI PUSH2 0x20FA PUSH2 0x1833 JUMP JUMPDEST JUMPDEST PUSH1 0x20 DUP4 ADD SWAP2 POP DUP4 PUSH1 0x20 DUP3 MUL DUP4 ADD GT ISZERO PUSH2 0x2117 JUMPI PUSH2 0x2116 PUSH2 0x1837 JUMP JUMPDEST JUMPDEST SWAP3 POP SWAP3 SWAP1 POP JUMP JUMPDEST PUSH0 PUSH0 PUSH0 PUSH0 PUSH0 PUSH0 PUSH0 PUSH0 PUSH1 0xA0 DUP10 DUP12 SUB SLT ISZERO PUSH2 0x213A JUMPI PUSH2 0x2139 PUSH2 0x179A JUMP JUMPDEST JUMPDEST PUSH0 PUSH2 0x2147 DUP12 DUP3 DUP13 ADD PUSH2 0x17E8 JUMP JUMPDEST SWAP9 POP POP PUSH1 0x20 PUSH2 0x2158 DUP12 DUP3 DUP13 ADD PUSH2 0x17E8 JUMP JUMPDEST SWAP8 POP POP PUSH1 0x40 DUP10 ADD CALLDATALOAD PUSH8 0xFFFFFFFFFFFFFFFF DUP2 GT ISZERO PUSH2 0x2179 JUMPI PUSH2 0x2178 PUSH2 0x179E JUMP JUMPDEST JUMPDEST PUSH2 0x2185 DUP12 DUP3 DUP13 ADD PUSH2 0x20C9 JUMP JUMPDEST SWAP7 POP SWAP7 POP POP PUSH1 0x60 DUP10 ADD CALLDATALOAD PUSH8 0xFFFFFFFFFFFFFFFF DUP2 GT ISZERO PUSH2 0x21A8 JUMPI PUSH2 0x21A7 PUSH2 0x179E JUMP JUMPDEST JUMPDEST PUSH2 0x21B4 DUP12 DUP3 DUP13 ADD PUSH2 0x20C9 JUMP JUMPDEST SWAP5 POP SWAP5 POP POP PUSH1 0x80 DUP10 ADD CALLDATALOAD PUSH8 0xFFFFFFFFFFFFFFFF DUP2 GT ISZERO PUSH2 0x21D7 JUMPI PUSH2 0x21D6 PUSH2 0x179E JUMP JUMPDEST JUMPDEST PUSH2 0x21E3 DUP12 DUP3 DUP13 ADD PUSH2 0x183B JUMP JUMPDEST SWAP3 POP SWAP3 POP POP SWAP3 SWAP6 SWAP9 POP SWAP3 SWAP6 SWAP9 SWAP1 SWAP4 SWAP7 POP JUMP JUMPDEST PUSH0 PUSH0 PUSH0 PUSH1 0x40 DUP5 DUP7 SUB SLT ISZERO PUSH2 0x220C JUMPI PUSH2 0x220B PUSH2 0x179A JUMP JUMPDEST JUMPDEST PUSH0 PUSH2 0x2219 DUP7 DUP3 DUP8 ADD PUSH2 0x17E8 JUMP JUMPDEST SWAP4 POP POP PUSH1 0x20 DUP5 ADD CALLDATALOAD PUSH8 0xFFFFFFFFFFFFFFFF DUP2 GT ISZERO PUSH2 0x223A JUMPI PUSH2 0x2239 PUSH2 0x179E JUMP JUMPDEST JUMPDEST PUSH2 0x2246 DUP7 DUP3 DUP8 ADD PUSH2 0x183B JUMP JUMPDEST SWAP3 POP SWAP3 POP POP SWAP3 POP SWAP3 POP SWAP3 JUMP JUMPDEST PUSH1 0x2 DUP2 LT PUSH2 0x225E JUMPI PUSH0 PUSH0 REVERT JUMPDEST POP JUMP JUMPDEST PUSH0 DUP2 CALLDATALOAD SWAP1 POP PUSH2 0x226F DUP2 PUSH2 0x2252 JUMP JUMPDEST SWAP3 SWAP2 POP POP JUMP JUMPDEST PUSH0 PUSH0 PUSH0 PUSH0 PUSH0 PUSH0 PUSH0 PUSH0 PUSH0 PUSH0 PUSH0 PUSH2 0x140 DUP13 DUP15 SUB SLT ISZERO PUSH2 0x2295 JUMPI PUSH2 0x2294 PUSH2 0x179A JUMP JUMPDEST JUMPDEST PUSH0 PUSH2 0x22A2 DUP15 DUP3 DUP16 ADD PUSH2 0x17E8 JUMP JUMPDEST SWAP12 POP POP PUSH1 0x20 PUSH2 0x22B3 DUP15 DUP3 DUP16 ADD PUSH2 0x181B JUMP JUMPDEST SWAP11 POP POP PUSH1 0x40 DUP13 ADD CALLDATALOAD PUSH8 0xFFFFFFFFFFFFFFFF DUP2 GT ISZERO PUSH2 0x22D4 JUMPI PUSH2 0x22D3 PUSH2 0x179E JUMP JUMPDEST JUMPDEST PUSH2 0x22E0 DUP15 DUP3 DUP16 ADD PUSH2 0x183B JUMP JUMPDEST SWAP10 POP SWAP10 POP POP PUSH1 0x60 PUSH2 0x22F3 DUP15 DUP3 DUP16 ADD PUSH2 0x2261 JUMP JUMPDEST SWAP8 POP POP PUSH1 0x80 PUSH2 0x2304 DUP15 DUP3 DUP16 ADD PUSH2 0x181B JUMP JUMPDEST SWAP7 POP POP PUSH1 0xA0 PUSH2 0x2315 DUP15 DUP3 DUP16 ADD PUSH2 0x181B JUMP JUMPDEST SWAP6 POP POP PUSH1 0xC0 PUSH2 0x2326 DUP15 DUP3 DUP16 ADD PUSH2 0x181B JUMP JUMPDEST SWAP5 POP POP PUSH1 0xE0 PUSH2 0x2337 DUP15 DUP3 DUP16 ADD PUSH2 0x17E8 JUMP JUMPDEST SWAP4 POP POP PUSH2 0x100 PUSH2 0x2349 DUP15 DUP3 DUP16 ADD PUSH2 0x17E8 JUMP JUMPDEST SWAP3 POP POP PUSH2 0x120 PUSH2 0x235B DUP15 DUP3 DUP16 ADD PUSH2 0x181B JUMP JUMPDEST SWAP2 POP POP SWAP3 SWAP6 SWAP9 SWAP12 POP SWAP3 SWAP6 SWAP9 SWAP12 SWAP1 SWAP4 SWAP7 SWAP10 POP JUMP JUMPDEST PUSH0 PUSH0 PUSH0 PUSH0 PUSH0 PUSH0 PUSH1 0xA0 DUP8 DUP10 SUB SLT ISZERO PUSH2 0x2388 JUMPI PUSH2 0x2387 PUSH2 0x179A JUMP JUMPDEST JUMPDEST PUSH0 PUSH2 0x2395 DUP10 DUP3 DUP11 ADD PUSH2 0x17E8 JUMP JUMPDEST SWAP7 POP POP PUSH1 0x20 PUSH2 0x23A6 DUP10 DUP3 DUP11 ADD PUSH2 0x17E8 JUMP JUMPDEST SWAP6 POP POP PUSH1 0x40 PUSH2 0x23B7 DUP10 DUP3 DUP11 ADD PUSH2 0x181B JUMP JUMPDEST SWAP5 POP POP PUSH1 0x60 PUSH2 0x23C8 DUP10 DUP3 DUP11 ADD PUSH2 0x181B JUMP JUMPDEST SWAP4 POP POP PUSH1 0x80 DUP8 ADD CALLDATALOAD PUSH8 0xFFFFFFFFFFFFFFFF DUP2 GT ISZERO PUSH2 0x23E9 JUMPI PUSH2 0x23E8 PUSH2 0x179E JUMP JUMPDEST JUMPDEST PUSH2 0x23F5 DUP10 DUP3 DUP11 ADD PUSH2 0x183B JUMP JUMPDEST SWAP3 POP SWAP3 POP POP SWAP3 SWAP6 POP SWAP3 SWAP6 POP SWAP3 SWAP6 JUMP JUMPDEST PUSH0 DUP2 MLOAD SWAP1 POP PUSH2 0x2412 DUP2 PUSH2 0x1805 JUMP JUMPDEST SWAP3 SWAP2 POP POP JUMP JUMPDEST PUSH0 PUSH1 0x20 DUP3 DUP5 SUB SLT ISZERO PUSH2 0x242D JUMPI PUSH2 0x242C PUSH2 0x179A JUMP JUMPDEST JUMPDEST PUSH0 PUSH2 0x243A DUP5 DUP3 DUP6 ADD PUSH2 0x2404 JUMP JUMPDEST SWAP2 POP POP SWAP3 SWAP2 POP POP JUMP JUMPDEST PUSH0 DUP3 DUP3 MSTORE PUSH1 0x20 DUP3 ADD SWAP1 POP SWAP3 SWAP2 POP POP JUMP JUMPDEST PUSH32 0x48617368206E6F7420617070726F766564000000000000000000000000000000 PUSH0 DUP3 ADD MSTORE POP JUMP JUMPDEST PUSH0 PUSH2 0x2487 PUSH1 0x11 DUP4 PUSH2 0x2443 JUMP JUMPDEST SWAP2 POP PUSH2 0x2492 DUP3 PUSH2 0x2453 JUMP JUMPDEST PUSH1 0x20 DUP3 ADD SWAP1 POP SWAP2 SWAP1 POP JUMP JUMPDEST PUSH0 PUSH1 0x20 DUP3 ADD SWAP1 POP DUP2 DUP2 SUB PUSH0 DUP4 ADD MSTORE PUSH2 0x24B4 DUP2 PUSH2 0x247B JUMP JUMPDEST SWAP1 POP SWAP2 SWAP1 POP JUMP JUMPDEST PUSH0 PUSH2 0x24C6 DUP4 DUP6 PUSH2 0x1E7F JUMP JUMPDEST SWAP4 POP PUSH2 0x24D3 DUP4 DUP6 DUP5 PUSH2 0x1AF1 JUMP JUMPDEST PUSH2 0x24DC DUP4 PUSH2 0x1A39 JUMP JUMPDEST DUP5 ADD SWAP1 POP SWAP4 SWAP3 POP POP POP JUMP JUMPDEST PUSH0 PUSH1 0x60 DUP3 ADD SWAP1 POP PUSH2 0x24FA PUSH0 DUP4 ADD DUP8 PUSH2 0x1A0D JUMP JUMPDEST PUSH2 0x2507 PUSH1 0x20 DUP4 ADD DUP7 PUSH2 0x1BBD JUMP JUMPDEST DUP2 DUP2 SUB PUSH1 0x40 DUP4 ADD MSTORE PUSH2 0x251A DUP2 DUP5 DUP7 PUSH2 0x24BB JUMP JUMPDEST SWAP1 POP SWAP6 SWAP5 POP POP POP POP POP JUMP JUMPDEST PUSH0 PUSH1 0x20 DUP3 DUP5 SUB SLT ISZERO PUSH2 0x253A JUMPI PUSH2 0x2539 PUSH2 0x179A JUMP JUMPDEST JUMPDEST PUSH0 PUSH2 0x2547 DUP5 DUP3 DUP6 ADD PUSH2 0x17E8 JUMP JUMPDEST SWAP2 POP POP SWAP3 SWAP2 POP POP JUMP JUMPDEST PUSH0 PUSH0 REVERT JUMPDEST PUSH0 PUSH0 REVERT JUMPDEST PUSH0 PUSH0 REVERT JUMPDEST PUSH0 PUSH0 DUP4 CALLDATALOAD PUSH1 0x1 PUSH1 0x20 SUB DUP5 CALLDATASIZE SUB SUB DUP2 SLT PUSH2 0x2578 JUMPI PUSH2 0x2577 PUSH2 0x2550 JUMP JUMPDEST JUMPDEST DUP1 DUP5 ADD SWAP3 POP DUP3 CALLDATALOAD SWAP2 POP PUSH8 0xFFFFFFFFFFFFFFFF DUP3 GT ISZERO PUSH2 0x259A JUMPI PUSH2 0x2599 PUSH2 0x2554 JUMP JUMPDEST JUMPDEST PUSH1 0x20 DUP4 ADD SWAP3 POP PUSH1 0x1 DUP3 MUL CALLDATASIZE SUB DUP4 SGT ISZERO PUSH2 0x25B6 JUMPI PUSH2 0x25B5 PUSH2 0x2558 JUMP JUMPDEST JUMPDEST POP SWAP3 POP SWAP3 SWAP1 POP JUMP JUMPDEST PUSH0 DUP3 SWAP1 POP SWAP3 SWAP2 POP POP JUMP JUMPDEST PUSH0 DUP3 DUP3 SHL SWAP1 POP SWAP3 SWAP2 POP POP JUMP JUMPDEST PUSH0 PUSH2 0x25DF DUP4 DUP4 PUSH2 0x25BE JUMP JUMPDEST DUP3 PUSH2 0x25EA DUP2 CALLDATALOAD PUSH2 0x195A JUMP JUMPDEST SWAP3 POP PUSH1 0x4 DUP3 LT ISZERO PUSH2 0x262A JUMPI PUSH2 0x2625 PUSH32 0xFFFFFFFF00000000000000000000000000000000000000000000000000000000 DUP4 PUSH1 0x4 SUB PUSH1 0x8 MUL PUSH2 0x25C8 JUMP JUMPDEST DUP4 AND SWAP3 POP JUMPDEST POP POP SWAP3 SWAP2 POP POP JUMP JUMPDEST POP JUMP JUMPDEST PUSH0 PUSH2 0x2640 PUSH0 DUP4 PUSH2 0x1E7F JUMP JUMPDEST SWAP2 POP PUSH2 0x264B DUP3 PUSH2 0x2632 JUMP JUMPDEST PUSH0 DUP3 ADD SWAP1 POP SWAP2 SWAP1 POP JUMP JUMPDEST PUSH0 DUP2 SWAP1 POP SWAP2 SWAP1 POP JUMP JUMPDEST PUSH0 DUP2 SWAP1 POP SWAP2 SWAP1 POP JUMP JUMPDEST PUSH0 PUSH2 0x2681 PUSH2 0x267C PUSH2 0x2677 DUP5 PUSH2 0x2655 JUMP JUMPDEST PUSH2 0x265E JUMP JUMPDEST PUSH2 0x1EF5 JUMP JUMPDEST SWAP1 POP SWAP2 SWAP1 POP JUMP JUMPDEST PUSH2 0x2691 DUP2 PUSH2 0x2667 JUMP JUMPDEST DUP3 MSTORE POP POP JUMP JUMPDEST PUSH0 PUSH1 0x80 DUP3 ADD SWAP1 POP PUSH2 0x26AA PUSH0 DUP4 ADD DUP7 PUSH2 0x1A0D JUMP JUMPDEST PUSH2 0x26B7 PUSH1 0x20 DUP4 ADD DUP6 PUSH2 0x1DA7 JUMP JUMPDEST DUP2 DUP2 SUB PUSH1 0x40 DUP4 ADD MSTORE PUSH2 0x26C8 DUP2 PUSH2 0x2635 JUMP JUMPDEST SWAP1 POP PUSH2 0x26D7 PUSH1 0x60 DUP4 ADD DUP5 PUSH2 0x2688 JUMP JUMPDEST SWAP5 SWAP4 POP POP POP POP JUMP JUMPDEST PUSH2 0x26E8 DUP2 PUSH2 0x19DA JUMP JUMPDEST DUP2 EQ PUSH2 0x26F2 JUMPI PUSH0 PUSH0 REVERT JUMPDEST POP JUMP JUMPDEST PUSH0 DUP2 MLOAD SWAP1 POP PUSH2 0x2703 DUP2 PUSH2 0x26DF JUMP JUMPDEST SWAP3 SWAP2 POP POP JUMP JUMPDEST PUSH0 PUSH1 0x20 DUP3 DUP5 SUB SLT ISZERO PUSH2 0x271E JUMPI PUSH2 0x271D PUSH2 0x179A JUMP JUMPDEST JUMPDEST PUSH0 PUSH2 0x272B DUP5 DUP3 DUP6 ADD PUSH2 0x26F5 JUMP JUMPDEST SWAP2 POP POP SWAP3 SWAP2 POP POP JUMP JUMPDEST PUSH0 PUSH1 0x40 DUP3 ADD SWAP1 POP PUSH2 0x2747 PUSH0 DUP4 ADD DUP6 PUSH2 0x1BBD JUMP JUMPDEST PUSH2 0x2754 PUSH1 0x20 DUP4 ADD DUP5 PUSH2 0x1BBD JUMP JUMPDEST SWAP4 SWAP3 POP POP POP JUMP JUMPDEST PUSH0 DUP2 MLOAD SWAP1 POP PUSH2 0x2769 DUP2 PUSH2 0x1C91 JUMP JUMPDEST SWAP3 SWAP2 POP POP JUMP JUMPDEST PUSH0 PUSH1 0x20 DUP3 DUP5 SUB SLT ISZERO PUSH2 0x2784 JUMPI PUSH2 0x2783 PUSH2 0x179A JUMP JUMPDEST JUMPDEST PUSH0 PUSH2 0x2791 DUP5 DUP3 DUP6 ADD PUSH2 0x275B JUMP JUMPDEST SWAP2 POP POP SWAP3 SWAP2 POP POP JUMP JUMPDEST PUSH0 PUSH32 0xFF00000000000000000000000000000000000000000000000000000000000000 DUP3 AND SWAP1 POP SWAP2 SWAP1 POP JUMP JUMPDEST PUSH0 DUP2 SWAP1 POP SWAP2 SWAP1 POP JUMP JUMPDEST PUSH2 0x27DF PUSH2 0x27DA DUP3 PUSH2 0x279A JUMP JUMPDEST PUSH2 0x27C5 JUMP JUMPDEST DUP3 MSTORE POP POP JUMP JUMPDEST PUSH0 DUP2 SWAP1 POP SWAP2 SWAP1 POP JUMP JUMPDEST PUSH2 0x27FF PUSH2 0x27FA DUP3 PUSH2 0x1BB4 JUMP JUMPDEST PUSH2 0x27E5 JUMP JUMPDEST DUP3 MSTORE POP POP JUMP JUMPDEST PUSH0 PUSH2 0x2810 DUP3 DUP8 PUSH2 0x27CE JUMP JUMPDEST PUSH1 0x1 DUP3 ADD SWAP2 POP PUSH2 0x2820 DUP3 DUP7 PUSH2 0x27CE JUMP JUMPDEST PUSH1 0x1 DUP3 ADD SWAP2 POP PUSH2 0x2830 DUP3 DUP6 PUSH2 0x27EE JUMP JUMPDEST PUSH1 0x20 DUP3 ADD SWAP2 POP PUSH2 0x2840 DUP3 DUP5 PUSH2 0x27EE JUMP JUMPDEST PUSH1 0x20 DUP3 ADD SWAP2 POP DUP2 SWAP1 POP SWAP6 SWAP5 POP POP POP POP POP JUMP JUMPDEST PUSH2 0x285B DUP2 PUSH2 0x1EF5 JUMP JUMPDEST DUP3 MSTORE POP POP JUMP JUMPDEST PUSH0 PUSH1 0x80 DUP3 ADD SWAP1 POP PUSH2 0x2874 PUSH0 DUP4 ADD DUP8 PUSH2 0x1A0D JUMP JUMPDEST PUSH2 0x2881 PUSH1 0x20 DUP4 ADD DUP7 PUSH2 0x1DA7 JUMP JUMPDEST DUP2 DUP2 SUB PUSH1 0x40 DUP4 ADD MSTORE PUSH2 0x2893 DUP2 DUP6 PUSH2 0x1E9D JUMP JUMPDEST SWAP1 POP PUSH2 0x28A2 PUSH1 0x60 DUP4 ADD DUP5 PUSH2 0x2852 JUMP JUMPDEST SWAP6 SWAP5 POP POP POP POP POP JUMP JUMPDEST PUSH0 PUSH2 0x28BD PUSH2 0x28B8 DUP5 PUSH2 0x1AC1 JUMP JUMPDEST PUSH2 0x1AA7 JUMP JUMPDEST SWAP1 POP DUP3 DUP2 MSTORE PUSH1 0x20 DUP2 ADD DUP5 DUP5 DUP5 ADD GT ISZERO PUSH2 0x28D9 JUMPI PUSH2 0x28D8 PUSH2 0x1A35 JUMP JUMPDEST JUMPDEST PUSH2 0x28E4 DUP5 DUP3 DUP6 PUSH2 0x1E8F JUMP JUMPDEST POP SWAP4 SWAP3 POP POP POP JUMP JUMPDEST PUSH0 DUP3 PUSH1 0x1F DUP4 ADD SLT PUSH2 0x2900 JUMPI PUSH2 0x28FF PUSH2 0x182F JUMP JUMPDEST JUMPDEST DUP2 MLOAD PUSH2 0x2910 DUP5 DUP3 PUSH1 0x20 DUP7 ADD PUSH2 0x28AB JUMP JUMPDEST SWAP2 POP POP SWAP3 SWAP2 POP POP JUMP JUMPDEST PUSH0 PUSH0 PUSH1 0x40 DUP4 DUP6 SUB SLT ISZERO PUSH2 0x292F JUMPI PUSH2 0x292E PUSH2 0x179A JUMP JUMPDEST JUMPDEST PUSH0 PUSH2 0x293C DUP6 DUP3 DUP7 ADD PUSH2 0x26F5 JUMP JUMPDEST SWAP3 POP POP PUSH1 0x20 DUP4 ADD MLOAD PUSH8 0xFFFFFFFFFFFFFFFF DUP2 GT ISZERO PUSH2 0x295D JUMPI PUSH2 0x295C PUSH2 0x179E JUMP JUMPDEST JUMPDEST PUSH2 0x2969 DUP6 DUP3 DUP7 ADD PUSH2 0x28EC JUMP JUMPDEST SWAP2 POP POP SWAP3 POP SWAP3 SWAP1 POP JUMP JUMPDEST PUSH0 DUP2 SWAP1 POP SWAP2 SWAP1 POP JUMP JUMPDEST PUSH0 PUSH2 0x2996 PUSH2 0x2991 PUSH2 0x298C DUP5 PUSH2 0x2973 JUMP JUMPDEST PUSH2 0x265E JUMP JUMPDEST PUSH2 0x17FC JUMP JUMPDEST SWAP1 POP SWAP2 SWAP1 POP JUMP JUMPDEST PUSH2 0x29A6 DUP2 PUSH2 0x297C JUMP JUMPDEST DUP3 MSTORE POP POP JUMP JUMPDEST PUSH0 PUSH1 0x40 DUP3 ADD SWAP1 POP PUSH2 0x29BF PUSH0 DUP4 ADD DUP6 PUSH2 0x1A0D JUMP JUMPDEST PUSH2 0x29CC PUSH1 0x20 DUP4 ADD DUP5 PUSH2 0x299D JUMP JUMPDEST SWAP4 SWAP3 POP POP POP JUMP JUMPDEST PUSH0 PUSH8 0xFFFFFFFFFFFFFFFF DUP3 GT ISZERO PUSH2 0x29ED JUMPI PUSH2 0x29EC PUSH2 0x1A49 JUMP JUMPDEST JUMPDEST PUSH1 0x20 DUP3 MUL SWAP1 POP PUSH1 0x20 DUP2 ADD SWAP1 POP SWAP2 SWAP1 POP JUMP JUMPDEST PUSH0 DUP2 MLOAD SWAP1 POP PUSH2 0x2A0C DUP2 PUSH2 0x17D2 JUMP JUMPDEST SWAP3 SWAP2 POP POP JUMP JUMPDEST PUSH0 PUSH2 0x2A24 PUSH2 0x2A1F DUP5 PUSH2 0x29D3 JUMP JUMPDEST PUSH2 0x1AA7 JUMP JUMPDEST SWAP1 POP DUP1 DUP4 DUP3 MSTORE PUSH1 0x20 DUP3 ADD SWAP1 POP PUSH1 0x20 DUP5 MUL DUP4 ADD DUP6 DUP2 GT ISZERO PUSH2 0x2A47 JUMPI PUSH2 0x2A46 PUSH2 0x1837 JUMP JUMPDEST JUMPDEST DUP4 JUMPDEST DUP2 DUP2 LT ISZERO PUSH2 0x2A70 JUMPI DUP1 PUSH2 0x2A5C DUP9 DUP3 PUSH2 0x29FE JUMP JUMPDEST DUP5 MSTORE PUSH1 0x20 DUP5 ADD SWAP4 POP POP PUSH1 0x20 DUP2 ADD SWAP1 POP PUSH2 0x2A49 JUMP JUMPDEST POP POP POP SWAP4 SWAP3 POP POP POP JUMP JUMPDEST PUSH0 DUP3 PUSH1 0x1F DUP4 ADD SLT PUSH2 0x2A8E JUMPI PUSH2 0x2A8D PUSH2 0x182F JUMP JUMPDEST JUMPDEST DUP2 MLOAD PUSH2 0x2A9E DUP5 DUP3 PUSH1 0x20 DUP7 ADD PUSH2 0x2A12 JUMP JUMPDEST SWAP2 POP POP SWAP3 SWAP2 POP POP JUMP JUMPDEST PUSH0 PUSH0 PUSH1 0x40 DUP4 DUP6 SUB SLT ISZERO PUSH2 0x2ABD JUMPI PUSH2 0x2ABC PUSH2 0x179A JUMP JUMPDEST JUMPDEST PUSH0 DUP4 ADD MLOAD PUSH8 0xFFFFFFFFFFFFFFFF DUP2 GT ISZERO PUSH2 0x2ADA JUMPI PUSH2 0x2AD9 PUSH2 0x179E JUMP JUMPDEST JUMPDEST PUSH2 0x2AE6 DUP6 DUP3 DUP7 ADD PUSH2 0x2A7A JUMP JUMPDEST SWAP3 POP POP PUSH1 0x20 PUSH2 0x2AF7 DUP6 DUP3 DUP7 ADD PUSH2 0x29FE JUMP JUMPDEST SWAP2 POP POP SWAP3 POP SWAP3 SWAP1 POP JUMP JUMPDEST PUSH0 DUP2 SWAP1 POP SWAP3 SWAP2 POP POP JUMP JUMPDEST PUSH0 PUSH2 0x2B16 DUP4 DUP6 PUSH2 0x2B01 JUMP JUMPDEST SWAP4 POP PUSH2 0x2B23 DUP4 DUP6 DUP5 PUSH2 0x1AF1 JUMP JUMPDEST DUP3 DUP5 ADD SWAP1 POP SWAP4 SWAP3 POP POP POP JUMP JUMPDEST PUSH0 PUSH2 0x2B3B DUP3 DUP5 DUP7 PUSH2 0x2B0B JUMP JUMPDEST SWAP2 POP DUP2 SWAP1 POP SWAP4 SWAP3 POP POP POP JUMP JUMPDEST PUSH32 0x4E487B7100000000000000000000000000000000000000000000000000000000 PUSH0 MSTORE PUSH1 0x21 PUSH1 0x4 MSTORE PUSH1 0x24 PUSH0 REVERT JUMPDEST PUSH1 0x2 DUP2 LT PUSH2 0x2B85 JUMPI PUSH2 0x2B84 PUSH2 0x2B47 JUMP JUMPDEST JUMPDEST POP JUMP JUMPDEST PUSH0 DUP2 SWAP1 POP PUSH2 0x2B95 DUP3 PUSH2 0x2B74 JUMP JUMPDEST SWAP2 SWAP1 POP JUMP JUMPDEST PUSH0 PUSH2 0x2BA4 DUP3 PUSH2 0x2B88 JUMP JUMPDEST SWAP1 POP SWAP2 SWAP1 POP JUMP JUMPDEST PUSH2 0x2BB4 DUP2 PUSH2 0x2B9A JUMP JUMPDEST DUP3 MSTORE POP POP JUMP JUMPDEST PUSH0 PUSH2 0x160 DUP3 ADD SWAP1 POP PUSH2 0x2BCE PUSH0 DUP4 ADD DUP15 PUSH2 0x1BBD JUMP JUMPDEST PUSH2 0x2BDB PUSH1 0x20 DUP4 ADD DUP14 PUSH2 0x1A0D JUMP JUMPDEST PUSH2 0x2BE8 PUSH1 0x40 DUP4 ADD DUP13 PUSH2 0x1DA7 JUMP JUMPDEST PUSH2 0x2BF5 PUSH1 0x60 DUP4 ADD DUP12 PUSH2 0x1BBD JUMP JUMPDEST PUSH2 0x2C02 PUSH1 0x80 DUP4 ADD DUP11 PUSH2 0x2BAB JUMP JUMPDEST PUSH2 0x2C0F PUSH1 0xA0 DUP4 ADD DUP10 PUSH2 0x1DA7 JUMP JUMPDEST PUSH2 0x2C1C PUSH1 0xC0 DUP4 ADD DUP9 PUSH2 0x1DA7 JUMP JUMPDEST PUSH2 0x2C29 PUSH1 0xE0 DUP4 ADD DUP8 PUSH2 0x1DA7 JUMP JUMPDEST PUSH2 0x2C37 PUSH2 0x100 DUP4 ADD DUP7 PUSH2 0x1A0D JUMP JUMPDEST PUSH2 0x2C45 PUSH2 0x120 DUP4 ADD DUP6 PUSH2 0x1A0D JUMP JUMPDEST PUSH2 0x2C53 PUSH2 0x140 DUP4 ADD DUP5 PUSH2 0x1DA7 JUMP JUMPDEST SWAP13 SWAP12 POP POP POP POP POP POP POP POP POP POP POP POP JUMP JUMPDEST PUSH0 PUSH2 0x2C7D PUSH2 0x2C78 PUSH2 0x2C73 DUP5 PUSH2 0x17A2 JUMP JUMPDEST PUSH2 0x265E JUMP JUMPDEST PUSH2 0x17A2 JUMP JUMPDEST SWAP1 POP SWAP2 SWAP1 POP JUMP JUMPDEST PUSH0 PUSH2 0x2C8E DUP3 PUSH2 0x2C63 JUMP JUMPDEST SWAP1 POP SWAP2 SWAP1 POP JUMP JUMPDEST PUSH0 PUSH2 0x2C9F DUP3 PUSH2 0x2C84 JUMP JUMPDEST SWAP1 POP SWAP2 SWAP1 POP JUMP JUMPDEST PUSH2 0x2CAF DUP2 PUSH2 0x2C95 JUMP JUMPDEST DUP3 MSTORE POP POP JUMP JUMPDEST PUSH0 PUSH1 0x60 DUP3 ADD SWAP1 POP PUSH2 0x2CC8 PUSH0 DUP4 ADD DUP7 PUSH2 0x1BBD JUMP JUMPDEST PUSH2 0x2CD5 PUSH1 0x20 DUP4 ADD DUP6 PUSH2 0x1DA7 JUMP JUMPDEST PUSH2 0x2CE2 PUSH1 0x40 DUP4 ADD DUP5 PUSH2 0x2CA6 JUMP JUMPDEST SWAP5 SWAP4 POP POP POP POP JUMP JUMPDEST PUSH0 DUP2 SWAP1 POP SWAP2 SWAP1 POP JUMP JUMPDEST PUSH0 PUSH2 0x2D0D PUSH2 0x2D08 PUSH2 0x2D03 DUP5 PUSH2 0x2CEA JUMP JUMPDEST PUSH2 0x265E JUMP JUMPDEST PUSH2 0x17FC JUMP JUMPDEST SWAP1 POP SWAP2 SWAP1 POP JUMP JUMPDEST PUSH2 0x2D1D DUP2 PUSH2 0x2CF3 JUMP JUMPDEST DUP3 MSTORE POP POP JUMP JUMPDEST PUSH0 PUSH1 0x40 DUP3 ADD SWAP1 POP PUSH2 0x2D36 PUSH0 DUP4 ADD DUP6 PUSH2 0x1DA7 JUMP JUMPDEST PUSH2 0x2D43 PUSH1 0x20 DUP4 ADD DUP5 PUSH2 0x2D14 JUMP JUMPDEST SWAP4 SWAP3 POP POP POP JUMP JUMPDEST PUSH0 PUSH1 0x20 DUP3 DUP5 SUB SLT ISZERO PUSH2 0x2D5F JUMPI PUSH2 0x2D5E PUSH2 0x179A JUMP JUMPDEST JUMPDEST PUSH0 DUP3 ADD MLOAD PUSH8 0xFFFFFFFFFFFFFFFF DUP2 GT ISZERO PUSH2 0x2D7C JUMPI PUSH2 0x2D7B PUSH2 0x179E JUMP JUMPDEST JUMPDEST PUSH2 0x2D88 DUP5 DUP3 DUP6 ADD PUSH2 0x28EC JUMP JUMPDEST SWAP2 POP POP SWAP3 SWAP2 POP POP JUMP JUMPDEST PUSH2 0x2D9A DUP2 PUSH2 0x1DCF JUMP JUMPDEST DUP2 EQ PUSH2 0x2DA4 JUMPI PUSH0 PUSH0 REVERT JUMPDEST POP JUMP JUMPDEST PUSH0 DUP2 MLOAD SWAP1 POP PUSH2 0x2DB5 DUP2 PUSH2 0x2D91 JUMP JUMPDEST SWAP3 SWAP2 POP POP JUMP JUMPDEST PUSH0 PUSH1 0x20 DUP3 DUP5 SUB SLT ISZERO PUSH2 0x2DD0 JUMPI PUSH2 0x2DCF PUSH2 0x179A JUMP JUMPDEST JUMPDEST PUSH0 PUSH2 0x2DDD DUP5 DUP3 DUP6 ADD PUSH2 0x2DA7 JUMP JUMPDEST SWAP2 POP POP SWAP3 SWAP2 POP POP JUMP JUMPDEST PUSH32 0x6E6F7420612066616C6C6261636B2063616C6C00000000000000000000000000 PUSH0 DUP3 ADD MSTORE POP JUMP JUMPDEST PUSH0 PUSH2 0x2E1A PUSH1 0x13 DUP4 PUSH2 0x2443 JUMP JUMPDEST SWAP2 POP PUSH2 0x2E25 DUP3 PUSH2 0x2DE6 JUMP JUMPDEST PUSH1 0x20 DUP3 ADD SWAP1 POP SWAP2 SWAP1 POP JUMP JUMPDEST PUSH0 PUSH1 0x20 DUP3 ADD SWAP1 POP DUP2 DUP2 SUB PUSH0 DUP4 ADD MSTORE PUSH2 0x2E47 DUP2 PUSH2 0x2E0E JUMP JUMPDEST SWAP1 POP SWAP2 SWAP1 POP JUMP JUMPDEST PUSH32 0x496E76616C69642063616C6C64617461206C656E677468000000000000000000 PUSH0 DUP3 ADD MSTORE POP JUMP JUMPDEST PUSH0 PUSH2 0x2E82 PUSH1 0x17 DUP4 PUSH2 0x2443 JUMP JUMPDEST SWAP2 POP PUSH2 0x2E8D DUP3 PUSH2 0x2E4E JUMP JUMPDEST PUSH1 0x20 DUP3 ADD SWAP1 POP SWAP2 SWAP1 POP JUMP JUMPDEST PUSH0 PUSH1 0x20 DUP3 ADD SWAP1 POP DUP2 DUP2 SUB PUSH0 DUP4 ADD MSTORE PUSH2 0x2EAF DUP2 PUSH2 0x2E76 JUMP JUMPDEST SWAP1 POP SWAP2 SWAP1 POP JUMP JUMPDEST PUSH0 PUSH1 0x60 DUP3 ADD SWAP1 POP PUSH2 0x2EC9 PUSH0 DUP4 ADD DUP8 PUSH2 0x1BBD JUMP JUMPDEST DUP2 DUP2 SUB PUSH1 0x20 DUP4 ADD MSTORE PUSH2 0x2EDB DUP2 DUP7 PUSH2 0x1E9D JUMP JUMPDEST SWAP1 POP DUP2 DUP2 SUB PUSH1 0x40 DUP4 ADD MSTORE PUSH2 0x2EF0 DUP2 DUP5 DUP7 PUSH2 0x24BB JUMP JUMPDEST SWAP1 POP SWAP6 SWAP5 POP POP POP POP POP JUMP JUMPDEST PUSH0 PUSH0 REVERT JUMPDEST PUSH0 PUSH0 REVERT JUMPDEST PUSH0 PUSH0 DUP6 DUP6 GT ISZERO PUSH2 0x2F16 JUMPI PUSH2 0x2F15 PUSH2 0x2EFB JUMP JUMPDEST JUMPDEST DUP4 DUP7 GT ISZERO PUSH2 0x2F27 JUMPI PUSH2 0x2F26 PUSH2 0x2EFF JUMP JUMPDEST JUMPDEST PUSH1 0x1 DUP6 MUL DUP4 ADD SWAP2 POP DUP5 DUP7 SUB SWAP1 POP SWAP5 POP SWAP5 SWAP3 POP POP POP JUMP JUMPDEST PUSH0 PUSH32 0xFFFFFFFFFFFF0000000000000000000000000000000000000000000000000000 DUP3 AND SWAP1 POP SWAP2 SWAP1 POP JUMP JUMPDEST PUSH0 PUSH2 0x2F73 DUP4 DUP4 PUSH2 0x25BE JUMP JUMPDEST DUP3 PUSH2 0x2F7E DUP2 CALLDATALOAD PUSH2 0x2F3D JUMP JUMPDEST SWAP3 POP PUSH1 0x6 DUP3 LT ISZERO PUSH2 0x2FBE JUMPI PUSH2 0x2FB9 PUSH32 0xFFFFFFFFFFFF0000000000000000000000000000000000000000000000000000 DUP4 PUSH1 0x6 SUB PUSH1 0x8 MUL PUSH2 0x25C8 JUMP JUMPDEST DUP4 AND SWAP3 POP JUMPDEST POP POP SWAP3 SWAP2 POP POP JUMP JUMPDEST PUSH32 0x4E487B7100000000000000000000000000000000000000000000000000000000 PUSH0 MSTORE PUSH1 0x11 PUSH1 0x4 MSTORE PUSH1 0x24 PUSH0 REVERT JUMPDEST PUSH0 PUSH2 0x2FFD DUP3 PUSH2 0x17FC JUMP JUMPDEST SWAP2 POP PUSH2 0x3008 DUP4 PUSH2 0x17FC JUMP JUMPDEST SWAP3 POP DUP3 DUP3 MUL PUSH2 0x3016 DUP2 PUSH2 0x17FC JUMP JUMPDEST SWAP2 POP DUP3 DUP3 DIV DUP5 EQ DUP4 ISZERO OR PUSH2 0x302D JUMPI PUSH2 0x302C PUSH2 0x2FC6 JUMP JUMPDEST JUMPDEST POP SWAP3 SWAP2 POP POP JUMP JUMPDEST PUSH0 PUSH2 0x303E DUP3 PUSH2 0x17FC JUMP JUMPDEST SWAP2 POP PUSH2 0x3049 DUP4 PUSH2 0x17FC JUMP JUMPDEST SWAP3 POP DUP3 DUP3 ADD SWAP1 POP DUP1 DUP3 GT ISZERO PUSH2 0x3061 JUMPI PUSH2 0x3060 PUSH2 0x2FC6 JUMP JUMPDEST JUMPDEST SWAP3 SWAP2 POP POP JUMP JUMPDEST PUSH32 0x4E487B7100000000000000000000000000000000000000000000000000000000 PUSH0 MSTORE PUSH1 0x32 PUSH1 0x4 MSTORE PUSH1 0x24 PUSH0 REVERT JUMPDEST PUSH0 PUSH2 0x309F DUP4 DUP4 PUSH2 0x25BE JUMP JUMPDEST DUP3 PUSH2 0x30AA DUP2 CALLDATALOAD PUSH2 0x1BB4 JUMP JUMPDEST SWAP3 POP PUSH1 0x20 DUP3 LT ISZERO PUSH2 0x30EA JUMPI PUSH2 0x30E5 PUSH32 0xFFFFFFFFFFFFFFFFFFFFFFFFFFFFFFFFFFFFFFFFFFFFFFFFFFFFFFFFFFFFFFFF DUP4 PUSH1 0x20 SUB PUSH1 0x8 MUL PUSH2 0x25C8 JUMP JUMPDEST DUP4 AND SWAP3 POP JUMPDEST POP POP SWAP3 SWAP2 POP POP JUMP INVALID LOG2 PUSH5 0x6970667358 0x22 SLT KECCAK256 0xA8 0xC1 0x2E PUSH25 0x64CD550CEDB7C7A96162FA68BD4C8B8FAC77DAB28266579A5A SWAP16 TSTORE BYTE PUSH5 0x736F6C6343 STOP ADDMOD 0x1E STOP CALLER "
		},
		"gasEstimates": {
			"creation": {
				"codeDepositCost": "2516800",
				"executionCost": "2716",
				"totalCost": "2519516"
			},
			"external": {
				"HYPT_FACTORY()": "441",
				"SUPPORTED_ENTRYPOINT()": "2530",
				"domainSeparator()": "infinite",
				"encodeMessageDataForSafe(address,bytes)": "infinite",
				"encodeTransactionData(address,uint256,bytes,uint8,uint256,uint256,uint256,address,address,uint256)": "infinite",
				"executeUserOp(address,uint256,bytes,uint8)": "infinite",
				"executeUserOpWithErrorString(address,uint256,bytes,uint8)": "infinite",
				"getMessageHash(bytes)": "infinite",
				"getMessageHashForSafe(address,bytes)": "infinite",
				"getModules()": "infinite",
				"getOperationHash((address,uint256,bytes,bytes,bytes32,uint256,bytes32,bytes,bytes))": "infinite",
				"isValidSignature(bytes32,bytes)": "infinite",
				"onERC1155BatchReceived(address,address,uint256[],uint256[],bytes)": "infinite",
				"onERC1155Received(address,address,uint256,uint256,bytes)": "infinite",
				"onERC721Received(address,address,uint256,bytes)": "infinite",
				"simulate(address,bytes)": "infinite",
				"supportsInterface(bytes4)": "767",
				"tokensReceived(address,address,address,uint256,bytes,bytes)": "infinite",
				"validateUserOp((address,uint256,bytes,bytes,bytes32,uint256,bytes32,bytes,bytes),bytes32,uint256)": "infinite"
			},
			"internal": {
				"_checkSignaturesLength(bytes calldata,uint256)": "infinite",
				"_getSafeOp(struct PackedUserOperation calldata)": "infinite",
				"_validateSignatures(struct PackedUserOperation calldata)": "infinite",
				"initialize_Safe4337(address)": "infinite"
			}
		},
		"methodIdentifiers": {
			"HYPT_FACTORY()": "0681ebde",
			"SUPPORTED_ENTRYPOINT()": "137e051e",
			"domainSeparator()": "f698da25",
			"encodeMessageDataForSafe(address,bytes)": "23031640",
			"encodeTransactionData(address,uint256,bytes,uint8,uint256,uint256,uint256,address,address,uint256)": "e86637db",
			"executeUserOp(address,uint256,bytes,uint8)": "7bb37428",
			"executeUserOpWithErrorString(address,uint256,bytes,uint8)": "541d63c8",
			"getMessageHash(bytes)": "0a1028c4",
			"getMessageHashForSafe(address,bytes)": "6ac24784",
			"getModules()": "b2494df3",
			"getOperationHash((address,uint256,bytes,bytes,bytes32,uint256,bytes32,bytes,bytes))": "bbe5dc4f",
			"isValidSignature(bytes32,bytes)": "1626ba7e",
			"onERC1155BatchReceived(address,address,uint256[],uint256[],bytes)": "bc197c81",
			"onERC1155Received(address,address,uint256,uint256,bytes)": "f23a6e61",
			"onERC721Received(address,address,uint256,bytes)": "150b7a02",
			"simulate(address,bytes)": "bd61951d",
			"supportsInterface(bytes4)": "01ffc9a7",
			"tokensReceived(address,address,address,uint256,bytes,bytes)": "0023de29",
			"validateUserOp((address,uint256,bytes,bytes,bytes32,uint256,bytes32,bytes,bytes),bytes32,uint256)": "19822f7c"
		}
	},
	"abi": [
		{
			"inputs": [],
			"name": "ExecutionFailed",
			"type": "error"
		},
		{
			"inputs": [],
			"name": "InvalidCaller",
			"type": "error"
		},
		{
			"inputs": [],
			"name": "InvalidEntryPoint",
			"type": "error"
		},
		{
			"inputs": [],
			"name": "InvalidInitialization",
			"type": "error"
		},
		{
			"inputs": [],
			"name": "NotInitializing",
			"type": "error"
		},
		{
			"inputs": [],
			"name": "UnsupportedEntryPoint",
			"type": "error"
		},
		{
			"inputs": [
				{
					"internalType": "bytes4",
					"name": "selector",
					"type": "bytes4"
				}
			],
			"name": "UnsupportedExecutionFunction",
			"type": "error"
		},
		{
			"anonymous": false,
			"inputs": [
				{
					"indexed": false,
					"internalType": "uint64",
					"name": "version",
					"type": "uint64"
				}
			],
			"name": "Initialized",
			"type": "event"
		},
		{
			"inputs": [],
			"name": "HYPT_FACTORY",
			"outputs": [
				{
					"internalType": "address",
					"name": "",
					"type": "address"
				}
			],
			"stateMutability": "view",
			"type": "function"
		},
		{
			"inputs": [],
			"name": "SUPPORTED_ENTRYPOINT",
			"outputs": [
				{
					"internalType": "address",
					"name": "",
					"type": "address"
				}
			],
			"stateMutability": "view",
			"type": "function"
		},
		{
			"inputs": [],
			"name": "domainSeparator",
			"outputs": [
				{
					"internalType": "bytes32",
					"name": "domainSeparatorHash",
					"type": "bytes32"
				}
			],
			"stateMutability": "view",
			"type": "function"
		},
		{
			"inputs": [
				{
					"internalType": "contract ISafe",
					"name": "safe",
					"type": "address"
				},
				{
					"internalType": "bytes",
					"name": "message",
					"type": "bytes"
				}
			],
			"name": "encodeMessageDataForSafe",
			"outputs": [
				{
					"internalType": "bytes",
					"name": "",
					"type": "bytes"
				}
			],
			"stateMutability": "view",
			"type": "function"
		},
		{
			"inputs": [
				{
					"internalType": "address",
					"name": "to",
					"type": "address"
				},
				{
					"internalType": "uint256",
					"name": "value",
					"type": "uint256"
				},
				{
					"internalType": "bytes",
					"name": "data",
					"type": "bytes"
				},
				{
					"internalType": "enum Enum.Operation",
					"name": "operation",
					"type": "uint8"
				},
				{
					"internalType": "uint256",
					"name": "safeTxGas",
					"type": "uint256"
				},
				{
					"internalType": "uint256",
					"name": "baseGas",
					"type": "uint256"
				},
				{
					"internalType": "uint256",
					"name": "gasPrice",
					"type": "uint256"
				},
				{
					"internalType": "address",
					"name": "gasToken",
					"type": "address"
				},
				{
					"internalType": "address",
					"name": "refundReceiver",
					"type": "address"
				},
				{
					"internalType": "uint256",
					"name": "nonce",
					"type": "uint256"
				}
			],
			"name": "encodeTransactionData",
			"outputs": [
				{
					"internalType": "bytes",
					"name": "",
					"type": "bytes"
				}
			],
			"stateMutability": "view",
			"type": "function"
		},
		{
			"inputs": [
				{
					"internalType": "address",
					"name": "to",
					"type": "address"
				},
				{
					"internalType": "uint256",
					"name": "value",
					"type": "uint256"
				},
				{
					"internalType": "bytes",
					"name": "data",
					"type": "bytes"
				},
				{
					"internalType": "uint8",
					"name": "operation",
					"type": "uint8"
				}
			],
			"name": "executeUserOp",
			"outputs": [],
			"stateMutability": "nonpayable",
			"type": "function"
		},
		{
			"inputs": [
				{
					"internalType": "address",
					"name": "to",
					"type": "address"
				},
				{
					"internalType": "uint256",
					"name": "value",
					"type": "uint256"
				},
				{
					"internalType": "bytes",
					"name": "data",
					"type": "bytes"
				},
				{
					"internalType": "uint8",
					"name": "operation",
					"type": "uint8"
				}
			],
			"name": "executeUserOpWithErrorString",
			"outputs": [],
			"stateMutability": "nonpayable",
			"type": "function"
		},
		{
			"inputs": [
				{
					"internalType": "bytes",
					"name": "message",
					"type": "bytes"
				}
			],
			"name": "getMessageHash",
			"outputs": [
				{
					"internalType": "bytes32",
					"name": "",
					"type": "bytes32"
				}
			],
			"stateMutability": "view",
			"type": "function"
		},
		{
			"inputs": [
				{
					"internalType": "contract ISafe",
					"name": "safe",
					"type": "address"
				},
				{
					"internalType": "bytes",
					"name": "message",
					"type": "bytes"
				}
			],
			"name": "getMessageHashForSafe",
			"outputs": [
				{
					"internalType": "bytes32",
					"name": "",
					"type": "bytes32"
				}
			],
			"stateMutability": "view",
			"type": "function"
		},
		{
			"inputs": [],
			"name": "getModules",
			"outputs": [
				{
					"internalType": "address[]",
					"name": "",
					"type": "address[]"
				}
			],
			"stateMutability": "view",
			"type": "function"
		},
		{
			"inputs": [
				{
					"components": [
						{
							"internalType": "address",
							"name": "sender",
							"type": "address"
						},
						{
							"internalType": "uint256",
							"name": "nonce",
							"type": "uint256"
						},
						{
							"internalType": "bytes",
							"name": "initCode",
							"type": "bytes"
						},
						{
							"internalType": "bytes",
							"name": "callData",
							"type": "bytes"
						},
						{
							"internalType": "bytes32",
							"name": "accountGasLimits",
							"type": "bytes32"
						},
						{
							"internalType": "uint256",
							"name": "preVerificationGas",
							"type": "uint256"
						},
						{
							"internalType": "bytes32",
							"name": "gasFees",
							"type": "bytes32"
						},
						{
							"internalType": "bytes",
							"name": "paymasterAndData",
							"type": "bytes"
						},
						{
							"internalType": "bytes",
							"name": "signature",
							"type": "bytes"
						}
					],
					"internalType": "struct PackedUserOperation",
					"name": "userOp",
					"type": "tuple"
				}
			],
			"name": "getOperationHash",
			"outputs": [
				{
					"internalType": "bytes32",
					"name": "operationHash",
					"type": "bytes32"
				}
			],
			"stateMutability": "view",
			"type": "function"
		},
		{
			"inputs": [
				{
					"internalType": "bytes32",
					"name": "_dataHash",
					"type": "bytes32"
				},
				{
					"internalType": "bytes",
					"name": "_signature",
					"type": "bytes"
				}
			],
			"name": "isValidSignature",
			"outputs": [
				{
					"internalType": "bytes4",
					"name": "",
					"type": "bytes4"
				}
			],
			"stateMutability": "view",
			"type": "function"
		},
		{
			"inputs": [
				{
					"internalType": "address",
					"name": "",
					"type": "address"
				},
				{
					"internalType": "address",
					"name": "",
					"type": "address"
				},
				{
					"internalType": "uint256[]",
					"name": "",
					"type": "uint256[]"
				},
				{
					"internalType": "uint256[]",
					"name": "",
					"type": "uint256[]"
				},
				{
					"internalType": "bytes",
					"name": "",
					"type": "bytes"
				}
			],
			"name": "onERC1155BatchReceived",
			"outputs": [
				{
					"internalType": "bytes4",
					"name": "",
					"type": "bytes4"
				}
			],
			"stateMutability": "view",
			"type": "function"
		},
		{
			"inputs": [
				{
					"internalType": "address",
					"name": "",
					"type": "address"
				},
				{
					"internalType": "address",
					"name": "",
					"type": "address"
				},
				{
					"internalType": "uint256",
					"name": "",
					"type": "uint256"
				},
				{
					"internalType": "uint256",
					"name": "",
					"type": "uint256"
				},
				{
					"internalType": "bytes",
					"name": "",
					"type": "bytes"
				}
			],
			"name": "onERC1155Received",
			"outputs": [
				{
					"internalType": "bytes4",
					"name": "",
					"type": "bytes4"
				}
			],
			"stateMutability": "view",
			"type": "function"
		},
		{
			"inputs": [
				{
					"internalType": "address",
					"name": "",
					"type": "address"
				},
				{
					"internalType": "address",
					"name": "",
					"type": "address"
				},
				{
					"internalType": "uint256",
					"name": "",
					"type": "uint256"
				},
				{
					"internalType": "bytes",
					"name": "",
					"type": "bytes"
				}
			],
			"name": "onERC721Received",
			"outputs": [
				{
					"internalType": "bytes4",
					"name": "",
					"type": "bytes4"
				}
			],
			"stateMutability": "view",
			"type": "function"
		},
		{
			"inputs": [
				{
					"internalType": "address",
					"name": "targetContract",
					"type": "address"
				},
				{
					"internalType": "bytes",
					"name": "calldataPayload",
					"type": "bytes"
				}
			],
			"name": "simulate",
			"outputs": [
				{
					"internalType": "bytes",
					"name": "response",
					"type": "bytes"
				}
			],
			"stateMutability": "nonpayable",
			"type": "function"
		},
		{
			"inputs": [
				{
					"internalType": "bytes4",
					"name": "interfaceId",
					"type": "bytes4"
				}
			],
			"name": "supportsInterface",
			"outputs": [
				{
					"internalType": "bool",
					"name": "",
					"type": "bool"
				}
			],
			"stateMutability": "view",
			"type": "function"
		},
		{
			"inputs": [
				{
					"internalType": "address",
					"name": "",
					"type": "address"
				},
				{
					"internalType": "address",
					"name": "",
					"type": "address"
				},
				{
					"internalType": "address",
					"name": "",
					"type": "address"
				},
				{
					"internalType": "uint256",
					"name": "",
					"type": "uint256"
				},
				{
					"internalType": "bytes",
					"name": "",
					"type": "bytes"
				},
				{
					"internalType": "bytes",
					"name": "",
					"type": "bytes"
				}
			],
			"name": "tokensReceived",
			"outputs": [],
			"stateMutability": "pure",
			"type": "function"
		},
		{
			"inputs": [
				{
					"components": [
						{
							"internalType": "address",
							"name": "sender",
							"type": "address"
						},
						{
							"internalType": "uint256",
							"name": "nonce",
							"type": "uint256"
						},
						{
							"internalType": "bytes",
							"name": "initCode",
							"type": "bytes"
						},
						{
							"internalType": "bytes",
							"name": "callData",
							"type": "bytes"
						},
						{
							"internalType": "bytes32",
							"name": "accountGasLimits",
							"type": "bytes32"
						},
						{
							"internalType": "uint256",
							"name": "preVerificationGas",
							"type": "uint256"
						},
						{
							"internalType": "bytes32",
							"name": "gasFees",
							"type": "bytes32"
						},
						{
							"internalType": "bytes",
							"name": "paymasterAndData",
							"type": "bytes"
						},
						{
							"internalType": "bytes",
							"name": "signature",
							"type": "bytes"
						}
					],
					"internalType": "struct PackedUserOperation",
					"name": "userOp",
					"type": "tuple"
				},
				{
					"internalType": "bytes32",
					"name": "",
					"type": "bytes32"
				},
				{
					"internalType": "uint256",
					"name": "missingAccountFunds",
					"type": "uint256"
				}
			],
			"name": "validateUserOp",
			"outputs": [
				{
					"internalType": "uint256",
					"name": "validationData",
					"type": "uint256"
				}
			],
			"stateMutability": "nonpayable",
			"type": "function"
		}
	]
}