{
	"data": {
		"bytecode": {
			"linkReferences": {},
			"object": "6080604052348015600e575f5ffd5b50614d708061001c5f395ff3fe608060405234801561000f575f5ffd5b50600436106101c1575f3560e01c806384276d81116100f7578063bc197c8111610095578063f23a6e611161006f578063f23a6e611461054f578063f698da251461057f578063f8c8765e1461059d578063ffa1ad74146105b9576101c1565b8063bc197c81146104bf578063bd61951d146104ef578063e86637db1461051f576101c1565b806392b68755116100d157806392b6875514610437578063a3f4df7e14610453578063b2494df314610471578063bbe5dc4f1461048f576101c1565b806384276d81146103df578063853ea4a6146103fb578063885a1ffa14610419576101c1565b80631626ba7e116101645780633d00f4ae1161013e5780633d00f4ae14610359578063541d63c8146103775780636ac24784146103935780637bb37428146103c3576101c1565b80631626ba7e146102c957806319822f7c146102f95780632303164014610329576101c1565b806309915422116101a0578063099154221461022f5780630a1028c41461024b578063137e051e1461027b578063150b7a0214610299576101c1565b806223de29146101c557806301ffc9a7146101e15780630681ebde14610211575b5f5ffd5b6101df60048036038101906101da9190613083565b6105d7565b005b6101fb60048036038101906101f691906131a2565b6105e1565b60405161020891906131e7565b60405180910390f35b61021961071a565b604051610226919061320f565b60405180910390f35b61024960048036038101906102449190613228565b610720565b005b6102656004803603810190610260919061339e565b610935565b60405161027291906133fd565b60405180910390f35b610283610947565b604051610290919061320f565b60405180910390f35b6102b360048036038101906102ae9190613416565b61096b565b6040516102c091906134a9565b60405180910390f35b6102e360048036038101906102de91906134ec565b610987565b6040516102f091906134a9565b60405180910390f35b610313600480360381019061030e919061356c565b610b0b565b60405161032091906135e7565b60405180910390f35b610343600480360381019061033e919061364c565b610f7e565b6040516103509190613706565b60405180910390f35b610361611078565b60405161036e919061320f565b60405180910390f35b610391600480360381019061038c919061375c565b61109d565b005b6103ad60048036038101906103a8919061364c565b6111c6565b6040516103ba91906133fd565b60405180910390f35b6103dd60048036038101906103d8919061375c565b6111e0565b005b6103f960048036038101906103f491906137dc565b611327565b005b61040361149e565b6040516104109190613862565b60405180910390f35b6104216114c3565b60405161042e919061320f565b60405180910390f35b610451600480360381019061044c9190613228565b6114e8565b005b61045b6116fd565b60405161046891906138cd565b60405180910390f35b610479611736565b60405161048691906139a4565b60405180910390f35b6104a960048036038101906104a491906139c4565b6117c7565b6040516104b691906133fd565b60405180910390f35b6104d960048036038101906104d49190613a60565b6117e8565b6040516104e691906134a9565b60405180910390f35b61050960048036038101906105049190613b37565b611807565b6040516105169190613706565b60405180910390f35b61053960048036038101906105349190613bb7565b61187d565b6040516105469190613706565b60405180910390f35b61056960048036038101906105649190613cb0565b6119ac565b60405161057691906134a9565b60405180910390f35b6105876119c9565b60405161059491906133fd565b60405180910390f35b6105b760048036038101906105b29190613d46565b611a1c565b005b6105c1611dad565b6040516105ce91906138cd565b60405180910390f35b5050505050505050565b5f7f4e2312e0000000000000000000000000000000000000000000000000000000007bffffffffffffffffffffffffffffffffffffffffffffffffffffffff1916827bffffffffffffffffffffffffffffffffffffffffffffffffffffffff191614806106ab57507f150b7a02000000000000000000000000000000000000000000000000000000007bffffffffffffffffffffffffffffffffffffffffffffffffffffffff1916827bffffffffffffffffffffffffffffffffffffffffffffffffffffffff1916145b8061071357507f01ffc9a7000000000000000000000000000000000000000000000000000000007bffffffffffffffffffffffffffffffffffffffffffffffffffffffff1916827bffffffffffffffffffffffffffffffffffffffffffffffffffffffff1916145b9050919050565b61088881565b60025f9054906101000a900473ffffffffffffffffffffffffffffffffffffffff1673ffffffffffffffffffffffffffffffffffffffff163373ffffffffffffffffffffffffffffffffffffffff16146107a6576040517ffd90c58b00000000000000000000000000000000000000000000000000000000815260040160405180910390fd5b5f8273ffffffffffffffffffffffffffffffffffffffff1663dd62ed3e3060025f9054906101000a900473ffffffffffffffffffffffffffffffffffffffff166040518363ffffffff1660e01b8152600401610803929190613daa565b602060405180830381865afa15801561081e573d5f5f3e3d5ffd5b505050506040513d601f19601f820116820180604052508101906108429190613de5565b90508273ffffffffffffffffffffffffffffffffffffffff1663095ea7b360025f9054906101000a900473ffffffffffffffffffffffffffffffffffffffff16848461088e9190613e3d565b6040518363ffffffff1660e01b81526004016108ab929190613e70565b6020604051808303815f875af11580156108c7573d5f5f3e3d5ffd5b505050506040513d601f19601f820116820180604052508101906108eb9190613ec1565b50818373ffffffffffffffffffffffffffffffffffffffff167fcb93657a5c658e5dddb9fbc9d189d0cbc05e623720a413039a49aa15194d617860405160405180910390a3505050565b5f61094033836111c6565b9050919050565b5f5f9054906101000a900473ffffffffffffffffffffffffffffffffffffffff1681565b5f610974611de6565b63150b7a0260e01b905095945050505050565b5f5f3390505f6109b682876040516020016109a291906133fd565b604051602081830303815290604052610f7e565b90505f818051906020012090505f8686905003610a8b575f8373ffffffffffffffffffffffffffffffffffffffff16635ae6bd37836040518263ffffffff1660e01b8152600401610a0791906133fd565b602060405180830381865afa158015610a22573d5f5f3e3d5ffd5b505050506040513d601f19601f82011682018060405250810190610a469190613de5565b03610a86576040517f08c379a0000000000000000000000000000000000000000000000000000000008152600401610a7d90613f36565b60405180910390fd5b610af7565b8273ffffffffffffffffffffffffffffffffffffffff1663f855438b5f8389896040518563ffffffff1660e01b8152600401610aca9493929190613f80565b5f6040518083038186803b158015610ae0575f5ffd5b505afa158015610af2573d5f5f3e3d5ffd5b505050505b631626ba7e60e01b93505050509392505050565b5f5f5f9054906101000a900473ffffffffffffffffffffffffffffffffffffffff1673ffffffffffffffffffffffffffffffffffffffff16610b4b611f14565b73ffffffffffffffffffffffffffffffffffffffff1614610b98576040517f85db247d00000000000000000000000000000000000000000000000000000000815260040160405180910390fd5b5f845f016020810190610bab9190613fbe565b90503373ffffffffffffffffffffffffffffffffffffffff168173ffffffffffffffffffffffffffffffffffffffff16141580610c35575060015f9054906101000a900473ffffffffffffffffffffffffffffffffffffffff1673ffffffffffffffffffffffffffffffffffffffff168173ffffffffffffffffffffffffffffffffffffffff1614155b15610c6c576040517f48f5c3ed00000000000000000000000000000000000000000000000000000000815260040160405180910390fd5b5f858060600190610c7d9190613ff5565b90610c88919061406d565b9050637bb3742860e01b7bffffffffffffffffffffffffffffffffffffffffffffffffffffffff1916817bffffffffffffffffffffffffffffffffffffffffffffffffffffffff191614158015610d24575063541d63c860e01b7bffffffffffffffffffffffffffffffffffffffffffffffffffffffff1916817bffffffffffffffffffffffffffffffffffffffffffffffffffffffff191614155b15610d6657806040517f45c229ce000000000000000000000000000000000000000000000000000000008152600401610d5d91906134a9565b60405180910390fd5b610d6f86611f69565b92505f610d8a878060600190610d859190613ff5565b6120b1565b90505f5f5f90505b8251811015610eac5760035f9054906101000a900473ffffffffffffffffffffffffffffffffffffffff1673ffffffffffffffffffffffffffffffffffffffff16631a6ce3e886858481518110610dec57610deb6140cb565b5b60200260200101515f0151868581518110610e0a57610e096140cb565b5b602002602001015160200151878681518110610e2957610e286140cb565b5b6020026020010151606001516040518563ffffffff1660e01b8152600401610e549493929190614118565b6020604051808303815f875af1158015610e70573d5f5f3e3d5ffd5b505050506040513d601f19601f82011682018060405250810190610e949190613de5565b91506001820315610eac578080600101915050610d92565b505f8614610f53578373ffffffffffffffffffffffffffffffffffffffff1663468721a75f5f9054906101000a900473ffffffffffffffffffffffffffffffffffffffff16885f6040518463ffffffff1660e01b8152600401610f11939291906141f8565b6020604051808303815f875af1158015610f2d573d5f5f3e3d5ffd5b505050506040513d601f19601f82011682018060405250810190610f519190613ec1565b505b5f85148015610f6157505f81145b610f6c576001610f6e565b5f5b60ff169450505050509392505050565b60605f7f60b3cbf8b4a223d68d641b3b6ddf9a298e7f33710cf3d3a9d1146b5a6150fbca5f1b8380519060200120604051602001610fbd929190614240565b604051602081830303815290604052805190602001209050601960f81b600160f81b8573ffffffffffffffffffffffffffffffffffffffff1663f698da256040518163ffffffff1660e01b8152600401602060405180830381865afa158015611028573d5f5f3e3d5ffd5b505050506040513d601f19601f8201168201806040525081019061104c919061427b565b836040516020016110609493929190614311565b60405160208183030381529060405291505092915050565b60025f9054906101000a900473ffffffffffffffffffffffffffffffffffffffff1681565b5f5f9054906101000a900473ffffffffffffffffffffffffffffffffffffffff1673ffffffffffffffffffffffffffffffffffffffff166110dc611f14565b73ffffffffffffffffffffffffffffffffffffffff1614611129576040517f85db247d00000000000000000000000000000000000000000000000000000000815260040160405180910390fd5b5f5f3373ffffffffffffffffffffffffffffffffffffffff16635229073f878787876040518563ffffffff1660e01b815260040161116a949392919061436d565b5f604051808303815f875af1158015611185573d5f5f3e3d5ffd5b505050506040513d5f823e3d601f19601f820116820180604052508101906111ad9190614425565b91509150816111be57805160208201fd5b505050505050565b5f6111d18383610f7e565b80519060200120905092915050565b5f5f9054906101000a900473ffffffffffffffffffffffffffffffffffffffff1673ffffffffffffffffffffffffffffffffffffffff1661121f611f14565b73ffffffffffffffffffffffffffffffffffffffff161461126c576040517f85db247d00000000000000000000000000000000000000000000000000000000815260040160405180910390fd5b3373ffffffffffffffffffffffffffffffffffffffff1663468721a7858585856040518563ffffffff1660e01b81526004016112ab949392919061436d565b6020604051808303815f875af11580156112c7573d5f5f3e3d5ffd5b505050506040513d601f19601f820116820180604052508101906112eb9190613ec1565b611321576040517facfdb44400000000000000000000000000000000000000000000000000000000815260040160405180910390fd5b50505050565b60025f9054906101000a900473ffffffffffffffffffffffffffffffffffffffff1673ffffffffffffffffffffffffffffffffffffffff163373ffffffffffffffffffffffffffffffffffffffff16146113ad576040517ffd90c58b00000000000000000000000000000000000000000000000000000000815260040160405180910390fd5b5f60025f9054906101000a900473ffffffffffffffffffffffffffffffffffffffff1673ffffffffffffffffffffffffffffffffffffffff16826040516113f3906144a9565b5f6040518083038185875af1925050503d805f811461142d576040519150601f19603f3d011682016040523d82523d5f602084013e611432565b606091505b505090508061146d576040517f315ee42500000000000000000000000000000000000000000000000000000000815260040160405180910390fd5b817fb8d934e3c17b784b227a887a33fb1527e8188b4491b1074a53807a794c269fd360405160405180910390a25050565b60035f9054906101000a900473ffffffffffffffffffffffffffffffffffffffff1681565b60015f9054906101000a900473ffffffffffffffffffffffffffffffffffffffff1681565b60025f9054906101000a900473ffffffffffffffffffffffffffffffffffffffff1673ffffffffffffffffffffffffffffffffffffffff163373ffffffffffffffffffffffffffffffffffffffff161461156e576040517ffd90c58b00000000000000000000000000000000000000000000000000000000815260040160405180910390fd5b5f8273ffffffffffffffffffffffffffffffffffffffff1663dd62ed3e3060025f9054906101000a900473ffffffffffffffffffffffffffffffffffffffff166040518363ffffffff1660e01b81526004016115cb929190613daa565b602060405180830381865afa1580156115e6573d5f5f3e3d5ffd5b505050506040513d601f19601f8201168201806040525081019061160a9190613de5565b90508273ffffffffffffffffffffffffffffffffffffffff1663095ea7b360025f9054906101000a900473ffffffffffffffffffffffffffffffffffffffff16848461165691906144bd565b6040518363ffffffff1660e01b8152600401611673929190613e70565b6020604051808303815f875af115801561168f573d5f5f3e3d5ffd5b505050506040513d601f19601f820116820180604052508101906116b39190613ec1565b50818373ffffffffffffffffffffffffffffffffffffffff167f040447bc75d26e6f94e7dda109c288c011fd6caafe2dc864634528e752b947e560405160405180910390a3505050565b6040518060400160405280600f81526020017f5375624167656e74204d6f64756c65000000000000000000000000000000000081525081565b60605f3390505f8173ffffffffffffffffffffffffffffffffffffffff1663cc2f84526001600a6040518363ffffffff1660e01b815260040161177a929190614529565b5f60405180830381865afa158015611794573d5f5f3e3d5ffd5b505050506040513d5f823e3d601f19601f820116820180604052508101906117bc9190614624565b509050809250505090565b5f5f6117d2836121ed565b5050505090508080519060200120915050919050565b5f6117f1611de6565b63bc197c8160e01b905098975050505050505050565b60606040517fb4faba090000000000000000000000000000000000000000000000000000000081526004360360048083013760405f36835f335af160403d10811715611851575f5ffd5b60208051016040519350808401604052806020853e5f51611873578060208501fd5b5050509392505050565b60605f3390505f8173ffffffffffffffffffffffffffffffffffffffff1663f698da256040518163ffffffff1660e01b8152600401602060405180830381865afa1580156118cd573d5f5f3e3d5ffd5b505050506040513d601f19601f820116820180604052508101906118f1919061427b565b90505f7fbb8310d486368db6bd6f849402fdd73ad53d316b5a4b2644ad6efe0f941286d85f1b8f8f8f8f6040516119299291906146a2565b60405180910390208e8e8e8e8e8e8e6040516020016119529b9a999897969594939291906146ba565b604051602081830303815290604052805190602001209050601960f81b600160f81b83836040516020016119899493929190614311565b60405160208183030381529060405293505050509b9a5050505050505050505050565b5f6119b5611de6565b63f23a6e6160e01b90509695505050505050565b5f7f47e79534a245952e8b16893a336b85a3d9ea9fa8c573f3d803afb92a794692185f1b4630604051602001611a0193929190614783565b60405160208183030381529060405280519060200120905090565b5f611a25612483565b90505f815f0160089054906101000a900460ff161590505f825f015f9054906101000a900467ffffffffffffffff1690505f5f8267ffffffffffffffff16148015611a6d5750825b90505f60018367ffffffffffffffff16148015611aa057505f3073ffffffffffffffffffffffffffffffffffffffff163b145b905081158015611aae575080155b15611ae5576040517ff92ee8a900000000000000000000000000000000000000000000000000000000815260040160405180910390fd5b6001855f015f6101000a81548167ffffffffffffffff021916908367ffffffffffffffff1602179055508315611b32576001855f0160086101000a81548160ff0219169083151502179055505b611b3b89612496565b5f73ffffffffffffffffffffffffffffffffffffffff168773ffffffffffffffffffffffffffffffffffffffff1603611ba9576040517f08c379a0000000000000000000000000000000000000000000000000000000008152600401611ba090614802565b60405180910390fd5b5f73ffffffffffffffffffffffffffffffffffffffff168673ffffffffffffffffffffffffffffffffffffffff1603611c17576040517f08c379a0000000000000000000000000000000000000000000000000000000008152600401611c0e9061486a565b60405180910390fd5b8760015f6101000a81548173ffffffffffffffffffffffffffffffffffffffff021916908373ffffffffffffffffffffffffffffffffffffffff1602179055508660025f6101000a81548173ffffffffffffffffffffffffffffffffffffffff021916908373ffffffffffffffffffffffffffffffffffffffff1602179055508560035f6101000a81548173ffffffffffffffffffffffffffffffffffffffff021916908373ffffffffffffffffffffffffffffffffffffffff1602179055508573ffffffffffffffffffffffffffffffffffffffff168773ffffffffffffffffffffffffffffffffffffffff168973ffffffffffffffffffffffffffffffffffffffff167f7f19b1836867555cdd433785b5939c11fd02c0b0f296ef9eb0fa11c0cf61591460405160405180910390a48315611da2575f855f0160086101000a81548160ff0219169083151502179055507fc7f505b2f371ae2175ee4913f4499e1f2633a7b5936321eed1cdaeb6115181d26001604051611d9991906148d4565b60405180910390a15b505050505050505050565b6040518060400160405280600581526020017f312e302e3000000000000000000000000000000000000000000000000000000081525081565b5f3373ffffffffffffffffffffffffffffffffffffffff16635624b25b7f6c9a6c4a39284e37ed1cf53d337577d14212a4870fb976a4366c693b939918d55f1b5f1c60016040518363ffffffff1660e01b8152600401611e4792919061491d565b5f60405180830381865afa158015611e61573d5f5f3e3d5ffd5b505050506040513d5f823e3d601f19601f82011682018060405250810190611e899190614944565b90505f81806020019051810190611ea091906149b5565b90503073ffffffffffffffffffffffffffffffffffffffff168173ffffffffffffffffffffffffffffffffffffffff1614611f10576040517f08c379a0000000000000000000000000000000000000000000000000000000008152600401611f0790614a2a565b60405180910390fd5b5050565b5f60145f3690501015611f5c576040517f08c379a0000000000000000000000000000000000000000000000000000000008152600401611f5390614a92565b60405180910390fd5b601436033560601c905090565b5f5f5f5f365f611f78876121ed565b945094509450945094505f61200b83838a5f016020810190611f9a9190613fbe565b73ffffffffffffffffffffffffffffffffffffffff1663e75235b86040518163ffffffff1660e01b8152600401602060405180830381865afa158015611fe2573d5f5f3e3d5ffd5b505050506040513d601f19601f820116820180604052508101906120069190613de5565b61253d565b9050875f01602081019061201f9190613fbe565b73ffffffffffffffffffffffffffffffffffffffff1663934f3a1187805190602001208886866040518563ffffffff1660e01b81526004016120649493929190614ab0565b5f6040518083038186803b15801561207a575f5ffd5b505afa92505050801561208b575060015b612097575f9050612098565b5b6120a481158587612647565b9650505050505050919050565b6060600483839050101561211a575f67ffffffffffffffff8111156120d9576120d861327a565b5b60405190808252806020026020018201604052801561211257816020015b6120ff612f2a565b8152602001906001900390816120f75790505b5090506121e7565b5f6004848490501061212b57833590505b63541d63c860e01b7bffffffffffffffffffffffffffffffffffffffffffffffffffffffff1916817bffffffffffffffffffffffffffffffffffffffffffffffffffffffff191614806121c25750635ac0a0f960e01b7bffffffffffffffffffffffffffffffffffffffffffffffffffffffff1916817bffffffffffffffffffffffffffffffffffffffffffffffffffffffff1916145b156121d9576121d1848461267b565b9150506121e7565b6121e384846127fb565b9150505b92915050565b60605f5f365f365f878061010001906122069190613ff5565b9150915081815f9060069261221d93929190614afd565b906122289190614b62565b60d01c95508181600690600c9261224193929190614afd565b9061224c9190614b62565b60d01c94508181600c90809261226493929190614afd565b9350935050505f604051806101c001604052807fc03dfc11d8b10bf9cf703d558958c8c42777f785d998c62060d85a4f0ef6ea7f5f1b8152602001885f0160208101906122b19190613fbe565b73ffffffffffffffffffffffffffffffffffffffff168152602001886020013581526020018880604001906122e69190613ff5565b6040516122f49291906146a2565b604051809103902081526020018880606001906123119190613ff5565b60405161231f9291906146a2565b6040518091039020815260200161233589612990565b6fffffffffffffffffffffffffffffffff168152602001612355896129a5565b6fffffffffffffffffffffffffffffffff1681526020018860a00135815260200161237f896129ba565b6fffffffffffffffffffffffffffffffff16815260200161239f896129cf565b6fffffffffffffffffffffffffffffffff168152602001888060e001906123c69190613ff5565b6040516123d49291906146a2565b604051809103902081526020018665ffffffffffff1681526020018565ffffffffffff1681526020015f5f9054906101000a900473ffffffffffffffffffffffffffffffffffffffff1673ffffffffffffffffffffffffffffffffffffffff1681525090505f6101c082209050601960f81b600160f81b6124536119c9565b836040516020016124679493929190614311565b6040516020818303038152906040529650505091939590929450565b5f5f61248d6129e4565b90508091505090565b5f73ffffffffffffffffffffffffffffffffffffffff168173ffffffffffffffffffffffffffffffffffffffff16036124fb576040517f2039d3c900000000000000000000000000000000000000000000000000000000815260040160405180910390fd5b805f5f6101000a81548173ffffffffffffffffffffffffffffffffffffffff021916908373ffffffffffffffffffffffffffffffffffffffff16021790555050565b5f5f60418361254c9190614bc0565b905080858590501015612562575f915050612640565b5f5f90505b83811015612634575f60418261257d9190614bc0565b90505f878760408461258f9190613e3d565b81811061259f5761259e6140cb565b5b9050013560f81c60f81b60f81c90505f8160ff1603612625575f88886020856125c89190613e3d565b9080926125d793929190614afd565b906125e29190614c01565b5f1c90505f8989839080926125f993929190614afd565b906126049190614c01565b5f1c90508060206126159190613e3d565b866126209190613e3d565b955050505b50508080600101915050612567565b50808585905011159150505b9392505050565b5f60d08265ffffffffffff16901b60a08465ffffffffffff16901b8561266d575f612670565b60015b171790509392505050565b6060365f8484600490809261269293929190614afd565b915091505f5f5f5f85858101906126a99190614c73565b935093509350935060018160ff161480156126f057505f73ffffffffffffffffffffffffffffffffffffffff168473ffffffffffffffffffffffffffffffffffffffff1614155b1561270b576126fe82612a0d565b96505050505050506127f5565b5f600167ffffffffffffffff8111156127275761272661327a565b5b60405190808252806020026020018201604052801561276057816020015b61274d612f2a565b8152602001906001900390816127455790505b5090505f600484511061277557602084015190505b60405180608001604052808773ffffffffffffffffffffffffffffffffffffffff168152602001868152602001827bffffffffffffffffffffffffffffffffffffffffffffffffffffffff1916815260200185815250825f815181106127de576127dd6140cb565b5b602002602001018190525081985050505050505050505b92915050565b60606004838390501015612844576040517f08c379a000000000000000000000000000000000000000000000000000000000815260040161283b90614a92565b60405180910390fd5b5f600167ffffffffffffffff8111156128605761285f61327a565b5b60405190808252806020026020018201604052801561289957816020015b612886612f2a565b81526020019060019003908161287e5790505b5090505f84845f906004926128b093929190614afd565b906128bb919061406d565b905060405180608001604052805f73ffffffffffffffffffffffffffffffffffffffff1681526020015f8152602001827bffffffffffffffffffffffffffffffffffffffffffffffffffffffff191681526020018686600490809261292293929190614afd565b8080601f0160208091040260200160405190810160405280939291908181526020018383808284375f81840152601f19601f82011690508083019250505050505050815250825f8151811061297a576129796140cb565b5b6020026020010181905250819250505092915050565b5f61299e8260800135612c3d565b9050919050565b5f6129b38260800135612c4c565b9050919050565b5f6129c88260c00135612c3d565b9050919050565b5f6129dd8260c00135612c4c565b9050919050565b5f7ff0c57e16840df040f15088dc2f81fe391c3923bec73e23a9662efc9c229c6a005f1b905090565b6060600482511015612a74575f67ffffffffffffffff811115612a3357612a3261327a565b5b604051908082528060200260200182016040528015612a6c57816020015b612a59612f2a565b815260200190600190039081612a515790505b509050612c38565b5f6004835110612a8657602083015190505b638d80ff0a60e01b7bffffffffffffffffffffffffffffffffffffffffffffffffffffffff1916817bffffffffffffffffffffffffffffffffffffffffffffffffffffffff191614612b2e575f67ffffffffffffffff811115612aec57612aeb61327a565b5b604051908082528060200260200182016040528015612b2557816020015b612b12612f2a565b815260200190600190039081612b0a5790505b50915050612c38565b5f60048451612b3d91906144bd565b67ffffffffffffffff811115612b5657612b5561327a565b5b6040519080825280601f01601f191660200182016040528015612b885781602001600182028036833780820191505090505b5090505f5f90505b8151811015612c115784600482612ba79190613e3d565b81518110612bb857612bb76140cb565b5b602001015160f81c60f81b828281518110612bd657612bd56140cb565b5b60200101907effffffffffffffffffffffffffffffffffffffffffffffffffffffffffffff191690815f1a9053508080600101915050612b90565b505f81806020019051810190612c279190614944565b9050612c3281612c69565b93505050505b919050565b5f6080825f1c901c9050919050565b5f815f1c6fffffffffffffffffffffffffffffffff169050919050565b60605f5f90505f5f90505b8351811015612ccc578351605582612c8c9190613e3d565b11612ccc575f603582016020860101519050806055612cab9190613e3d565b82612cb69190613e3d565b91508280612cc390614cf3565b93505050612c74565b5f8267ffffffffffffffff811115612ce757612ce661327a565b5b604051908082528060200260200182016040528015612d2057816020015b612d0d612f2a565b815260200190600190039081612d055790505b5090505f91505f5f90505b855183108015612d3a57508381105b15612f1e578551605584612d4e9190613e3d565b11612f1e575f6c01000000000000000000000000846021890101510490505f6015850160208901015190505f6035860160208a01015190505f8167ffffffffffffffff811115612da157612da061327a565b5b6040519080825280601f01601f191660200182016040528015612dd35781602001600182028036833780820191505090505b5090505f5f90505b82811015612e66578a8160558a612df29190613e3d565b612dfc9190613e3d565b81518110612e0d57612e0c6140cb565b5b602001015160f81c60f81b828281518110612e2b57612e2a6140cb565b5b60200101907effffffffffffffffffffffffffffffffffffffffffffffffffffffffffffff191690815f1a9053508080600101915050612ddb565b505f60048310612e7857602082015190505b60405180608001604052808673ffffffffffffffffffffffffffffffffffffffff168152602001858152602001827bffffffffffffffffffffffffffffffffffffffffffffffffffffffff1916815260200183815250878781518110612ee157612ee06140cb565b5b6020026020010181905250826055612ef99190613e3d565b88612f049190613e3d565b97508580612f1190614cf3565b9650505050505050612d2b565b81945050505050919050565b60405180608001604052805f73ffffffffffffffffffffffffffffffffffffffff1681526020015f81526020015f7bffffffffffffffffffffffffffffffffffffffffffffffffffffffff19168152602001606081525090565b5f604051905090565b5f5ffd5b5f5ffd5b5f73ffffffffffffffffffffffffffffffffffffffff82169050919050565b5f612fbe82612f95565b9050919050565b612fce81612fb4565b8114612fd8575f5ffd5b50565b5f81359050612fe981612fc5565b92915050565b5f819050919050565b61300181612fef565b811461300b575f5ffd5b50565b5f8135905061301c81612ff8565b92915050565b5f5ffd5b5f5ffd5b5f5ffd5b5f5f83601f84011261304357613042613022565b5b8235905067ffffffffffffffff8111156130605761305f613026565b5b60208301915083600182028301111561307c5761307b61302a565b5b9250929050565b5f5f5f5f5f5f5f5f60c0898b03121561309f5761309e612f8d565b5b5f6130ac8b828c01612fdb565b98505060206130bd8b828c01612fdb565b97505060406130ce8b828c01612fdb565b96505060606130df8b828c0161300e565b955050608089013567ffffffffffffffff811115613100576130ff612f91565b5b61310c8b828c0161302e565b945094505060a089013567ffffffffffffffff81111561312f5761312e612f91565b5b61313b8b828c0161302e565b92509250509295985092959890939650565b5f7fffffffff0000000000000000000000000000000000000000000000000000000082169050919050565b6131818161314d565b811461318b575f5ffd5b50565b5f8135905061319c81613178565b92915050565b5f602082840312156131b7576131b6612f8d565b5b5f6131c48482850161318e565b91505092915050565b5f8115159050919050565b6131e1816131cd565b82525050565b5f6020820190506131fa5f8301846131d8565b92915050565b61320981612fb4565b82525050565b5f6020820190506132225f830184613200565b92915050565b5f5f6040838503121561323e5761323d612f8d565b5b5f61324b85828601612fdb565b925050602061325c8582860161300e565b9150509250929050565b5f5ffd5b5f601f19601f8301169050919050565b7f4e487b71000000000000000000000000000000000000000000000000000000005f52604160045260245ffd5b6132b08261326a565b810181811067ffffffffffffffff821117156132cf576132ce61327a565b5b80604052505050565b5f6132e1612f84565b90506132ed82826132a7565b919050565b5f67ffffffffffffffff82111561330c5761330b61327a565b5b6133158261326a565b9050602081019050919050565b828183375f83830152505050565b5f61334261333d846132f2565b6132d8565b90508281526020810184848401111561335e5761335d613266565b5b613369848285613322565b509392505050565b5f82601f83011261338557613384613022565b5b8135613395848260208601613330565b91505092915050565b5f602082840312156133b3576133b2612f8d565b5b5f82013567ffffffffffffffff8111156133d0576133cf612f91565b5b6133dc84828501613371565b91505092915050565b5f819050919050565b6133f7816133e5565b82525050565b5f6020820190506134105f8301846133ee565b92915050565b5f5f5f5f5f6080868803121561342f5761342e612f8d565b5b5f61343c88828901612fdb565b955050602061344d88828901612fdb565b945050604061345e8882890161300e565b935050606086013567ffffffffffffffff81111561347f5761347e612f91565b5b61348b8882890161302e565b92509250509295509295909350565b6134a38161314d565b82525050565b5f6020820190506134bc5f83018461349a565b92915050565b6134cb816133e5565b81146134d5575f5ffd5b50565b5f813590506134e6816134c2565b92915050565b5f5f5f6040848603121561350357613502612f8d565b5b5f613510868287016134d8565b935050602084013567ffffffffffffffff81111561353157613530612f91565b5b61353d8682870161302e565b92509250509250925092565b5f5ffd5b5f610120828403121561356357613562613549565b5b81905092915050565b5f5f5f6060848603121561358357613582612f8d565b5b5f84013567ffffffffffffffff8111156135a05761359f612f91565b5b6135ac8682870161354d565b93505060206135bd868287016134d8565b92505060406135ce8682870161300e565b9150509250925092565b6135e181612fef565b82525050565b5f6020820190506135fa5f8301846135d8565b92915050565b5f61360a82612f95565b9050919050565b5f61361b82613600565b9050919050565b61362b81613611565b8114613635575f5ffd5b50565b5f8135905061364681613622565b92915050565b5f5f6040838503121561366257613661612f8d565b5b5f61366f85828601613638565b925050602083013567ffffffffffffffff8111156136905761368f612f91565b5b61369c85828601613371565b9150509250929050565b5f81519050919050565b5f82825260208201905092915050565b8281835e5f83830152505050565b5f6136d8826136a6565b6136e281856136b0565b93506136f28185602086016136c0565b6136fb8161326a565b840191505092915050565b5f6020820190508181035f83015261371e81846136ce565b905092915050565b5f60ff82169050919050565b61373b81613726565b8114613745575f5ffd5b50565b5f8135905061375681613732565b92915050565b5f5f5f5f6080858703121561377457613773612f8d565b5b5f61378187828801612fdb565b94505060206137928782880161300e565b935050604085013567ffffffffffffffff8111156137b3576137b2612f91565b5b6137bf87828801613371565b92505060606137d087828801613748565b91505092959194509250565b5f602082840312156137f1576137f0612f8d565b5b5f6137fe8482850161300e565b91505092915050565b5f819050919050565b5f61382a61382561382084612f95565b613807565b612f95565b9050919050565b5f61383b82613810565b9050919050565b5f61384c82613831565b9050919050565b61385c81613842565b82525050565b5f6020820190506138755f830184613853565b92915050565b5f81519050919050565b5f82825260208201905092915050565b5f61389f8261387b565b6138a98185613885565b93506138b98185602086016136c0565b6138c28161326a565b840191505092915050565b5f6020820190508181035f8301526138e58184613895565b905092915050565b5f81519050919050565b5f82825260208201905092915050565b5f819050602082019050919050565b61391f81612fb4565b82525050565b5f6139308383613916565b60208301905092915050565b5f602082019050919050565b5f613952826138ed565b61395c81856138f7565b935061396783613907565b805f5b8381101561399757815161397e8882613925565b97506139898361393c565b92505060018101905061396a565b5085935050505092915050565b5f6020820190508181035f8301526139bc8184613948565b905092915050565b5f602082840312156139d9576139d8612f8d565b5b5f82013567ffffffffffffffff8111156139f6576139f5612f91565b5b613a028482850161354d565b91505092915050565b5f5f83601f840112613a2057613a1f613022565b5b8235905067ffffffffffffffff811115613a3d57613a3c613026565b5b602083019150836020820283011115613a5957613a5861302a565b5b9250929050565b5f5f5f5f5f5f5f5f60a0898b031215613a7c57613a7b612f8d565b5b5f613a898b828c01612fdb565b9850506020613a9a8b828c01612fdb565b975050604089013567ffffffffffffffff811115613abb57613aba612f91565b5b613ac78b828c01613a0b565b9650965050606089013567ffffffffffffffff811115613aea57613ae9612f91565b5b613af68b828c01613a0b565b9450945050608089013567ffffffffffffffff811115613b1957613b18612f91565b5b613b258b828c0161302e565b92509250509295985092959890939650565b5f5f5f60408486031215613b4e57613b4d612f8d565b5b5f613b5b86828701612fdb565b935050602084013567ffffffffffffffff811115613b7c57613b7b612f91565b5b613b888682870161302e565b92509250509250925092565b60028110613ba0575f5ffd5b50565b5f81359050613bb181613b94565b92915050565b5f5f5f5f5f5f5f5f5f5f5f6101408c8e031215613bd757613bd6612f8d565b5b5f613be48e828f01612fdb565b9b50506020613bf58e828f0161300e565b9a505060408c013567ffffffffffffffff811115613c1657613c15612f91565b5b613c228e828f0161302e565b99509950506060613c358e828f01613ba3565b9750506080613c468e828f0161300e565b96505060a0613c578e828f0161300e565b95505060c0613c688e828f0161300e565b94505060e0613c798e828f01612fdb565b935050610100613c8b8e828f01612fdb565b925050610120613c9d8e828f0161300e565b9150509295989b509295989b9093969950565b5f5f5f5f5f5f60a08789031215613cca57613cc9612f8d565b5b5f613cd789828a01612fdb565b9650506020613ce889828a01612fdb565b9550506040613cf989828a0161300e565b9450506060613d0a89828a0161300e565b935050608087013567ffffffffffffffff811115613d2b57613d2a612f91565b5b613d3789828a0161302e565b92509250509295509295509295565b5f5f5f5f60808587031215613d5e57613d5d612f8d565b5b5f613d6b87828801612fdb565b9450506020613d7c87828801612fdb565b9350506040613d8d87828801612fdb565b9250506060613d9e87828801612fdb565b91505092959194509250565b5f604082019050613dbd5f830185613200565b613dca6020830184613200565b9392505050565b5f81519050613ddf81612ff8565b92915050565b5f60208284031215613dfa57613df9612f8d565b5b5f613e0784828501613dd1565b91505092915050565b7f4e487b71000000000000000000000000000000000000000000000000000000005f52601160045260245ffd5b5f613e4782612fef565b9150613e5283612fef565b9250828201905080821115613e6a57613e69613e10565b5b92915050565b5f604082019050613e835f830185613200565b613e9060208301846135d8565b9392505050565b613ea0816131cd565b8114613eaa575f5ffd5b50565b5f81519050613ebb81613e97565b92915050565b5f60208284031215613ed657613ed5612f8d565b5b5f613ee384828501613ead565b91505092915050565b7f48617368206e6f7420617070726f7665640000000000000000000000000000005f82015250565b5f613f20601183613885565b9150613f2b82613eec565b602082019050919050565b5f6020820190508181035f830152613f4d81613f14565b9050919050565b5f613f5f83856136b0565b9350613f6c838584613322565b613f758361326a565b840190509392505050565b5f606082019050613f935f830187613200565b613fa060208301866133ee565b8181036040830152613fb3818486613f54565b905095945050505050565b5f60208284031215613fd357613fd2612f8d565b5b5f613fe084828501612fdb565b91505092915050565b5f5ffd5b5f5ffd5b5f5ffd5b5f5f8335600160200384360303811261401157614010613fe9565b5b80840192508235915067ffffffffffffffff82111561403357614032613fed565b5b60208301925060018202360383131561404f5761404e613ff1565b5b509250929050565b5f82905092915050565b5f82821b905092915050565b5f6140788383614057565b82614083813561314d565b925060048210156140c3576140be7fffffffff0000000000000000000000000000000000000000000000000000000083600403600802614061565b831692505b505092915050565b7f4e487b71000000000000000000000000000000000000000000000000000000005f52603260045260245ffd5b5f61410282613831565b9050919050565b614112816140f8565b82525050565b5f60808201905061412b5f830187614109565b6141386020830186613200565b61414560408301856135d8565b818103606083015261415781846136ce565b905095945050505050565b50565b5f6141705f836136b0565b915061417b82614162565b5f82019050919050565b7f4e487b71000000000000000000000000000000000000000000000000000000005f52602160045260245ffd5b600281106141c3576141c2614185565b5b50565b5f8190506141d3826141b2565b919050565b5f6141e2826141c6565b9050919050565b6141f2816141d8565b82525050565b5f60808201905061420b5f830186613200565b61421860208301856135d8565b818103604083015261422981614165565b905061423860608301846141e9565b949350505050565b5f6040820190506142535f8301856133ee565b61426060208301846133ee565b9392505050565b5f81519050614275816134c2565b92915050565b5f602082840312156142905761428f612f8d565b5b5f61429d84828501614267565b91505092915050565b5f7fff0000000000000000000000000000000000000000000000000000000000000082169050919050565b5f819050919050565b6142eb6142e6826142a6565b6142d1565b82525050565b5f819050919050565b61430b614306826133e5565b6142f1565b82525050565b5f61431c82876142da565b60018201915061432c82866142da565b60018201915061433c82856142fa565b60208201915061434c82846142fa565b60208201915081905095945050505050565b61436781613726565b82525050565b5f6080820190506143805f830187613200565b61438d60208301866135d8565b818103604083015261439f81856136ce565b90506143ae606083018461435e565b95945050505050565b5f6143c96143c4846132f2565b6132d8565b9050828152602081018484840111156143e5576143e4613266565b5b6143f08482856136c0565b509392505050565b5f82601f83011261440c5761440b613022565b5b815161441c8482602086016143b7565b91505092915050565b5f5f6040838503121561443b5761443a612f8d565b5b5f61444885828601613ead565b925050602083015167ffffffffffffffff81111561446957614468612f91565b5b614475858286016143f8565b9150509250929050565b5f81905092915050565b5f6144945f8361447f565b915061449f82614162565b5f82019050919050565b5f6144b382614489565b9150819050919050565b5f6144c782612fef565b91506144d283612fef565b92508282039050818111156144ea576144e9613e10565b5b92915050565b5f819050919050565b5f61451361450e614509846144f0565b613807565b612fef565b9050919050565b614523816144f9565b82525050565b5f60408201905061453c5f830185613200565b614549602083018461451a565b9392505050565b5f67ffffffffffffffff82111561456a5761456961327a565b5b602082029050602081019050919050565b5f8151905061458981612fc5565b92915050565b5f6145a161459c84614550565b6132d8565b905080838252602082019050602084028301858111156145c4576145c361302a565b5b835b818110156145ed57806145d9888261457b565b8452602084019350506020810190506145c6565b5050509392505050565b5f82601f83011261460b5761460a613022565b5b815161461b84826020860161458f565b91505092915050565b5f5f6040838503121561463a57614639612f8d565b5b5f83015167ffffffffffffffff81111561465757614656612f91565b5b614663858286016145f7565b92505060206146748582860161457b565b9150509250929050565b5f614689838561447f565b9350614696838584613322565b82840190509392505050565b5f6146ae82848661467e565b91508190509392505050565b5f610160820190506146ce5f83018e6133ee565b6146db602083018d613200565b6146e8604083018c6135d8565b6146f5606083018b6133ee565b614702608083018a6141e9565b61470f60a08301896135d8565b61471c60c08301886135d8565b61472960e08301876135d8565b614737610100830186613200565b614745610120830185613200565b6147536101408301846135d8565b9c9b505050505050505050505050565b5f61476d82613831565b9050919050565b61477d81614763565b82525050565b5f6060820190506147965f8301866133ee565b6147a360208301856135d8565b6147b06040830184614774565b949350505050565b7f496e76616c6964207072696d61727920736166650000000000000000000000005f82015250565b5f6147ec601483613885565b91506147f7826147b8565b602082019050919050565b5f6020820190508181035f830152614819816147e0565b9050919050565b7f496e76616c6964206d616e6167657200000000000000000000000000000000005f82015250565b5f614854600f83613885565b915061485f82614820565b602082019050919050565b5f6020820190508181035f83015261488181614848565b9050919050565b5f819050919050565b5f67ffffffffffffffff82169050919050565b5f6148be6148b96148b484614888565b613807565b614891565b9050919050565b6148ce816148a4565b82525050565b5f6020820190506148e75f8301846148c5565b92915050565b5f6149076149026148fd84614888565b613807565b612fef565b9050919050565b614917816148ed565b82525050565b5f6040820190506149305f8301856135d8565b61493d602083018461490e565b9392505050565b5f6020828403121561495957614958612f8d565b5b5f82015167ffffffffffffffff81111561497657614975612f91565b5b614982848285016143f8565b91505092915050565b61499481613600565b811461499e575f5ffd5b50565b5f815190506149af8161498b565b92915050565b5f602082840312156149ca576149c9612f8d565b5b5f6149d7848285016149a1565b91505092915050565b7f6e6f7420612066616c6c6261636b2063616c6c000000000000000000000000005f82015250565b5f614a14601383613885565b9150614a1f826149e0565b602082019050919050565b5f6020820190508181035f830152614a4181614a08565b9050919050565b7f496e76616c69642063616c6c64617461206c656e6774680000000000000000005f82015250565b5f614a7c601783613885565b9150614a8782614a48565b602082019050919050565b5f6020820190508181035f830152614aa981614a70565b9050919050565b5f606082019050614ac35f8301876133ee565b8181036020830152614ad581866136ce565b90508181036040830152614aea818486613f54565b905095945050505050565b5f5ffd5b5f5ffd5b5f5f85851115614b1057614b0f614af5565b5b83861115614b2157614b20614af9565b5b6001850283019150848603905094509492505050565b5f7fffffffffffff000000000000000000000000000000000000000000000000000082169050919050565b5f614b6d8383614057565b82614b788135614b37565b92506006821015614bb857614bb37fffffffffffff000000000000000000000000000000000000000000000000000083600603600802614061565b831692505b505092915050565b5f614bca82612fef565b9150614bd583612fef565b9250828202614be381612fef565b91508282048414831517614bfa57614bf9613e10565b5b5092915050565b5f614c0c8383614057565b82614c1781356133e5565b92506020821015614c5757614c527fffffffffffffffffffffffffffffffffffffffffffffffffffffffffffffffff83602003600802614061565b831692505b505092915050565b5f81359050614c6d8161498b565b92915050565b5f5f5f5f60808587031215614c8b57614c8a612f8d565b5b5f614c9887828801614c5f565b9450506020614ca98782880161300e565b935050604085013567ffffffffffffffff811115614cca57614cc9612f91565b5b614cd687828801613371565b9250506060614ce787828801613748565b91505092959194509250565b5f614cfd82612fef565b91507fffffffffffffffffffffffffffffffffffffffffffffffffffffffffffffffff8203614d2f57614d2e613e10565b5b60018201905091905056fea26469706673582212200fae02e84883130e1254c6ee67b9c649ca570d8f7f79ec1b301abc288016dc8164736f6c634300081e0033",
			"opcodes": "PUSH1 0x80 PUSH1 0x40 MSTORE CALLVALUE DUP1 ISZERO PUSH1 0xE JUMPI PUSH0 PUSH0 REVERT JUMPDEST POP PUSH2 0x4D70 DUP1 PUSH2 0x1C PUSH0 CODECOPY PUSH0 RETURN INVALID PUSH1 0x80 PUSH1 0x40 MSTORE CALLVALUE DUP1 ISZERO PUSH2 0xF JUMPI PUSH0 PUSH0 REVERT JUMPDEST POP PUSH1 0x4 CALLDATASIZE LT PUSH2 0x1C1 JUMPI PUSH0 CALLDATALOAD PUSH1 0xE0 SHR DUP1 PUSH4 0x84276D81 GT PUSH2 0xF7 JUMPI DUP1 PUSH4 0xBC197C81 GT PUSH2 0x95 JUMPI DUP1 PUSH4 0xF23A6E61 GT PUSH2 0x6F JUMPI DUP1 PUSH4 0xF23A6E61 EQ PUSH2 0x54F JUMPI DUP1 PUSH4 0xF698DA25 EQ PUSH2 0x57F JUMPI DUP1 PUSH4 0xF8C8765E EQ PUSH2 0x59D JUMPI DUP1 PUSH4 0xFFA1AD74 EQ PUSH2 0x5B9 JUMPI PUSH2 0x1C1 JUMP JUMPDEST DUP1 PUSH4 0xBC197C81 EQ PUSH2 0x4BF JUMPI DUP1 PUSH4 0xBD61951D EQ PUSH2 0x4EF JUMPI DUP1 PUSH4 0xE86637DB EQ PUSH2 0x51F JUMPI PUSH2 0x1C1 JUMP JUMPDEST DUP1 PUSH4 0x92B68755 GT PUSH2 0xD1 JUMPI DUP1 PUSH4 0x92B68755 EQ PUSH2 0x437 JUMPI DUP1 PUSH4 0xA3F4DF7E EQ PUSH2 0x453 JUMPI DUP1 PUSH4 0xB2494DF3 EQ PUSH2 0x471 JUMPI DUP1 PUSH4 0xBBE5DC4F EQ PUSH2 0x48F JUMPI PUSH2 0x1C1 JUMP JUMPDEST DUP1 PUSH4 0x84276D81 EQ PUSH2 0x3DF JUMPI DUP1 PUSH4 0x853EA4A6 EQ PUSH2 0x3FB JUMPI DUP1 PUSH4 0x885A1FFA EQ PUSH2 0x419 JUMPI PUSH2 0x1C1 JUMP JUMPDEST DUP1 PUSH4 0x1626BA7E GT PUSH2 0x164 JUMPI DUP1 PUSH4 0x3D00F4AE GT PUSH2 0x13E JUMPI DUP1 PUSH4 0x3D00F4AE EQ PUSH2 0x359 JUMPI DUP1 PUSH4 0x541D63C8 EQ PUSH2 0x377 JUMPI DUP1 PUSH4 0x6AC24784 EQ PUSH2 0x393 JUMPI DUP1 PUSH4 0x7BB37428 EQ PUSH2 0x3C3 JUMPI PUSH2 0x1C1 JUMP JUMPDEST DUP1 PUSH4 0x1626BA7E EQ PUSH2 0x2C9 JUMPI DUP1 PUSH4 0x19822F7C EQ PUSH2 0x2F9 JUMPI DUP1 PUSH4 0x23031640 EQ PUSH2 0x329 JUMPI PUSH2 0x1C1 JUMP JUMPDEST DUP1 PUSH4 0x9915422 GT PUSH2 0x1A0 JUMPI DUP1 PUSH4 0x9915422 EQ PUSH2 0x22F JUMPI DUP1 PUSH4 0xA1028C4 EQ PUSH2 0x24B JUMPI DUP1 PUSH4 0x137E051E EQ PUSH2 0x27B JUMPI DUP1 PUSH4 0x150B7A02 EQ PUSH2 0x299 JUMPI PUSH2 0x1C1 JUMP JUMPDEST DUP1 PUSH3 0x23DE29 EQ PUSH2 0x1C5 JUMPI DUP1 PUSH4 0x1FFC9A7 EQ PUSH2 0x1E1 JUMPI DUP1 PUSH4 0x681EBDE EQ PUSH2 0x211 JUMPI JUMPDEST PUSH0 PUSH0 REVERT JUMPDEST PUSH2 0x1DF PUSH1 0x4 DUP1 CALLDATASIZE SUB DUP2 ADD SWAP1 PUSH2 0x1DA SWAP2 SWAP1 PUSH2 0x3083 JUMP JUMPDEST PUSH2 0x5D7 JUMP JUMPDEST STOP JUMPDEST PUSH2 0x1FB PUSH1 0x4 DUP1 CALLDATASIZE SUB DUP2 ADD SWAP1 PUSH2 0x1F6 SWAP2 SWAP1 PUSH2 0x31A2 JUMP JUMPDEST PUSH2 0x5E1 JUMP JUMPDEST PUSH1 0x40 MLOAD PUSH2 0x208 SWAP2 SWAP1 PUSH2 0x31E7 JUMP JUMPDEST PUSH1 0x40 MLOAD DUP1 SWAP2 SUB SWAP1 RETURN JUMPDEST PUSH2 0x219 PUSH2 0x71A JUMP JUMPDEST PUSH1 0x40 MLOAD PUSH2 0x226 SWAP2 SWAP1 PUSH2 0x320F JUMP JUMPDEST PUSH1 0x40 MLOAD DUP1 SWAP2 SUB SWAP1 RETURN JUMPDEST PUSH2 0x249 PUSH1 0x4 DUP1 CALLDATASIZE SUB DUP2 ADD SWAP1 PUSH2 0x244 SWAP2 SWAP1 PUSH2 0x3228 JUMP JUMPDEST PUSH2 0x720 JUMP JUMPDEST STOP JUMPDEST PUSH2 0x265 PUSH1 0x4 DUP1 CALLDATASIZE SUB DUP2 ADD SWAP1 PUSH2 0x260 SWAP2 SWAP1 PUSH2 0x339E JUMP JUMPDEST PUSH2 0x935 JUMP JUMPDEST PUSH1 0x40 MLOAD PUSH2 0x272 SWAP2 SWAP1 PUSH2 0x33FD JUMP JUMPDEST PUSH1 0x40 MLOAD DUP1 SWAP2 SUB SWAP1 RETURN JUMPDEST PUSH2 0x283 PUSH2 0x947 JUMP JUMPDEST PUSH1 0x40 MLOAD PUSH2 0x290 SWAP2 SWAP1 PUSH2 0x320F JUMP JUMPDEST PUSH1 0x40 MLOAD DUP1 SWAP2 SUB SWAP1 RETURN JUMPDEST PUSH2 0x2B3 PUSH1 0x4 DUP1 CALLDATASIZE SUB DUP2 ADD SWAP1 PUSH2 0x2AE SWAP2 SWAP1 PUSH2 0x3416 JUMP JUMPDEST PUSH2 0x96B JUMP JUMPDEST PUSH1 0x40 MLOAD PUSH2 0x2C0 SWAP2 SWAP1 PUSH2 0x34A9 JUMP JUMPDEST PUSH1 0x40 MLOAD DUP1 SWAP2 SUB SWAP1 RETURN JUMPDEST PUSH2 0x2E3 PUSH1 0x4 DUP1 CALLDATASIZE SUB DUP2 ADD SWAP1 PUSH2 0x2DE SWAP2 SWAP1 PUSH2 0x34EC JUMP JUMPDEST PUSH2 0x987 JUMP JUMPDEST PUSH1 0x40 MLOAD PUSH2 0x2F0 SWAP2 SWAP1 PUSH2 0x34A9 JUMP JUMPDEST PUSH1 0x40 MLOAD DUP1 SWAP2 SUB SWAP1 RETURN JUMPDEST PUSH2 0x313 PUSH1 0x4 DUP1 CALLDATASIZE SUB DUP2 ADD SWAP1 PUSH2 0x30E SWAP2 SWAP1 PUSH2 0x356C JUMP JUMPDEST PUSH2 0xB0B JUMP JUMPDEST PUSH1 0x40 MLOAD PUSH2 0x320 SWAP2 SWAP1 PUSH2 0x35E7 JUMP JUMPDEST PUSH1 0x40 MLOAD DUP1 SWAP2 SUB SWAP1 RETURN JUMPDEST PUSH2 0x343 PUSH1 0x4 DUP1 CALLDATASIZE SUB DUP2 ADD SWAP1 PUSH2 0x33E SWAP2 SWAP1 PUSH2 0x364C JUMP JUMPDEST PUSH2 0xF7E JUMP JUMPDEST PUSH1 0x40 MLOAD PUSH2 0x350 SWAP2 SWAP1 PUSH2 0x3706 JUMP JUMPDEST PUSH1 0x40 MLOAD DUP1 SWAP2 SUB SWAP1 RETURN JUMPDEST PUSH2 0x361 PUSH2 0x1078 JUMP JUMPDEST PUSH1 0x40 MLOAD PUSH2 0x36E SWAP2 SWAP1 PUSH2 0x320F JUMP JUMPDEST PUSH1 0x40 MLOAD DUP1 SWAP2 SUB SWAP1 RETURN JUMPDEST PUSH2 0x391 PUSH1 0x4 DUP1 CALLDATASIZE SUB DUP2 ADD SWAP1 PUSH2 0x38C SWAP2 SWAP1 PUSH2 0x375C JUMP JUMPDEST PUSH2 0x109D JUMP JUMPDEST STOP JUMPDEST PUSH2 0x3AD PUSH1 0x4 DUP1 CALLDATASIZE SUB DUP2 ADD SWAP1 PUSH2 0x3A8 SWAP2 SWAP1 PUSH2 0x364C JUMP JUMPDEST PUSH2 0x11C6 JUMP JUMPDEST PUSH1 0x40 MLOAD PUSH2 0x3BA SWAP2 SWAP1 PUSH2 0x33FD JUMP JUMPDEST PUSH1 0x40 MLOAD DUP1 SWAP2 SUB SWAP1 RETURN JUMPDEST PUSH2 0x3DD PUSH1 0x4 DUP1 CALLDATASIZE SUB DUP2 ADD SWAP1 PUSH2 0x3D8 SWAP2 SWAP1 PUSH2 0x375C JUMP JUMPDEST PUSH2 0x11E0 JUMP JUMPDEST STOP JUMPDEST PUSH2 0x3F9 PUSH1 0x4 DUP1 CALLDATASIZE SUB DUP2 ADD SWAP1 PUSH2 0x3F4 SWAP2 SWAP1 PUSH2 0x37DC JUMP JUMPDEST PUSH2 0x1327 JUMP JUMPDEST STOP JUMPDEST PUSH2 0x403 PUSH2 0x149E JUMP JUMPDEST PUSH1 0x40 MLOAD PUSH2 0x410 SWAP2 SWAP1 PUSH2 0x3862 JUMP JUMPDEST PUSH1 0x40 MLOAD DUP1 SWAP2 SUB SWAP1 RETURN JUMPDEST PUSH2 0x421 PUSH2 0x14C3 JUMP JUMPDEST PUSH1 0x40 MLOAD PUSH2 0x42E SWAP2 SWAP1 PUSH2 0x320F JUMP JUMPDEST PUSH1 0x40 MLOAD DUP1 SWAP2 SUB SWAP1 RETURN JUMPDEST PUSH2 0x451 PUSH1 0x4 DUP1 CALLDATASIZE SUB DUP2 ADD SWAP1 PUSH2 0x44C SWAP2 SWAP1 PUSH2 0x3228 JUMP JUMPDEST PUSH2 0x14E8 JUMP JUMPDEST STOP JUMPDEST PUSH2 0x45B PUSH2 0x16FD JUMP JUMPDEST PUSH1 0x40 MLOAD PUSH2 0x468 SWAP2 SWAP1 PUSH2 0x38CD JUMP JUMPDEST PUSH1 0x40 MLOAD DUP1 SWAP2 SUB SWAP1 RETURN JUMPDEST PUSH2 0x479 PUSH2 0x1736 JUMP JUMPDEST PUSH1 0x40 MLOAD PUSH2 0x486 SWAP2 SWAP1 PUSH2 0x39A4 JUMP JUMPDEST PUSH1 0x40 MLOAD DUP1 SWAP2 SUB SWAP1 RETURN JUMPDEST PUSH2 0x4A9 PUSH1 0x4 DUP1 CALLDATASIZE SUB DUP2 ADD SWAP1 PUSH2 0x4A4 SWAP2 SWAP1 PUSH2 0x39C4 JUMP JUMPDEST PUSH2 0x17C7 JUMP JUMPDEST PUSH1 0x40 MLOAD PUSH2 0x4B6 SWAP2 SWAP1 PUSH2 0x33FD JUMP JUMPDEST PUSH1 0x40 MLOAD DUP1 SWAP2 SUB SWAP1 RETURN JUMPDEST PUSH2 0x4D9 PUSH1 0x4 DUP1 CALLDATASIZE SUB DUP2 ADD SWAP1 PUSH2 0x4D4 SWAP2 SWAP1 PUSH2 0x3A60 JUMP JUMPDEST PUSH2 0x17E8 JUMP JUMPDEST PUSH1 0x40 MLOAD PUSH2 0x4E6 SWAP2 SWAP1 PUSH2 0x34A9 JUMP JUMPDEST PUSH1 0x40 MLOAD DUP1 SWAP2 SUB SWAP1 RETURN JUMPDEST PUSH2 0x509 PUSH1 0x4 DUP1 CALLDATASIZE SUB DUP2 ADD SWAP1 PUSH2 0x504 SWAP2 SWAP1 PUSH2 0x3B37 JUMP JUMPDEST PUSH2 0x1807 JUMP JUMPDEST PUSH1 0x40 MLOAD PUSH2 0x516 SWAP2 SWAP1 PUSH2 0x3706 JUMP JUMPDEST PUSH1 0x40 MLOAD DUP1 SWAP2 SUB SWAP1 RETURN JUMPDEST PUSH2 0x539 PUSH1 0x4 DUP1 CALLDATASIZE SUB DUP2 ADD SWAP1 PUSH2 0x534 SWAP2 SWAP1 PUSH2 0x3BB7 JUMP JUMPDEST PUSH2 0x187D JUMP JUMPDEST PUSH1 0x40 MLOAD PUSH2 0x546 SWAP2 SWAP1 PUSH2 0x3706 JUMP JUMPDEST PUSH1 0x40 MLOAD DUP1 SWAP2 SUB SWAP1 RETURN JUMPDEST PUSH2 0x569 PUSH1 0x4 DUP1 CALLDATASIZE SUB DUP2 ADD SWAP1 PUSH2 0x564 SWAP2 SWAP1 PUSH2 0x3CB0 JUMP JUMPDEST PUSH2 0x19AC JUMP JUMPDEST PUSH1 0x40 MLOAD PUSH2 0x576 SWAP2 SWAP1 PUSH2 0x34A9 JUMP JUMPDEST PUSH1 0x40 MLOAD DUP1 SWAP2 SUB SWAP1 RETURN JUMPDEST PUSH2 0x587 PUSH2 0x19C9 JUMP JUMPDEST PUSH1 0x40 MLOAD PUSH2 0x594 SWAP2 SWAP1 PUSH2 0x33FD JUMP JUMPDEST PUSH1 0x40 MLOAD DUP1 SWAP2 SUB SWAP1 RETURN JUMPDEST PUSH2 0x5B7 PUSH1 0x4 DUP1 CALLDATASIZE SUB DUP2 ADD SWAP1 PUSH2 0x5B2 SWAP2 SWAP1 PUSH2 0x3D46 JUMP JUMPDEST PUSH2 0x1A1C JUMP JUMPDEST STOP JUMPDEST PUSH2 0x5C1 PUSH2 0x1DAD JUMP JUMPDEST PUSH1 0x40 MLOAD PUSH2 0x5CE SWAP2 SWAP1 PUSH2 0x38CD JUMP JUMPDEST PUSH1 0x40 MLOAD DUP1 SWAP2 SUB SWAP1 RETURN JUMPDEST POP POP POP POP POP POP POP POP JUMP JUMPDEST PUSH0 PUSH32 0x4E2312E000000000000000000000000000000000000000000000000000000000 PUSH28 0xFFFFFFFFFFFFFFFFFFFFFFFFFFFFFFFFFFFFFFFFFFFFFFFFFFFFFFFF NOT AND DUP3 PUSH28 0xFFFFFFFFFFFFFFFFFFFFFFFFFFFFFFFFFFFFFFFFFFFFFFFFFFFFFFFF NOT AND EQ DUP1 PUSH2 0x6AB JUMPI POP PUSH32 0x150B7A0200000000000000000000000000000000000000000000000000000000 PUSH28 0xFFFFFFFFFFFFFFFFFFFFFFFFFFFFFFFFFFFFFFFFFFFFFFFFFFFFFFFF NOT AND DUP3 PUSH28 0xFFFFFFFFFFFFFFFFFFFFFFFFFFFFFFFFFFFFFFFFFFFFFFFFFFFFFFFF NOT AND EQ JUMPDEST DUP1 PUSH2 0x713 JUMPI POP PUSH32 0x1FFC9A700000000000000000000000000000000000000000000000000000000 PUSH28 0xFFFFFFFFFFFFFFFFFFFFFFFFFFFFFFFFFFFFFFFFFFFFFFFFFFFFFFFF NOT AND DUP3 PUSH28 0xFFFFFFFFFFFFFFFFFFFFFFFFFFFFFFFFFFFFFFFFFFFFFFFFFFFFFFFF NOT AND EQ JUMPDEST SWAP1 POP SWAP2 SWAP1 POP JUMP JUMPDEST PUSH2 0x888 DUP2 JUMP JUMPDEST PUSH1 0x2 PUSH0 SWAP1 SLOAD SWAP1 PUSH2 0x100 EXP SWAP1 DIV PUSH20 0xFFFFFFFFFFFFFFFFFFFFFFFFFFFFFFFFFFFFFFFF AND PUSH20 0xFFFFFFFFFFFFFFFFFFFFFFFFFFFFFFFFFFFFFFFF AND CALLER PUSH20 0xFFFFFFFFFFFFFFFFFFFFFFFFFFFFFFFFFFFFFFFF AND EQ PUSH2 0x7A6 JUMPI PUSH1 0x40 MLOAD PUSH32 0xFD90C58B00000000000000000000000000000000000000000000000000000000 DUP2 MSTORE PUSH1 0x4 ADD PUSH1 0x40 MLOAD DUP1 SWAP2 SUB SWAP1 REVERT JUMPDEST PUSH0 DUP3 PUSH20 0xFFFFFFFFFFFFFFFFFFFFFFFFFFFFFFFFFFFFFFFF AND PUSH4 0xDD62ED3E ADDRESS PUSH1 0x2 PUSH0 SWAP1 SLOAD SWAP1 PUSH2 0x100 EXP SWAP1 DIV PUSH20 0xFFFFFFFFFFFFFFFFFFFFFFFFFFFFFFFFFFFFFFFF AND PUSH1 0x40 MLOAD DUP4 PUSH4 0xFFFFFFFF AND PUSH1 0xE0 SHL DUP2 MSTORE PUSH1 0x4 ADD PUSH2 0x803 SWAP3 SWAP2 SWAP1 PUSH2 0x3DAA JUMP JUMPDEST PUSH1 0x20 PUSH1 0x40 MLOAD DUP1 DUP4 SUB DUP2 DUP7 GAS STATICCALL ISZERO DUP1 ISZERO PUSH2 0x81E JUMPI RETURNDATASIZE PUSH0 PUSH0 RETURNDATACOPY RETURNDATASIZE PUSH0 REVERT JUMPDEST POP POP POP POP PUSH1 0x40 MLOAD RETURNDATASIZE PUSH1 0x1F NOT PUSH1 0x1F DUP3 ADD AND DUP3 ADD DUP1 PUSH1 0x40 MSTORE POP DUP2 ADD SWAP1 PUSH2 0x842 SWAP2 SWAP1 PUSH2 0x3DE5 JUMP JUMPDEST SWAP1 POP DUP3 PUSH20 0xFFFFFFFFFFFFFFFFFFFFFFFFFFFFFFFFFFFFFFFF AND PUSH4 0x95EA7B3 PUSH1 0x2 PUSH0 SWAP1 SLOAD SWAP1 PUSH2 0x100 EXP SWAP1 DIV PUSH20 0xFFFFFFFFFFFFFFFFFFFFFFFFFFFFFFFFFFFFFFFF AND DUP5 DUP5 PUSH2 0x88E SWAP2 SWAP1 PUSH2 0x3E3D JUMP JUMPDEST PUSH1 0x40 MLOAD DUP4 PUSH4 0xFFFFFFFF AND PUSH1 0xE0 SHL DUP2 MSTORE PUSH1 0x4 ADD PUSH2 0x8AB SWAP3 SWAP2 SWAP1 PUSH2 0x3E70 JUMP JUMPDEST PUSH1 0x20 PUSH1 0x40 MLOAD DUP1 DUP4 SUB DUP2 PUSH0 DUP8 GAS CALL ISZERO DUP1 ISZERO PUSH2 0x8C7 JUMPI RETURNDATASIZE PUSH0 PUSH0 RETURNDATACOPY RETURNDATASIZE PUSH0 REVERT JUMPDEST POP POP POP POP PUSH1 0x40 MLOAD RETURNDATASIZE PUSH1 0x1F NOT PUSH1 0x1F DUP3 ADD AND DUP3 ADD DUP1 PUSH1 0x40 MSTORE POP DUP2 ADD SWAP1 PUSH2 0x8EB SWAP2 SWAP1 PUSH2 0x3EC1 JUMP JUMPDEST POP DUP2 DUP4 PUSH20 0xFFFFFFFFFFFFFFFFFFFFFFFFFFFFFFFFFFFFFFFF AND PUSH32 0xCB93657A5C658E5DDDB9FBC9D189D0CBC05E623720A413039A49AA15194D6178 PUSH1 0x40 MLOAD PUSH1 0x40 MLOAD DUP1 SWAP2 SUB SWAP1 LOG3 POP POP POP JUMP JUMPDEST PUSH0 PUSH2 0x940 CALLER DUP4 PUSH2 0x11C6 JUMP JUMPDEST SWAP1 POP SWAP2 SWAP1 POP JUMP JUMPDEST PUSH0 PUSH0 SWAP1 SLOAD SWAP1 PUSH2 0x100 EXP SWAP1 DIV PUSH20 0xFFFFFFFFFFFFFFFFFFFFFFFFFFFFFFFFFFFFFFFF AND DUP2 JUMP JUMPDEST PUSH0 PUSH2 0x974 PUSH2 0x1DE6 JUMP JUMPDEST PUSH4 0x150B7A02 PUSH1 0xE0 SHL SWAP1 POP SWAP6 SWAP5 POP POP POP POP POP JUMP JUMPDEST PUSH0 PUSH0 CALLER SWAP1 POP PUSH0 PUSH2 0x9B6 DUP3 DUP8 PUSH1 0x40 MLOAD PUSH1 0x20 ADD PUSH2 0x9A2 SWAP2 SWAP1 PUSH2 0x33FD JUMP JUMPDEST PUSH1 0x40 MLOAD PUSH1 0x20 DUP2 DUP4 SUB SUB DUP2 MSTORE SWAP1 PUSH1 0x40 MSTORE PUSH2 0xF7E JUMP JUMPDEST SWAP1 POP PUSH0 DUP2 DUP1 MLOAD SWAP1 PUSH1 0x20 ADD KECCAK256 SWAP1 POP PUSH0 DUP7 DUP7 SWAP1 POP SUB PUSH2 0xA8B JUMPI PUSH0 DUP4 PUSH20 0xFFFFFFFFFFFFFFFFFFFFFFFFFFFFFFFFFFFFFFFF AND PUSH4 0x5AE6BD37 DUP4 PUSH1 0x40 MLOAD DUP3 PUSH4 0xFFFFFFFF AND PUSH1 0xE0 SHL DUP2 MSTORE PUSH1 0x4 ADD PUSH2 0xA07 SWAP2 SWAP1 PUSH2 0x33FD JUMP JUMPDEST PUSH1 0x20 PUSH1 0x40 MLOAD DUP1 DUP4 SUB DUP2 DUP7 GAS STATICCALL ISZERO DUP1 ISZERO PUSH2 0xA22 JUMPI RETURNDATASIZE PUSH0 PUSH0 RETURNDATACOPY RETURNDATASIZE PUSH0 REVERT JUMPDEST POP POP POP POP PUSH1 0x40 MLOAD RETURNDATASIZE PUSH1 0x1F NOT PUSH1 0x1F DUP3 ADD AND DUP3 ADD DUP1 PUSH1 0x40 MSTORE POP DUP2 ADD SWAP1 PUSH2 0xA46 SWAP2 SWAP1 PUSH2 0x3DE5 JUMP JUMPDEST SUB PUSH2 0xA86 JUMPI PUSH1 0x40 MLOAD PUSH32 0x8C379A000000000000000000000000000000000000000000000000000000000 DUP2 MSTORE PUSH1 0x4 ADD PUSH2 0xA7D SWAP1 PUSH2 0x3F36 JUMP JUMPDEST PUSH1 0x40 MLOAD DUP1 SWAP2 SUB SWAP1 REVERT JUMPDEST PUSH2 0xAF7 JUMP JUMPDEST DUP3 PUSH20 0xFFFFFFFFFFFFFFFFFFFFFFFFFFFFFFFFFFFFFFFF AND PUSH4 0xF855438B PUSH0 DUP4 DUP10 DUP10 PUSH1 0x40 MLOAD DUP6 PUSH4 0xFFFFFFFF AND PUSH1 0xE0 SHL DUP2 MSTORE PUSH1 0x4 ADD PUSH2 0xACA SWAP5 SWAP4 SWAP3 SWAP2 SWAP1 PUSH2 0x3F80 JUMP JUMPDEST PUSH0 PUSH1 0x40 MLOAD DUP1 DUP4 SUB DUP2 DUP7 DUP1 EXTCODESIZE ISZERO DUP1 ISZERO PUSH2 0xAE0 JUMPI PUSH0 PUSH0 REVERT JUMPDEST POP GAS STATICCALL ISZERO DUP1 ISZERO PUSH2 0xAF2 JUMPI RETURNDATASIZE PUSH0 PUSH0 RETURNDATACOPY RETURNDATASIZE PUSH0 REVERT JUMPDEST POP POP POP POP JUMPDEST PUSH4 0x1626BA7E PUSH1 0xE0 SHL SWAP4 POP POP POP POP SWAP4 SWAP3 POP POP POP JUMP JUMPDEST PUSH0 PUSH0 PUSH0 SWAP1 SLOAD SWAP1 PUSH2 0x100 EXP SWAP1 DIV PUSH20 0xFFFFFFFFFFFFFFFFFFFFFFFFFFFFFFFFFFFFFFFF AND PUSH20 0xFFFFFFFFFFFFFFFFFFFFFFFFFFFFFFFFFFFFFFFF AND PUSH2 0xB4B PUSH2 0x1F14 JUMP JUMPDEST PUSH20 0xFFFFFFFFFFFFFFFFFFFFFFFFFFFFFFFFFFFFFFFF AND EQ PUSH2 0xB98 JUMPI PUSH1 0x40 MLOAD PUSH32 0x85DB247D00000000000000000000000000000000000000000000000000000000 DUP2 MSTORE PUSH1 0x4 ADD PUSH1 0x40 MLOAD DUP1 SWAP2 SUB SWAP1 REVERT JUMPDEST PUSH0 DUP5 PUSH0 ADD PUSH1 0x20 DUP2 ADD SWAP1 PUSH2 0xBAB SWAP2 SWAP1 PUSH2 0x3FBE JUMP JUMPDEST SWAP1 POP CALLER PUSH20 0xFFFFFFFFFFFFFFFFFFFFFFFFFFFFFFFFFFFFFFFF AND DUP2 PUSH20 0xFFFFFFFFFFFFFFFFFFFFFFFFFFFFFFFFFFFFFFFF AND EQ ISZERO DUP1 PUSH2 0xC35 JUMPI POP PUSH1 0x1 PUSH0 SWAP1 SLOAD SWAP1 PUSH2 0x100 EXP SWAP1 DIV PUSH20 0xFFFFFFFFFFFFFFFFFFFFFFFFFFFFFFFFFFFFFFFF AND PUSH20 0xFFFFFFFFFFFFFFFFFFFFFFFFFFFFFFFFFFFFFFFF AND DUP2 PUSH20 0xFFFFFFFFFFFFFFFFFFFFFFFFFFFFFFFFFFFFFFFF AND EQ ISZERO JUMPDEST ISZERO PUSH2 0xC6C JUMPI PUSH1 0x40 MLOAD PUSH32 0x48F5C3ED00000000000000000000000000000000000000000000000000000000 DUP2 MSTORE PUSH1 0x4 ADD PUSH1 0x40 MLOAD DUP1 SWAP2 SUB SWAP1 REVERT JUMPDEST PUSH0 DUP6 DUP1 PUSH1 0x60 ADD SWAP1 PUSH2 0xC7D SWAP2 SWAP1 PUSH2 0x3FF5 JUMP JUMPDEST SWAP1 PUSH2 0xC88 SWAP2 SWAP1 PUSH2 0x406D JUMP JUMPDEST SWAP1 POP PUSH4 0x7BB37428 PUSH1 0xE0 SHL PUSH28 0xFFFFFFFFFFFFFFFFFFFFFFFFFFFFFFFFFFFFFFFFFFFFFFFFFFFFFFFF NOT AND DUP2 PUSH28 0xFFFFFFFFFFFFFFFFFFFFFFFFFFFFFFFFFFFFFFFFFFFFFFFFFFFFFFFF NOT AND EQ ISZERO DUP1 ISZERO PUSH2 0xD24 JUMPI POP PUSH4 0x541D63C8 PUSH1 0xE0 SHL PUSH28 0xFFFFFFFFFFFFFFFFFFFFFFFFFFFFFFFFFFFFFFFFFFFFFFFFFFFFFFFF NOT AND DUP2 PUSH28 0xFFFFFFFFFFFFFFFFFFFFFFFFFFFFFFFFFFFFFFFFFFFFFFFFFFFFFFFF NOT AND EQ ISZERO JUMPDEST ISZERO PUSH2 0xD66 JUMPI DUP1 PUSH1 0x40 MLOAD PUSH32 0x45C229CE00000000000000000000000000000000000000000000000000000000 DUP2 MSTORE PUSH1 0x4 ADD PUSH2 0xD5D SWAP2 SWAP1 PUSH2 0x34A9 JUMP JUMPDEST PUSH1 0x40 MLOAD DUP1 SWAP2 SUB SWAP1 REVERT JUMPDEST PUSH2 0xD6F DUP7 PUSH2 0x1F69 JUMP JUMPDEST SWAP3 POP PUSH0 PUSH2 0xD8A DUP8 DUP1 PUSH1 0x60 ADD SWAP1 PUSH2 0xD85 SWAP2 SWAP1 PUSH2 0x3FF5 JUMP JUMPDEST PUSH2 0x20B1 JUMP JUMPDEST SWAP1 POP PUSH0 PUSH0 PUSH0 SWAP1 POP JUMPDEST DUP3 MLOAD DUP2 LT ISZERO PUSH2 0xEAC JUMPI PUSH1 0x3 PUSH0 SWAP1 SLOAD SWAP1 PUSH2 0x100 EXP SWAP1 DIV PUSH20 0xFFFFFFFFFFFFFFFFFFFFFFFFFFFFFFFFFFFFFFFF AND PUSH20 0xFFFFFFFFFFFFFFFFFFFFFFFFFFFFFFFFFFFFFFFF AND PUSH4 0x1A6CE3E8 DUP7 DUP6 DUP5 DUP2 MLOAD DUP2 LT PUSH2 0xDEC JUMPI PUSH2 0xDEB PUSH2 0x40CB JUMP JUMPDEST JUMPDEST PUSH1 0x20 MUL PUSH1 0x20 ADD ADD MLOAD PUSH0 ADD MLOAD DUP7 DUP6 DUP2 MLOAD DUP2 LT PUSH2 0xE0A JUMPI PUSH2 0xE09 PUSH2 0x40CB JUMP JUMPDEST JUMPDEST PUSH1 0x20 MUL PUSH1 0x20 ADD ADD MLOAD PUSH1 0x20 ADD MLOAD DUP8 DUP7 DUP2 MLOAD DUP2 LT PUSH2 0xE29 JUMPI PUSH2 0xE28 PUSH2 0x40CB JUMP JUMPDEST JUMPDEST PUSH1 0x20 MUL PUSH1 0x20 ADD ADD MLOAD PUSH1 0x60 ADD MLOAD PUSH1 0x40 MLOAD DUP6 PUSH4 0xFFFFFFFF AND PUSH1 0xE0 SHL DUP2 MSTORE PUSH1 0x4 ADD PUSH2 0xE54 SWAP5 SWAP4 SWAP3 SWAP2 SWAP1 PUSH2 0x4118 JUMP JUMPDEST PUSH1 0x20 PUSH1 0x40 MLOAD DUP1 DUP4 SUB DUP2 PUSH0 DUP8 GAS CALL ISZERO DUP1 ISZERO PUSH2 0xE70 JUMPI RETURNDATASIZE PUSH0 PUSH0 RETURNDATACOPY RETURNDATASIZE PUSH0 REVERT JUMPDEST POP POP POP POP PUSH1 0x40 MLOAD RETURNDATASIZE PUSH1 0x1F NOT PUSH1 0x1F DUP3 ADD AND DUP3 ADD DUP1 PUSH1 0x40 MSTORE POP DUP2 ADD SWAP1 PUSH2 0xE94 SWAP2 SWAP1 PUSH2 0x3DE5 JUMP JUMPDEST SWAP2 POP PUSH1 0x1 DUP3 SUB ISZERO PUSH2 0xEAC JUMPI DUP1 DUP1 PUSH1 0x1 ADD SWAP2 POP POP PUSH2 0xD92 JUMP JUMPDEST POP PUSH0 DUP7 EQ PUSH2 0xF53 JUMPI DUP4 PUSH20 0xFFFFFFFFFFFFFFFFFFFFFFFFFFFFFFFFFFFFFFFF AND PUSH4 0x468721A7 PUSH0 PUSH0 SWAP1 SLOAD SWAP1 PUSH2 0x100 EXP SWAP1 DIV PUSH20 0xFFFFFFFFFFFFFFFFFFFFFFFFFFFFFFFFFFFFFFFF AND DUP9 PUSH0 PUSH1 0x40 MLOAD DUP5 PUSH4 0xFFFFFFFF AND PUSH1 0xE0 SHL DUP2 MSTORE PUSH1 0x4 ADD PUSH2 0xF11 SWAP4 SWAP3 SWAP2 SWAP1 PUSH2 0x41F8 JUMP JUMPDEST PUSH1 0x20 PUSH1 0x40 MLOAD DUP1 DUP4 SUB DUP2 PUSH0 DUP8 GAS CALL ISZERO DUP1 ISZERO PUSH2 0xF2D JUMPI RETURNDATASIZE PUSH0 PUSH0 RETURNDATACOPY RETURNDATASIZE PUSH0 REVERT JUMPDEST POP POP POP POP PUSH1 0x40 MLOAD RETURNDATASIZE PUSH1 0x1F NOT PUSH1 0x1F DUP3 ADD AND DUP3 ADD DUP1 PUSH1 0x40 MSTORE POP DUP2 ADD SWAP1 PUSH2 0xF51 SWAP2 SWAP1 PUSH2 0x3EC1 JUMP JUMPDEST POP JUMPDEST PUSH0 DUP6 EQ DUP1 ISZERO PUSH2 0xF61 JUMPI POP PUSH0 DUP2 EQ JUMPDEST PUSH2 0xF6C JUMPI PUSH1 0x1 PUSH2 0xF6E JUMP JUMPDEST PUSH0 JUMPDEST PUSH1 0xFF AND SWAP5 POP POP POP POP POP SWAP4 SWAP3 POP POP POP JUMP JUMPDEST PUSH1 0x60 PUSH0 PUSH32 0x60B3CBF8B4A223D68D641B3B6DDF9A298E7F33710CF3D3A9D1146B5A6150FBCA PUSH0 SHL DUP4 DUP1 MLOAD SWAP1 PUSH1 0x20 ADD KECCAK256 PUSH1 0x40 MLOAD PUSH1 0x20 ADD PUSH2 0xFBD SWAP3 SWAP2 SWAP1 PUSH2 0x4240 JUMP JUMPDEST PUSH1 0x40 MLOAD PUSH1 0x20 DUP2 DUP4 SUB SUB DUP2 MSTORE SWAP1 PUSH1 0x40 MSTORE DUP1 MLOAD SWAP1 PUSH1 0x20 ADD KECCAK256 SWAP1 POP PUSH1 0x19 PUSH1 0xF8 SHL PUSH1 0x1 PUSH1 0xF8 SHL DUP6 PUSH20 0xFFFFFFFFFFFFFFFFFFFFFFFFFFFFFFFFFFFFFFFF AND PUSH4 0xF698DA25 PUSH1 0x40 MLOAD DUP2 PUSH4 0xFFFFFFFF AND PUSH1 0xE0 SHL DUP2 MSTORE PUSH1 0x4 ADD PUSH1 0x20 PUSH1 0x40 MLOAD DUP1 DUP4 SUB DUP2 DUP7 GAS STATICCALL ISZERO DUP1 ISZERO PUSH2 0x1028 JUMPI RETURNDATASIZE PUSH0 PUSH0 RETURNDATACOPY RETURNDATASIZE PUSH0 REVERT JUMPDEST POP POP POP POP PUSH1 0x40 MLOAD RETURNDATASIZE PUSH1 0x1F NOT PUSH1 0x1F DUP3 ADD AND DUP3 ADD DUP1 PUSH1 0x40 MSTORE POP DUP2 ADD SWAP1 PUSH2 0x104C SWAP2 SWAP1 PUSH2 0x427B JUMP JUMPDEST DUP4 PUSH1 0x40 MLOAD PUSH1 0x20 ADD PUSH2 0x1060 SWAP5 SWAP4 SWAP3 SWAP2 SWAP1 PUSH2 0x4311 JUMP JUMPDEST PUSH1 0x40 MLOAD PUSH1 0x20 DUP2 DUP4 SUB SUB DUP2 MSTORE SWAP1 PUSH1 0x40 MSTORE SWAP2 POP POP SWAP3 SWAP2 POP POP JUMP JUMPDEST PUSH1 0x2 PUSH0 SWAP1 SLOAD SWAP1 PUSH2 0x100 EXP SWAP1 DIV PUSH20 0xFFFFFFFFFFFFFFFFFFFFFFFFFFFFFFFFFFFFFFFF AND DUP2 JUMP JUMPDEST PUSH0 PUSH0 SWAP1 SLOAD SWAP1 PUSH2 0x100 EXP SWAP1 DIV PUSH20 0xFFFFFFFFFFFFFFFFFFFFFFFFFFFFFFFFFFFFFFFF AND PUSH20 0xFFFFFFFFFFFFFFFFFFFFFFFFFFFFFFFFFFFFFFFF AND PUSH2 0x10DC PUSH2 0x1F14 JUMP JUMPDEST PUSH20 0xFFFFFFFFFFFFFFFFFFFFFFFFFFFFFFFFFFFFFFFF AND EQ PUSH2 0x1129 JUMPI PUSH1 0x40 MLOAD PUSH32 0x85DB247D00000000000000000000000000000000000000000000000000000000 DUP2 MSTORE PUSH1 0x4 ADD PUSH1 0x40 MLOAD DUP1 SWAP2 SUB SWAP1 REVERT JUMPDEST PUSH0 PUSH0 CALLER PUSH20 0xFFFFFFFFFFFFFFFFFFFFFFFFFFFFFFFFFFFFFFFF AND PUSH4 0x5229073F DUP8 DUP8 DUP8 DUP8 PUSH1 0x40 MLOAD DUP6 PUSH4 0xFFFFFFFF AND PUSH1 0xE0 SHL DUP2 MSTORE PUSH1 0x4 ADD PUSH2 0x116A SWAP5 SWAP4 SWAP3 SWAP2 SWAP1 PUSH2 0x436D JUMP JUMPDEST PUSH0 PUSH1 0x40 MLOAD DUP1 DUP4 SUB DUP2 PUSH0 DUP8 GAS CALL ISZERO DUP1 ISZERO PUSH2 0x1185 JUMPI RETURNDATASIZE PUSH0 PUSH0 RETURNDATACOPY RETURNDATASIZE PUSH0 REVERT JUMPDEST POP POP POP POP PUSH1 0x40 MLOAD RETURNDATASIZE PUSH0 DUP3 RETURNDATACOPY RETURNDATASIZE PUSH1 0x1F NOT PUSH1 0x1F DUP3 ADD AND DUP3 ADD DUP1 PUSH1 0x40 MSTORE POP DUP2 ADD SWAP1 PUSH2 0x11AD SWAP2 SWAP1 PUSH2 0x4425 JUMP JUMPDEST SWAP2 POP SWAP2 POP DUP2 PUSH2 0x11BE JUMPI DUP1 MLOAD PUSH1 0x20 DUP3 ADD REVERT JUMPDEST POP POP POP POP POP POP JUMP JUMPDEST PUSH0 PUSH2 0x11D1 DUP4 DUP4 PUSH2 0xF7E JUMP JUMPDEST DUP1 MLOAD SWAP1 PUSH1 0x20 ADD KECCAK256 SWAP1 POP SWAP3 SWAP2 POP POP JUMP JUMPDEST PUSH0 PUSH0 SWAP1 SLOAD SWAP1 PUSH2 0x100 EXP SWAP1 DIV PUSH20 0xFFFFFFFFFFFFFFFFFFFFFFFFFFFFFFFFFFFFFFFF AND PUSH20 0xFFFFFFFFFFFFFFFFFFFFFFFFFFFFFFFFFFFFFFFF AND PUSH2 0x121F PUSH2 0x1F14 JUMP JUMPDEST PUSH20 0xFFFFFFFFFFFFFFFFFFFFFFFFFFFFFFFFFFFFFFFF AND EQ PUSH2 0x126C JUMPI PUSH1 0x40 MLOAD PUSH32 0x85DB247D00000000000000000000000000000000000000000000000000000000 DUP2 MSTORE PUSH1 0x4 ADD PUSH1 0x40 MLOAD DUP1 SWAP2 SUB SWAP1 REVERT JUMPDEST CALLER PUSH20 0xFFFFFFFFFFFFFFFFFFFFFFFFFFFFFFFFFFFFFFFF AND PUSH4 0x468721A7 DUP6 DUP6 DUP6 DUP6 PUSH1 0x40 MLOAD DUP6 PUSH4 0xFFFFFFFF AND PUSH1 0xE0 SHL DUP2 MSTORE PUSH1 0x4 ADD PUSH2 0x12AB SWAP5 SWAP4 SWAP3 SWAP2 SWAP1 PUSH2 0x436D JUMP JUMPDEST PUSH1 0x20 PUSH1 0x40 MLOAD DUP1 DUP4 SUB DUP2 PUSH0 DUP8 GAS CALL ISZERO DUP1 ISZERO PUSH2 0x12C7 JUMPI RETURNDATASIZE PUSH0 PUSH0 RETURNDATACOPY RETURNDATASIZE PUSH0 REVERT JUMPDEST POP POP POP POP PUSH1 0x40 MLOAD RETURNDATASIZE PUSH1 0x1F NOT PUSH1 0x1F DUP3 ADD AND DUP3 ADD DUP1 PUSH1 0x40 MSTORE POP DUP2 ADD SWAP1 PUSH2 0x12EB SWAP2 SWAP1 PUSH2 0x3EC1 JUMP JUMPDEST PUSH2 0x1321 JUMPI PUSH1 0x40 MLOAD PUSH32 0xACFDB44400000000000000000000000000000000000000000000000000000000 DUP2 MSTORE PUSH1 0x4 ADD PUSH1 0x40 MLOAD DUP1 SWAP2 SUB SWAP1 REVERT JUMPDEST POP POP POP POP JUMP JUMPDEST PUSH1 0x2 PUSH0 SWAP1 SLOAD SWAP1 PUSH2 0x100 EXP SWAP1 DIV PUSH20 0xFFFFFFFFFFFFFFFFFFFFFFFFFFFFFFFFFFFFFFFF AND PUSH20 0xFFFFFFFFFFFFFFFFFFFFFFFFFFFFFFFFFFFFFFFF AND CALLER PUSH20 0xFFFFFFFFFFFFFFFFFFFFFFFFFFFFFFFFFFFFFFFF AND EQ PUSH2 0x13AD JUMPI PUSH1 0x40 MLOAD PUSH32 0xFD90C58B00000000000000000000000000000000000000000000000000000000 DUP2 MSTORE PUSH1 0x4 ADD PUSH1 0x40 MLOAD DUP1 SWAP2 SUB SWAP1 REVERT JUMPDEST PUSH0 PUSH1 0x2 PUSH0 SWAP1 SLOAD SWAP1 PUSH2 0x100 EXP SWAP1 DIV PUSH20 0xFFFFFFFFFFFFFFFFFFFFFFFFFFFFFFFFFFFFFFFF AND PUSH20 0xFFFFFFFFFFFFFFFFFFFFFFFFFFFFFFFFFFFFFFFF AND DUP3 PUSH1 0x40 MLOAD PUSH2 0x13F3 SWAP1 PUSH2 0x44A9 JUMP JUMPDEST PUSH0 PUSH1 0x40 MLOAD DUP1 DUP4 SUB DUP2 DUP6 DUP8 GAS CALL SWAP3 POP POP POP RETURNDATASIZE DUP1 PUSH0 DUP2 EQ PUSH2 0x142D JUMPI PUSH1 0x40 MLOAD SWAP2 POP PUSH1 0x1F NOT PUSH1 0x3F RETURNDATASIZE ADD AND DUP3 ADD PUSH1 0x40 MSTORE RETURNDATASIZE DUP3 MSTORE RETURNDATASIZE PUSH0 PUSH1 0x20 DUP5 ADD RETURNDATACOPY PUSH2 0x1432 JUMP JUMPDEST PUSH1 0x60 SWAP2 POP JUMPDEST POP POP SWAP1 POP DUP1 PUSH2 0x146D JUMPI PUSH1 0x40 MLOAD PUSH32 0x315EE42500000000000000000000000000000000000000000000000000000000 DUP2 MSTORE PUSH1 0x4 ADD PUSH1 0x40 MLOAD DUP1 SWAP2 SUB SWAP1 REVERT JUMPDEST DUP2 PUSH32 0xB8D934E3C17B784B227A887A33FB1527E8188B4491B1074A53807A794C269FD3 PUSH1 0x40 MLOAD PUSH1 0x40 MLOAD DUP1 SWAP2 SUB SWAP1 LOG2 POP POP JUMP JUMPDEST PUSH1 0x3 PUSH0 SWAP1 SLOAD SWAP1 PUSH2 0x100 EXP SWAP1 DIV PUSH20 0xFFFFFFFFFFFFFFFFFFFFFFFFFFFFFFFFFFFFFFFF AND DUP2 JUMP JUMPDEST PUSH1 0x1 PUSH0 SWAP1 SLOAD SWAP1 PUSH2 0x100 EXP SWAP1 DIV PUSH20 0xFFFFFFFFFFFFFFFFFFFFFFFFFFFFFFFFFFFFFFFF AND DUP2 JUMP JUMPDEST PUSH1 0x2 PUSH0 SWAP1 SLOAD SWAP1 PUSH2 0x100 EXP SWAP1 DIV PUSH20 0xFFFFFFFFFFFFFFFFFFFFFFFFFFFFFFFFFFFFFFFF AND PUSH20 0xFFFFFFFFFFFFFFFFFFFFFFFFFFFFFFFFFFFFFFFF AND CALLER PUSH20 0xFFFFFFFFFFFFFFFFFFFFFFFFFFFFFFFFFFFFFFFF AND EQ PUSH2 0x156E JUMPI PUSH1 0x40 MLOAD PUSH32 0xFD90C58B00000000000000000000000000000000000000000000000000000000 DUP2 MSTORE PUSH1 0x4 ADD PUSH1 0x40 MLOAD DUP1 SWAP2 SUB SWAP1 REVERT JUMPDEST PUSH0 DUP3 PUSH20 0xFFFFFFFFFFFFFFFFFFFFFFFFFFFFFFFFFFFFFFFF AND PUSH4 0xDD62ED3E ADDRESS PUSH1 0x2 PUSH0 SWAP1 SLOAD SWAP1 PUSH2 0x100 EXP SWAP1 DIV PUSH20 0xFFFFFFFFFFFFFFFFFFFFFFFFFFFFFFFFFFFFFFFF AND PUSH1 0x40 MLOAD DUP4 PUSH4 0xFFFFFFFF AND PUSH1 0xE0 SHL DUP2 MSTORE PUSH1 0x4 ADD PUSH2 0x15CB SWAP3 SWAP2 SWAP1 PUSH2 0x3DAA JUMP JUMPDEST PUSH1 0x20 PUSH1 0x40 MLOAD DUP1 DUP4 SUB DUP2 DUP7 GAS STATICCALL ISZERO DUP1 ISZERO PUSH2 0x15E6 JUMPI RETURNDATASIZE PUSH0 PUSH0 RETURNDATACOPY RETURNDATASIZE PUSH0 REVERT JUMPDEST POP POP POP POP PUSH1 0x40 MLOAD RETURNDATASIZE PUSH1 0x1F NOT PUSH1 0x1F DUP3 ADD AND DUP3 ADD DUP1 PUSH1 0x40 MSTORE POP DUP2 ADD SWAP1 PUSH2 0x160A SWAP2 SWAP1 PUSH2 0x3DE5 JUMP JUMPDEST SWAP1 POP DUP3 PUSH20 0xFFFFFFFFFFFFFFFFFFFFFFFFFFFFFFFFFFFFFFFF AND PUSH4 0x95EA7B3 PUSH1 0x2 PUSH0 SWAP1 SLOAD SWAP1 PUSH2 0x100 EXP SWAP1 DIV PUSH20 0xFFFFFFFFFFFFFFFFFFFFFFFFFFFFFFFFFFFFFFFF AND DUP5 DUP5 PUSH2 0x1656 SWAP2 SWAP1 PUSH2 0x44BD JUMP JUMPDEST PUSH1 0x40 MLOAD DUP4 PUSH4 0xFFFFFFFF AND PUSH1 0xE0 SHL DUP2 MSTORE PUSH1 0x4 ADD PUSH2 0x1673 SWAP3 SWAP2 SWAP1 PUSH2 0x3E70 JUMP JUMPDEST PUSH1 0x20 PUSH1 0x40 MLOAD DUP1 DUP4 SUB DUP2 PUSH0 DUP8 GAS CALL ISZERO DUP1 ISZERO PUSH2 0x168F JUMPI RETURNDATASIZE PUSH0 PUSH0 RETURNDATACOPY RETURNDATASIZE PUSH0 REVERT JUMPDEST POP POP POP POP PUSH1 0x40 MLOAD RETURNDATASIZE PUSH1 0x1F NOT PUSH1 0x1F DUP3 ADD AND DUP3 ADD DUP1 PUSH1 0x40 MSTORE POP DUP2 ADD SWAP1 PUSH2 0x16B3 SWAP2 SWAP1 PUSH2 0x3EC1 JUMP JUMPDEST POP DUP2 DUP4 PUSH20 0xFFFFFFFFFFFFFFFFFFFFFFFFFFFFFFFFFFFFFFFF AND PUSH32 0x40447BC75D26E6F94E7DDA109C288C011FD6CAAFE2DC864634528E752B947E5 PUSH1 0x40 MLOAD PUSH1 0x40 MLOAD DUP1 SWAP2 SUB SWAP1 LOG3 POP POP POP JUMP JUMPDEST PUSH1 0x40 MLOAD DUP1 PUSH1 0x40 ADD PUSH1 0x40 MSTORE DUP1 PUSH1 0xF DUP2 MSTORE PUSH1 0x20 ADD PUSH32 0x5375624167656E74204D6F64756C650000000000000000000000000000000000 DUP2 MSTORE POP DUP2 JUMP JUMPDEST PUSH1 0x60 PUSH0 CALLER SWAP1 POP PUSH0 DUP2 PUSH20 0xFFFFFFFFFFFFFFFFFFFFFFFFFFFFFFFFFFFFFFFF AND PUSH4 0xCC2F8452 PUSH1 0x1 PUSH1 0xA PUSH1 0x40 MLOAD DUP4 PUSH4 0xFFFFFFFF AND PUSH1 0xE0 SHL DUP2 MSTORE PUSH1 0x4 ADD PUSH2 0x177A SWAP3 SWAP2 SWAP1 PUSH2 0x4529 JUMP JUMPDEST PUSH0 PUSH1 0x40 MLOAD DUP1 DUP4 SUB DUP2 DUP7 GAS STATICCALL ISZERO DUP1 ISZERO PUSH2 0x1794 JUMPI RETURNDATASIZE PUSH0 PUSH0 RETURNDATACOPY RETURNDATASIZE PUSH0 REVERT JUMPDEST POP POP POP POP PUSH1 0x40 MLOAD RETURNDATASIZE PUSH0 DUP3 RETURNDATACOPY RETURNDATASIZE PUSH1 0x1F NOT PUSH1 0x1F DUP3 ADD AND DUP3 ADD DUP1 PUSH1 0x40 MSTORE POP DUP2 ADD SWAP1 PUSH2 0x17BC SWAP2 SWAP1 PUSH2 0x4624 JUMP JUMPDEST POP SWAP1 POP DUP1 SWAP3 POP POP POP SWAP1 JUMP JUMPDEST PUSH0 PUSH0 PUSH2 0x17D2 DUP4 PUSH2 0x21ED JUMP JUMPDEST POP POP POP POP SWAP1 POP DUP1 DUP1 MLOAD SWAP1 PUSH1 0x20 ADD KECCAK256 SWAP2 POP POP SWAP2 SWAP1 POP JUMP JUMPDEST PUSH0 PUSH2 0x17F1 PUSH2 0x1DE6 JUMP JUMPDEST PUSH4 0xBC197C81 PUSH1 0xE0 SHL SWAP1 POP SWAP9 SWAP8 POP POP POP POP POP POP POP POP JUMP JUMPDEST PUSH1 0x60 PUSH1 0x40 MLOAD PUSH32 0xB4FABA0900000000000000000000000000000000000000000000000000000000 DUP2 MSTORE PUSH1 0x4 CALLDATASIZE SUB PUSH1 0x4 DUP1 DUP4 ADD CALLDATACOPY PUSH1 0x40 PUSH0 CALLDATASIZE DUP4 PUSH0 CALLER GAS CALL PUSH1 0x40 RETURNDATASIZE LT DUP2 OR ISZERO PUSH2 0x1851 JUMPI PUSH0 PUSH0 REVERT JUMPDEST PUSH1 0x20 DUP1 MLOAD ADD PUSH1 0x40 MLOAD SWAP4 POP DUP1 DUP5 ADD PUSH1 0x40 MSTORE DUP1 PUSH1 0x20 DUP6 RETURNDATACOPY PUSH0 MLOAD PUSH2 0x1873 JUMPI DUP1 PUSH1 0x20 DUP6 ADD REVERT JUMPDEST POP POP POP SWAP4 SWAP3 POP POP POP JUMP JUMPDEST PUSH1 0x60 PUSH0 CALLER SWAP1 POP PUSH0 DUP2 PUSH20 0xFFFFFFFFFFFFFFFFFFFFFFFFFFFFFFFFFFFFFFFF AND PUSH4 0xF698DA25 PUSH1 0x40 MLOAD DUP2 PUSH4 0xFFFFFFFF AND PUSH1 0xE0 SHL DUP2 MSTORE PUSH1 0x4 ADD PUSH1 0x20 PUSH1 0x40 MLOAD DUP1 DUP4 SUB DUP2 DUP7 GAS STATICCALL ISZERO DUP1 ISZERO PUSH2 0x18CD JUMPI RETURNDATASIZE PUSH0 PUSH0 RETURNDATACOPY RETURNDATASIZE PUSH0 REVERT JUMPDEST POP POP POP POP PUSH1 0x40 MLOAD RETURNDATASIZE PUSH1 0x1F NOT PUSH1 0x1F DUP3 ADD AND DUP3 ADD DUP1 PUSH1 0x40 MSTORE POP DUP2 ADD SWAP1 PUSH2 0x18F1 SWAP2 SWAP1 PUSH2 0x427B JUMP JUMPDEST SWAP1 POP PUSH0 PUSH32 0xBB8310D486368DB6BD6F849402FDD73AD53D316B5A4B2644AD6EFE0F941286D8 PUSH0 SHL DUP16 DUP16 DUP16 DUP16 PUSH1 0x40 MLOAD PUSH2 0x1929 SWAP3 SWAP2 SWAP1 PUSH2 0x46A2 JUMP JUMPDEST PUSH1 0x40 MLOAD DUP1 SWAP2 SUB SWAP1 KECCAK256 DUP15 DUP15 DUP15 DUP15 DUP15 DUP15 DUP15 PUSH1 0x40 MLOAD PUSH1 0x20 ADD PUSH2 0x1952 SWAP12 SWAP11 SWAP10 SWAP9 SWAP8 SWAP7 SWAP6 SWAP5 SWAP4 SWAP3 SWAP2 SWAP1 PUSH2 0x46BA JUMP JUMPDEST PUSH1 0x40 MLOAD PUSH1 0x20 DUP2 DUP4 SUB SUB DUP2 MSTORE SWAP1 PUSH1 0x40 MSTORE DUP1 MLOAD SWAP1 PUSH1 0x20 ADD KECCAK256 SWAP1 POP PUSH1 0x19 PUSH1 0xF8 SHL PUSH1 0x1 PUSH1 0xF8 SHL DUP4 DUP4 PUSH1 0x40 MLOAD PUSH1 0x20 ADD PUSH2 0x1989 SWAP5 SWAP4 SWAP3 SWAP2 SWAP1 PUSH2 0x4311 JUMP JUMPDEST PUSH1 0x40 MLOAD PUSH1 0x20 DUP2 DUP4 SUB SUB DUP2 MSTORE SWAP1 PUSH1 0x40 MSTORE SWAP4 POP POP POP POP SWAP12 SWAP11 POP POP POP POP POP POP POP POP POP POP POP JUMP JUMPDEST PUSH0 PUSH2 0x19B5 PUSH2 0x1DE6 JUMP JUMPDEST PUSH4 0xF23A6E61 PUSH1 0xE0 SHL SWAP1 POP SWAP7 SWAP6 POP POP POP POP POP POP JUMP JUMPDEST PUSH0 PUSH32 0x47E79534A245952E8B16893A336B85A3D9EA9FA8C573F3D803AFB92A79469218 PUSH0 SHL CHAINID ADDRESS PUSH1 0x40 MLOAD PUSH1 0x20 ADD PUSH2 0x1A01 SWAP4 SWAP3 SWAP2 SWAP1 PUSH2 0x4783 JUMP JUMPDEST PUSH1 0x40 MLOAD PUSH1 0x20 DUP2 DUP4 SUB SUB DUP2 MSTORE SWAP1 PUSH1 0x40 MSTORE DUP1 MLOAD SWAP1 PUSH1 0x20 ADD KECCAK256 SWAP1 POP SWAP1 JUMP JUMPDEST PUSH0 PUSH2 0x1A25 PUSH2 0x2483 JUMP JUMPDEST SWAP1 POP PUSH0 DUP2 PUSH0 ADD PUSH1 0x8 SWAP1 SLOAD SWAP1 PUSH2 0x100 EXP SWAP1 DIV PUSH1 0xFF AND ISZERO SWAP1 POP PUSH0 DUP3 PUSH0 ADD PUSH0 SWAP1 SLOAD SWAP1 PUSH2 0x100 EXP SWAP1 DIV PUSH8 0xFFFFFFFFFFFFFFFF AND SWAP1 POP PUSH0 PUSH0 DUP3 PUSH8 0xFFFFFFFFFFFFFFFF AND EQ DUP1 ISZERO PUSH2 0x1A6D JUMPI POP DUP3 JUMPDEST SWAP1 POP PUSH0 PUSH1 0x1 DUP4 PUSH8 0xFFFFFFFFFFFFFFFF AND EQ DUP1 ISZERO PUSH2 0x1AA0 JUMPI POP PUSH0 ADDRESS PUSH20 0xFFFFFFFFFFFFFFFFFFFFFFFFFFFFFFFFFFFFFFFF AND EXTCODESIZE EQ JUMPDEST SWAP1 POP DUP2 ISZERO DUP1 ISZERO PUSH2 0x1AAE JUMPI POP DUP1 ISZERO JUMPDEST ISZERO PUSH2 0x1AE5 JUMPI PUSH1 0x40 MLOAD PUSH32 0xF92EE8A900000000000000000000000000000000000000000000000000000000 DUP2 MSTORE PUSH1 0x4 ADD PUSH1 0x40 MLOAD DUP1 SWAP2 SUB SWAP1 REVERT JUMPDEST PUSH1 0x1 DUP6 PUSH0 ADD PUSH0 PUSH2 0x100 EXP DUP2 SLOAD DUP2 PUSH8 0xFFFFFFFFFFFFFFFF MUL NOT AND SWAP1 DUP4 PUSH8 0xFFFFFFFFFFFFFFFF AND MUL OR SWAP1 SSTORE POP DUP4 ISZERO PUSH2 0x1B32 JUMPI PUSH1 0x1 DUP6 PUSH0 ADD PUSH1 0x8 PUSH2 0x100 EXP DUP2 SLOAD DUP2 PUSH1 0xFF MUL NOT AND SWAP1 DUP4 ISZERO ISZERO MUL OR SWAP1 SSTORE POP JUMPDEST PUSH2 0x1B3B DUP10 PUSH2 0x2496 JUMP JUMPDEST PUSH0 PUSH20 0xFFFFFFFFFFFFFFFFFFFFFFFFFFFFFFFFFFFFFFFF AND DUP8 PUSH20 0xFFFFFFFFFFFFFFFFFFFFFFFFFFFFFFFFFFFFFFFF AND SUB PUSH2 0x1BA9 JUMPI PUSH1 0x40 MLOAD PUSH32 0x8C379A000000000000000000000000000000000000000000000000000000000 DUP2 MSTORE PUSH1 0x4 ADD PUSH2 0x1BA0 SWAP1 PUSH2 0x4802 JUMP JUMPDEST PUSH1 0x40 MLOAD DUP1 SWAP2 SUB SWAP1 REVERT JUMPDEST PUSH0 PUSH20 0xFFFFFFFFFFFFFFFFFFFFFFFFFFFFFFFFFFFFFFFF AND DUP7 PUSH20 0xFFFFFFFFFFFFFFFFFFFFFFFFFFFFFFFFFFFFFFFF AND SUB PUSH2 0x1C17 JUMPI PUSH1 0x40 MLOAD PUSH32 0x8C379A000000000000000000000000000000000000000000000000000000000 DUP2 MSTORE PUSH1 0x4 ADD PUSH2 0x1C0E SWAP1 PUSH2 0x486A JUMP JUMPDEST PUSH1 0x40 MLOAD DUP1 SWAP2 SUB SWAP1 REVERT JUMPDEST DUP8 PUSH1 0x1 PUSH0 PUSH2 0x100 EXP DUP2 SLOAD DUP2 PUSH20 0xFFFFFFFFFFFFFFFFFFFFFFFFFFFFFFFFFFFFFFFF MUL NOT AND SWAP1 DUP4 PUSH20 0xFFFFFFFFFFFFFFFFFFFFFFFFFFFFFFFFFFFFFFFF AND MUL OR SWAP1 SSTORE POP DUP7 PUSH1 0x2 PUSH0 PUSH2 0x100 EXP DUP2 SLOAD DUP2 PUSH20 0xFFFFFFFFFFFFFFFFFFFFFFFFFFFFFFFFFFFFFFFF MUL NOT AND SWAP1 DUP4 PUSH20 0xFFFFFFFFFFFFFFFFFFFFFFFFFFFFFFFFFFFFFFFF AND MUL OR SWAP1 SSTORE POP DUP6 PUSH1 0x3 PUSH0 PUSH2 0x100 EXP DUP2 SLOAD DUP2 PUSH20 0xFFFFFFFFFFFFFFFFFFFFFFFFFFFFFFFFFFFFFFFF MUL NOT AND SWAP1 DUP4 PUSH20 0xFFFFFFFFFFFFFFFFFFFFFFFFFFFFFFFFFFFFFFFF AND MUL OR SWAP1 SSTORE POP DUP6 PUSH20 0xFFFFFFFFFFFFFFFFFFFFFFFFFFFFFFFFFFFFFFFF AND DUP8 PUSH20 0xFFFFFFFFFFFFFFFFFFFFFFFFFFFFFFFFFFFFFFFF AND DUP10 PUSH20 0xFFFFFFFFFFFFFFFFFFFFFFFFFFFFFFFFFFFFFFFF AND PUSH32 0x7F19B1836867555CDD433785B5939C11FD02C0B0F296EF9EB0FA11C0CF615914 PUSH1 0x40 MLOAD PUSH1 0x40 MLOAD DUP1 SWAP2 SUB SWAP1 LOG4 DUP4 ISZERO PUSH2 0x1DA2 JUMPI PUSH0 DUP6 PUSH0 ADD PUSH1 0x8 PUSH2 0x100 EXP DUP2 SLOAD DUP2 PUSH1 0xFF MUL NOT AND SWAP1 DUP4 ISZERO ISZERO MUL OR SWAP1 SSTORE POP PUSH32 0xC7F505B2F371AE2175EE4913F4499E1F2633A7B5936321EED1CDAEB6115181D2 PUSH1 0x1 PUSH1 0x40 MLOAD PUSH2 0x1D99 SWAP2 SWAP1 PUSH2 0x48D4 JUMP JUMPDEST PUSH1 0x40 MLOAD DUP1 SWAP2 SUB SWAP1 LOG1 JUMPDEST POP POP POP POP POP POP POP POP POP JUMP JUMPDEST PUSH1 0x40 MLOAD DUP1 PUSH1 0x40 ADD PUSH1 0x40 MSTORE DUP1 PUSH1 0x5 DUP2 MSTORE PUSH1 0x20 ADD PUSH32 0x312E302E30000000000000000000000000000000000000000000000000000000 DUP2 MSTORE POP DUP2 JUMP JUMPDEST PUSH0 CALLER PUSH20 0xFFFFFFFFFFFFFFFFFFFFFFFFFFFFFFFFFFFFFFFF AND PUSH4 0x5624B25B PUSH32 0x6C9A6C4A39284E37ED1CF53D337577D14212A4870FB976A4366C693B939918D5 PUSH0 SHL PUSH0 SHR PUSH1 0x1 PUSH1 0x40 MLOAD DUP4 PUSH4 0xFFFFFFFF AND PUSH1 0xE0 SHL DUP2 MSTORE PUSH1 0x4 ADD PUSH2 0x1E47 SWAP3 SWAP2 SWAP1 PUSH2 0x491D JUMP JUMPDEST PUSH0 PUSH1 0x40 MLOAD DUP1 DUP4 SUB DUP2 DUP7 GAS STATICCALL ISZERO DUP1 ISZERO PUSH2 0x1E61 JUMPI RETURNDATASIZE PUSH0 PUSH0 RETURNDATACOPY RETURNDATASIZE PUSH0 REVERT JUMPDEST POP POP POP POP PUSH1 0x40 MLOAD RETURNDATASIZE PUSH0 DUP3 RETURNDATACOPY RETURNDATASIZE PUSH1 0x1F NOT PUSH1 0x1F DUP3 ADD AND DUP3 ADD DUP1 PUSH1 0x40 MSTORE POP DUP2 ADD SWAP1 PUSH2 0x1E89 SWAP2 SWAP1 PUSH2 0x4944 JUMP JUMPDEST SWAP1 POP PUSH0 DUP2 DUP1 PUSH1 0x20 ADD SWAP1 MLOAD DUP2 ADD SWAP1 PUSH2 0x1EA0 SWAP2 SWAP1 PUSH2 0x49B5 JUMP JUMPDEST SWAP1 POP ADDRESS PUSH20 0xFFFFFFFFFFFFFFFFFFFFFFFFFFFFFFFFFFFFFFFF AND DUP2 PUSH20 0xFFFFFFFFFFFFFFFFFFFFFFFFFFFFFFFFFFFFFFFF AND EQ PUSH2 0x1F10 JUMPI PUSH1 0x40 MLOAD PUSH32 0x8C379A000000000000000000000000000000000000000000000000000000000 DUP2 MSTORE PUSH1 0x4 ADD PUSH2 0x1F07 SWAP1 PUSH2 0x4A2A JUMP JUMPDEST PUSH1 0x40 MLOAD DUP1 SWAP2 SUB SWAP1 REVERT JUMPDEST POP POP JUMP JUMPDEST PUSH0 PUSH1 0x14 PUSH0 CALLDATASIZE SWAP1 POP LT ISZERO PUSH2 0x1F5C JUMPI PUSH1 0x40 MLOAD PUSH32 0x8C379A000000000000000000000000000000000000000000000000000000000 DUP2 MSTORE PUSH1 0x4 ADD PUSH2 0x1F53 SWAP1 PUSH2 0x4A92 JUMP JUMPDEST PUSH1 0x40 MLOAD DUP1 SWAP2 SUB SWAP1 REVERT JUMPDEST PUSH1 0x14 CALLDATASIZE SUB CALLDATALOAD PUSH1 0x60 SHR SWAP1 POP SWAP1 JUMP JUMPDEST PUSH0 PUSH0 PUSH0 PUSH0 CALLDATASIZE PUSH0 PUSH2 0x1F78 DUP8 PUSH2 0x21ED JUMP JUMPDEST SWAP5 POP SWAP5 POP SWAP5 POP SWAP5 POP SWAP5 POP PUSH0 PUSH2 0x200B DUP4 DUP4 DUP11 PUSH0 ADD PUSH1 0x20 DUP2 ADD SWAP1 PUSH2 0x1F9A SWAP2 SWAP1 PUSH2 0x3FBE JUMP JUMPDEST PUSH20 0xFFFFFFFFFFFFFFFFFFFFFFFFFFFFFFFFFFFFFFFF AND PUSH4 0xE75235B8 PUSH1 0x40 MLOAD DUP2 PUSH4 0xFFFFFFFF AND PUSH1 0xE0 SHL DUP2 MSTORE PUSH1 0x4 ADD PUSH1 0x20 PUSH1 0x40 MLOAD DUP1 DUP4 SUB DUP2 DUP7 GAS STATICCALL ISZERO DUP1 ISZERO PUSH2 0x1FE2 JUMPI RETURNDATASIZE PUSH0 PUSH0 RETURNDATACOPY RETURNDATASIZE PUSH0 REVERT JUMPDEST POP POP POP POP PUSH1 0x40 MLOAD RETURNDATASIZE PUSH1 0x1F NOT PUSH1 0x1F DUP3 ADD AND DUP3 ADD DUP1 PUSH1 0x40 MSTORE POP DUP2 ADD SWAP1 PUSH2 0x2006 SWAP2 SWAP1 PUSH2 0x3DE5 JUMP JUMPDEST PUSH2 0x253D JUMP JUMPDEST SWAP1 POP DUP8 PUSH0 ADD PUSH1 0x20 DUP2 ADD SWAP1 PUSH2 0x201F SWAP2 SWAP1 PUSH2 0x3FBE JUMP JUMPDEST PUSH20 0xFFFFFFFFFFFFFFFFFFFFFFFFFFFFFFFFFFFFFFFF AND PUSH4 0x934F3A11 DUP8 DUP1 MLOAD SWAP1 PUSH1 0x20 ADD KECCAK256 DUP9 DUP7 DUP7 PUSH1 0x40 MLOAD DUP6 PUSH4 0xFFFFFFFF AND PUSH1 0xE0 SHL DUP2 MSTORE PUSH1 0x4 ADD PUSH2 0x2064 SWAP5 SWAP4 SWAP3 SWAP2 SWAP1 PUSH2 0x4AB0 JUMP JUMPDEST PUSH0 PUSH1 0x40 MLOAD DUP1 DUP4 SUB DUP2 DUP7 DUP1 EXTCODESIZE ISZERO DUP1 ISZERO PUSH2 0x207A JUMPI PUSH0 PUSH0 REVERT JUMPDEST POP GAS STATICCALL SWAP3 POP POP POP DUP1 ISZERO PUSH2 0x208B JUMPI POP PUSH1 0x1 JUMPDEST PUSH2 0x2097 JUMPI PUSH0 SWAP1 POP PUSH2 0x2098 JUMP JUMPDEST JUMPDEST PUSH2 0x20A4 DUP2 ISZERO DUP6 DUP8 PUSH2 0x2647 JUMP JUMPDEST SWAP7 POP POP POP POP POP POP POP SWAP2 SWAP1 POP JUMP JUMPDEST PUSH1 0x60 PUSH1 0x4 DUP4 DUP4 SWAP1 POP LT ISZERO PUSH2 0x211A JUMPI PUSH0 PUSH8 0xFFFFFFFFFFFFFFFF DUP2 GT ISZERO PUSH2 0x20D9 JUMPI PUSH2 0x20D8 PUSH2 0x327A JUMP JUMPDEST JUMPDEST PUSH1 0x40 MLOAD SWAP1 DUP1 DUP3 MSTORE DUP1 PUSH1 0x20 MUL PUSH1 0x20 ADD DUP3 ADD PUSH1 0x40 MSTORE DUP1 ISZERO PUSH2 0x2112 JUMPI DUP2 PUSH1 0x20 ADD JUMPDEST PUSH2 0x20FF PUSH2 0x2F2A JUMP JUMPDEST DUP2 MSTORE PUSH1 0x20 ADD SWAP1 PUSH1 0x1 SWAP1 SUB SWAP1 DUP2 PUSH2 0x20F7 JUMPI SWAP1 POP JUMPDEST POP SWAP1 POP PUSH2 0x21E7 JUMP JUMPDEST PUSH0 PUSH1 0x4 DUP5 DUP5 SWAP1 POP LT PUSH2 0x212B JUMPI DUP4 CALLDATALOAD SWAP1 POP JUMPDEST PUSH4 0x541D63C8 PUSH1 0xE0 SHL PUSH28 0xFFFFFFFFFFFFFFFFFFFFFFFFFFFFFFFFFFFFFFFFFFFFFFFFFFFFFFFF NOT AND DUP2 PUSH28 0xFFFFFFFFFFFFFFFFFFFFFFFFFFFFFFFFFFFFFFFFFFFFFFFFFFFFFFFF NOT AND EQ DUP1 PUSH2 0x21C2 JUMPI POP PUSH4 0x5AC0A0F9 PUSH1 0xE0 SHL PUSH28 0xFFFFFFFFFFFFFFFFFFFFFFFFFFFFFFFFFFFFFFFFFFFFFFFFFFFFFFFF NOT AND DUP2 PUSH28 0xFFFFFFFFFFFFFFFFFFFFFFFFFFFFFFFFFFFFFFFFFFFFFFFFFFFFFFFF NOT AND EQ JUMPDEST ISZERO PUSH2 0x21D9 JUMPI PUSH2 0x21D1 DUP5 DUP5 PUSH2 0x267B JUMP JUMPDEST SWAP2 POP POP PUSH2 0x21E7 JUMP JUMPDEST PUSH2 0x21E3 DUP5 DUP5 PUSH2 0x27FB JUMP JUMPDEST SWAP2 POP POP JUMPDEST SWAP3 SWAP2 POP POP JUMP JUMPDEST PUSH1 0x60 PUSH0 PUSH0 CALLDATASIZE PUSH0 CALLDATASIZE PUSH0 DUP8 DUP1 PUSH2 0x100 ADD SWAP1 PUSH2 0x2206 SWAP2 SWAP1 PUSH2 0x3FF5 JUMP JUMPDEST SWAP2 POP SWAP2 POP DUP2 DUP2 PUSH0 SWAP1 PUSH1 0x6 SWAP3 PUSH2 0x221D SWAP4 SWAP3 SWAP2 SWAP1 PUSH2 0x4AFD JUMP JUMPDEST SWAP1 PUSH2 0x2228 SWAP2 SWAP1 PUSH2 0x4B62 JUMP JUMPDEST PUSH1 0xD0 SHR SWAP6 POP DUP2 DUP2 PUSH1 0x6 SWAP1 PUSH1 0xC SWAP3 PUSH2 0x2241 SWAP4 SWAP3 SWAP2 SWAP1 PUSH2 0x4AFD JUMP JUMPDEST SWAP1 PUSH2 0x224C SWAP2 SWAP1 PUSH2 0x4B62 JUMP JUMPDEST PUSH1 0xD0 SHR SWAP5 POP DUP2 DUP2 PUSH1 0xC SWAP1 DUP1 SWAP3 PUSH2 0x2264 SWAP4 SWAP3 SWAP2 SWAP1 PUSH2 0x4AFD JUMP JUMPDEST SWAP4 POP SWAP4 POP POP POP PUSH0 PUSH1 0x40 MLOAD DUP1 PUSH2 0x1C0 ADD PUSH1 0x40 MSTORE DUP1 PUSH32 0xC03DFC11D8B10BF9CF703D558958C8C42777F785D998C62060D85A4F0EF6EA7F PUSH0 SHL DUP2 MSTORE PUSH1 0x20 ADD DUP9 PUSH0 ADD PUSH1 0x20 DUP2 ADD SWAP1 PUSH2 0x22B1 SWAP2 SWAP1 PUSH2 0x3FBE JUMP JUMPDEST PUSH20 0xFFFFFFFFFFFFFFFFFFFFFFFFFFFFFFFFFFFFFFFF AND DUP2 MSTORE PUSH1 0x20 ADD DUP9 PUSH1 0x20 ADD CALLDATALOAD DUP2 MSTORE PUSH1 0x20 ADD DUP9 DUP1 PUSH1 0x40 ADD SWAP1 PUSH2 0x22E6 SWAP2 SWAP1 PUSH2 0x3FF5 JUMP JUMPDEST PUSH1 0x40 MLOAD PUSH2 0x22F4 SWAP3 SWAP2 SWAP1 PUSH2 0x46A2 JUMP JUMPDEST PUSH1 0x40 MLOAD DUP1 SWAP2 SUB SWAP1 KECCAK256 DUP2 MSTORE PUSH1 0x20 ADD DUP9 DUP1 PUSH1 0x60 ADD SWAP1 PUSH2 0x2311 SWAP2 SWAP1 PUSH2 0x3FF5 JUMP JUMPDEST PUSH1 0x40 MLOAD PUSH2 0x231F SWAP3 SWAP2 SWAP1 PUSH2 0x46A2 JUMP JUMPDEST PUSH1 0x40 MLOAD DUP1 SWAP2 SUB SWAP1 KECCAK256 DUP2 MSTORE PUSH1 0x20 ADD PUSH2 0x2335 DUP10 PUSH2 0x2990 JUMP JUMPDEST PUSH16 0xFFFFFFFFFFFFFFFFFFFFFFFFFFFFFFFF AND DUP2 MSTORE PUSH1 0x20 ADD PUSH2 0x2355 DUP10 PUSH2 0x29A5 JUMP JUMPDEST PUSH16 0xFFFFFFFFFFFFFFFFFFFFFFFFFFFFFFFF AND DUP2 MSTORE PUSH1 0x20 ADD DUP9 PUSH1 0xA0 ADD CALLDATALOAD DUP2 MSTORE PUSH1 0x20 ADD PUSH2 0x237F DUP10 PUSH2 0x29BA JUMP JUMPDEST PUSH16 0xFFFFFFFFFFFFFFFFFFFFFFFFFFFFFFFF AND DUP2 MSTORE PUSH1 0x20 ADD PUSH2 0x239F DUP10 PUSH2 0x29CF JUMP JUMPDEST PUSH16 0xFFFFFFFFFFFFFFFFFFFFFFFFFFFFFFFF AND DUP2 MSTORE PUSH1 0x20 ADD DUP9 DUP1 PUSH1 0xE0 ADD SWAP1 PUSH2 0x23C6 SWAP2 SWAP1 PUSH2 0x3FF5 JUMP JUMPDEST PUSH1 0x40 MLOAD PUSH2 0x23D4 SWAP3 SWAP2 SWAP1 PUSH2 0x46A2 JUMP JUMPDEST PUSH1 0x40 MLOAD DUP1 SWAP2 SUB SWAP1 KECCAK256 DUP2 MSTORE PUSH1 0x20 ADD DUP7 PUSH6 0xFFFFFFFFFFFF AND DUP2 MSTORE PUSH1 0x20 ADD DUP6 PUSH6 0xFFFFFFFFFFFF AND DUP2 MSTORE PUSH1 0x20 ADD PUSH0 PUSH0 SWAP1 SLOAD SWAP1 PUSH2 0x100 EXP SWAP1 DIV PUSH20 0xFFFFFFFFFFFFFFFFFFFFFFFFFFFFFFFFFFFFFFFF AND PUSH20 0xFFFFFFFFFFFFFFFFFFFFFFFFFFFFFFFFFFFFFFFF AND DUP2 MSTORE POP SWAP1 POP PUSH0 PUSH2 0x1C0 DUP3 KECCAK256 SWAP1 POP PUSH1 0x19 PUSH1 0xF8 SHL PUSH1 0x1 PUSH1 0xF8 SHL PUSH2 0x2453 PUSH2 0x19C9 JUMP JUMPDEST DUP4 PUSH1 0x40 MLOAD PUSH1 0x20 ADD PUSH2 0x2467 SWAP5 SWAP4 SWAP3 SWAP2 SWAP1 PUSH2 0x4311 JUMP JUMPDEST PUSH1 0x40 MLOAD PUSH1 0x20 DUP2 DUP4 SUB SUB DUP2 MSTORE SWAP1 PUSH1 0x40 MSTORE SWAP7 POP POP POP SWAP2 SWAP4 SWAP6 SWAP1 SWAP3 SWAP5 POP JUMP JUMPDEST PUSH0 PUSH0 PUSH2 0x248D PUSH2 0x29E4 JUMP JUMPDEST SWAP1 POP DUP1 SWAP2 POP POP SWAP1 JUMP JUMPDEST PUSH0 PUSH20 0xFFFFFFFFFFFFFFFFFFFFFFFFFFFFFFFFFFFFFFFF AND DUP2 PUSH20 0xFFFFFFFFFFFFFFFFFFFFFFFFFFFFFFFFFFFFFFFF AND SUB PUSH2 0x24FB JUMPI PUSH1 0x40 MLOAD PUSH32 0x2039D3C900000000000000000000000000000000000000000000000000000000 DUP2 MSTORE PUSH1 0x4 ADD PUSH1 0x40 MLOAD DUP1 SWAP2 SUB SWAP1 REVERT JUMPDEST DUP1 PUSH0 PUSH0 PUSH2 0x100 EXP DUP2 SLOAD DUP2 PUSH20 0xFFFFFFFFFFFFFFFFFFFFFFFFFFFFFFFFFFFFFFFF MUL NOT AND SWAP1 DUP4 PUSH20 0xFFFFFFFFFFFFFFFFFFFFFFFFFFFFFFFFFFFFFFFF AND MUL OR SWAP1 SSTORE POP POP JUMP JUMPDEST PUSH0 PUSH0 PUSH1 0x41 DUP4 PUSH2 0x254C SWAP2 SWAP1 PUSH2 0x4BC0 JUMP JUMPDEST SWAP1 POP DUP1 DUP6 DUP6 SWAP1 POP LT ISZERO PUSH2 0x2562 JUMPI PUSH0 SWAP2 POP POP PUSH2 0x2640 JUMP JUMPDEST PUSH0 PUSH0 SWAP1 POP JUMPDEST DUP4 DUP2 LT ISZERO PUSH2 0x2634 JUMPI PUSH0 PUSH1 0x41 DUP3 PUSH2 0x257D SWAP2 SWAP1 PUSH2 0x4BC0 JUMP JUMPDEST SWAP1 POP PUSH0 DUP8 DUP8 PUSH1 0x40 DUP5 PUSH2 0x258F SWAP2 SWAP1 PUSH2 0x3E3D JUMP JUMPDEST DUP2 DUP2 LT PUSH2 0x259F JUMPI PUSH2 0x259E PUSH2 0x40CB JUMP JUMPDEST JUMPDEST SWAP1 POP ADD CALLDATALOAD PUSH1 0xF8 SHR PUSH1 0xF8 SHL PUSH1 0xF8 SHR SWAP1 POP PUSH0 DUP2 PUSH1 0xFF AND SUB PUSH2 0x2625 JUMPI PUSH0 DUP9 DUP9 PUSH1 0x20 DUP6 PUSH2 0x25C8 SWAP2 SWAP1 PUSH2 0x3E3D JUMP JUMPDEST SWAP1 DUP1 SWAP3 PUSH2 0x25D7 SWAP4 SWAP3 SWAP2 SWAP1 PUSH2 0x4AFD JUMP JUMPDEST SWAP1 PUSH2 0x25E2 SWAP2 SWAP1 PUSH2 0x4C01 JUMP JUMPDEST PUSH0 SHR SWAP1 POP PUSH0 DUP10 DUP10 DUP4 SWAP1 DUP1 SWAP3 PUSH2 0x25F9 SWAP4 SWAP3 SWAP2 SWAP1 PUSH2 0x4AFD JUMP JUMPDEST SWAP1 PUSH2 0x2604 SWAP2 SWAP1 PUSH2 0x4C01 JUMP JUMPDEST PUSH0 SHR SWAP1 POP DUP1 PUSH1 0x20 PUSH2 0x2615 SWAP2 SWAP1 PUSH2 0x3E3D JUMP JUMPDEST DUP7 PUSH2 0x2620 SWAP2 SWAP1 PUSH2 0x3E3D JUMP JUMPDEST SWAP6 POP POP POP JUMPDEST POP POP DUP1 DUP1 PUSH1 0x1 ADD SWAP2 POP POP PUSH2 0x2567 JUMP JUMPDEST POP DUP1 DUP6 DUP6 SWAP1 POP GT ISZERO SWAP2 POP POP JUMPDEST SWAP4 SWAP3 POP POP POP JUMP JUMPDEST PUSH0 PUSH1 0xD0 DUP3 PUSH6 0xFFFFFFFFFFFF AND SWAP1 SHL PUSH1 0xA0 DUP5 PUSH6 0xFFFFFFFFFFFF AND SWAP1 SHL DUP6 PUSH2 0x266D JUMPI PUSH0 PUSH2 0x2670 JUMP JUMPDEST PUSH1 0x1 JUMPDEST OR OR SWAP1 POP SWAP4 SWAP3 POP POP POP JUMP JUMPDEST PUSH1 0x60 CALLDATASIZE PUSH0 DUP5 DUP5 PUSH1 0x4 SWAP1 DUP1 SWAP3 PUSH2 0x2692 SWAP4 SWAP3 SWAP2 SWAP1 PUSH2 0x4AFD JUMP JUMPDEST SWAP2 POP SWAP2 POP PUSH0 PUSH0 PUSH0 PUSH0 DUP6 DUP6 DUP2 ADD SWAP1 PUSH2 0x26A9 SWAP2 SWAP1 PUSH2 0x4C73 JUMP JUMPDEST SWAP4 POP SWAP4 POP SWAP4 POP SWAP4 POP PUSH1 0x1 DUP2 PUSH1 0xFF AND EQ DUP1 ISZERO PUSH2 0x26F0 JUMPI POP PUSH0 PUSH20 0xFFFFFFFFFFFFFFFFFFFFFFFFFFFFFFFFFFFFFFFF AND DUP5 PUSH20 0xFFFFFFFFFFFFFFFFFFFFFFFFFFFFFFFFFFFFFFFF AND EQ ISZERO JUMPDEST ISZERO PUSH2 0x270B JUMPI PUSH2 0x26FE DUP3 PUSH2 0x2A0D JUMP JUMPDEST SWAP7 POP POP POP POP POP POP POP PUSH2 0x27F5 JUMP JUMPDEST PUSH0 PUSH1 0x1 PUSH8 0xFFFFFFFFFFFFFFFF DUP2 GT ISZERO PUSH2 0x2727 JUMPI PUSH2 0x2726 PUSH2 0x327A JUMP JUMPDEST JUMPDEST PUSH1 0x40 MLOAD SWAP1 DUP1 DUP3 MSTORE DUP1 PUSH1 0x20 MUL PUSH1 0x20 ADD DUP3 ADD PUSH1 0x40 MSTORE DUP1 ISZERO PUSH2 0x2760 JUMPI DUP2 PUSH1 0x20 ADD JUMPDEST PUSH2 0x274D PUSH2 0x2F2A JUMP JUMPDEST DUP2 MSTORE PUSH1 0x20 ADD SWAP1 PUSH1 0x1 SWAP1 SUB SWAP1 DUP2 PUSH2 0x2745 JUMPI SWAP1 POP JUMPDEST POP SWAP1 POP PUSH0 PUSH1 0x4 DUP5 MLOAD LT PUSH2 0x2775 JUMPI PUSH1 0x20 DUP5 ADD MLOAD SWAP1 POP JUMPDEST PUSH1 0x40 MLOAD DUP1 PUSH1 0x80 ADD PUSH1 0x40 MSTORE DUP1 DUP8 PUSH20 0xFFFFFFFFFFFFFFFFFFFFFFFFFFFFFFFFFFFFFFFF AND DUP2 MSTORE PUSH1 0x20 ADD DUP7 DUP2 MSTORE PUSH1 0x20 ADD DUP3 PUSH28 0xFFFFFFFFFFFFFFFFFFFFFFFFFFFFFFFFFFFFFFFFFFFFFFFFFFFFFFFF NOT AND DUP2 MSTORE PUSH1 0x20 ADD DUP6 DUP2 MSTORE POP DUP3 PUSH0 DUP2 MLOAD DUP2 LT PUSH2 0x27DE JUMPI PUSH2 0x27DD PUSH2 0x40CB JUMP JUMPDEST JUMPDEST PUSH1 0x20 MUL PUSH1 0x20 ADD ADD DUP2 SWAP1 MSTORE POP DUP2 SWAP9 POP POP POP POP POP POP POP POP POP JUMPDEST SWAP3 SWAP2 POP POP JUMP JUMPDEST PUSH1 0x60 PUSH1 0x4 DUP4 DUP4 SWAP1 POP LT ISZERO PUSH2 0x2844 JUMPI PUSH1 0x40 MLOAD PUSH32 0x8C379A000000000000000000000000000000000000000000000000000000000 DUP2 MSTORE PUSH1 0x4 ADD PUSH2 0x283B SWAP1 PUSH2 0x4A92 JUMP JUMPDEST PUSH1 0x40 MLOAD DUP1 SWAP2 SUB SWAP1 REVERT JUMPDEST PUSH0 PUSH1 0x1 PUSH8 0xFFFFFFFFFFFFFFFF DUP2 GT ISZERO PUSH2 0x2860 JUMPI PUSH2 0x285F PUSH2 0x327A JUMP JUMPDEST JUMPDEST PUSH1 0x40 MLOAD SWAP1 DUP1 DUP3 MSTORE DUP1 PUSH1 0x20 MUL PUSH1 0x20 ADD DUP3 ADD PUSH1 0x40 MSTORE DUP1 ISZERO PUSH2 0x2899 JUMPI DUP2 PUSH1 0x20 ADD JUMPDEST PUSH2 0x2886 PUSH2 0x2F2A JUMP JUMPDEST DUP2 MSTORE PUSH1 0x20 ADD SWAP1 PUSH1 0x1 SWAP1 SUB SWAP1 DUP2 PUSH2 0x287E JUMPI SWAP1 POP JUMPDEST POP SWAP1 POP PUSH0 DUP5 DUP5 PUSH0 SWAP1 PUSH1 0x4 SWAP3 PUSH2 0x28B0 SWAP4 SWAP3 SWAP2 SWAP1 PUSH2 0x4AFD JUMP JUMPDEST SWAP1 PUSH2 0x28BB SWAP2 SWAP1 PUSH2 0x406D JUMP JUMPDEST SWAP1 POP PUSH1 0x40 MLOAD DUP1 PUSH1 0x80 ADD PUSH1 0x40 MSTORE DUP1 PUSH0 PUSH20 0xFFFFFFFFFFFFFFFFFFFFFFFFFFFFFFFFFFFFFFFF AND DUP2 MSTORE PUSH1 0x20 ADD PUSH0 DUP2 MSTORE PUSH1 0x20 ADD DUP3 PUSH28 0xFFFFFFFFFFFFFFFFFFFFFFFFFFFFFFFFFFFFFFFFFFFFFFFFFFFFFFFF NOT AND DUP2 MSTORE PUSH1 0x20 ADD DUP7 DUP7 PUSH1 0x4 SWAP1 DUP1 SWAP3 PUSH2 0x2922 SWAP4 SWAP3 SWAP2 SWAP1 PUSH2 0x4AFD JUMP JUMPDEST DUP1 DUP1 PUSH1 0x1F ADD PUSH1 0x20 DUP1 SWAP2 DIV MUL PUSH1 0x20 ADD PUSH1 0x40 MLOAD SWAP1 DUP2 ADD PUSH1 0x40 MSTORE DUP1 SWAP4 SWAP3 SWAP2 SWAP1 DUP2 DUP2 MSTORE PUSH1 0x20 ADD DUP4 DUP4 DUP1 DUP3 DUP5 CALLDATACOPY PUSH0 DUP2 DUP5 ADD MSTORE PUSH1 0x1F NOT PUSH1 0x1F DUP3 ADD AND SWAP1 POP DUP1 DUP4 ADD SWAP3 POP POP POP POP POP POP POP DUP2 MSTORE POP DUP3 PUSH0 DUP2 MLOAD DUP2 LT PUSH2 0x297A JUMPI PUSH2 0x2979 PUSH2 0x40CB JUMP JUMPDEST JUMPDEST PUSH1 0x20 MUL PUSH1 0x20 ADD ADD DUP2 SWAP1 MSTORE POP DUP2 SWAP3 POP POP POP SWAP3 SWAP2 POP POP JUMP JUMPDEST PUSH0 PUSH2 0x299E DUP3 PUSH1 0x80 ADD CALLDATALOAD PUSH2 0x2C3D JUMP JUMPDEST SWAP1 POP SWAP2 SWAP1 POP JUMP JUMPDEST PUSH0 PUSH2 0x29B3 DUP3 PUSH1 0x80 ADD CALLDATALOAD PUSH2 0x2C4C JUMP JUMPDEST SWAP1 POP SWAP2 SWAP1 POP JUMP JUMPDEST PUSH0 PUSH2 0x29C8 DUP3 PUSH1 0xC0 ADD CALLDATALOAD PUSH2 0x2C3D JUMP JUMPDEST SWAP1 POP SWAP2 SWAP1 POP JUMP JUMPDEST PUSH0 PUSH2 0x29DD DUP3 PUSH1 0xC0 ADD CALLDATALOAD PUSH2 0x2C4C JUMP JUMPDEST SWAP1 POP SWAP2 SWAP1 POP JUMP JUMPDEST PUSH0 PUSH32 0xF0C57E16840DF040F15088DC2F81FE391C3923BEC73E23A9662EFC9C229C6A00 PUSH0 SHL SWAP1 POP SWAP1 JUMP JUMPDEST PUSH1 0x60 PUSH1 0x4 DUP3 MLOAD LT ISZERO PUSH2 0x2A74 JUMPI PUSH0 PUSH8 0xFFFFFFFFFFFFFFFF DUP2 GT ISZERO PUSH2 0x2A33 JUMPI PUSH2 0x2A32 PUSH2 0x327A JUMP JUMPDEST JUMPDEST PUSH1 0x40 MLOAD SWAP1 DUP1 DUP3 MSTORE DUP1 PUSH1 0x20 MUL PUSH1 0x20 ADD DUP3 ADD PUSH1 0x40 MSTORE DUP1 ISZERO PUSH2 0x2A6C JUMPI DUP2 PUSH1 0x20 ADD JUMPDEST PUSH2 0x2A59 PUSH2 0x2F2A JUMP JUMPDEST DUP2 MSTORE PUSH1 0x20 ADD SWAP1 PUSH1 0x1 SWAP1 SUB SWAP1 DUP2 PUSH2 0x2A51 JUMPI SWAP1 POP JUMPDEST POP SWAP1 POP PUSH2 0x2C38 JUMP JUMPDEST PUSH0 PUSH1 0x4 DUP4 MLOAD LT PUSH2 0x2A86 JUMPI PUSH1 0x20 DUP4 ADD MLOAD SWAP1 POP JUMPDEST PUSH4 0x8D80FF0A PUSH1 0xE0 SHL PUSH28 0xFFFFFFFFFFFFFFFFFFFFFFFFFFFFFFFFFFFFFFFFFFFFFFFFFFFFFFFF NOT AND DUP2 PUSH28 0xFFFFFFFFFFFFFFFFFFFFFFFFFFFFFFFFFFFFFFFFFFFFFFFFFFFFFFFF NOT AND EQ PUSH2 0x2B2E JUMPI PUSH0 PUSH8 0xFFFFFFFFFFFFFFFF DUP2 GT ISZERO PUSH2 0x2AEC JUMPI PUSH2 0x2AEB PUSH2 0x327A JUMP JUMPDEST JUMPDEST PUSH1 0x40 MLOAD SWAP1 DUP1 DUP3 MSTORE DUP1 PUSH1 0x20 MUL PUSH1 0x20 ADD DUP3 ADD PUSH1 0x40 MSTORE DUP1 ISZERO PUSH2 0x2B25 JUMPI DUP2 PUSH1 0x20 ADD JUMPDEST PUSH2 0x2B12 PUSH2 0x2F2A JUMP JUMPDEST DUP2 MSTORE PUSH1 0x20 ADD SWAP1 PUSH1 0x1 SWAP1 SUB SWAP1 DUP2 PUSH2 0x2B0A JUMPI SWAP1 POP JUMPDEST POP SWAP2 POP POP PUSH2 0x2C38 JUMP JUMPDEST PUSH0 PUSH1 0x4 DUP5 MLOAD PUSH2 0x2B3D SWAP2 SWAP1 PUSH2 0x44BD JUMP JUMPDEST PUSH8 0xFFFFFFFFFFFFFFFF DUP2 GT ISZERO PUSH2 0x2B56 JUMPI PUSH2 0x2B55 PUSH2 0x327A JUMP JUMPDEST JUMPDEST PUSH1 0x40 MLOAD SWAP1 DUP1 DUP3 MSTORE DUP1 PUSH1 0x1F ADD PUSH1 0x1F NOT AND PUSH1 0x20 ADD DUP3 ADD PUSH1 0x40 MSTORE DUP1 ISZERO PUSH2 0x2B88 JUMPI DUP2 PUSH1 0x20 ADD PUSH1 0x1 DUP3 MUL DUP1 CALLDATASIZE DUP4 CALLDATACOPY DUP1 DUP3 ADD SWAP2 POP POP SWAP1 POP JUMPDEST POP SWAP1 POP PUSH0 PUSH0 SWAP1 POP JUMPDEST DUP2 MLOAD DUP2 LT ISZERO PUSH2 0x2C11 JUMPI DUP5 PUSH1 0x4 DUP3 PUSH2 0x2BA7 SWAP2 SWAP1 PUSH2 0x3E3D JUMP JUMPDEST DUP2 MLOAD DUP2 LT PUSH2 0x2BB8 JUMPI PUSH2 0x2BB7 PUSH2 0x40CB JUMP JUMPDEST JUMPDEST PUSH1 0x20 ADD ADD MLOAD PUSH1 0xF8 SHR PUSH1 0xF8 SHL DUP3 DUP3 DUP2 MLOAD DUP2 LT PUSH2 0x2BD6 JUMPI PUSH2 0x2BD5 PUSH2 0x40CB JUMP JUMPDEST JUMPDEST PUSH1 0x20 ADD ADD SWAP1 PUSH31 0xFFFFFFFFFFFFFFFFFFFFFFFFFFFFFFFFFFFFFFFFFFFFFFFFFFFFFFFFFFFFFF NOT AND SWAP1 DUP2 PUSH0 BYTE SWAP1 MSTORE8 POP DUP1 DUP1 PUSH1 0x1 ADD SWAP2 POP POP PUSH2 0x2B90 JUMP JUMPDEST POP PUSH0 DUP2 DUP1 PUSH1 0x20 ADD SWAP1 MLOAD DUP2 ADD SWAP1 PUSH2 0x2C27 SWAP2 SWAP1 PUSH2 0x4944 JUMP JUMPDEST SWAP1 POP PUSH2 0x2C32 DUP2 PUSH2 0x2C69 JUMP JUMPDEST SWAP4 POP POP POP POP JUMPDEST SWAP2 SWAP1 POP JUMP JUMPDEST PUSH0 PUSH1 0x80 DUP3 PUSH0 SHR SWAP1 SHR SWAP1 POP SWAP2 SWAP1 POP JUMP JUMPDEST PUSH0 DUP2 PUSH0 SHR PUSH16 0xFFFFFFFFFFFFFFFFFFFFFFFFFFFFFFFF AND SWAP1 POP SWAP2 SWAP1 POP JUMP JUMPDEST PUSH1 0x60 PUSH0 PUSH0 SWAP1 POP PUSH0 PUSH0 SWAP1 POP JUMPDEST DUP4 MLOAD DUP2 LT ISZERO PUSH2 0x2CCC JUMPI DUP4 MLOAD PUSH1 0x55 DUP3 PUSH2 0x2C8C SWAP2 SWAP1 PUSH2 0x3E3D JUMP JUMPDEST GT PUSH2 0x2CCC JUMPI PUSH0 PUSH1 0x35 DUP3 ADD PUSH1 0x20 DUP7 ADD ADD MLOAD SWAP1 POP DUP1 PUSH1 0x55 PUSH2 0x2CAB SWAP2 SWAP1 PUSH2 0x3E3D JUMP JUMPDEST DUP3 PUSH2 0x2CB6 SWAP2 SWAP1 PUSH2 0x3E3D JUMP JUMPDEST SWAP2 POP DUP3 DUP1 PUSH2 0x2CC3 SWAP1 PUSH2 0x4CF3 JUMP JUMPDEST SWAP4 POP POP POP PUSH2 0x2C74 JUMP JUMPDEST PUSH0 DUP3 PUSH8 0xFFFFFFFFFFFFFFFF DUP2 GT ISZERO PUSH2 0x2CE7 JUMPI PUSH2 0x2CE6 PUSH2 0x327A JUMP JUMPDEST JUMPDEST PUSH1 0x40 MLOAD SWAP1 DUP1 DUP3 MSTORE DUP1 PUSH1 0x20 MUL PUSH1 0x20 ADD DUP3 ADD PUSH1 0x40 MSTORE DUP1 ISZERO PUSH2 0x2D20 JUMPI DUP2 PUSH1 0x20 ADD JUMPDEST PUSH2 0x2D0D PUSH2 0x2F2A JUMP JUMPDEST DUP2 MSTORE PUSH1 0x20 ADD SWAP1 PUSH1 0x1 SWAP1 SUB SWAP1 DUP2 PUSH2 0x2D05 JUMPI SWAP1 POP JUMPDEST POP SWAP1 POP PUSH0 SWAP2 POP PUSH0 PUSH0 SWAP1 POP JUMPDEST DUP6 MLOAD DUP4 LT DUP1 ISZERO PUSH2 0x2D3A JUMPI POP DUP4 DUP2 LT JUMPDEST ISZERO PUSH2 0x2F1E JUMPI DUP6 MLOAD PUSH1 0x55 DUP5 PUSH2 0x2D4E SWAP2 SWAP1 PUSH2 0x3E3D JUMP JUMPDEST GT PUSH2 0x2F1E JUMPI PUSH0 PUSH13 0x1000000000000000000000000 DUP5 PUSH1 0x21 DUP10 ADD ADD MLOAD DIV SWAP1 POP PUSH0 PUSH1 0x15 DUP6 ADD PUSH1 0x20 DUP10 ADD ADD MLOAD SWAP1 POP PUSH0 PUSH1 0x35 DUP7 ADD PUSH1 0x20 DUP11 ADD ADD MLOAD SWAP1 POP PUSH0 DUP2 PUSH8 0xFFFFFFFFFFFFFFFF DUP2 GT ISZERO PUSH2 0x2DA1 JUMPI PUSH2 0x2DA0 PUSH2 0x327A JUMP JUMPDEST JUMPDEST PUSH1 0x40 MLOAD SWAP1 DUP1 DUP3 MSTORE DUP1 PUSH1 0x1F ADD PUSH1 0x1F NOT AND PUSH1 0x20 ADD DUP3 ADD PUSH1 0x40 MSTORE DUP1 ISZERO PUSH2 0x2DD3 JUMPI DUP2 PUSH1 0x20 ADD PUSH1 0x1 DUP3 MUL DUP1 CALLDATASIZE DUP4 CALLDATACOPY DUP1 DUP3 ADD SWAP2 POP POP SWAP1 POP JUMPDEST POP SWAP1 POP PUSH0 PUSH0 SWAP1 POP JUMPDEST DUP3 DUP2 LT ISZERO PUSH2 0x2E66 JUMPI DUP11 DUP2 PUSH1 0x55 DUP11 PUSH2 0x2DF2 SWAP2 SWAP1 PUSH2 0x3E3D JUMP JUMPDEST PUSH2 0x2DFC SWAP2 SWAP1 PUSH2 0x3E3D JUMP JUMPDEST DUP2 MLOAD DUP2 LT PUSH2 0x2E0D JUMPI PUSH2 0x2E0C PUSH2 0x40CB JUMP JUMPDEST JUMPDEST PUSH1 0x20 ADD ADD MLOAD PUSH1 0xF8 SHR PUSH1 0xF8 SHL DUP3 DUP3 DUP2 MLOAD DUP2 LT PUSH2 0x2E2B JUMPI PUSH2 0x2E2A PUSH2 0x40CB JUMP JUMPDEST JUMPDEST PUSH1 0x20 ADD ADD SWAP1 PUSH31 0xFFFFFFFFFFFFFFFFFFFFFFFFFFFFFFFFFFFFFFFFFFFFFFFFFFFFFFFFFFFFFF NOT AND SWAP1 DUP2 PUSH0 BYTE SWAP1 MSTORE8 POP DUP1 DUP1 PUSH1 0x1 ADD SWAP2 POP POP PUSH2 0x2DDB JUMP JUMPDEST POP PUSH0 PUSH1 0x4 DUP4 LT PUSH2 0x2E78 JUMPI PUSH1 0x20 DUP3 ADD MLOAD SWAP1 POP JUMPDEST PUSH1 0x40 MLOAD DUP1 PUSH1 0x80 ADD PUSH1 0x40 MSTORE DUP1 DUP7 PUSH20 0xFFFFFFFFFFFFFFFFFFFFFFFFFFFFFFFFFFFFFFFF AND DUP2 MSTORE PUSH1 0x20 ADD DUP6 DUP2 MSTORE PUSH1 0x20 ADD DUP3 PUSH28 0xFFFFFFFFFFFFFFFFFFFFFFFFFFFFFFFFFFFFFFFFFFFFFFFFFFFFFFFF NOT AND DUP2 MSTORE PUSH1 0x20 ADD DUP4 DUP2 MSTORE POP DUP8 DUP8 DUP2 MLOAD DUP2 LT PUSH2 0x2EE1 JUMPI PUSH2 0x2EE0 PUSH2 0x40CB JUMP JUMPDEST JUMPDEST PUSH1 0x20 MUL PUSH1 0x20 ADD ADD DUP2 SWAP1 MSTORE POP DUP3 PUSH1 0x55 PUSH2 0x2EF9 SWAP2 SWAP1 PUSH2 0x3E3D JUMP JUMPDEST DUP9 PUSH2 0x2F04 SWAP2 SWAP1 PUSH2 0x3E3D JUMP JUMPDEST SWAP8 POP DUP6 DUP1 PUSH2 0x2F11 SWAP1 PUSH2 0x4CF3 JUMP JUMPDEST SWAP7 POP POP POP POP POP POP POP PUSH2 0x2D2B JUMP JUMPDEST DUP2 SWAP5 POP POP POP POP POP SWAP2 SWAP1 POP JUMP JUMPDEST PUSH1 0x40 MLOAD DUP1 PUSH1 0x80 ADD PUSH1 0x40 MSTORE DUP1 PUSH0 PUSH20 0xFFFFFFFFFFFFFFFFFFFFFFFFFFFFFFFFFFFFFFFF AND DUP2 MSTORE PUSH1 0x20 ADD PUSH0 DUP2 MSTORE PUSH1 0x20 ADD PUSH0 PUSH28 0xFFFFFFFFFFFFFFFFFFFFFFFFFFFFFFFFFFFFFFFFFFFFFFFFFFFFFFFF NOT AND DUP2 MSTORE PUSH1 0x20 ADD PUSH1 0x60 DUP2 MSTORE POP SWAP1 JUMP JUMPDEST PUSH0 PUSH1 0x40 MLOAD SWAP1 POP SWAP1 JUMP JUMPDEST PUSH0 PUSH0 REVERT JUMPDEST PUSH0 PUSH0 REVERT JUMPDEST PUSH0 PUSH20 0xFFFFFFFFFFFFFFFFFFFFFFFFFFFFFFFFFFFFFFFF DUP3 AND SWAP1 POP SWAP2 SWAP1 POP JUMP JUMPDEST PUSH0 PUSH2 0x2FBE DUP3 PUSH2 0x2F95 JUMP JUMPDEST SWAP1 POP SWAP2 SWAP1 POP JUMP JUMPDEST PUSH2 0x2FCE DUP2 PUSH2 0x2FB4 JUMP JUMPDEST DUP2 EQ PUSH2 0x2FD8 JUMPI PUSH0 PUSH0 REVERT JUMPDEST POP JUMP JUMPDEST PUSH0 DUP2 CALLDATALOAD SWAP1 POP PUSH2 0x2FE9 DUP2 PUSH2 0x2FC5 JUMP JUMPDEST SWAP3 SWAP2 POP POP JUMP JUMPDEST PUSH0 DUP2 SWAP1 POP SWAP2 SWAP1 POP JUMP JUMPDEST PUSH2 0x3001 DUP2 PUSH2 0x2FEF JUMP JUMPDEST DUP2 EQ PUSH2 0x300B JUMPI PUSH0 PUSH0 REVERT JUMPDEST POP JUMP JUMPDEST PUSH0 DUP2 CALLDATALOAD SWAP1 POP PUSH2 0x301C DUP2 PUSH2 0x2FF8 JUMP JUMPDEST SWAP3 SWAP2 POP POP JUMP JUMPDEST PUSH0 PUSH0 REVERT JUMPDEST PUSH0 PUSH0 REVERT JUMPDEST PUSH0 PUSH0 REVERT JUMPDEST PUSH0 PUSH0 DUP4 PUSH1 0x1F DUP5 ADD SLT PUSH2 0x3043 JUMPI PUSH2 0x3042 PUSH2 0x3022 JUMP JUMPDEST JUMPDEST DUP3 CALLDATALOAD SWAP1 POP PUSH8 0xFFFFFFFFFFFFFFFF DUP2 GT ISZERO PUSH2 0x3060 JUMPI PUSH2 0x305F PUSH2 0x3026 JUMP JUMPDEST JUMPDEST PUSH1 0x20 DUP4 ADD SWAP2 POP DUP4 PUSH1 0x1 DUP3 MUL DUP4 ADD GT ISZERO PUSH2 0x307C JUMPI PUSH2 0x307B PUSH2 0x302A JUMP JUMPDEST JUMPDEST SWAP3 POP SWAP3 SWAP1 POP JUMP JUMPDEST PUSH0 PUSH0 PUSH0 PUSH0 PUSH0 PUSH0 PUSH0 PUSH0 PUSH1 0xC0 DUP10 DUP12 SUB SLT ISZERO PUSH2 0x309F JUMPI PUSH2 0x309E PUSH2 0x2F8D JUMP JUMPDEST JUMPDEST PUSH0 PUSH2 0x30AC DUP12 DUP3 DUP13 ADD PUSH2 0x2FDB JUMP JUMPDEST SWAP9 POP POP PUSH1 0x20 PUSH2 0x30BD DUP12 DUP3 DUP13 ADD PUSH2 0x2FDB JUMP JUMPDEST SWAP8 POP POP PUSH1 0x40 PUSH2 0x30CE DUP12 DUP3 DUP13 ADD PUSH2 0x2FDB JUMP JUMPDEST SWAP7 POP POP PUSH1 0x60 PUSH2 0x30DF DUP12 DUP3 DUP13 ADD PUSH2 0x300E JUMP JUMPDEST SWAP6 POP POP PUSH1 0x80 DUP10 ADD CALLDATALOAD PUSH8 0xFFFFFFFFFFFFFFFF DUP2 GT ISZERO PUSH2 0x3100 JUMPI PUSH2 0x30FF PUSH2 0x2F91 JUMP JUMPDEST JUMPDEST PUSH2 0x310C DUP12 DUP3 DUP13 ADD PUSH2 0x302E JUMP JUMPDEST SWAP5 POP SWAP5 POP POP PUSH1 0xA0 DUP10 ADD CALLDATALOAD PUSH8 0xFFFFFFFFFFFFFFFF DUP2 GT ISZERO PUSH2 0x312F JUMPI PUSH2 0x312E PUSH2 0x2F91 JUMP JUMPDEST JUMPDEST PUSH2 0x313B DUP12 DUP3 DUP13 ADD PUSH2 0x302E JUMP JUMPDEST SWAP3 POP SWAP3 POP POP SWAP3 SWAP6 SWAP9 POP SWAP3 SWAP6 SWAP9 SWAP1 SWAP4 SWAP7 POP JUMP JUMPDEST PUSH0 PUSH32 0xFFFFFFFF00000000000000000000000000000000000000000000000000000000 DUP3 AND SWAP1 POP SWAP2 SWAP1 POP JUMP JUMPDEST PUSH2 0x3181 DUP2 PUSH2 0x314D JUMP JUMPDEST DUP2 EQ PUSH2 0x318B JUMPI PUSH0 PUSH0 REVERT JUMPDEST POP JUMP JUMPDEST PUSH0 DUP2 CALLDATALOAD SWAP1 POP PUSH2 0x319C DUP2 PUSH2 0x3178 JUMP JUMPDEST SWAP3 SWAP2 POP POP JUMP JUMPDEST PUSH0 PUSH1 0x20 DUP3 DUP5 SUB SLT ISZERO PUSH2 0x31B7 JUMPI PUSH2 0x31B6 PUSH2 0x2F8D JUMP JUMPDEST JUMPDEST PUSH0 PUSH2 0x31C4 DUP5 DUP3 DUP6 ADD PUSH2 0x318E JUMP JUMPDEST SWAP2 POP POP SWAP3 SWAP2 POP POP JUMP JUMPDEST PUSH0 DUP2 ISZERO ISZERO SWAP1 POP SWAP2 SWAP1 POP JUMP JUMPDEST PUSH2 0x31E1 DUP2 PUSH2 0x31CD JUMP JUMPDEST DUP3 MSTORE POP POP JUMP JUMPDEST PUSH0 PUSH1 0x20 DUP3 ADD SWAP1 POP PUSH2 0x31FA PUSH0 DUP4 ADD DUP5 PUSH2 0x31D8 JUMP JUMPDEST SWAP3 SWAP2 POP POP JUMP JUMPDEST PUSH2 0x3209 DUP2 PUSH2 0x2FB4 JUMP JUMPDEST DUP3 MSTORE POP POP JUMP JUMPDEST PUSH0 PUSH1 0x20 DUP3 ADD SWAP1 POP PUSH2 0x3222 PUSH0 DUP4 ADD DUP5 PUSH2 0x3200 JUMP JUMPDEST SWAP3 SWAP2 POP POP JUMP JUMPDEST PUSH0 PUSH0 PUSH1 0x40 DUP4 DUP6 SUB SLT ISZERO PUSH2 0x323E JUMPI PUSH2 0x323D PUSH2 0x2F8D JUMP JUMPDEST JUMPDEST PUSH0 PUSH2 0x324B DUP6 DUP3 DUP7 ADD PUSH2 0x2FDB JUMP JUMPDEST SWAP3 POP POP PUSH1 0x20 PUSH2 0x325C DUP6 DUP3 DUP7 ADD PUSH2 0x300E JUMP JUMPDEST SWAP2 POP POP SWAP3 POP SWAP3 SWAP1 POP JUMP JUMPDEST PUSH0 PUSH0 REVERT JUMPDEST PUSH0 PUSH1 0x1F NOT PUSH1 0x1F DUP4 ADD AND SWAP1 POP SWAP2 SWAP1 POP JUMP JUMPDEST PUSH32 0x4E487B7100000000000000000000000000000000000000000000000000000000 PUSH0 MSTORE PUSH1 0x41 PUSH1 0x4 MSTORE PUSH1 0x24 PUSH0 REVERT JUMPDEST PUSH2 0x32B0 DUP3 PUSH2 0x326A JUMP JUMPDEST DUP2 ADD DUP2 DUP2 LT PUSH8 0xFFFFFFFFFFFFFFFF DUP3 GT OR ISZERO PUSH2 0x32CF JUMPI PUSH2 0x32CE PUSH2 0x327A JUMP JUMPDEST JUMPDEST DUP1 PUSH1 0x40 MSTORE POP POP POP JUMP JUMPDEST PUSH0 PUSH2 0x32E1 PUSH2 0x2F84 JUMP JUMPDEST SWAP1 POP PUSH2 0x32ED DUP3 DUP3 PUSH2 0x32A7 JUMP JUMPDEST SWAP2 SWAP1 POP JUMP JUMPDEST PUSH0 PUSH8 0xFFFFFFFFFFFFFFFF DUP3 GT ISZERO PUSH2 0x330C JUMPI PUSH2 0x330B PUSH2 0x327A JUMP JUMPDEST JUMPDEST PUSH2 0x3315 DUP3 PUSH2 0x326A JUMP JUMPDEST SWAP1 POP PUSH1 0x20 DUP2 ADD SWAP1 POP SWAP2 SWAP1 POP JUMP JUMPDEST DUP3 DUP2 DUP4 CALLDATACOPY PUSH0 DUP4 DUP4 ADD MSTORE POP POP POP JUMP JUMPDEST PUSH0 PUSH2 0x3342 PUSH2 0x333D DUP5 PUSH2 0x32F2 JUMP JUMPDEST PUSH2 0x32D8 JUMP JUMPDEST SWAP1 POP DUP3 DUP2 MSTORE PUSH1 0x20 DUP2 ADD DUP5 DUP5 DUP5 ADD GT ISZERO PUSH2 0x335E JUMPI PUSH2 0x335D PUSH2 0x3266 JUMP JUMPDEST JUMPDEST PUSH2 0x3369 DUP5 DUP3 DUP6 PUSH2 0x3322 JUMP JUMPDEST POP SWAP4 SWAP3 POP POP POP JUMP JUMPDEST PUSH0 DUP3 PUSH1 0x1F DUP4 ADD SLT PUSH2 0x3385 JUMPI PUSH2 0x3384 PUSH2 0x3022 JUMP JUMPDEST JUMPDEST DUP2 CALLDATALOAD PUSH2 0x3395 DUP5 DUP3 PUSH1 0x20 DUP7 ADD PUSH2 0x3330 JUMP JUMPDEST SWAP2 POP POP SWAP3 SWAP2 POP POP JUMP JUMPDEST PUSH0 PUSH1 0x20 DUP3 DUP5 SUB SLT ISZERO PUSH2 0x33B3 JUMPI PUSH2 0x33B2 PUSH2 0x2F8D JUMP JUMPDEST JUMPDEST PUSH0 DUP3 ADD CALLDATALOAD PUSH8 0xFFFFFFFFFFFFFFFF DUP2 GT ISZERO PUSH2 0x33D0 JUMPI PUSH2 0x33CF PUSH2 0x2F91 JUMP JUMPDEST JUMPDEST PUSH2 0x33DC DUP5 DUP3 DUP6 ADD PUSH2 0x3371 JUMP JUMPDEST SWAP2 POP POP SWAP3 SWAP2 POP POP JUMP JUMPDEST PUSH0 DUP2 SWAP1 POP SWAP2 SWAP1 POP JUMP JUMPDEST PUSH2 0x33F7 DUP2 PUSH2 0x33E5 JUMP JUMPDEST DUP3 MSTORE POP POP JUMP JUMPDEST PUSH0 PUSH1 0x20 DUP3 ADD SWAP1 POP PUSH2 0x3410 PUSH0 DUP4 ADD DUP5 PUSH2 0x33EE JUMP JUMPDEST SWAP3 SWAP2 POP POP JUMP JUMPDEST PUSH0 PUSH0 PUSH0 PUSH0 PUSH0 PUSH1 0x80 DUP7 DUP9 SUB SLT ISZERO PUSH2 0x342F JUMPI PUSH2 0x342E PUSH2 0x2F8D JUMP JUMPDEST JUMPDEST PUSH0 PUSH2 0x343C DUP9 DUP3 DUP10 ADD PUSH2 0x2FDB JUMP JUMPDEST SWAP6 POP POP PUSH1 0x20 PUSH2 0x344D DUP9 DUP3 DUP10 ADD PUSH2 0x2FDB JUMP JUMPDEST SWAP5 POP POP PUSH1 0x40 PUSH2 0x345E DUP9 DUP3 DUP10 ADD PUSH2 0x300E JUMP JUMPDEST SWAP4 POP POP PUSH1 0x60 DUP7 ADD CALLDATALOAD PUSH8 0xFFFFFFFFFFFFFFFF DUP2 GT ISZERO PUSH2 0x347F JUMPI PUSH2 0x347E PUSH2 0x2F91 JUMP JUMPDEST JUMPDEST PUSH2 0x348B DUP9 DUP3 DUP10 ADD PUSH2 0x302E JUMP JUMPDEST SWAP3 POP SWAP3 POP POP SWAP3 SWAP6 POP SWAP3 SWAP6 SWAP1 SWAP4 POP JUMP JUMPDEST PUSH2 0x34A3 DUP2 PUSH2 0x314D JUMP JUMPDEST DUP3 MSTORE POP POP JUMP JUMPDEST PUSH0 PUSH1 0x20 DUP3 ADD SWAP1 POP PUSH2 0x34BC PUSH0 DUP4 ADD DUP5 PUSH2 0x349A JUMP JUMPDEST SWAP3 SWAP2 POP POP JUMP JUMPDEST PUSH2 0x34CB DUP2 PUSH2 0x33E5 JUMP JUMPDEST DUP2 EQ PUSH2 0x34D5 JUMPI PUSH0 PUSH0 REVERT JUMPDEST POP JUMP JUMPDEST PUSH0 DUP2 CALLDATALOAD SWAP1 POP PUSH2 0x34E6 DUP2 PUSH2 0x34C2 JUMP JUMPDEST SWAP3 SWAP2 POP POP JUMP JUMPDEST PUSH0 PUSH0 PUSH0 PUSH1 0x40 DUP5 DUP7 SUB SLT ISZERO PUSH2 0x3503 JUMPI PUSH2 0x3502 PUSH2 0x2F8D JUMP JUMPDEST JUMPDEST PUSH0 PUSH2 0x3510 DUP7 DUP3 DUP8 ADD PUSH2 0x34D8 JUMP JUMPDEST SWAP4 POP POP PUSH1 0x20 DUP5 ADD CALLDATALOAD PUSH8 0xFFFFFFFFFFFFFFFF DUP2 GT ISZERO PUSH2 0x3531 JUMPI PUSH2 0x3530 PUSH2 0x2F91 JUMP JUMPDEST JUMPDEST PUSH2 0x353D DUP7 DUP3 DUP8 ADD PUSH2 0x302E JUMP JUMPDEST SWAP3 POP SWAP3 POP POP SWAP3 POP SWAP3 POP SWAP3 JUMP JUMPDEST PUSH0 PUSH0 REVERT JUMPDEST PUSH0 PUSH2 0x120 DUP3 DUP5 SUB SLT ISZERO PUSH2 0x3563 JUMPI PUSH2 0x3562 PUSH2 0x3549 JUMP JUMPDEST JUMPDEST DUP2 SWAP1 POP SWAP3 SWAP2 POP POP JUMP JUMPDEST PUSH0 PUSH0 PUSH0 PUSH1 0x60 DUP5 DUP7 SUB SLT ISZERO PUSH2 0x3583 JUMPI PUSH2 0x3582 PUSH2 0x2F8D JUMP JUMPDEST JUMPDEST PUSH0 DUP5 ADD CALLDATALOAD PUSH8 0xFFFFFFFFFFFFFFFF DUP2 GT ISZERO PUSH2 0x35A0 JUMPI PUSH2 0x359F PUSH2 0x2F91 JUMP JUMPDEST JUMPDEST PUSH2 0x35AC DUP7 DUP3 DUP8 ADD PUSH2 0x354D JUMP JUMPDEST SWAP4 POP POP PUSH1 0x20 PUSH2 0x35BD DUP7 DUP3 DUP8 ADD PUSH2 0x34D8 JUMP JUMPDEST SWAP3 POP POP PUSH1 0x40 PUSH2 0x35CE DUP7 DUP3 DUP8 ADD PUSH2 0x300E JUMP JUMPDEST SWAP2 POP POP SWAP3 POP SWAP3 POP SWAP3 JUMP JUMPDEST PUSH2 0x35E1 DUP2 PUSH2 0x2FEF JUMP JUMPDEST DUP3 MSTORE POP POP JUMP JUMPDEST PUSH0 PUSH1 0x20 DUP3 ADD SWAP1 POP PUSH2 0x35FA PUSH0 DUP4 ADD DUP5 PUSH2 0x35D8 JUMP JUMPDEST SWAP3 SWAP2 POP POP JUMP JUMPDEST PUSH0 PUSH2 0x360A DUP3 PUSH2 0x2F95 JUMP JUMPDEST SWAP1 POP SWAP2 SWAP1 POP JUMP JUMPDEST PUSH0 PUSH2 0x361B DUP3 PUSH2 0x3600 JUMP JUMPDEST SWAP1 POP SWAP2 SWAP1 POP JUMP JUMPDEST PUSH2 0x362B DUP2 PUSH2 0x3611 JUMP JUMPDEST DUP2 EQ PUSH2 0x3635 JUMPI PUSH0 PUSH0 REVERT JUMPDEST POP JUMP JUMPDEST PUSH0 DUP2 CALLDATALOAD SWAP1 POP PUSH2 0x3646 DUP2 PUSH2 0x3622 JUMP JUMPDEST SWAP3 SWAP2 POP POP JUMP JUMPDEST PUSH0 PUSH0 PUSH1 0x40 DUP4 DUP6 SUB SLT ISZERO PUSH2 0x3662 JUMPI PUSH2 0x3661 PUSH2 0x2F8D JUMP JUMPDEST JUMPDEST PUSH0 PUSH2 0x366F DUP6 DUP3 DUP7 ADD PUSH2 0x3638 JUMP JUMPDEST SWAP3 POP POP PUSH1 0x20 DUP4 ADD CALLDATALOAD PUSH8 0xFFFFFFFFFFFFFFFF DUP2 GT ISZERO PUSH2 0x3690 JUMPI PUSH2 0x368F PUSH2 0x2F91 JUMP JUMPDEST JUMPDEST PUSH2 0x369C DUP6 DUP3 DUP7 ADD PUSH2 0x3371 JUMP JUMPDEST SWAP2 POP POP SWAP3 POP SWAP3 SWAP1 POP JUMP JUMPDEST PUSH0 DUP2 MLOAD SWAP1 POP SWAP2 SWAP1 POP JUMP JUMPDEST PUSH0 DUP3 DUP3 MSTORE PUSH1 0x20 DUP3 ADD SWAP1 POP SWAP3 SWAP2 POP POP JUMP JUMPDEST DUP3 DUP2 DUP4 MCOPY PUSH0 DUP4 DUP4 ADD MSTORE POP POP POP JUMP JUMPDEST PUSH0 PUSH2 0x36D8 DUP3 PUSH2 0x36A6 JUMP JUMPDEST PUSH2 0x36E2 DUP2 DUP6 PUSH2 0x36B0 JUMP JUMPDEST SWAP4 POP PUSH2 0x36F2 DUP2 DUP6 PUSH1 0x20 DUP7 ADD PUSH2 0x36C0 JUMP JUMPDEST PUSH2 0x36FB DUP2 PUSH2 0x326A JUMP JUMPDEST DUP5 ADD SWAP2 POP POP SWAP3 SWAP2 POP POP JUMP JUMPDEST PUSH0 PUSH1 0x20 DUP3 ADD SWAP1 POP DUP2 DUP2 SUB PUSH0 DUP4 ADD MSTORE PUSH2 0x371E DUP2 DUP5 PUSH2 0x36CE JUMP JUMPDEST SWAP1 POP SWAP3 SWAP2 POP POP JUMP JUMPDEST PUSH0 PUSH1 0xFF DUP3 AND SWAP1 POP SWAP2 SWAP1 POP JUMP JUMPDEST PUSH2 0x373B DUP2 PUSH2 0x3726 JUMP JUMPDEST DUP2 EQ PUSH2 0x3745 JUMPI PUSH0 PUSH0 REVERT JUMPDEST POP JUMP JUMPDEST PUSH0 DUP2 CALLDATALOAD SWAP1 POP PUSH2 0x3756 DUP2 PUSH2 0x3732 JUMP JUMPDEST SWAP3 SWAP2 POP POP JUMP JUMPDEST PUSH0 PUSH0 PUSH0 PUSH0 PUSH1 0x80 DUP6 DUP8 SUB SLT ISZERO PUSH2 0x3774 JUMPI PUSH2 0x3773 PUSH2 0x2F8D JUMP JUMPDEST JUMPDEST PUSH0 PUSH2 0x3781 DUP8 DUP3 DUP9 ADD PUSH2 0x2FDB JUMP JUMPDEST SWAP5 POP POP PUSH1 0x20 PUSH2 0x3792 DUP8 DUP3 DUP9 ADD PUSH2 0x300E JUMP JUMPDEST SWAP4 POP POP PUSH1 0x40 DUP6 ADD CALLDATALOAD PUSH8 0xFFFFFFFFFFFFFFFF DUP2 GT ISZERO PUSH2 0x37B3 JUMPI PUSH2 0x37B2 PUSH2 0x2F91 JUMP JUMPDEST JUMPDEST PUSH2 0x37BF DUP8 DUP3 DUP9 ADD PUSH2 0x3371 JUMP JUMPDEST SWAP3 POP POP PUSH1 0x60 PUSH2 0x37D0 DUP8 DUP3 DUP9 ADD PUSH2 0x3748 JUMP JUMPDEST SWAP2 POP POP SWAP3 SWAP6 SWAP2 SWAP5 POP SWAP3 POP JUMP JUMPDEST PUSH0 PUSH1 0x20 DUP3 DUP5 SUB SLT ISZERO PUSH2 0x37F1 JUMPI PUSH2 0x37F0 PUSH2 0x2F8D JUMP JUMPDEST JUMPDEST PUSH0 PUSH2 0x37FE DUP5 DUP3 DUP6 ADD PUSH2 0x300E JUMP JUMPDEST SWAP2 POP POP SWAP3 SWAP2 POP POP JUMP JUMPDEST PUSH0 DUP2 SWAP1 POP SWAP2 SWAP1 POP JUMP JUMPDEST PUSH0 PUSH2 0x382A PUSH2 0x3825 PUSH2 0x3820 DUP5 PUSH2 0x2F95 JUMP JUMPDEST PUSH2 0x3807 JUMP JUMPDEST PUSH2 0x2F95 JUMP JUMPDEST SWAP1 POP SWAP2 SWAP1 POP JUMP JUMPDEST PUSH0 PUSH2 0x383B DUP3 PUSH2 0x3810 JUMP JUMPDEST SWAP1 POP SWAP2 SWAP1 POP JUMP JUMPDEST PUSH0 PUSH2 0x384C DUP3 PUSH2 0x3831 JUMP JUMPDEST SWAP1 POP SWAP2 SWAP1 POP JUMP JUMPDEST PUSH2 0x385C DUP2 PUSH2 0x3842 JUMP JUMPDEST DUP3 MSTORE POP POP JUMP JUMPDEST PUSH0 PUSH1 0x20 DUP3 ADD SWAP1 POP PUSH2 0x3875 PUSH0 DUP4 ADD DUP5 PUSH2 0x3853 JUMP JUMPDEST SWAP3 SWAP2 POP POP JUMP JUMPDEST PUSH0 DUP2 MLOAD SWAP1 POP SWAP2 SWAP1 POP JUMP JUMPDEST PUSH0 DUP3 DUP3 MSTORE PUSH1 0x20 DUP3 ADD SWAP1 POP SWAP3 SWAP2 POP POP JUMP JUMPDEST PUSH0 PUSH2 0x389F DUP3 PUSH2 0x387B JUMP JUMPDEST PUSH2 0x38A9 DUP2 DUP6 PUSH2 0x3885 JUMP JUMPDEST SWAP4 POP PUSH2 0x38B9 DUP2 DUP6 PUSH1 0x20 DUP7 ADD PUSH2 0x36C0 JUMP JUMPDEST PUSH2 0x38C2 DUP2 PUSH2 0x326A JUMP JUMPDEST DUP5 ADD SWAP2 POP POP SWAP3 SWAP2 POP POP JUMP JUMPDEST PUSH0 PUSH1 0x20 DUP3 ADD SWAP1 POP DUP2 DUP2 SUB PUSH0 DUP4 ADD MSTORE PUSH2 0x38E5 DUP2 DUP5 PUSH2 0x3895 JUMP JUMPDEST SWAP1 POP SWAP3 SWAP2 POP POP JUMP JUMPDEST PUSH0 DUP2 MLOAD SWAP1 POP SWAP2 SWAP1 POP JUMP JUMPDEST PUSH0 DUP3 DUP3 MSTORE PUSH1 0x20 DUP3 ADD SWAP1 POP SWAP3 SWAP2 POP POP JUMP JUMPDEST PUSH0 DUP2 SWAP1 POP PUSH1 0x20 DUP3 ADD SWAP1 POP SWAP2 SWAP1 POP JUMP JUMPDEST PUSH2 0x391F DUP2 PUSH2 0x2FB4 JUMP JUMPDEST DUP3 MSTORE POP POP JUMP JUMPDEST PUSH0 PUSH2 0x3930 DUP4 DUP4 PUSH2 0x3916 JUMP JUMPDEST PUSH1 0x20 DUP4 ADD SWAP1 POP SWAP3 SWAP2 POP POP JUMP JUMPDEST PUSH0 PUSH1 0x20 DUP3 ADD SWAP1 POP SWAP2 SWAP1 POP JUMP JUMPDEST PUSH0 PUSH2 0x3952 DUP3 PUSH2 0x38ED JUMP JUMPDEST PUSH2 0x395C DUP2 DUP6 PUSH2 0x38F7 JUMP JUMPDEST SWAP4 POP PUSH2 0x3967 DUP4 PUSH2 0x3907 JUMP JUMPDEST DUP1 PUSH0 JUMPDEST DUP4 DUP2 LT ISZERO PUSH2 0x3997 JUMPI DUP2 MLOAD PUSH2 0x397E DUP9 DUP3 PUSH2 0x3925 JUMP JUMPDEST SWAP8 POP PUSH2 0x3989 DUP4 PUSH2 0x393C JUMP JUMPDEST SWAP3 POP POP PUSH1 0x1 DUP2 ADD SWAP1 POP PUSH2 0x396A JUMP JUMPDEST POP DUP6 SWAP4 POP POP POP POP SWAP3 SWAP2 POP POP JUMP JUMPDEST PUSH0 PUSH1 0x20 DUP3 ADD SWAP1 POP DUP2 DUP2 SUB PUSH0 DUP4 ADD MSTORE PUSH2 0x39BC DUP2 DUP5 PUSH2 0x3948 JUMP JUMPDEST SWAP1 POP SWAP3 SWAP2 POP POP JUMP JUMPDEST PUSH0 PUSH1 0x20 DUP3 DUP5 SUB SLT ISZERO PUSH2 0x39D9 JUMPI PUSH2 0x39D8 PUSH2 0x2F8D JUMP JUMPDEST JUMPDEST PUSH0 DUP3 ADD CALLDATALOAD PUSH8 0xFFFFFFFFFFFFFFFF DUP2 GT ISZERO PUSH2 0x39F6 JUMPI PUSH2 0x39F5 PUSH2 0x2F91 JUMP JUMPDEST JUMPDEST PUSH2 0x3A02 DUP5 DUP3 DUP6 ADD PUSH2 0x354D JUMP JUMPDEST SWAP2 POP POP SWAP3 SWAP2 POP POP JUMP JUMPDEST PUSH0 PUSH0 DUP4 PUSH1 0x1F DUP5 ADD SLT PUSH2 0x3A20 JUMPI PUSH2 0x3A1F PUSH2 0x3022 JUMP JUMPDEST JUMPDEST DUP3 CALLDATALOAD SWAP1 POP PUSH8 0xFFFFFFFFFFFFFFFF DUP2 GT ISZERO PUSH2 0x3A3D JUMPI PUSH2 0x3A3C PUSH2 0x3026 JUMP JUMPDEST JUMPDEST PUSH1 0x20 DUP4 ADD SWAP2 POP DUP4 PUSH1 0x20 DUP3 MUL DUP4 ADD GT ISZERO PUSH2 0x3A59 JUMPI PUSH2 0x3A58 PUSH2 0x302A JUMP JUMPDEST JUMPDEST SWAP3 POP SWAP3 SWAP1 POP JUMP JUMPDEST PUSH0 PUSH0 PUSH0 PUSH0 PUSH0 PUSH0 PUSH0 PUSH0 PUSH1 0xA0 DUP10 DUP12 SUB SLT ISZERO PUSH2 0x3A7C JUMPI PUSH2 0x3A7B PUSH2 0x2F8D JUMP JUMPDEST JUMPDEST PUSH0 PUSH2 0x3A89 DUP12 DUP3 DUP13 ADD PUSH2 0x2FDB JUMP JUMPDEST SWAP9 POP POP PUSH1 0x20 PUSH2 0x3A9A DUP12 DUP3 DUP13 ADD PUSH2 0x2FDB JUMP JUMPDEST SWAP8 POP POP PUSH1 0x40 DUP10 ADD CALLDATALOAD PUSH8 0xFFFFFFFFFFFFFFFF DUP2 GT ISZERO PUSH2 0x3ABB JUMPI PUSH2 0x3ABA PUSH2 0x2F91 JUMP JUMPDEST JUMPDEST PUSH2 0x3AC7 DUP12 DUP3 DUP13 ADD PUSH2 0x3A0B JUMP JUMPDEST SWAP7 POP SWAP7 POP POP PUSH1 0x60 DUP10 ADD CALLDATALOAD PUSH8 0xFFFFFFFFFFFFFFFF DUP2 GT ISZERO PUSH2 0x3AEA JUMPI PUSH2 0x3AE9 PUSH2 0x2F91 JUMP JUMPDEST JUMPDEST PUSH2 0x3AF6 DUP12 DUP3 DUP13 ADD PUSH2 0x3A0B JUMP JUMPDEST SWAP5 POP SWAP5 POP POP PUSH1 0x80 DUP10 ADD CALLDATALOAD PUSH8 0xFFFFFFFFFFFFFFFF DUP2 GT ISZERO PUSH2 0x3B19 JUMPI PUSH2 0x3B18 PUSH2 0x2F91 JUMP JUMPDEST JUMPDEST PUSH2 0x3B25 DUP12 DUP3 DUP13 ADD PUSH2 0x302E JUMP JUMPDEST SWAP3 POP SWAP3 POP POP SWAP3 SWAP6 SWAP9 POP SWAP3 SWAP6 SWAP9 SWAP1 SWAP4 SWAP7 POP JUMP JUMPDEST PUSH0 PUSH0 PUSH0 PUSH1 0x40 DUP5 DUP7 SUB SLT ISZERO PUSH2 0x3B4E JUMPI PUSH2 0x3B4D PUSH2 0x2F8D JUMP JUMPDEST JUMPDEST PUSH0 PUSH2 0x3B5B DUP7 DUP3 DUP8 ADD PUSH2 0x2FDB JUMP JUMPDEST SWAP4 POP POP PUSH1 0x20 DUP5 ADD CALLDATALOAD PUSH8 0xFFFFFFFFFFFFFFFF DUP2 GT ISZERO PUSH2 0x3B7C JUMPI PUSH2 0x3B7B PUSH2 0x2F91 JUMP JUMPDEST JUMPDEST PUSH2 0x3B88 DUP7 DUP3 DUP8 ADD PUSH2 0x302E JUMP JUMPDEST SWAP3 POP SWAP3 POP POP SWAP3 POP SWAP3 POP SWAP3 JUMP JUMPDEST PUSH1 0x2 DUP2 LT PUSH2 0x3BA0 JUMPI PUSH0 PUSH0 REVERT JUMPDEST POP JUMP JUMPDEST PUSH0 DUP2 CALLDATALOAD SWAP1 POP PUSH2 0x3BB1 DUP2 PUSH2 0x3B94 JUMP JUMPDEST SWAP3 SWAP2 POP POP JUMP JUMPDEST PUSH0 PUSH0 PUSH0 PUSH0 PUSH0 PUSH0 PUSH0 PUSH0 PUSH0 PUSH0 PUSH0 PUSH2 0x140 DUP13 DUP15 SUB SLT ISZERO PUSH2 0x3BD7 JUMPI PUSH2 0x3BD6 PUSH2 0x2F8D JUMP JUMPDEST JUMPDEST PUSH0 PUSH2 0x3BE4 DUP15 DUP3 DUP16 ADD PUSH2 0x2FDB JUMP JUMPDEST SWAP12 POP POP PUSH1 0x20 PUSH2 0x3BF5 DUP15 DUP3 DUP16 ADD PUSH2 0x300E JUMP JUMPDEST SWAP11 POP POP PUSH1 0x40 DUP13 ADD CALLDATALOAD PUSH8 0xFFFFFFFFFFFFFFFF DUP2 GT ISZERO PUSH2 0x3C16 JUMPI PUSH2 0x3C15 PUSH2 0x2F91 JUMP JUMPDEST JUMPDEST PUSH2 0x3C22 DUP15 DUP3 DUP16 ADD PUSH2 0x302E JUMP JUMPDEST SWAP10 POP SWAP10 POP POP PUSH1 0x60 PUSH2 0x3C35 DUP15 DUP3 DUP16 ADD PUSH2 0x3BA3 JUMP JUMPDEST SWAP8 POP POP PUSH1 0x80 PUSH2 0x3C46 DUP15 DUP3 DUP16 ADD PUSH2 0x300E JUMP JUMPDEST SWAP7 POP POP PUSH1 0xA0 PUSH2 0x3C57 DUP15 DUP3 DUP16 ADD PUSH2 0x300E JUMP JUMPDEST SWAP6 POP POP PUSH1 0xC0 PUSH2 0x3C68 DUP15 DUP3 DUP16 ADD PUSH2 0x300E JUMP JUMPDEST SWAP5 POP POP PUSH1 0xE0 PUSH2 0x3C79 DUP15 DUP3 DUP16 ADD PUSH2 0x2FDB JUMP JUMPDEST SWAP4 POP POP PUSH2 0x100 PUSH2 0x3C8B DUP15 DUP3 DUP16 ADD PUSH2 0x2FDB JUMP JUMPDEST SWAP3 POP POP PUSH2 0x120 PUSH2 0x3C9D DUP15 DUP3 DUP16 ADD PUSH2 0x300E JUMP JUMPDEST SWAP2 POP POP SWAP3 SWAP6 SWAP9 SWAP12 POP SWAP3 SWAP6 SWAP9 SWAP12 SWAP1 SWAP4 SWAP7 SWAP10 POP JUMP JUMPDEST PUSH0 PUSH0 PUSH0 PUSH0 PUSH0 PUSH0 PUSH1 0xA0 DUP8 DUP10 SUB SLT ISZERO PUSH2 0x3CCA JUMPI PUSH2 0x3CC9 PUSH2 0x2F8D JUMP JUMPDEST JUMPDEST PUSH0 PUSH2 0x3CD7 DUP10 DUP3 DUP11 ADD PUSH2 0x2FDB JUMP JUMPDEST SWAP7 POP POP PUSH1 0x20 PUSH2 0x3CE8 DUP10 DUP3 DUP11 ADD PUSH2 0x2FDB JUMP JUMPDEST SWAP6 POP POP PUSH1 0x40 PUSH2 0x3CF9 DUP10 DUP3 DUP11 ADD PUSH2 0x300E JUMP JUMPDEST SWAP5 POP POP PUSH1 0x60 PUSH2 0x3D0A DUP10 DUP3 DUP11 ADD PUSH2 0x300E JUMP JUMPDEST SWAP4 POP POP PUSH1 0x80 DUP8 ADD CALLDATALOAD PUSH8 0xFFFFFFFFFFFFFFFF DUP2 GT ISZERO PUSH2 0x3D2B JUMPI PUSH2 0x3D2A PUSH2 0x2F91 JUMP JUMPDEST JUMPDEST PUSH2 0x3D37 DUP10 DUP3 DUP11 ADD PUSH2 0x302E JUMP JUMPDEST SWAP3 POP SWAP3 POP POP SWAP3 SWAP6 POP SWAP3 SWAP6 POP SWAP3 SWAP6 JUMP JUMPDEST PUSH0 PUSH0 PUSH0 PUSH0 PUSH1 0x80 DUP6 DUP8 SUB SLT ISZERO PUSH2 0x3D5E JUMPI PUSH2 0x3D5D PUSH2 0x2F8D JUMP JUMPDEST JUMPDEST PUSH0 PUSH2 0x3D6B DUP8 DUP3 DUP9 ADD PUSH2 0x2FDB JUMP JUMPDEST SWAP5 POP POP PUSH1 0x20 PUSH2 0x3D7C DUP8 DUP3 DUP9 ADD PUSH2 0x2FDB JUMP JUMPDEST SWAP4 POP POP PUSH1 0x40 PUSH2 0x3D8D DUP8 DUP3 DUP9 ADD PUSH2 0x2FDB JUMP JUMPDEST SWAP3 POP POP PUSH1 0x60 PUSH2 0x3D9E DUP8 DUP3 DUP9 ADD PUSH2 0x2FDB JUMP JUMPDEST SWAP2 POP POP SWAP3 SWAP6 SWAP2 SWAP5 POP SWAP3 POP JUMP JUMPDEST PUSH0 PUSH1 0x40 DUP3 ADD SWAP1 POP PUSH2 0x3DBD PUSH0 DUP4 ADD DUP6 PUSH2 0x3200 JUMP JUMPDEST PUSH2 0x3DCA PUSH1 0x20 DUP4 ADD DUP5 PUSH2 0x3200 JUMP JUMPDEST SWAP4 SWAP3 POP POP POP JUMP JUMPDEST PUSH0 DUP2 MLOAD SWAP1 POP PUSH2 0x3DDF DUP2 PUSH2 0x2FF8 JUMP JUMPDEST SWAP3 SWAP2 POP POP JUMP JUMPDEST PUSH0 PUSH1 0x20 DUP3 DUP5 SUB SLT ISZERO PUSH2 0x3DFA JUMPI PUSH2 0x3DF9 PUSH2 0x2F8D JUMP JUMPDEST JUMPDEST PUSH0 PUSH2 0x3E07 DUP5 DUP3 DUP6 ADD PUSH2 0x3DD1 JUMP JUMPDEST SWAP2 POP POP SWAP3 SWAP2 POP POP JUMP JUMPDEST PUSH32 0x4E487B7100000000000000000000000000000000000000000000000000000000 PUSH0 MSTORE PUSH1 0x11 PUSH1 0x4 MSTORE PUSH1 0x24 PUSH0 REVERT JUMPDEST PUSH0 PUSH2 0x3E47 DUP3 PUSH2 0x2FEF JUMP JUMPDEST SWAP2 POP PUSH2 0x3E52 DUP4 PUSH2 0x2FEF JUMP JUMPDEST SWAP3 POP DUP3 DUP3 ADD SWAP1 POP DUP1 DUP3 GT ISZERO PUSH2 0x3E6A JUMPI PUSH2 0x3E69 PUSH2 0x3E10 JUMP JUMPDEST JUMPDEST SWAP3 SWAP2 POP POP JUMP JUMPDEST PUSH0 PUSH1 0x40 DUP3 ADD SWAP1 POP PUSH2 0x3E83 PUSH0 DUP4 ADD DUP6 PUSH2 0x3200 JUMP JUMPDEST PUSH2 0x3E90 PUSH1 0x20 DUP4 ADD DUP5 PUSH2 0x35D8 JUMP JUMPDEST SWAP4 SWAP3 POP POP POP JUMP JUMPDEST PUSH2 0x3EA0 DUP2 PUSH2 0x31CD JUMP JUMPDEST DUP2 EQ PUSH2 0x3EAA JUMPI PUSH0 PUSH0 REVERT JUMPDEST POP JUMP JUMPDEST PUSH0 DUP2 MLOAD SWAP1 POP PUSH2 0x3EBB DUP2 PUSH2 0x3E97 JUMP JUMPDEST SWAP3 SWAP2 POP POP JUMP JUMPDEST PUSH0 PUSH1 0x20 DUP3 DUP5 SUB SLT ISZERO PUSH2 0x3ED6 JUMPI PUSH2 0x3ED5 PUSH2 0x2F8D JUMP JUMPDEST JUMPDEST PUSH0 PUSH2 0x3EE3 DUP5 DUP3 DUP6 ADD PUSH2 0x3EAD JUMP JUMPDEST SWAP2 POP POP SWAP3 SWAP2 POP POP JUMP JUMPDEST PUSH32 0x48617368206E6F7420617070726F766564000000000000000000000000000000 PUSH0 DUP3 ADD MSTORE POP JUMP JUMPDEST PUSH0 PUSH2 0x3F20 PUSH1 0x11 DUP4 PUSH2 0x3885 JUMP JUMPDEST SWAP2 POP PUSH2 0x3F2B DUP3 PUSH2 0x3EEC JUMP JUMPDEST PUSH1 0x20 DUP3 ADD SWAP1 POP SWAP2 SWAP1 POP JUMP JUMPDEST PUSH0 PUSH1 0x20 DUP3 ADD SWAP1 POP DUP2 DUP2 SUB PUSH0 DUP4 ADD MSTORE PUSH2 0x3F4D DUP2 PUSH2 0x3F14 JUMP JUMPDEST SWAP1 POP SWAP2 SWAP1 POP JUMP JUMPDEST PUSH0 PUSH2 0x3F5F DUP4 DUP6 PUSH2 0x36B0 JUMP JUMPDEST SWAP4 POP PUSH2 0x3F6C DUP4 DUP6 DUP5 PUSH2 0x3322 JUMP JUMPDEST PUSH2 0x3F75 DUP4 PUSH2 0x326A JUMP JUMPDEST DUP5 ADD SWAP1 POP SWAP4 SWAP3 POP POP POP JUMP JUMPDEST PUSH0 PUSH1 0x60 DUP3 ADD SWAP1 POP PUSH2 0x3F93 PUSH0 DUP4 ADD DUP8 PUSH2 0x3200 JUMP JUMPDEST PUSH2 0x3FA0 PUSH1 0x20 DUP4 ADD DUP7 PUSH2 0x33EE JUMP JUMPDEST DUP2 DUP2 SUB PUSH1 0x40 DUP4 ADD MSTORE PUSH2 0x3FB3 DUP2 DUP5 DUP7 PUSH2 0x3F54 JUMP JUMPDEST SWAP1 POP SWAP6 SWAP5 POP POP POP POP POP JUMP JUMPDEST PUSH0 PUSH1 0x20 DUP3 DUP5 SUB SLT ISZERO PUSH2 0x3FD3 JUMPI PUSH2 0x3FD2 PUSH2 0x2F8D JUMP JUMPDEST JUMPDEST PUSH0 PUSH2 0x3FE0 DUP5 DUP3 DUP6 ADD PUSH2 0x2FDB JUMP JUMPDEST SWAP2 POP POP SWAP3 SWAP2 POP POP JUMP JUMPDEST PUSH0 PUSH0 REVERT JUMPDEST PUSH0 PUSH0 REVERT JUMPDEST PUSH0 PUSH0 REVERT JUMPDEST PUSH0 PUSH0 DUP4 CALLDATALOAD PUSH1 0x1 PUSH1 0x20 SUB DUP5 CALLDATASIZE SUB SUB DUP2 SLT PUSH2 0x4011 JUMPI PUSH2 0x4010 PUSH2 0x3FE9 JUMP JUMPDEST JUMPDEST DUP1 DUP5 ADD SWAP3 POP DUP3 CALLDATALOAD SWAP2 POP PUSH8 0xFFFFFFFFFFFFFFFF DUP3 GT ISZERO PUSH2 0x4033 JUMPI PUSH2 0x4032 PUSH2 0x3FED JUMP JUMPDEST JUMPDEST PUSH1 0x20 DUP4 ADD SWAP3 POP PUSH1 0x1 DUP3 MUL CALLDATASIZE SUB DUP4 SGT ISZERO PUSH2 0x404F JUMPI PUSH2 0x404E PUSH2 0x3FF1 JUMP JUMPDEST JUMPDEST POP SWAP3 POP SWAP3 SWAP1 POP JUMP JUMPDEST PUSH0 DUP3 SWAP1 POP SWAP3 SWAP2 POP POP JUMP JUMPDEST PUSH0 DUP3 DUP3 SHL SWAP1 POP SWAP3 SWAP2 POP POP JUMP JUMPDEST PUSH0 PUSH2 0x4078 DUP4 DUP4 PUSH2 0x4057 JUMP JUMPDEST DUP3 PUSH2 0x4083 DUP2 CALLDATALOAD PUSH2 0x314D JUMP JUMPDEST SWAP3 POP PUSH1 0x4 DUP3 LT ISZERO PUSH2 0x40C3 JUMPI PUSH2 0x40BE PUSH32 0xFFFFFFFF00000000000000000000000000000000000000000000000000000000 DUP4 PUSH1 0x4 SUB PUSH1 0x8 MUL PUSH2 0x4061 JUMP JUMPDEST DUP4 AND SWAP3 POP JUMPDEST POP POP SWAP3 SWAP2 POP POP JUMP JUMPDEST PUSH32 0x4E487B7100000000000000000000000000000000000000000000000000000000 PUSH0 MSTORE PUSH1 0x32 PUSH1 0x4 MSTORE PUSH1 0x24 PUSH0 REVERT JUMPDEST PUSH0 PUSH2 0x4102 DUP3 PUSH2 0x3831 JUMP JUMPDEST SWAP1 POP SWAP2 SWAP1 POP JUMP JUMPDEST PUSH2 0x4112 DUP2 PUSH2 0x40F8 JUMP JUMPDEST DUP3 MSTORE POP POP JUMP JUMPDEST PUSH0 PUSH1 0x80 DUP3 ADD SWAP1 POP PUSH2 0x412B PUSH0 DUP4 ADD DUP8 PUSH2 0x4109 JUMP JUMPDEST PUSH2 0x4138 PUSH1 0x20 DUP4 ADD DUP7 PUSH2 0x3200 JUMP JUMPDEST PUSH2 0x4145 PUSH1 0x40 DUP4 ADD DUP6 PUSH2 0x35D8 JUMP JUMPDEST DUP2 DUP2 SUB PUSH1 0x60 DUP4 ADD MSTORE PUSH2 0x4157 DUP2 DUP5 PUSH2 0x36CE JUMP JUMPDEST SWAP1 POP SWAP6 SWAP5 POP POP POP POP POP JUMP JUMPDEST POP JUMP JUMPDEST PUSH0 PUSH2 0x4170 PUSH0 DUP4 PUSH2 0x36B0 JUMP JUMPDEST SWAP2 POP PUSH2 0x417B DUP3 PUSH2 0x4162 JUMP JUMPDEST PUSH0 DUP3 ADD SWAP1 POP SWAP2 SWAP1 POP JUMP JUMPDEST PUSH32 0x4E487B7100000000000000000000000000000000000000000000000000000000 PUSH0 MSTORE PUSH1 0x21 PUSH1 0x4 MSTORE PUSH1 0x24 PUSH0 REVERT JUMPDEST PUSH1 0x2 DUP2 LT PUSH2 0x41C3 JUMPI PUSH2 0x41C2 PUSH2 0x4185 JUMP JUMPDEST JUMPDEST POP JUMP JUMPDEST PUSH0 DUP2 SWAP1 POP PUSH2 0x41D3 DUP3 PUSH2 0x41B2 JUMP JUMPDEST SWAP2 SWAP1 POP JUMP JUMPDEST PUSH0 PUSH2 0x41E2 DUP3 PUSH2 0x41C6 JUMP JUMPDEST SWAP1 POP SWAP2 SWAP1 POP JUMP JUMPDEST PUSH2 0x41F2 DUP2 PUSH2 0x41D8 JUMP JUMPDEST DUP3 MSTORE POP POP JUMP JUMPDEST PUSH0 PUSH1 0x80 DUP3 ADD SWAP1 POP PUSH2 0x420B PUSH0 DUP4 ADD DUP7 PUSH2 0x3200 JUMP JUMPDEST PUSH2 0x4218 PUSH1 0x20 DUP4 ADD DUP6 PUSH2 0x35D8 JUMP JUMPDEST DUP2 DUP2 SUB PUSH1 0x40 DUP4 ADD MSTORE PUSH2 0x4229 DUP2 PUSH2 0x4165 JUMP JUMPDEST SWAP1 POP PUSH2 0x4238 PUSH1 0x60 DUP4 ADD DUP5 PUSH2 0x41E9 JUMP JUMPDEST SWAP5 SWAP4 POP POP POP POP JUMP JUMPDEST PUSH0 PUSH1 0x40 DUP3 ADD SWAP1 POP PUSH2 0x4253 PUSH0 DUP4 ADD DUP6 PUSH2 0x33EE JUMP JUMPDEST PUSH2 0x4260 PUSH1 0x20 DUP4 ADD DUP5 PUSH2 0x33EE JUMP JUMPDEST SWAP4 SWAP3 POP POP POP JUMP JUMPDEST PUSH0 DUP2 MLOAD SWAP1 POP PUSH2 0x4275 DUP2 PUSH2 0x34C2 JUMP JUMPDEST SWAP3 SWAP2 POP POP JUMP JUMPDEST PUSH0 PUSH1 0x20 DUP3 DUP5 SUB SLT ISZERO PUSH2 0x4290 JUMPI PUSH2 0x428F PUSH2 0x2F8D JUMP JUMPDEST JUMPDEST PUSH0 PUSH2 0x429D DUP5 DUP3 DUP6 ADD PUSH2 0x4267 JUMP JUMPDEST SWAP2 POP POP SWAP3 SWAP2 POP POP JUMP JUMPDEST PUSH0 PUSH32 0xFF00000000000000000000000000000000000000000000000000000000000000 DUP3 AND SWAP1 POP SWAP2 SWAP1 POP JUMP JUMPDEST PUSH0 DUP2 SWAP1 POP SWAP2 SWAP1 POP JUMP JUMPDEST PUSH2 0x42EB PUSH2 0x42E6 DUP3 PUSH2 0x42A6 JUMP JUMPDEST PUSH2 0x42D1 JUMP JUMPDEST DUP3 MSTORE POP POP JUMP JUMPDEST PUSH0 DUP2 SWAP1 POP SWAP2 SWAP1 POP JUMP JUMPDEST PUSH2 0x430B PUSH2 0x4306 DUP3 PUSH2 0x33E5 JUMP JUMPDEST PUSH2 0x42F1 JUMP JUMPDEST DUP3 MSTORE POP POP JUMP JUMPDEST PUSH0 PUSH2 0x431C DUP3 DUP8 PUSH2 0x42DA JUMP JUMPDEST PUSH1 0x1 DUP3 ADD SWAP2 POP PUSH2 0x432C DUP3 DUP7 PUSH2 0x42DA JUMP JUMPDEST PUSH1 0x1 DUP3 ADD SWAP2 POP PUSH2 0x433C DUP3 DUP6 PUSH2 0x42FA JUMP JUMPDEST PUSH1 0x20 DUP3 ADD SWAP2 POP PUSH2 0x434C DUP3 DUP5 PUSH2 0x42FA JUMP JUMPDEST PUSH1 0x20 DUP3 ADD SWAP2 POP DUP2 SWAP1 POP SWAP6 SWAP5 POP POP POP POP POP JUMP JUMPDEST PUSH2 0x4367 DUP2 PUSH2 0x3726 JUMP JUMPDEST DUP3 MSTORE POP POP JUMP JUMPDEST PUSH0 PUSH1 0x80 DUP3 ADD SWAP1 POP PUSH2 0x4380 PUSH0 DUP4 ADD DUP8 PUSH2 0x3200 JUMP JUMPDEST PUSH2 0x438D PUSH1 0x20 DUP4 ADD DUP7 PUSH2 0x35D8 JUMP JUMPDEST DUP2 DUP2 SUB PUSH1 0x40 DUP4 ADD MSTORE PUSH2 0x439F DUP2 DUP6 PUSH2 0x36CE JUMP JUMPDEST SWAP1 POP PUSH2 0x43AE PUSH1 0x60 DUP4 ADD DUP5 PUSH2 0x435E JUMP JUMPDEST SWAP6 SWAP5 POP POP POP POP POP JUMP JUMPDEST PUSH0 PUSH2 0x43C9 PUSH2 0x43C4 DUP5 PUSH2 0x32F2 JUMP JUMPDEST PUSH2 0x32D8 JUMP JUMPDEST SWAP1 POP DUP3 DUP2 MSTORE PUSH1 0x20 DUP2 ADD DUP5 DUP5 DUP5 ADD GT ISZERO PUSH2 0x43E5 JUMPI PUSH2 0x43E4 PUSH2 0x3266 JUMP JUMPDEST JUMPDEST PUSH2 0x43F0 DUP5 DUP3 DUP6 PUSH2 0x36C0 JUMP JUMPDEST POP SWAP4 SWAP3 POP POP POP JUMP JUMPDEST PUSH0 DUP3 PUSH1 0x1F DUP4 ADD SLT PUSH2 0x440C JUMPI PUSH2 0x440B PUSH2 0x3022 JUMP JUMPDEST JUMPDEST DUP2 MLOAD PUSH2 0x441C DUP5 DUP3 PUSH1 0x20 DUP7 ADD PUSH2 0x43B7 JUMP JUMPDEST SWAP2 POP POP SWAP3 SWAP2 POP POP JUMP JUMPDEST PUSH0 PUSH0 PUSH1 0x40 DUP4 DUP6 SUB SLT ISZERO PUSH2 0x443B JUMPI PUSH2 0x443A PUSH2 0x2F8D JUMP JUMPDEST JUMPDEST PUSH0 PUSH2 0x4448 DUP6 DUP3 DUP7 ADD PUSH2 0x3EAD JUMP JUMPDEST SWAP3 POP POP PUSH1 0x20 DUP4 ADD MLOAD PUSH8 0xFFFFFFFFFFFFFFFF DUP2 GT ISZERO PUSH2 0x4469 JUMPI PUSH2 0x4468 PUSH2 0x2F91 JUMP JUMPDEST JUMPDEST PUSH2 0x4475 DUP6 DUP3 DUP7 ADD PUSH2 0x43F8 JUMP JUMPDEST SWAP2 POP POP SWAP3 POP SWAP3 SWAP1 POP JUMP JUMPDEST PUSH0 DUP2 SWAP1 POP SWAP3 SWAP2 POP POP JUMP JUMPDEST PUSH0 PUSH2 0x4494 PUSH0 DUP4 PUSH2 0x447F JUMP JUMPDEST SWAP2 POP PUSH2 0x449F DUP3 PUSH2 0x4162 JUMP JUMPDEST PUSH0 DUP3 ADD SWAP1 POP SWAP2 SWAP1 POP JUMP JUMPDEST PUSH0 PUSH2 0x44B3 DUP3 PUSH2 0x4489 JUMP JUMPDEST SWAP2 POP DUP2 SWAP1 POP SWAP2 SWAP1 POP JUMP JUMPDEST PUSH0 PUSH2 0x44C7 DUP3 PUSH2 0x2FEF JUMP JUMPDEST SWAP2 POP PUSH2 0x44D2 DUP4 PUSH2 0x2FEF JUMP JUMPDEST SWAP3 POP DUP3 DUP3 SUB SWAP1 POP DUP2 DUP2 GT ISZERO PUSH2 0x44EA JUMPI PUSH2 0x44E9 PUSH2 0x3E10 JUMP JUMPDEST JUMPDEST SWAP3 SWAP2 POP POP JUMP JUMPDEST PUSH0 DUP2 SWAP1 POP SWAP2 SWAP1 POP JUMP JUMPDEST PUSH0 PUSH2 0x4513 PUSH2 0x450E PUSH2 0x4509 DUP5 PUSH2 0x44F0 JUMP JUMPDEST PUSH2 0x3807 JUMP JUMPDEST PUSH2 0x2FEF JUMP JUMPDEST SWAP1 POP SWAP2 SWAP1 POP JUMP JUMPDEST PUSH2 0x4523 DUP2 PUSH2 0x44F9 JUMP JUMPDEST DUP3 MSTORE POP POP JUMP JUMPDEST PUSH0 PUSH1 0x40 DUP3 ADD SWAP1 POP PUSH2 0x453C PUSH0 DUP4 ADD DUP6 PUSH2 0x3200 JUMP JUMPDEST PUSH2 0x4549 PUSH1 0x20 DUP4 ADD DUP5 PUSH2 0x451A JUMP JUMPDEST SWAP4 SWAP3 POP POP POP JUMP JUMPDEST PUSH0 PUSH8 0xFFFFFFFFFFFFFFFF DUP3 GT ISZERO PUSH2 0x456A JUMPI PUSH2 0x4569 PUSH2 0x327A JUMP JUMPDEST JUMPDEST PUSH1 0x20 DUP3 MUL SWAP1 POP PUSH1 0x20 DUP2 ADD SWAP1 POP SWAP2 SWAP1 POP JUMP JUMPDEST PUSH0 DUP2 MLOAD SWAP1 POP PUSH2 0x4589 DUP2 PUSH2 0x2FC5 JUMP JUMPDEST SWAP3 SWAP2 POP POP JUMP JUMPDEST PUSH0 PUSH2 0x45A1 PUSH2 0x459C DUP5 PUSH2 0x4550 JUMP JUMPDEST PUSH2 0x32D8 JUMP JUMPDEST SWAP1 POP DUP1 DUP4 DUP3 MSTORE PUSH1 0x20 DUP3 ADD SWAP1 POP PUSH1 0x20 DUP5 MUL DUP4 ADD DUP6 DUP2 GT ISZERO PUSH2 0x45C4 JUMPI PUSH2 0x45C3 PUSH2 0x302A JUMP JUMPDEST JUMPDEST DUP4 JUMPDEST DUP2 DUP2 LT ISZERO PUSH2 0x45ED JUMPI DUP1 PUSH2 0x45D9 DUP9 DUP3 PUSH2 0x457B JUMP JUMPDEST DUP5 MSTORE PUSH1 0x20 DUP5 ADD SWAP4 POP POP PUSH1 0x20 DUP2 ADD SWAP1 POP PUSH2 0x45C6 JUMP JUMPDEST POP POP POP SWAP4 SWAP3 POP POP POP JUMP JUMPDEST PUSH0 DUP3 PUSH1 0x1F DUP4 ADD SLT PUSH2 0x460B JUMPI PUSH2 0x460A PUSH2 0x3022 JUMP JUMPDEST JUMPDEST DUP2 MLOAD PUSH2 0x461B DUP5 DUP3 PUSH1 0x20 DUP7 ADD PUSH2 0x458F JUMP JUMPDEST SWAP2 POP POP SWAP3 SWAP2 POP POP JUMP JUMPDEST PUSH0 PUSH0 PUSH1 0x40 DUP4 DUP6 SUB SLT ISZERO PUSH2 0x463A JUMPI PUSH2 0x4639 PUSH2 0x2F8D JUMP JUMPDEST JUMPDEST PUSH0 DUP4 ADD MLOAD PUSH8 0xFFFFFFFFFFFFFFFF DUP2 GT ISZERO PUSH2 0x4657 JUMPI PUSH2 0x4656 PUSH2 0x2F91 JUMP JUMPDEST JUMPDEST PUSH2 0x4663 DUP6 DUP3 DUP7 ADD PUSH2 0x45F7 JUMP JUMPDEST SWAP3 POP POP PUSH1 0x20 PUSH2 0x4674 DUP6 DUP3 DUP7 ADD PUSH2 0x457B JUMP JUMPDEST SWAP2 POP POP SWAP3 POP SWAP3 SWAP1 POP JUMP JUMPDEST PUSH0 PUSH2 0x4689 DUP4 DUP6 PUSH2 0x447F JUMP JUMPDEST SWAP4 POP PUSH2 0x4696 DUP4 DUP6 DUP5 PUSH2 0x3322 JUMP JUMPDEST DUP3 DUP5 ADD SWAP1 POP SWAP4 SWAP3 POP POP POP JUMP JUMPDEST PUSH0 PUSH2 0x46AE DUP3 DUP5 DUP7 PUSH2 0x467E JUMP JUMPDEST SWAP2 POP DUP2 SWAP1 POP SWAP4 SWAP3 POP POP POP JUMP JUMPDEST PUSH0 PUSH2 0x160 DUP3 ADD SWAP1 POP PUSH2 0x46CE PUSH0 DUP4 ADD DUP15 PUSH2 0x33EE JUMP JUMPDEST PUSH2 0x46DB PUSH1 0x20 DUP4 ADD DUP14 PUSH2 0x3200 JUMP JUMPDEST PUSH2 0x46E8 PUSH1 0x40 DUP4 ADD DUP13 PUSH2 0x35D8 JUMP JUMPDEST PUSH2 0x46F5 PUSH1 0x60 DUP4 ADD DUP12 PUSH2 0x33EE JUMP JUMPDEST PUSH2 0x4702 PUSH1 0x80 DUP4 ADD DUP11 PUSH2 0x41E9 JUMP JUMPDEST PUSH2 0x470F PUSH1 0xA0 DUP4 ADD DUP10 PUSH2 0x35D8 JUMP JUMPDEST PUSH2 0x471C PUSH1 0xC0 DUP4 ADD DUP9 PUSH2 0x35D8 JUMP JUMPDEST PUSH2 0x4729 PUSH1 0xE0 DUP4 ADD DUP8 PUSH2 0x35D8 JUMP JUMPDEST PUSH2 0x4737 PUSH2 0x100 DUP4 ADD DUP7 PUSH2 0x3200 JUMP JUMPDEST PUSH2 0x4745 PUSH2 0x120 DUP4 ADD DUP6 PUSH2 0x3200 JUMP JUMPDEST PUSH2 0x4753 PUSH2 0x140 DUP4 ADD DUP5 PUSH2 0x35D8 JUMP JUMPDEST SWAP13 SWAP12 POP POP POP POP POP POP POP POP POP POP POP POP JUMP JUMPDEST PUSH0 PUSH2 0x476D DUP3 PUSH2 0x3831 JUMP JUMPDEST SWAP1 POP SWAP2 SWAP1 POP JUMP JUMPDEST PUSH2 0x477D DUP2 PUSH2 0x4763 JUMP JUMPDEST DUP3 MSTORE POP POP JUMP JUMPDEST PUSH0 PUSH1 0x60 DUP3 ADD SWAP1 POP PUSH2 0x4796 PUSH0 DUP4 ADD DUP7 PUSH2 0x33EE JUMP JUMPDEST PUSH2 0x47A3 PUSH1 0x20 DUP4 ADD DUP6 PUSH2 0x35D8 JUMP JUMPDEST PUSH2 0x47B0 PUSH1 0x40 DUP4 ADD DUP5 PUSH2 0x4774 JUMP JUMPDEST SWAP5 SWAP4 POP POP POP POP JUMP JUMPDEST PUSH32 0x496E76616C6964207072696D6172792073616665000000000000000000000000 PUSH0 DUP3 ADD MSTORE POP JUMP JUMPDEST PUSH0 PUSH2 0x47EC PUSH1 0x14 DUP4 PUSH2 0x3885 JUMP JUMPDEST SWAP2 POP PUSH2 0x47F7 DUP3 PUSH2 0x47B8 JUMP JUMPDEST PUSH1 0x20 DUP3 ADD SWAP1 POP SWAP2 SWAP1 POP JUMP JUMPDEST PUSH0 PUSH1 0x20 DUP3 ADD SWAP1 POP DUP2 DUP2 SUB PUSH0 DUP4 ADD MSTORE PUSH2 0x4819 DUP2 PUSH2 0x47E0 JUMP JUMPDEST SWAP1 POP SWAP2 SWAP1 POP JUMP JUMPDEST PUSH32 0x496E76616C6964206D616E616765720000000000000000000000000000000000 PUSH0 DUP3 ADD MSTORE POP JUMP JUMPDEST PUSH0 PUSH2 0x4854 PUSH1 0xF DUP4 PUSH2 0x3885 JUMP JUMPDEST SWAP2 POP PUSH2 0x485F DUP3 PUSH2 0x4820 JUMP JUMPDEST PUSH1 0x20 DUP3 ADD SWAP1 POP SWAP2 SWAP1 POP JUMP JUMPDEST PUSH0 PUSH1 0x20 DUP3 ADD SWAP1 POP DUP2 DUP2 SUB PUSH0 DUP4 ADD MSTORE PUSH2 0x4881 DUP2 PUSH2 0x4848 JUMP JUMPDEST SWAP1 POP SWAP2 SWAP1 POP JUMP JUMPDEST PUSH0 DUP2 SWAP1 POP SWAP2 SWAP1 POP JUMP JUMPDEST PUSH0 PUSH8 0xFFFFFFFFFFFFFFFF DUP3 AND SWAP1 POP SWAP2 SWAP1 POP JUMP JUMPDEST PUSH0 PUSH2 0x48BE PUSH2 0x48B9 PUSH2 0x48B4 DUP5 PUSH2 0x4888 JUMP JUMPDEST PUSH2 0x3807 JUMP JUMPDEST PUSH2 0x4891 JUMP JUMPDEST SWAP1 POP SWAP2 SWAP1 POP JUMP JUMPDEST PUSH2 0x48CE DUP2 PUSH2 0x48A4 JUMP JUMPDEST DUP3 MSTORE POP POP JUMP JUMPDEST PUSH0 PUSH1 0x20 DUP3 ADD SWAP1 POP PUSH2 0x48E7 PUSH0 DUP4 ADD DUP5 PUSH2 0x48C5 JUMP JUMPDEST SWAP3 SWAP2 POP POP JUMP JUMPDEST PUSH0 PUSH2 0x4907 PUSH2 0x4902 PUSH2 0x48FD DUP5 PUSH2 0x4888 JUMP JUMPDEST PUSH2 0x3807 JUMP JUMPDEST PUSH2 0x2FEF JUMP JUMPDEST SWAP1 POP SWAP2 SWAP1 POP JUMP JUMPDEST PUSH2 0x4917 DUP2 PUSH2 0x48ED JUMP JUMPDEST DUP3 MSTORE POP POP JUMP JUMPDEST PUSH0 PUSH1 0x40 DUP3 ADD SWAP1 POP PUSH2 0x4930 PUSH0 DUP4 ADD DUP6 PUSH2 0x35D8 JUMP JUMPDEST PUSH2 0x493D PUSH1 0x20 DUP4 ADD DUP5 PUSH2 0x490E JUMP JUMPDEST SWAP4 SWAP3 POP POP POP JUMP JUMPDEST PUSH0 PUSH1 0x20 DUP3 DUP5 SUB SLT ISZERO PUSH2 0x4959 JUMPI PUSH2 0x4958 PUSH2 0x2F8D JUMP JUMPDEST JUMPDEST PUSH0 DUP3 ADD MLOAD PUSH8 0xFFFFFFFFFFFFFFFF DUP2 GT ISZERO PUSH2 0x4976 JUMPI PUSH2 0x4975 PUSH2 0x2F91 JUMP JUMPDEST JUMPDEST PUSH2 0x4982 DUP5 DUP3 DUP6 ADD PUSH2 0x43F8 JUMP JUMPDEST SWAP2 POP POP SWAP3 SWAP2 POP POP JUMP JUMPDEST PUSH2 0x4994 DUP2 PUSH2 0x3600 JUMP JUMPDEST DUP2 EQ PUSH2 0x499E JUMPI PUSH0 PUSH0 REVERT JUMPDEST POP JUMP JUMPDEST PUSH0 DUP2 MLOAD SWAP1 POP PUSH2 0x49AF DUP2 PUSH2 0x498B JUMP JUMPDEST SWAP3 SWAP2 POP POP JUMP JUMPDEST PUSH0 PUSH1 0x20 DUP3 DUP5 SUB SLT ISZERO PUSH2 0x49CA JUMPI PUSH2 0x49C9 PUSH2 0x2F8D JUMP JUMPDEST JUMPDEST PUSH0 PUSH2 0x49D7 DUP5 DUP3 DUP6 ADD PUSH2 0x49A1 JUMP JUMPDEST SWAP2 POP POP SWAP3 SWAP2 POP POP JUMP JUMPDEST PUSH32 0x6E6F7420612066616C6C6261636B2063616C6C00000000000000000000000000 PUSH0 DUP3 ADD MSTORE POP JUMP JUMPDEST PUSH0 PUSH2 0x4A14 PUSH1 0x13 DUP4 PUSH2 0x3885 JUMP JUMPDEST SWAP2 POP PUSH2 0x4A1F DUP3 PUSH2 0x49E0 JUMP JUMPDEST PUSH1 0x20 DUP3 ADD SWAP1 POP SWAP2 SWAP1 POP JUMP JUMPDEST PUSH0 PUSH1 0x20 DUP3 ADD SWAP1 POP DUP2 DUP2 SUB PUSH0 DUP4 ADD MSTORE PUSH2 0x4A41 DUP2 PUSH2 0x4A08 JUMP JUMPDEST SWAP1 POP SWAP2 SWAP1 POP JUMP JUMPDEST PUSH32 0x496E76616C69642063616C6C64617461206C656E677468000000000000000000 PUSH0 DUP3 ADD MSTORE POP JUMP JUMPDEST PUSH0 PUSH2 0x4A7C PUSH1 0x17 DUP4 PUSH2 0x3885 JUMP JUMPDEST SWAP2 POP PUSH2 0x4A87 DUP3 PUSH2 0x4A48 JUMP JUMPDEST PUSH1 0x20 DUP3 ADD SWAP1 POP SWAP2 SWAP1 POP JUMP JUMPDEST PUSH0 PUSH1 0x20 DUP3 ADD SWAP1 POP DUP2 DUP2 SUB PUSH0 DUP4 ADD MSTORE PUSH2 0x4AA9 DUP2 PUSH2 0x4A70 JUMP JUMPDEST SWAP1 POP SWAP2 SWAP1 POP JUMP JUMPDEST PUSH0 PUSH1 0x60 DUP3 ADD SWAP1 POP PUSH2 0x4AC3 PUSH0 DUP4 ADD DUP8 PUSH2 0x33EE JUMP JUMPDEST DUP2 DUP2 SUB PUSH1 0x20 DUP4 ADD MSTORE PUSH2 0x4AD5 DUP2 DUP7 PUSH2 0x36CE JUMP JUMPDEST SWAP1 POP DUP2 DUP2 SUB PUSH1 0x40 DUP4 ADD MSTORE PUSH2 0x4AEA DUP2 DUP5 DUP7 PUSH2 0x3F54 JUMP JUMPDEST SWAP1 POP SWAP6 SWAP5 POP POP POP POP POP JUMP JUMPDEST PUSH0 PUSH0 REVERT JUMPDEST PUSH0 PUSH0 REVERT JUMPDEST PUSH0 PUSH0 DUP6 DUP6 GT ISZERO PUSH2 0x4B10 JUMPI PUSH2 0x4B0F PUSH2 0x4AF5 JUMP JUMPDEST JUMPDEST DUP4 DUP7 GT ISZERO PUSH2 0x4B21 JUMPI PUSH2 0x4B20 PUSH2 0x4AF9 JUMP JUMPDEST JUMPDEST PUSH1 0x1 DUP6 MUL DUP4 ADD SWAP2 POP DUP5 DUP7 SUB SWAP1 POP SWAP5 POP SWAP5 SWAP3 POP POP POP JUMP JUMPDEST PUSH0 PUSH32 0xFFFFFFFFFFFF0000000000000000000000000000000000000000000000000000 DUP3 AND SWAP1 POP SWAP2 SWAP1 POP JUMP JUMPDEST PUSH0 PUSH2 0x4B6D DUP4 DUP4 PUSH2 0x4057 JUMP JUMPDEST DUP3 PUSH2 0x4B78 DUP2 CALLDATALOAD PUSH2 0x4B37 JUMP JUMPDEST SWAP3 POP PUSH1 0x6 DUP3 LT ISZERO PUSH2 0x4BB8 JUMPI PUSH2 0x4BB3 PUSH32 0xFFFFFFFFFFFF0000000000000000000000000000000000000000000000000000 DUP4 PUSH1 0x6 SUB PUSH1 0x8 MUL PUSH2 0x4061 JUMP JUMPDEST DUP4 AND SWAP3 POP JUMPDEST POP POP SWAP3 SWAP2 POP POP JUMP JUMPDEST PUSH0 PUSH2 0x4BCA DUP3 PUSH2 0x2FEF JUMP JUMPDEST SWAP2 POP PUSH2 0x4BD5 DUP4 PUSH2 0x2FEF JUMP JUMPDEST SWAP3 POP DUP3 DUP3 MUL PUSH2 0x4BE3 DUP2 PUSH2 0x2FEF JUMP JUMPDEST SWAP2 POP DUP3 DUP3 DIV DUP5 EQ DUP4 ISZERO OR PUSH2 0x4BFA JUMPI PUSH2 0x4BF9 PUSH2 0x3E10 JUMP JUMPDEST JUMPDEST POP SWAP3 SWAP2 POP POP JUMP JUMPDEST PUSH0 PUSH2 0x4C0C DUP4 DUP4 PUSH2 0x4057 JUMP JUMPDEST DUP3 PUSH2 0x4C17 DUP2 CALLDATALOAD PUSH2 0x33E5 JUMP JUMPDEST SWAP3 POP PUSH1 0x20 DUP3 LT ISZERO PUSH2 0x4C57 JUMPI PUSH2 0x4C52 PUSH32 0xFFFFFFFFFFFFFFFFFFFFFFFFFFFFFFFFFFFFFFFFFFFFFFFFFFFFFFFFFFFFFFFF DUP4 PUSH1 0x20 SUB PUSH1 0x8 MUL PUSH2 0x4061 JUMP JUMPDEST DUP4 AND SWAP3 POP JUMPDEST POP POP SWAP3 SWAP2 POP POP JUMP JUMPDEST PUSH0 DUP2 CALLDATALOAD SWAP1 POP PUSH2 0x4C6D DUP2 PUSH2 0x498B JUMP JUMPDEST SWAP3 SWAP2 POP POP JUMP JUMPDEST PUSH0 PUSH0 PUSH0 PUSH0 PUSH1 0x80 DUP6 DUP8 SUB SLT ISZERO PUSH2 0x4C8B JUMPI PUSH2 0x4C8A PUSH2 0x2F8D JUMP JUMPDEST JUMPDEST PUSH0 PUSH2 0x4C98 DUP8 DUP3 DUP9 ADD PUSH2 0x4C5F JUMP JUMPDEST SWAP5 POP POP PUSH1 0x20 PUSH2 0x4CA9 DUP8 DUP3 DUP9 ADD PUSH2 0x300E JUMP JUMPDEST SWAP4 POP POP PUSH1 0x40 DUP6 ADD CALLDATALOAD PUSH8 0xFFFFFFFFFFFFFFFF DUP2 GT ISZERO PUSH2 0x4CCA JUMPI PUSH2 0x4CC9 PUSH2 0x2F91 JUMP JUMPDEST JUMPDEST PUSH2 0x4CD6 DUP8 DUP3 DUP9 ADD PUSH2 0x3371 JUMP JUMPDEST SWAP3 POP POP PUSH1 0x60 PUSH2 0x4CE7 DUP8 DUP3 DUP9 ADD PUSH2 0x3748 JUMP JUMPDEST SWAP2 POP POP SWAP3 SWAP6 SWAP2 SWAP5 POP SWAP3 POP JUMP JUMPDEST PUSH0 PUSH2 0x4CFD DUP3 PUSH2 0x2FEF JUMP JUMPDEST SWAP2 POP PUSH32 0xFFFFFFFFFFFFFFFFFFFFFFFFFFFFFFFFFFFFFFFFFFFFFFFFFFFFFFFFFFFFFFFF DUP3 SUB PUSH2 0x4D2F JUMPI PUSH2 0x4D2E PUSH2 0x3E10 JUMP JUMPDEST JUMPDEST PUSH1 0x1 DUP3 ADD SWAP1 POP SWAP2 SWAP1 POP JUMP INVALID LOG2 PUSH5 0x6970667358 0x22 SLT KECCAK256 0xF 0xAE MUL 0xE8 BASEFEE DUP4 SGT 0xE SLT SLOAD 0xC6 RETURNCONTRACT 0x67 0xB9 0xC6 BLOBHASH 0xCA JUMPI 0xD DUP16 PUSH32 0x79EC1B301ABC288016DC8164736F6C634300081E003300000000000000000000 "
		},
		"gasEstimates": {
			"creation": {
				"codeDepositCost": "3964800",
				"executionCost": "4519",
				"totalCost": "3969319"
			},
			"external": {
				"HYPT_FACTORY()": "464",
				"MANAGER_MODULE()": "infinite",
				"NAME()": "infinite",
				"PRIMARY_SAFE()": "2553",
				"SAFE()": "2598",
				"SUPPORTED_ENTRYPOINT()": "2597",
				"VERSION()": "infinite",
				"domainSeparator()": "infinite",
				"encodeMessageDataForSafe(address,bytes)": "infinite",
				"encodeTransactionData(address,uint256,bytes,uint8,uint256,uint256,uint256,address,address,uint256)": "infinite",
				"executeUserOp(address,uint256,bytes,uint8)": "infinite",
				"executeUserOpWithErrorString(address,uint256,bytes,uint8)": "infinite",
				"getMessageHash(bytes)": "infinite",
				"getMessageHashForSafe(address,bytes)": "infinite",
				"getModules()": "infinite",
				"getOperationHash((address,uint256,bytes,bytes,bytes32,uint256,bytes32,bytes,bytes))": "infinite",
				"initialize(address,address,address,address)": "infinite",
				"isValidSignature(bytes32,bytes)": "infinite",
				"onERC1155BatchReceived(address,address,uint256[],uint256[],bytes)": "infinite",
				"onERC1155Received(address,address,uint256,uint256,bytes)": "infinite",
				"onERC20Deposit(address,uint256)": "infinite",
				"onERC20Withdraw(address,uint256)": "infinite",
				"onERC721Received(address,address,uint256,bytes)": "infinite",
				"simulate(address,bytes)": "infinite",
				"supportsInterface(bytes4)": "790",
				"tokensReceived(address,address,address,uint256,bytes,bytes)": "infinite",
				"validateUserOp((address,uint256,bytes,bytes,bytes32,uint256,bytes32,bytes,bytes),bytes32,uint256)": "infinite",
				"withdrawNative(uint256)": "infinite"
			}
		},
		"methodIdentifiers": {
			"HYPT_FACTORY()": "0681ebde",
			"MANAGER_MODULE()": "853ea4a6",
			"NAME()": "a3f4df7e",
			"PRIMARY_SAFE()": "3d00f4ae",
			"SAFE()": "885a1ffa",
			"SUPPORTED_ENTRYPOINT()": "137e051e",
			"VERSION()": "ffa1ad74",
			"domainSeparator()": "f698da25",
			"encodeMessageDataForSafe(address,bytes)": "23031640",
			"encodeTransactionData(address,uint256,bytes,uint8,uint256,uint256,uint256,address,address,uint256)": "e86637db",
			"executeUserOp(address,uint256,bytes,uint8)": "7bb37428",
			"executeUserOpWithErrorString(address,uint256,bytes,uint8)": "541d63c8",
			"getMessageHash(bytes)": "0a1028c4",
			"getMessageHashForSafe(address,bytes)": "6ac24784",
			"getModules()": "b2494df3",
			"getOperationHash((address,uint256,bytes,bytes,bytes32,uint256,bytes32,bytes,bytes))": "bbe5dc4f",
			"initialize(address,address,address,address)": "f8c8765e",
			"isValidSignature(bytes32,bytes)": "1626ba7e",
			"onERC1155BatchReceived(address,address,uint256[],uint256[],bytes)": "bc197c81",
			"onERC1155Received(address,address,uint256,uint256,bytes)": "f23a6e61",
			"onERC20Deposit(address,uint256)": "09915422",
			"onERC20Withdraw(address,uint256)": "92b68755",
			"onERC721Received(address,address,uint256,bytes)": "150b7a02",
			"simulate(address,bytes)": "bd61951d",
			"supportsInterface(bytes4)": "01ffc9a7",
			"tokensReceived(address,address,address,uint256,bytes,bytes)": "0023de29",
			"validateUserOp((address,uint256,bytes,bytes,bytes32,uint256,bytes32,bytes,bytes),bytes32,uint256)": "19822f7c",
			"withdrawNative(uint256)": "84276d81"
		}
	},
	"abi": [
		{
			"inputs": [],
			"name": "ExecutionFailed",
			"type": "error"
		},
		{
			"inputs": [],
			"name": "InvalidCaller",
			"type": "error"
		},
		{
			"inputs": [],
			"name": "InvalidEntryPoint",
			"type": "error"
		},
		{
			"inputs": [],
			"name": "InvalidInitialization",
			"type": "error"
		},
		{
			"inputs": [],
			"name": "InvalidSignature",
			"type": "error"
		},
		{
			"inputs": [],
			"name": "ManagerValidationFailed",
			"type": "error"
		},
		{
			"inputs": [],
			"name": "NotInitializing",
			"type": "error"
		},
		{
			"inputs": [],
			"name": "NotPrimarySafe",
			"type": "error"
		},
		{
			"inputs": [],
			"name": "UnsupportedEntryPoint",
			"type": "error"
		},
		{
			"inputs": [
				{
					"internalType": "bytes4",
					"name": "selector",
					"type": "bytes4"
				}
			],
			"name": "UnsupportedExecutionFunction",
			"type": "error"
		},
		{
			"inputs": [],
			"name": "WithdrawNativeFailed",
			"type": "error"
		},
		{
			"anonymous": false,
			"inputs": [
				{
					"indexed": false,
					"internalType": "uint64",
					"name": "version",
					"type": "uint64"
				}
			],
			"name": "Initialized",
			"type": "event"
		},
		{
			"anonymous": false,
			"inputs": [
				{
					"indexed": true,
					"internalType": "address",
					"name": "token",
					"type": "address"
				},
				{
					"indexed": true,
					"internalType": "uint256",
					"name": "amount",
					"type": "uint256"
				}
			],
			"name": "OnERC20Deposit",
			"type": "event"
		},
		{
			"anonymous": false,
			"inputs": [
				{
					"indexed": true,
					"internalType": "address",
					"name": "token",
					"type": "address"
				},
				{
					"indexed": true,
					"internalType": "uint256",
					"name": "amount",
					"type": "uint256"
				}
			],
			"name": "OnERC20Withdraw",
			"type": "event"
		},
		{
			"anonymous": false,
			"inputs": [
				{
					"indexed": true,
					"internalType": "address",
					"name": "safe",
					"type": "address"
				},
				{
					"indexed": true,
					"internalType": "address",
					"name": "primarySafe",
					"type": "address"
				},
				{
					"indexed": true,
					"internalType": "address",
					"name": "manager",
					"type": "address"
				}
			],
			"name": "SubAgentModuleSetup",
			"type": "event"
		},
		{
			"anonymous": false,
			"inputs": [
				{
					"indexed": true,
					"internalType": "uint256",
					"name": "amount",
					"type": "uint256"
				}
			],
			"name": "WithdrewNative",
			"type": "event"
		},
		{
			"inputs": [],
			"name": "HYPT_FACTORY",
			"outputs": [
				{
					"internalType": "address",
					"name": "",
					"type": "address"
				}
			],
			"stateMutability": "view",
			"type": "function"
		},
		{
			"inputs": [],
			"name": "MANAGER_MODULE",
			"outputs": [
				{
					"internalType": "contract SubAgentManagerModule",
					"name": "",
					"type": "address"
				}
			],
			"stateMutability": "view",
			"type": "function"
		},
		{
			"inputs": [],
			"name": "NAME",
			"outputs": [
				{
					"internalType": "string",
					"name": "",
					"type": "string"
				}
			],
			"stateMutability": "view",
			"type": "function"
		},
		{
			"inputs": [],
			"name": "PRIMARY_SAFE",
			"outputs": [
				{
					"internalType": "address",
					"name": "",
					"type": "address"
				}
			],
			"stateMutability": "view",
			"type": "function"
		},
		{
			"inputs": [],
			"name": "SAFE",
			"outputs": [
				{
					"internalType": "address",
					"name": "",
					"type": "address"
				}
			],
			"stateMutability": "view",
			"type": "function"
		},
		{
			"inputs": [],
			"name": "SUPPORTED_ENTRYPOINT",
			"outputs": [
				{
					"internalType": "address",
					"name": "",
					"type": "address"
				}
			],
			"stateMutability": "view",
			"type": "function"
		},
		{
			"inputs": [],
			"name": "VERSION",
			"outputs": [
				{
					"internalType": "string",
					"name": "",
					"type": "string"
				}
			],
			"stateMutability": "view",
			"type": "function"
		},
		{
			"inputs": [],
			"name": "domainSeparator",
			"outputs": [
				{
					"internalType": "bytes32",
					"name": "domainSeparatorHash",
					"type": "bytes32"
				}
			],
			"stateMutability": "view",
			"type": "function"
		},
		{
			"inputs": [
				{
					"internalType": "contract ISafe",
					"name": "safe",
					"type": "address"
				},
				{
					"internalType": "bytes",
					"name": "message",
					"type": "bytes"
				}
			],
			"name": "encodeMessageDataForSafe",
			"outputs": [
				{
					"internalType": "bytes",
					"name": "",
					"type": "bytes"
				}
			],
			"stateMutability": "view",
			"type": "function"
		},
		{
			"inputs": [
				{
					"internalType": "address",
					"name": "to",
					"type": "address"
				},
				{
					"internalType": "uint256",
					"name": "value",
					"type": "uint256"
				},
				{
					"internalType": "bytes",
					"name": "data",
					"type": "bytes"
				},
				{
					"internalType": "enum Enum.Operation",
					"name": "operation",
					"type": "uint8"
				},
				{
					"internalType": "uint256",
					"name": "safeTxGas",
					"type": "uint256"
				},
				{
					"internalType": "uint256",
					"name": "baseGas",
					"type": "uint256"
				},
				{
					"internalType": "uint256",
					"name": "gasPrice",
					"type": "uint256"
				},
				{
					"internalType": "address",
					"name": "gasToken",
					"type": "address"
				},
				{
					"internalType": "address",
					"name": "refundReceiver",
					"type": "address"
				},
				{
					"internalType": "uint256",
					"name": "nonce",
					"type": "uint256"
				}
			],
			"name": "encodeTransactionData",
			"outputs": [
				{
					"internalType": "bytes",
					"name": "",
					"type": "bytes"
				}
			],
			"stateMutability": "view",
			"type": "function"
		},
		{
			"inputs": [
				{
					"internalType": "address",
					"name": "to",
					"type": "address"
				},
				{
					"internalType": "uint256",
					"name": "value",
					"type": "uint256"
				},
				{
					"internalType": "bytes",
					"name": "data",
					"type": "bytes"
				},
				{
					"internalType": "uint8",
					"name": "operation",
					"type": "uint8"
				}
			],
			"name": "executeUserOp",
			"outputs": [],
			"stateMutability": "nonpayable",
			"type": "function"
		},
		{
			"inputs": [
				{
					"internalType": "address",
					"name": "to",
					"type": "address"
				},
				{
					"internalType": "uint256",
					"name": "value",
					"type": "uint256"
				},
				{
					"internalType": "bytes",
					"name": "data",
					"type": "bytes"
				},
				{
					"internalType": "uint8",
					"name": "operation",
					"type": "uint8"
				}
			],
			"name": "executeUserOpWithErrorString",
			"outputs": [],
			"stateMutability": "nonpayable",
			"type": "function"
		},
		{
			"inputs": [
				{
					"internalType": "bytes",
					"name": "message",
					"type": "bytes"
				}
			],
			"name": "getMessageHash",
			"outputs": [
				{
					"internalType": "bytes32",
					"name": "",
					"type": "bytes32"
				}
			],
			"stateMutability": "view",
			"type": "function"
		},
		{
			"inputs": [
				{
					"internalType": "contract ISafe",
					"name": "safe",
					"type": "address"
				},
				{
					"internalType": "bytes",
					"name": "message",
					"type": "bytes"
				}
			],
			"name": "getMessageHashForSafe",
			"outputs": [
				{
					"internalType": "bytes32",
					"name": "",
					"type": "bytes32"
				}
			],
			"stateMutability": "view",
			"type": "function"
		},
		{
			"inputs": [],
			"name": "getModules",
			"outputs": [
				{
					"internalType": "address[]",
					"name": "",
					"type": "address[]"
				}
			],
			"stateMutability": "view",
			"type": "function"
		},
		{
			"inputs": [
				{
					"components": [
						{
							"internalType": "address",
							"name": "sender",
							"type": "address"
						},
						{
							"internalType": "uint256",
							"name": "nonce",
							"type": "uint256"
						},
						{
							"internalType": "bytes",
							"name": "initCode",
							"type": "bytes"
						},
						{
							"internalType": "bytes",
							"name": "callData",
							"type": "bytes"
						},
						{
							"internalType": "bytes32",
							"name": "accountGasLimits",
							"type": "bytes32"
						},
						{
							"internalType": "uint256",
							"name": "preVerificationGas",
							"type": "uint256"
						},
						{
							"internalType": "bytes32",
							"name": "gasFees",
							"type": "bytes32"
						},
						{
							"internalType": "bytes",
							"name": "paymasterAndData",
							"type": "bytes"
						},
						{
							"internalType": "bytes",
							"name": "signature",
							"type": "bytes"
						}
					],
					"internalType": "struct PackedUserOperation",
					"name": "userOp",
					"type": "tuple"
				}
			],
			"name": "getOperationHash",
			"outputs": [
				{
					"internalType": "bytes32",
					"name": "operationHash",
					"type": "bytes32"
				}
			],
			"stateMutability": "view",
			"type": "function"
		},
		{
			"inputs": [
				{
					"internalType": "address",
					"name": "_entryPoint",
					"type": "address"
				},
				{
					"internalType": "address",
					"name": "_safe",
					"type": "address"
				},
				{
					"internalType": "address",
					"name": "_primarySafe",
					"type": "address"
				},
				{
					"internalType": "address",
					"name": "_manager",
					"type": "address"
				}
			],
			"name": "initialize",
			"outputs": [],
			"stateMutability": "nonpayable",
			"type": "function"
		},
		{
			"inputs": [
				{
					"internalType": "bytes32",
					"name": "_dataHash",
					"type": "bytes32"
				},
				{
					"internalType": "bytes",
					"name": "_signature",
					"type": "bytes"
				}
			],
			"name": "isValidSignature",
			"outputs": [
				{
					"internalType": "bytes4",
					"name": "",
					"type": "bytes4"
				}
			],
			"stateMutability": "view",
			"type": "function"
		},
		{
			"inputs": [
				{
					"internalType": "address",
					"name": "",
					"type": "address"
				},
				{
					"internalType": "address",
					"name": "",
					"type": "address"
				},
				{
					"internalType": "uint256[]",
					"name": "",
					"type": "uint256[]"
				},
				{
					"internalType": "uint256[]",
					"name": "",
					"type": "uint256[]"
				},
				{
					"internalType": "bytes",
					"name": "",
					"type": "bytes"
				}
			],
			"name": "onERC1155BatchReceived",
			"outputs": [
				{
					"internalType": "bytes4",
					"name": "",
					"type": "bytes4"
				}
			],
			"stateMutability": "view",
			"type": "function"
		},
		{
			"inputs": [
				{
					"internalType": "address",
					"name": "",
					"type": "address"
				},
				{
					"internalType": "address",
					"name": "",
					"type": "address"
				},
				{
					"internalType": "uint256",
					"name": "",
					"type": "uint256"
				},
				{
					"internalType": "uint256",
					"name": "",
					"type": "uint256"
				},
				{
					"internalType": "bytes",
					"name": "",
					"type": "bytes"
				}
			],
			"name": "onERC1155Received",
			"outputs": [
				{
					"internalType": "bytes4",
					"name": "",
					"type": "bytes4"
				}
			],
			"stateMutability": "view",
			"type": "function"
		},
		{
			"inputs": [
				{
					"internalType": "address",
					"name": "token",
					"type": "address"
				},
				{
					"internalType": "uint256",
					"name": "amount",
					"type": "uint256"
				}
			],
			"name": "onERC20Deposit",
			"outputs": [],
			"stateMutability": "nonpayable",
			"type": "function"
		},
		{
			"inputs": [
				{
					"internalType": "address",
					"name": "token",
					"type": "address"
				},
				{
					"internalType": "uint256",
					"name": "amount",
					"type": "uint256"
				}
			],
			"name": "onERC20Withdraw",
			"outputs": [],
			"stateMutability": "nonpayable",
			"type": "function"
		},
		{
			"inputs": [
				{
					"internalType": "address",
					"name": "",
					"type": "address"
				},
				{
					"internalType": "address",
					"name": "",
					"type": "address"
				},
				{
					"internalType": "uint256",
					"name": "",
					"type": "uint256"
				},
				{
					"internalType": "bytes",
					"name": "",
					"type": "bytes"
				}
			],
			"name": "onERC721Received",
			"outputs": [
				{
					"internalType": "bytes4",
					"name": "",
					"type": "bytes4"
				}
			],
			"stateMutability": "view",
			"type": "function"
		},
		{
			"inputs": [
				{
					"internalType": "address",
					"name": "targetContract",
					"type": "address"
				},
				{
					"internalType": "bytes",
					"name": "calldataPayload",
					"type": "bytes"
				}
			],
			"name": "simulate",
			"outputs": [
				{
					"internalType": "bytes",
					"name": "response",
					"type": "bytes"
				}
			],
			"stateMutability": "nonpayable",
			"type": "function"
		},
		{
			"inputs": [
				{
					"internalType": "bytes4",
					"name": "interfaceId",
					"type": "bytes4"
				}
			],
			"name": "supportsInterface",
			"outputs": [
				{
					"internalType": "bool",
					"name": "",
					"type": "bool"
				}
			],
			"stateMutability": "view",
			"type": "function"
		},
		{
			"inputs": [
				{
					"internalType": "address",
					"name": "",
					"type": "address"
				},
				{
					"internalType": "address",
					"name": "",
					"type": "address"
				},
				{
					"internalType": "address",
					"name": "",
					"type": "address"
				},
				{
					"internalType": "uint256",
					"name": "",
					"type": "uint256"
				},
				{
					"internalType": "bytes",
					"name": "",
					"type": "bytes"
				},
				{
					"internalType": "bytes",
					"name": "",
					"type": "bytes"
				}
			],
			"name": "tokensReceived",
			"outputs": [],
			"stateMutability": "pure",
			"type": "function"
		},
		{
			"inputs": [
				{
					"components": [
						{
							"internalType": "address",
							"name": "sender",
							"type": "address"
						},
						{
							"internalType": "uint256",
							"name": "nonce",
							"type": "uint256"
						},
						{
							"internalType": "bytes",
							"name": "initCode",
							"type": "bytes"
						},
						{
							"internalType": "bytes",
							"name": "callData",
							"type": "bytes"
						},
						{
							"internalType": "bytes32",
							"name": "accountGasLimits",
							"type": "bytes32"
						},
						{
							"internalType": "uint256",
							"name": "preVerificationGas",
							"type": "uint256"
						},
						{
							"internalType": "bytes32",
							"name": "gasFees",
							"type": "bytes32"
						},
						{
							"internalType": "bytes",
							"name": "paymasterAndData",
							"type": "bytes"
						},
						{
							"internalType": "bytes",
							"name": "signature",
							"type": "bytes"
						}
					],
					"internalType": "struct PackedUserOperation",
					"name": "userOp",
					"type": "tuple"
				},
				{
					"internalType": "bytes32",
					"name": "",
					"type": "bytes32"
				},
				{
					"internalType": "uint256",
					"name": "missingAccountFunds",
					"type": "uint256"
				}
			],
			"name": "validateUserOp",
			"outputs": [
				{
					"internalType": "uint256",
					"name": "validationData",
					"type": "uint256"
				}
			],
			"stateMutability": "nonpayable",
			"type": "function"
		},
		{
			"inputs": [
				{
					"internalType": "uint256",
					"name": "amount",
					"type": "uint256"
				}
			],
			"name": "withdrawNative",
			"outputs": [],
			"stateMutability": "nonpayable",
			"type": "function"
		}
	]
}